{
	"contracts/simple.sol": {
		"counter": {
			"abi": [
				{
					"inputs": [],
					"stateMutability": "nonpayable",
					"type": "constructor"
				},
				{
					"anonymous": false,
					"inputs": [
						{
							"indexed": false,
							"internalType": "string",
							"name": "",
							"type": "string"
						},
						{
							"indexed": false,
							"internalType": "uint256",
							"name": "",
							"type": "uint256"
						}
					],
					"name": "countUpdated",
					"type": "event"
				},
				{
					"anonymous": false,
					"inputs": [
						{
							"indexed": false,
							"internalType": "address",
							"name": "",
							"type": "address"
						},
						{
							"indexed": false,
							"internalType": "uint256",
							"name": "",
							"type": "uint256"
						}
					],
					"name": "transferCalled",
					"type": "event"
				},
				{
					"inputs": [],
					"name": "contractBalance",
					"outputs": [
						{
							"internalType": "uint256",
							"name": "",
							"type": "uint256"
						}
					],
					"stateMutability": "view",
					"type": "function"
				},
				{
					"inputs": [],
					"name": "count",
					"outputs": [
						{
							"internalType": "uint256",
							"name": "",
							"type": "uint256"
						}
					],
					"stateMutability": "view",
					"type": "function"
				},
				{
					"inputs": [],
					"name": "decrementcount",
					"outputs": [
						{
							"internalType": "uint256",
							"name": "",
							"type": "uint256"
						}
					],
					"stateMutability": "nonpayable",
					"type": "function"
				},
				{
					"inputs": [],
					"name": "deposit",
					"outputs": [],
					"stateMutability": "payable",
					"type": "function"
				},
				{
					"inputs": [],
					"name": "displayamount",
					"outputs": [
						{
							"internalType": "uint256",
							"name": "",
							"type": "uint256"
						}
					],
					"stateMutability": "payable",
					"type": "function"
				},
				{
					"inputs": [],
					"name": "incrementcount",
					"outputs": [
						{
							"internalType": "uint256",
							"name": "",
							"type": "uint256"
						}
					],
					"stateMutability": "nonpayable",
					"type": "function"
				},
				{
					"inputs": [],
					"name": "money",
					"outputs": [
						{
							"internalType": "uint256",
							"name": "",
							"type": "uint256"
						}
					],
					"stateMutability": "view",
					"type": "function"
				},
				{
					"inputs": [],
					"name": "name",
					"outputs": [
						{
							"internalType": "string",
							"name": "",
							"type": "string"
						}
					],
					"stateMutability": "view",
					"type": "function"
				},
				{
					"inputs": [
						{
							"internalType": "uint256",
							"name": "_count",
							"type": "uint256"
						}
					],
					"name": "setcount",
					"outputs": [],
					"stateMutability": "nonpayable",
					"type": "function"
				},
				{
					"inputs": [
						{
							"internalType": "address payable",
							"name": "_to",
							"type": "address"
						}
					],
					"name": "transfer",
					"outputs": [],
					"stateMutability": "payable",
					"type": "function"
				}
			],
			"devdoc": {
				"kind": "dev",
				"methods": {},
				"version": 1
			},
			"evm": {
				"assembly": "    /* \"contracts/simple.sol\":61:1088  contract counter{... */\n  mstore(0x40, 0x80)\n    /* \"contracts/simple.sol\":282:372  constructor(){... */\n  callvalue\n  dup1\n  iszero\n  tag_1\n  jumpi\n  0x00\n  dup1\n  revert\ntag_1:\n  pop\n    /* \"contracts/simple.sol\":313:316  156 */\n  0x9c\n    /* \"contracts/simple.sol\":305:310  count */\n  0x00\n    /* \"contracts/simple.sol\":305:316  count = 156 */\n  dup2\n  swap1\n  sstore\n  pop\n    /* \"contracts/simple.sol\":334:338  1000 */\n  0x03e8\n    /* \"contracts/simple.sol\":326:331  money */\n  0x01\n    /* \"contracts/simple.sol\":326:338  money = 1000 */\n  dup2\n  swap1\n  sstore\n  pop\n    /* \"contracts/simple.sol\":348:365  name = 'saikiran' */\n  mload(0x40)\n  dup1\n  0x40\n  add\n  0x40\n  mstore\n  dup1\n  0x08\n  dup2\n  mstore\n  0x20\n  add\n  0x7361696b6972616e000000000000000000000000000000000000000000000000\n  dup2\n  mstore\n  pop\n    /* \"contracts/simple.sol\":348:352  name */\n  0x02\n    /* \"contracts/simple.sol\":348:365  name = 'saikiran' */\n  swap1\n  dup2\n  tag_4\n  swap2\n  swap1\n  tag_5\n  jump\t// in\ntag_4:\n  pop\n    /* \"contracts/simple.sol\":61:1088  contract counter{... */\n  jump(tag_6)\n    /* \"#utility.yul\":7:106   */\ntag_7:\n    /* \"#utility.yul\":59:65   */\n  0x00\n    /* \"#utility.yul\":93:98   */\n  dup2\n    /* \"#utility.yul\":87:99   */\n  mload\n    /* \"#utility.yul\":77:99   */\n  swap1\n  pop\n    /* \"#utility.yul\":7:106   */\n  swap2\n  swap1\n  pop\n  jump\t// out\n    /* \"#utility.yul\":112:292   */\ntag_8:\n    /* \"#utility.yul\":160:237   */\n  0x4e487b7100000000000000000000000000000000000000000000000000000000\n    /* \"#utility.yul\":157:158   */\n  0x00\n    /* \"#utility.yul\":150:238   */\n  mstore\n    /* \"#utility.yul\":257:261   */\n  0x41\n    /* \"#utility.yul\":254:255   */\n  0x04\n    /* \"#utility.yul\":247:262   */\n  mstore\n    /* \"#utility.yul\":281:285   */\n  0x24\n    /* \"#utility.yul\":278:279   */\n  0x00\n    /* \"#utility.yul\":271:286   */\n  revert\n    /* \"#utility.yul\":298:478   */\ntag_9:\n    /* \"#utility.yul\":346:423   */\n  0x4e487b7100000000000000000000000000000000000000000000000000000000\n    /* \"#utility.yul\":343:344   */\n  0x00\n    /* \"#utility.yul\":336:424   */\n  mstore\n    /* \"#utility.yul\":443:447   */\n  0x22\n    /* \"#utility.yul\":440:441   */\n  0x04\n    /* \"#utility.yul\":433:448   */\n  mstore\n    /* \"#utility.yul\":467:471   */\n  0x24\n    /* \"#utility.yul\":464:465   */\n  0x00\n    /* \"#utility.yul\":457:472   */\n  revert\n    /* \"#utility.yul\":484:804   */\ntag_10:\n    /* \"#utility.yul\":528:534   */\n  0x00\n    /* \"#utility.yul\":565:566   */\n  0x02\n    /* \"#utility.yul\":559:563   */\n  dup3\n    /* \"#utility.yul\":555:567   */\n  div\n    /* \"#utility.yul\":545:567   */\n  swap1\n  pop\n    /* \"#utility.yul\":612:613   */\n  0x01\n    /* \"#utility.yul\":606:610   */\n  dup3\n    /* \"#utility.yul\":602:614   */\n  and\n    /* \"#utility.yul\":633:651   */\n  dup1\n    /* \"#utility.yul\":623:704   */\n  tag_32\n  jumpi\n    /* \"#utility.yul\":689:693   */\n  0x7f\n    /* \"#utility.yul\":681:687   */\n  dup3\n    /* \"#utility.yul\":677:694   */\n  and\n    /* \"#utility.yul\":667:694   */\n  swap2\n  pop\n    /* \"#utility.yul\":623:704   */\ntag_32:\n    /* \"#utility.yul\":751:753   */\n  0x20\n    /* \"#utility.yul\":743:749   */\n  dup3\n    /* \"#utility.yul\":740:754   */\n  lt\n    /* \"#utility.yul\":720:738   */\n  dup2\n    /* \"#utility.yul\":717:755   */\n  sub\n    /* \"#utility.yul\":714:798   */\n  tag_33\n  jumpi\n    /* \"#utility.yul\":770:788   */\n  tag_34\n  tag_9\n  jump\t// in\ntag_34:\n    /* \"#utility.yul\":714:798   */\ntag_33:\n    /* \"#utility.yul\":535:804   */\n  pop\n    /* \"#utility.yul\":484:804   */\n  swap2\n  swap1\n  pop\n  jump\t// out\n    /* \"#utility.yul\":810:951   */\ntag_11:\n    /* \"#utility.yul\":859:863   */\n  0x00\n    /* \"#utility.yul\":882:885   */\n  dup2\n    /* \"#utility.yul\":874:885   */\n  swap1\n  pop\n    /* \"#utility.yul\":905:908   */\n  dup2\n    /* \"#utility.yul\":902:903   */\n  0x00\n    /* \"#utility.yul\":895:909   */\n  mstore\n    /* \"#utility.yul\":939:943   */\n  0x20\n    /* \"#utility.yul\":936:937   */\n  0x00\n    /* \"#utility.yul\":926:944   */\n  keccak256\n    /* \"#utility.yul\":918:944   */\n  swap1\n  pop\n    /* \"#utility.yul\":810:951   */\n  swap2\n  swap1\n  pop\n  jump\t// out\n    /* \"#utility.yul\":957:1050   */\ntag_12:\n    /* \"#utility.yul\":994:1000   */\n  0x00\n    /* \"#utility.yul\":1041:1043   */\n  0x20\n    /* \"#utility.yul\":1036:1038   */\n  0x1f\n    /* \"#utility.yul\":1029:1034   */\n  dup4\n    /* \"#utility.yul\":1025:1039   */\n  add\n    /* \"#utility.yul\":1021:1044   */\n  div\n    /* \"#utility.yul\":1011:1044   */\n  swap1\n  pop\n    /* \"#utility.yul\":957:1050   */\n  swap2\n  swap1\n  pop\n  jump\t// out\n    /* \"#utility.yul\":1056:1163   */\ntag_13:\n    /* \"#utility.yul\":1100:1108   */\n  0x00\n    /* \"#utility.yul\":1150:1155   */\n  dup3\n    /* \"#utility.yul\":1144:1148   */\n  dup3\n    /* \"#utility.yul\":1140:1156   */\n  shl\n    /* \"#utility.yul\":1119:1156   */\n  swap1\n  pop\n    /* \"#utility.yul\":1056:1163   */\n  swap3\n  swap2\n  pop\n  pop\n  jump\t// out\n    /* \"#utility.yul\":1169:1562   */\ntag_14:\n    /* \"#utility.yul\":1238:1244   */\n  0x00\n    /* \"#utility.yul\":1288:1289   */\n  0x08\n    /* \"#utility.yul\":1276:1286   */\n  dup4\n    /* \"#utility.yul\":1272:1290   */\n  mul\n    /* \"#utility.yul\":1311:1408   */\n  tag_39\n    /* \"#utility.yul\":1341:1407   */\n  0xffffffffffffffffffffffffffffffffffffffffffffffffffffffffffffffff\n    /* \"#utility.yul\":1330:1339   */\n  dup3\n    /* \"#utility.yul\":1311:1408   */\n  tag_13\n  jump\t// in\ntag_39:\n    /* \"#utility.yul\":1429:1468   */\n  tag_40\n    /* \"#utility.yul\":1459:1467   */\n  dup7\n    /* \"#utility.yul\":1448:1457   */\n  dup4\n    /* \"#utility.yul\":1429:1468   */\n  tag_13\n  jump\t// in\ntag_40:\n    /* \"#utility.yul\":1417:1468   */\n  swap6\n  pop\n    /* \"#utility.yul\":1501:1505   */\n  dup1\n    /* \"#utility.yul\":1497:1506   */\n  not\n    /* \"#utility.yul\":1490:1495   */\n  dup5\n    /* \"#utility.yul\":1486:1507   */\n  and\n    /* \"#utility.yul\":1477:1507   */\n  swap4\n  pop\n    /* \"#utility.yul\":1550:1554   */\n  dup1\n    /* \"#utility.yul\":1540:1548   */\n  dup7\n    /* \"#utility.yul\":1536:1555   */\n  and\n    /* \"#utility.yul\":1529:1534   */\n  dup5\n    /* \"#utility.yul\":1526:1556   */\n  or\n    /* \"#utility.yul\":1516:1556   */\n  swap3\n  pop\n    /* \"#utility.yul\":1245:1562   */\n  pop\n  pop\n    /* \"#utility.yul\":1169:1562   */\n  swap4\n  swap3\n  pop\n  pop\n  pop\n  jump\t// out\n    /* \"#utility.yul\":1568:1645   */\ntag_15:\n    /* \"#utility.yul\":1605:1612   */\n  0x00\n    /* \"#utility.yul\":1634:1639   */\n  dup2\n    /* \"#utility.yul\":1623:1639   */\n  swap1\n  pop\n    /* \"#utility.yul\":1568:1645   */\n  swap2\n  swap1\n  pop\n  jump\t// out\n    /* \"#utility.yul\":1651:1711   */\ntag_16:\n    /* \"#utility.yul\":1679:1682   */\n  0x00\n    /* \"#utility.yul\":1700:1705   */\n  dup2\n    /* \"#utility.yul\":1693:1705   */\n  swap1\n  pop\n    /* \"#utility.yul\":1651:1711   */\n  swap2\n  swap1\n  pop\n  jump\t// out\n    /* \"#utility.yul\":1717:1859   */\ntag_17:\n    /* \"#utility.yul\":1767:1776   */\n  0x00\n    /* \"#utility.yul\":1800:1853   */\n  tag_44\n    /* \"#utility.yul\":1818:1852   */\n  tag_45\n    /* \"#utility.yul\":1827:1851   */\n  tag_46\n    /* \"#utility.yul\":1845:1850   */\n  dup5\n    /* \"#utility.yul\":1827:1851   */\n  tag_15\n  jump\t// in\ntag_46:\n    /* \"#utility.yul\":1818:1852   */\n  tag_16\n  jump\t// in\ntag_45:\n    /* \"#utility.yul\":1800:1853   */\n  tag_15\n  jump\t// in\ntag_44:\n    /* \"#utility.yul\":1787:1853   */\n  swap1\n  pop\n    /* \"#utility.yul\":1717:1859   */\n  swap2\n  swap1\n  pop\n  jump\t// out\n    /* \"#utility.yul\":1865:1940   */\ntag_18:\n    /* \"#utility.yul\":1908:1911   */\n  0x00\n    /* \"#utility.yul\":1929:1934   */\n  dup2\n    /* \"#utility.yul\":1922:1934   */\n  swap1\n  pop\n    /* \"#utility.yul\":1865:1940   */\n  swap2\n  swap1\n  pop\n  jump\t// out\n    /* \"#utility.yul\":1946:2215   */\ntag_19:\n    /* \"#utility.yul\":2056:2095   */\n  tag_49\n    /* \"#utility.yul\":2087:2094   */\n  dup4\n    /* \"#utility.yul\":2056:2095   */\n  tag_17\n  jump\t// in\ntag_49:\n    /* \"#utility.yul\":2117:2208   */\n  tag_50\n    /* \"#utility.yul\":2166:2207   */\n  tag_51\n    /* \"#utility.yul\":2190:2206   */\n  dup3\n    /* \"#utility.yul\":2166:2207   */\n  tag_18\n  jump\t// in\ntag_51:\n    /* \"#utility.yul\":2158:2164   */\n  dup5\n    /* \"#utility.yul\":2151:2155   */\n  dup5\n    /* \"#utility.yul\":2145:2156   */\n  sload\n    /* \"#utility.yul\":2117:2208   */\n  tag_14\n  jump\t// in\ntag_50:\n    /* \"#utility.yul\":2111:2115   */\n  dup3\n    /* \"#utility.yul\":2104:2209   */\n  sstore\n    /* \"#utility.yul\":2022:2215   */\n  pop\n    /* \"#utility.yul\":1946:2215   */\n  pop\n  pop\n  pop\n  jump\t// out\n    /* \"#utility.yul\":2221:2294   */\ntag_20:\n    /* \"#utility.yul\":2266:2269   */\n  0x00\n    /* \"#utility.yul\":2221:2294   */\n  swap1\n  jump\t// out\n    /* \"#utility.yul\":2300:2489   */\ntag_21:\n    /* \"#utility.yul\":2377:2409   */\n  tag_54\n  tag_20\n  jump\t// in\ntag_54:\n    /* \"#utility.yul\":2418:2483   */\n  tag_55\n    /* \"#utility.yul\":2476:2482   */\n  dup2\n    /* \"#utility.yul\":2468:2474   */\n  dup5\n    /* \"#utility.yul\":2462:2466   */\n  dup5\n    /* \"#utility.yul\":2418:2483   */\n  tag_19\n  jump\t// in\ntag_55:\n    /* \"#utility.yul\":2353:2489   */\n  pop\n    /* \"#utility.yul\":2300:2489   */\n  pop\n  pop\n  jump\t// out\n    /* \"#utility.yul\":2495:2681   */\ntag_22:\n    /* \"#utility.yul\":2555:2675   */\ntag_57:\n    /* \"#utility.yul\":2572:2575   */\n  dup2\n    /* \"#utility.yul\":2565:2570   */\n  dup2\n    /* \"#utility.yul\":2562:2576   */\n  lt\n    /* \"#utility.yul\":2555:2675   */\n  iszero\n  tag_59\n  jumpi\n    /* \"#utility.yul\":2626:2665   */\n  tag_60\n    /* \"#utility.yul\":2663:2664   */\n  0x00\n    /* \"#utility.yul\":2656:2661   */\n  dup3\n    /* \"#utility.yul\":2626:2665   */\n  tag_21\n  jump\t// in\ntag_60:\n    /* \"#utility.yul\":2599:2600   */\n  0x01\n    /* \"#utility.yul\":2592:2597   */\n  dup2\n    /* \"#utility.yul\":2588:2601   */\n  add\n    /* \"#utility.yul\":2579:2601   */\n  swap1\n  pop\n    /* \"#utility.yul\":2555:2675   */\n  jump(tag_57)\ntag_59:\n    /* \"#utility.yul\":2495:2681   */\n  pop\n  pop\n  jump\t// out\n    /* \"#utility.yul\":2687:3230   */\ntag_23:\n    /* \"#utility.yul\":2788:2790   */\n  0x1f\n    /* \"#utility.yul\":2783:2786   */\n  dup3\n    /* \"#utility.yul\":2780:2791   */\n  gt\n    /* \"#utility.yul\":2777:3223   */\n  iszero\n  tag_62\n  jumpi\n    /* \"#utility.yul\":2822:2860   */\n  tag_63\n    /* \"#utility.yul\":2854:2859   */\n  dup2\n    /* \"#utility.yul\":2822:2860   */\n  tag_11\n  jump\t// in\ntag_63:\n    /* \"#utility.yul\":2906:2935   */\n  tag_64\n    /* \"#utility.yul\":2924:2934   */\n  dup5\n    /* \"#utility.yul\":2906:2935   */\n  tag_12\n  jump\t// in\ntag_64:\n    /* \"#utility.yul\":2896:2904   */\n  dup2\n    /* \"#utility.yul\":2892:2936   */\n  add\n    /* \"#utility.yul\":3089:3091   */\n  0x20\n    /* \"#utility.yul\":3077:3087   */\n  dup6\n    /* \"#utility.yul\":3074:3092   */\n  lt\n    /* \"#utility.yul\":3071:3120   */\n  iszero\n  tag_65\n  jumpi\n    /* \"#utility.yul\":3110:3118   */\n  dup2\n    /* \"#utility.yul\":3095:3118   */\n  swap1\n  pop\n    /* \"#utility.yul\":3071:3120   */\ntag_65:\n    /* \"#utility.yul\":3133:3213   */\n  tag_66\n    /* \"#utility.yul\":3189:3211   */\n  tag_67\n    /* \"#utility.yul\":3207:3210   */\n  dup6\n    /* \"#utility.yul\":3189:3211   */\n  tag_12\n  jump\t// in\ntag_67:\n    /* \"#utility.yul\":3179:3187   */\n  dup4\n    /* \"#utility.yul\":3175:3212   */\n  add\n    /* \"#utility.yul\":3162:3173   */\n  dup3\n    /* \"#utility.yul\":3133:3213   */\n  tag_22\n  jump\t// in\ntag_66:\n    /* \"#utility.yul\":2792:3223   */\n  pop\n  pop\n    /* \"#utility.yul\":2777:3223   */\ntag_62:\n    /* \"#utility.yul\":2687:3230   */\n  pop\n  pop\n  pop\n  jump\t// out\n    /* \"#utility.yul\":3236:3353   */\ntag_24:\n    /* \"#utility.yul\":3290:3298   */\n  0x00\n    /* \"#utility.yul\":3340:3345   */\n  dup3\n    /* \"#utility.yul\":3334:3338   */\n  dup3\n    /* \"#utility.yul\":3330:3346   */\n  shr\n    /* \"#utility.yul\":3309:3346   */\n  swap1\n  pop\n    /* \"#utility.yul\":3236:3353   */\n  swap3\n  swap2\n  pop\n  pop\n  jump\t// out\n    /* \"#utility.yul\":3359:3528   */\ntag_25:\n    /* \"#utility.yul\":3403:3409   */\n  0x00\n    /* \"#utility.yul\":3436:3487   */\n  tag_70\n    /* \"#utility.yul\":3484:3485   */\n  0x00\n    /* \"#utility.yul\":3480:3486   */\n  not\n    /* \"#utility.yul\":3472:3477   */\n  dup5\n    /* \"#utility.yul\":3469:3470   */\n  0x08\n    /* \"#utility.yul\":3465:3478   */\n  mul\n    /* \"#utility.yul\":3436:3487   */\n  tag_24\n  jump\t// in\ntag_70:\n    /* \"#utility.yul\":3432:3488   */\n  not\n    /* \"#utility.yul\":3517:3521   */\n  dup1\n    /* \"#utility.yul\":3511:3515   */\n  dup4\n    /* \"#utility.yul\":3507:3522   */\n  and\n    /* \"#utility.yul\":3497:3522   */\n  swap2\n  pop\n    /* \"#utility.yul\":3410:3528   */\n  pop\n    /* \"#utility.yul\":3359:3528   */\n  swap3\n  swap2\n  pop\n  pop\n  jump\t// out\n    /* \"#utility.yul\":3533:3828   */\ntag_26:\n    /* \"#utility.yul\":3609:3613   */\n  0x00\n    /* \"#utility.yul\":3755:3784   */\n  tag_72\n    /* \"#utility.yul\":3780:3783   */\n  dup4\n    /* \"#utility.yul\":3774:3778   */\n  dup4\n    /* \"#utility.yul\":3755:3784   */\n  tag_25\n  jump\t// in\ntag_72:\n    /* \"#utility.yul\":3747:3784   */\n  swap2\n  pop\n    /* \"#utility.yul\":3817:3820   */\n  dup3\n    /* \"#utility.yul\":3814:3815   */\n  0x02\n    /* \"#utility.yul\":3810:3821   */\n  mul\n    /* \"#utility.yul\":3804:3808   */\n  dup3\n    /* \"#utility.yul\":3801:3822   */\n  or\n    /* \"#utility.yul\":3793:3822   */\n  swap1\n  pop\n    /* \"#utility.yul\":3533:3828   */\n  swap3\n  swap2\n  pop\n  pop\n  jump\t// out\n    /* \"#utility.yul\":3833:5228   */\ntag_5:\n    /* \"#utility.yul\":3950:3987   */\n  tag_74\n    /* \"#utility.yul\":3983:3986   */\n  dup3\n    /* \"#utility.yul\":3950:3987   */\n  tag_7\n  jump\t// in\ntag_74:\n    /* \"#utility.yul\":4052:4070   */\n  0xffffffffffffffff\n    /* \"#utility.yul\":4044:4050   */\n  dup2\n    /* \"#utility.yul\":4041:4071   */\n  gt\n    /* \"#utility.yul\":4038:4094   */\n  iszero\n  tag_75\n  jumpi\n    /* \"#utility.yul\":4074:4092   */\n  tag_76\n  tag_8\n  jump\t// in\ntag_76:\n    /* \"#utility.yul\":4038:4094   */\ntag_75:\n    /* \"#utility.yul\":4118:4156   */\n  tag_77\n    /* \"#utility.yul\":4150:4154   */\n  dup3\n    /* \"#utility.yul\":4144:4155   */\n  sload\n    /* \"#utility.yul\":4118:4156   */\n  tag_10\n  jump\t// in\ntag_77:\n    /* \"#utility.yul\":4203:4270   */\n  tag_78\n    /* \"#utility.yul\":4263:4269   */\n  dup3\n    /* \"#utility.yul\":4255:4261   */\n  dup3\n    /* \"#utility.yul\":4249:4253   */\n  dup6\n    /* \"#utility.yul\":4203:4270   */\n  tag_23\n  jump\t// in\ntag_78:\n    /* \"#utility.yul\":4297:4298   */\n  0x00\n    /* \"#utility.yul\":4321:4325   */\n  0x20\n    /* \"#utility.yul\":4308:4325   */\n  swap1\n  pop\n    /* \"#utility.yul\":4353:4355   */\n  0x1f\n    /* \"#utility.yul\":4345:4351   */\n  dup4\n    /* \"#utility.yul\":4342:4356   */\n  gt\n    /* \"#utility.yul\":4370:4371   */\n  0x01\n    /* \"#utility.yul\":4365:4983   */\n  dup2\n  eq\n  tag_80\n  jumpi\n    /* \"#utility.yul\":5027:5028   */\n  0x00\n    /* \"#utility.yul\":5044:5050   */\n  dup5\n    /* \"#utility.yul\":5041:5118   */\n  iszero\n  tag_81\n  jumpi\n    /* \"#utility.yul\":5093:5102   */\n  dup3\n    /* \"#utility.yul\":5088:5091   */\n  dup8\n    /* \"#utility.yul\":5084:5103   */\n  add\n    /* \"#utility.yul\":5078:5104   */\n  mload\n    /* \"#utility.yul\":5069:5104   */\n  swap1\n  pop\n    /* \"#utility.yul\":5041:5118   */\ntag_81:\n    /* \"#utility.yul\":5144:5211   */\n  tag_82\n    /* \"#utility.yul\":5204:5210   */\n  dup6\n    /* \"#utility.yul\":5197:5202   */\n  dup3\n    /* \"#utility.yul\":5144:5211   */\n  tag_26\n  jump\t// in\ntag_82:\n    /* \"#utility.yul\":5138:5142   */\n  dup7\n    /* \"#utility.yul\":5131:5212   */\n  sstore\n    /* \"#utility.yul\":5000:5222   */\n  pop\n    /* \"#utility.yul\":4335:5222   */\n  jump(tag_79)\n    /* \"#utility.yul\":4365:4983   */\ntag_80:\n    /* \"#utility.yul\":4417:4421   */\n  0x1f\n    /* \"#utility.yul\":4413:4422   */\n  not\n    /* \"#utility.yul\":4405:4411   */\n  dup5\n    /* \"#utility.yul\":4401:4423   */\n  and\n    /* \"#utility.yul\":4451:4488   */\n  tag_83\n    /* \"#utility.yul\":4483:4487   */\n  dup7\n    /* \"#utility.yul\":4451:4488   */\n  tag_11\n  jump\t// in\ntag_83:\n    /* \"#utility.yul\":4510:4511   */\n  0x00\n    /* \"#utility.yul\":4524:4732   */\ntag_84:\n    /* \"#utility.yul\":4538:4545   */\n  dup3\n    /* \"#utility.yul\":4535:4536   */\n  dup2\n    /* \"#utility.yul\":4532:4546   */\n  lt\n    /* \"#utility.yul\":4524:4732   */\n  iszero\n  tag_86\n  jumpi\n    /* \"#utility.yul\":4617:4626   */\n  dup5\n    /* \"#utility.yul\":4612:4615   */\n  dup10\n    /* \"#utility.yul\":4608:4627   */\n  add\n    /* \"#utility.yul\":4602:4628   */\n  mload\n    /* \"#utility.yul\":4594:4600   */\n  dup3\n    /* \"#utility.yul\":4587:4629   */\n  sstore\n    /* \"#utility.yul\":4668:4669   */\n  0x01\n    /* \"#utility.yul\":4660:4666   */\n  dup3\n    /* \"#utility.yul\":4656:4670   */\n  add\n    /* \"#utility.yul\":4646:4670   */\n  swap2\n  pop\n    /* \"#utility.yul\":4715:4717   */\n  0x20\n    /* \"#utility.yul\":4704:4713   */\n  dup6\n    /* \"#utility.yul\":4700:4718   */\n  add\n    /* \"#utility.yul\":4687:4718   */\n  swap5\n  pop\n    /* \"#utility.yul\":4561:4565   */\n  0x20\n    /* \"#utility.yul\":4558:4559   */\n  dup2\n    /* \"#utility.yul\":4554:4566   */\n  add\n    /* \"#utility.yul\":4549:4566   */\n  swap1\n  pop\n    /* \"#utility.yul\":4524:4732   */\n  jump(tag_84)\ntag_86:\n    /* \"#utility.yul\":4760:4766   */\n  dup7\n    /* \"#utility.yul\":4751:4758   */\n  dup4\n    /* \"#utility.yul\":4748:4767   */\n  lt\n    /* \"#utility.yul\":4745:4924   */\n  iszero\n  tag_87\n  jumpi\n    /* \"#utility.yul\":4818:4827   */\n  dup5\n    /* \"#utility.yul\":4813:4816   */\n  dup10\n    /* \"#utility.yul\":4809:4828   */\n  add\n    /* \"#utility.yul\":4803:4829   */\n  mload\n    /* \"#utility.yul\":4861:4909   */\n  tag_88\n    /* \"#utility.yul\":4903:4907   */\n  0x1f\n    /* \"#utility.yul\":4895:4901   */\n  dup10\n    /* \"#utility.yul\":4891:4908   */\n  and\n    /* \"#utility.yul\":4880:4889   */\n  dup3\n    /* \"#utility.yul\":4861:4909   */\n  tag_25\n  jump\t// in\ntag_88:\n    /* \"#utility.yul\":4853:4859   */\n  dup4\n    /* \"#utility.yul\":4846:4910   */\n  sstore\n    /* \"#utility.yul\":4768:4924   */\n  pop\n    /* \"#utility.yul\":4745:4924   */\ntag_87:\n    /* \"#utility.yul\":4970:4971   */\n  0x01\n    /* \"#utility.yul\":4966:4967   */\n  0x02\n    /* \"#utility.yul\":4958:4964   */\n  dup9\n    /* \"#utility.yul\":4954:4968   */\n  mul\n    /* \"#utility.yul\":4950:4972   */\n  add\n    /* \"#utility.yul\":4944:4948   */\n  dup9\n    /* \"#utility.yul\":4937:4973   */\n  sstore\n    /* \"#utility.yul\":4372:4983   */\n  pop\n  pop\n  pop\n    /* \"#utility.yul\":4335:5222   */\ntag_79:\n  pop\n    /* \"#utility.yul\":3925:5228   */\n  pop\n  pop\n  pop\n    /* \"#utility.yul\":3833:5228   */\n  pop\n  pop\n  jump\t// out\n    /* \"contracts/simple.sol\":61:1088  contract counter{... */\ntag_6:\n  dataSize(sub_0)\n  dup1\n  dataOffset(sub_0)\n  0x00\n  codecopy\n  0x00\n  return\nstop\n\nsub_0: assembly {\n        /* \"contracts/simple.sol\":61:1088  contract counter{... */\n      mstore(0x40, 0x80)\n      jumpi(tag_1, lt(calldatasize, 0x04))\n      shr(0xe0, calldataload(0x00))\n      dup1\n      0x9eb7a316\n      gt\n      tag_12\n      jumpi\n      dup1\n      0x9eb7a316\n      eq\n      tag_7\n      jumpi\n      dup1\n      0xa097a492\n      eq\n      tag_8\n      jumpi\n      dup1\n      0xa15ec531\n      eq\n      tag_9\n      jumpi\n      dup1\n      0xd0e30db0\n      eq\n      tag_10\n      jumpi\n      dup1\n      0xf6ad6b0a\n      eq\n      tag_11\n      jumpi\n      jump(tag_1)\n    tag_12:\n      dup1\n      0x06661abd\n      eq\n      tag_2\n      jumpi\n      dup1\n      0x06fdde03\n      eq\n      tag_3\n      jumpi\n      dup1\n      0x1a695230\n      eq\n      tag_4\n      jumpi\n      dup1\n      0x4ddd108a\n      eq\n      tag_5\n      jumpi\n      dup1\n      0x8b7afe2e\n      eq\n      tag_6\n      jumpi\n    tag_1:\n      0x00\n      dup1\n      revert\n        /* \"contracts/simple.sol\":135:152  uint public count */\n    tag_2:\n      callvalue\n      dup1\n      iszero\n      tag_13\n      jumpi\n      0x00\n      dup1\n      revert\n    tag_13:\n      pop\n      tag_14\n      tag_15\n      jump\t// in\n    tag_14:\n      mload(0x40)\n      tag_16\n      swap2\n      swap1\n      tag_17\n      jump\t// in\n    tag_16:\n      mload(0x40)\n      dup1\n      swap2\n      sub\n      swap1\n      return\n        /* \"contracts/simple.sol\":181:199  string public name */\n    tag_3:\n      callvalue\n      dup1\n      iszero\n      tag_18\n      jumpi\n      0x00\n      dup1\n      revert\n    tag_18:\n      pop\n      tag_19\n      tag_20\n      jump\t// in\n    tag_19:\n      mload(0x40)\n      tag_21\n      swap2\n      swap1\n      tag_22\n      jump\t// in\n    tag_21:\n      mload(0x40)\n      dup1\n      swap2\n      sub\n      swap1\n      return\n        /* \"contracts/simple.sol\":533:672  function transfer(address payable _to) public payable {... */\n    tag_4:\n      tag_23\n      0x04\n      dup1\n      calldatasize\n      sub\n      dup2\n      add\n      swap1\n      tag_24\n      swap2\n      swap1\n      tag_25\n      jump\t// in\n    tag_24:\n      tag_26\n      jump\t// in\n    tag_23:\n      stop\n        /* \"contracts/simple.sol\":158:175  uint public money */\n    tag_5:\n      callvalue\n      dup1\n      iszero\n      tag_27\n      jumpi\n      0x00\n      dup1\n      revert\n    tag_27:\n      pop\n      tag_28\n      tag_29\n      jump\t// in\n    tag_28:\n      mload(0x40)\n      tag_30\n      swap2\n      swap1\n      tag_17\n      jump\t// in\n    tag_30:\n      mload(0x40)\n      dup1\n      swap2\n      sub\n      swap1\n      return\n        /* \"contracts/simple.sol\":377:474  function contractBalance() public view returns(uint){... */\n    tag_6:\n      callvalue\n      dup1\n      iszero\n      tag_31\n      jumpi\n      0x00\n      dup1\n      revert\n    tag_31:\n      pop\n      tag_32\n      tag_33\n      jump\t// in\n    tag_32:\n      mload(0x40)\n      tag_34\n      swap2\n      swap1\n      tag_17\n      jump\t// in\n    tag_34:\n      mload(0x40)\n      dup1\n      swap2\n      sub\n      swap1\n      return\n        /* \"contracts/simple.sol\":1003:1086  function displayamount() public payable returns(uint){... */\n    tag_7:\n      tag_35\n      tag_36\n      jump\t// in\n    tag_35:\n      mload(0x40)\n      tag_37\n      swap2\n      swap1\n      tag_17\n      jump\t// in\n    tag_37:\n      mload(0x40)\n      dup1\n      swap2\n      sub\n      swap1\n      return\n        /* \"contracts/simple.sol\":904:997  function decrementcount() public  returns(uint){... */\n    tag_8:\n      callvalue\n      dup1\n      iszero\n      tag_38\n      jumpi\n      0x00\n      dup1\n      revert\n    tag_38:\n      pop\n      tag_39\n      tag_40\n      jump\t// in\n    tag_39:\n      mload(0x40)\n      tag_41\n      swap2\n      swap1\n      tag_17\n      jump\t// in\n    tag_41:\n      mload(0x40)\n      dup1\n      swap2\n      sub\n      swap1\n      return\n        /* \"contracts/simple.sol\":806:898  function incrementcount() public returns(uint){... */\n    tag_9:\n      callvalue\n      dup1\n      iszero\n      tag_42\n      jumpi\n      0x00\n      dup1\n      revert\n    tag_42:\n      pop\n      tag_43\n      tag_44\n      jump\t// in\n    tag_43:\n      mload(0x40)\n      tag_45\n      swap2\n      swap1\n      tag_17\n      jump\t// in\n    tag_45:\n      mload(0x40)\n      dup1\n      swap2\n      sub\n      swap1\n      return\n        /* \"contracts/simple.sol\":480:528  function deposit() public payable{... */\n    tag_10:\n      tag_46\n      tag_47\n      jump\t// in\n    tag_46:\n      stop\n        /* \"contracts/simple.sol\":677:800  function setcount(uint _count) public{... */\n    tag_11:\n      callvalue\n      dup1\n      iszero\n      tag_48\n      jumpi\n      0x00\n      dup1\n      revert\n    tag_48:\n      pop\n      tag_49\n      0x04\n      dup1\n      calldatasize\n      sub\n      dup2\n      add\n      swap1\n      tag_50\n      swap2\n      swap1\n      tag_51\n      jump\t// in\n    tag_50:\n      tag_52\n      jump\t// in\n    tag_49:\n      stop\n        /* \"contracts/simple.sol\":135:152  uint public count */\n    tag_15:\n      sload(0x00)\n      dup2\n      jump\t// out\n        /* \"contracts/simple.sol\":181:199  string public name */\n    tag_20:\n      0x02\n      dup1\n      sload\n      tag_53\n      swap1\n      tag_54\n      jump\t// in\n    tag_53:\n      dup1\n      0x1f\n      add\n      0x20\n      dup1\n      swap2\n      div\n      mul\n      0x20\n      add\n      mload(0x40)\n      swap1\n      dup2\n      add\n      0x40\n      mstore\n      dup1\n      swap3\n      swap2\n      swap1\n      dup2\n      dup2\n      mstore\n      0x20\n      add\n      dup3\n      dup1\n      sload\n      tag_55\n      swap1\n      tag_54\n      jump\t// in\n    tag_55:\n      dup1\n      iszero\n      tag_56\n      jumpi\n      dup1\n      0x1f\n      lt\n      tag_57\n      jumpi\n      0x0100\n      dup1\n      dup4\n      sload\n      div\n      mul\n      dup4\n      mstore\n      swap2\n      0x20\n      add\n      swap2\n      jump(tag_56)\n    tag_57:\n      dup3\n      add\n      swap2\n      swap1\n      0x00\n      mstore\n      keccak256(0x00, 0x20)\n      swap1\n    tag_58:\n      dup2\n      sload\n      dup2\n      mstore\n      swap1\n      0x01\n      add\n      swap1\n      0x20\n      add\n      dup1\n      dup4\n      gt\n      tag_58\n      jumpi\n      dup3\n      swap1\n      sub\n      0x1f\n      and\n      dup3\n      add\n      swap2\n    tag_56:\n      pop\n      pop\n      pop\n      pop\n      pop\n      dup2\n      jump\t// out\n        /* \"contracts/simple.sol\":533:672  function transfer(address payable _to) public payable {... */\n    tag_26:\n        /* \"contracts/simple.sol\":597:600  _to */\n      dup1\n        /* \"contracts/simple.sol\":597:609  _to.transfer */\n      0xffffffffffffffffffffffffffffffffffffffff\n      and\n        /* \"contracts/simple.sol\":597:620  _to.transfer(msg.value) */\n      0x08fc\n        /* \"contracts/simple.sol\":610:619  msg.value */\n      callvalue\n        /* \"contracts/simple.sol\":597:620  _to.transfer(msg.value) */\n      swap1\n      dup2\n      iszero\n      mul\n      swap1\n      mload(0x40)\n      0x00\n      mload(0x40)\n      dup1\n      dup4\n      sub\n      dup2\n      dup6\n      dup9\n      dup9\n      call\n      swap4\n      pop\n      pop\n      pop\n      pop\n      iszero\n      dup1\n      iszero\n      tag_61\n      jumpi\n      returndatasize\n      0x00\n      dup1\n      returndatacopy\n      revert(0x00, returndatasize)\n    tag_61:\n      pop\n        /* \"contracts/simple.sol\":635:664  transferCalled(_to,msg.value) */\n      0x90b91c1b7916ddc437ab46f887dc83a96828c354a6b92cfae5f89725379bff94\n        /* \"contracts/simple.sol\":650:653  _to */\n      dup2\n        /* \"contracts/simple.sol\":654:663  msg.value */\n      callvalue\n        /* \"contracts/simple.sol\":635:664  transferCalled(_to,msg.value) */\n      mload(0x40)\n      tag_62\n      swap3\n      swap2\n      swap1\n      tag_63\n      jump\t// in\n    tag_62:\n      mload(0x40)\n      dup1\n      swap2\n      sub\n      swap1\n      log1\n        /* \"contracts/simple.sol\":533:672  function transfer(address payable _to) public payable {... */\n      pop\n      jump\t// out\n        /* \"contracts/simple.sol\":158:175  uint public money */\n    tag_29:\n      sload(0x01)\n      dup2\n      jump\t// out\n        /* \"contracts/simple.sol\":377:474  function contractBalance() public view returns(uint){... */\n    tag_33:\n        /* \"contracts/simple.sol\":424:428  uint */\n      0x00\n        /* \"contracts/simple.sol\":446:467  address(this).balance */\n      selfbalance\n        /* \"contracts/simple.sol\":439:467  return address(this).balance */\n      swap1\n      pop\n        /* \"contracts/simple.sol\":377:474  function contractBalance() public view returns(uint){... */\n      swap1\n      jump\t// out\n        /* \"contracts/simple.sol\":1003:1086  function displayamount() public payable returns(uint){... */\n    tag_36:\n        /* \"contracts/simple.sol\":1051:1055  uint */\n      0x00\n        /* \"contracts/simple.sol\":1073:1078  money */\n      sload(0x01)\n        /* \"contracts/simple.sol\":1066:1078  return money */\n      swap1\n      pop\n        /* \"contracts/simple.sol\":1003:1086  function displayamount() public payable returns(uint){... */\n      swap1\n      jump\t// out\n        /* \"contracts/simple.sol\":904:997  function decrementcount() public  returns(uint){... */\n    tag_40:\n        /* \"contracts/simple.sol\":946:950  uint */\n      0x00\n        /* \"contracts/simple.sol\":961:966  count */\n      dup1\n      0x00\n        /* \"contracts/simple.sol\":961:968  count-- */\n      dup2\n      sload\n      dup1\n      swap3\n      swap2\n      swap1\n      tag_67\n      swap1\n      tag_68\n      jump\t// in\n    tag_67:\n      swap2\n      swap1\n      pop\n      sstore\n      pop\n        /* \"contracts/simple.sol\":985:990  count */\n      sload(0x00)\n        /* \"contracts/simple.sol\":978:990  return count */\n      swap1\n      pop\n        /* \"contracts/simple.sol\":904:997  function decrementcount() public  returns(uint){... */\n      swap1\n      jump\t// out\n        /* \"contracts/simple.sol\":806:898  function incrementcount() public returns(uint){... */\n    tag_44:\n        /* \"contracts/simple.sol\":847:851  uint */\n      0x00\n        /* \"contracts/simple.sol\":862:867  count */\n      dup1\n      0x00\n        /* \"contracts/simple.sol\":862:869  count++ */\n      dup2\n      sload\n      dup1\n      swap3\n      swap2\n      swap1\n      tag_70\n      swap1\n      tag_71\n      jump\t// in\n    tag_70:\n      swap2\n      swap1\n      pop\n      sstore\n      pop\n        /* \"contracts/simple.sol\":886:891  count */\n      sload(0x00)\n        /* \"contracts/simple.sol\":879:891  return count */\n      swap1\n      pop\n        /* \"contracts/simple.sol\":806:898  function incrementcount() public returns(uint){... */\n      swap1\n      jump\t// out\n        /* \"contracts/simple.sol\":480:528  function deposit() public payable{... */\n    tag_47:\n      jump\t// out\n        /* \"contracts/simple.sol\":677:800  function setcount(uint _count) public{... */\n    tag_52:\n        /* \"contracts/simple.sol\":732:738  _count */\n      dup1\n        /* \"contracts/simple.sol\":724:729  count */\n      0x00\n        /* \"contracts/simple.sol\":724:738  count = _count */\n      dup2\n      swap1\n      sstore\n      pop\n        /* \"contracts/simple.sol\":753:793  countUpdated(\"Count updated to \",_count) */\n      0x934a8dfd9a342e19b7053ab93d7b52ac798168ab754cc6dbbe0c1d41172ba65c\n        /* \"contracts/simple.sol\":786:792  _count */\n      dup2\n        /* \"contracts/simple.sol\":753:793  countUpdated(\"Count updated to \",_count) */\n      mload(0x40)\n      tag_74\n      swap2\n      swap1\n      tag_75\n      jump\t// in\n    tag_74:\n      mload(0x40)\n      dup1\n      swap2\n      sub\n      swap1\n      log1\n        /* \"contracts/simple.sol\":677:800  function setcount(uint _count) public{... */\n      pop\n      jump\t// out\n        /* \"#utility.yul\":7:84   */\n    tag_76:\n        /* \"#utility.yul\":44:51   */\n      0x00\n        /* \"#utility.yul\":73:78   */\n      dup2\n        /* \"#utility.yul\":62:78   */\n      swap1\n      pop\n        /* \"#utility.yul\":7:84   */\n      swap2\n      swap1\n      pop\n      jump\t// out\n        /* \"#utility.yul\":90:208   */\n    tag_77:\n        /* \"#utility.yul\":177:201   */\n      tag_104\n        /* \"#utility.yul\":195:200   */\n      dup2\n        /* \"#utility.yul\":177:201   */\n      tag_76\n      jump\t// in\n    tag_104:\n        /* \"#utility.yul\":172:175   */\n      dup3\n        /* \"#utility.yul\":165:202   */\n      mstore\n        /* \"#utility.yul\":90:208   */\n      pop\n      pop\n      jump\t// out\n        /* \"#utility.yul\":214:436   */\n    tag_17:\n        /* \"#utility.yul\":307:311   */\n      0x00\n        /* \"#utility.yul\":345:347   */\n      0x20\n        /* \"#utility.yul\":334:343   */\n      dup3\n        /* \"#utility.yul\":330:348   */\n      add\n        /* \"#utility.yul\":322:348   */\n      swap1\n      pop\n        /* \"#utility.yul\":358:429   */\n      tag_106\n        /* \"#utility.yul\":426:427   */\n      0x00\n        /* \"#utility.yul\":415:424   */\n      dup4\n        /* \"#utility.yul\":411:428   */\n      add\n        /* \"#utility.yul\":402:408   */\n      dup5\n        /* \"#utility.yul\":358:429   */\n      tag_77\n      jump\t// in\n    tag_106:\n        /* \"#utility.yul\":214:436   */\n      swap3\n      swap2\n      pop\n      pop\n      jump\t// out\n        /* \"#utility.yul\":442:541   */\n    tag_78:\n        /* \"#utility.yul\":494:500   */\n      0x00\n        /* \"#utility.yul\":528:533   */\n      dup2\n        /* \"#utility.yul\":522:534   */\n      mload\n        /* \"#utility.yul\":512:534   */\n      swap1\n      pop\n        /* \"#utility.yul\":442:541   */\n      swap2\n      swap1\n      pop\n      jump\t// out\n        /* \"#utility.yul\":547:716   */\n    tag_79:\n        /* \"#utility.yul\":631:642   */\n      0x00\n        /* \"#utility.yul\":665:671   */\n      dup3\n        /* \"#utility.yul\":660:663   */\n      dup3\n        /* \"#utility.yul\":653:672   */\n      mstore\n        /* \"#utility.yul\":705:709   */\n      0x20\n        /* \"#utility.yul\":700:703   */\n      dup3\n        /* \"#utility.yul\":696:710   */\n      add\n        /* \"#utility.yul\":681:710   */\n      swap1\n      pop\n        /* \"#utility.yul\":547:716   */\n      swap3\n      swap2\n      pop\n      pop\n      jump\t// out\n        /* \"#utility.yul\":722:968   */\n    tag_80:\n        /* \"#utility.yul\":803:804   */\n      0x00\n        /* \"#utility.yul\":813:926   */\n    tag_110:\n        /* \"#utility.yul\":827:833   */\n      dup4\n        /* \"#utility.yul\":824:825   */\n      dup2\n        /* \"#utility.yul\":821:834   */\n      lt\n        /* \"#utility.yul\":813:926   */\n      iszero\n      tag_112\n      jumpi\n        /* \"#utility.yul\":912:913   */\n      dup1\n        /* \"#utility.yul\":907:910   */\n      dup3\n        /* \"#utility.yul\":903:914   */\n      add\n        /* \"#utility.yul\":897:915   */\n      mload\n        /* \"#utility.yul\":893:894   */\n      dup2\n        /* \"#utility.yul\":888:891   */\n      dup5\n        /* \"#utility.yul\":884:895   */\n      add\n        /* \"#utility.yul\":877:916   */\n      mstore\n        /* \"#utility.yul\":849:851   */\n      0x20\n        /* \"#utility.yul\":846:847   */\n      dup2\n        /* \"#utility.yul\":842:852   */\n      add\n        /* \"#utility.yul\":837:852   */\n      swap1\n      pop\n        /* \"#utility.yul\":813:926   */\n      jump(tag_110)\n    tag_112:\n        /* \"#utility.yul\":960:961   */\n      0x00\n        /* \"#utility.yul\":951:957   */\n      dup5\n        /* \"#utility.yul\":946:949   */\n      dup5\n        /* \"#utility.yul\":942:958   */\n      add\n        /* \"#utility.yul\":935:962   */\n      mstore\n        /* \"#utility.yul\":784:968   */\n      pop\n        /* \"#utility.yul\":722:968   */\n      pop\n      pop\n      pop\n      jump\t// out\n        /* \"#utility.yul\":974:1076   */\n    tag_81:\n        /* \"#utility.yul\":1015:1021   */\n      0x00\n        /* \"#utility.yul\":1066:1068   */\n      0x1f\n        /* \"#utility.yul\":1062:1069   */\n      not\n        /* \"#utility.yul\":1057:1059   */\n      0x1f\n        /* \"#utility.yul\":1050:1055   */\n      dup4\n        /* \"#utility.yul\":1046:1060   */\n      add\n        /* \"#utility.yul\":1042:1070   */\n      and\n        /* \"#utility.yul\":1032:1070   */\n      swap1\n      pop\n        /* \"#utility.yul\":974:1076   */\n      swap2\n      swap1\n      pop\n      jump\t// out\n        /* \"#utility.yul\":1082:1459   */\n    tag_82:\n        /* \"#utility.yul\":1170:1173   */\n      0x00\n        /* \"#utility.yul\":1198:1237   */\n      tag_115\n        /* \"#utility.yul\":1231:1236   */\n      dup3\n        /* \"#utility.yul\":1198:1237   */\n      tag_78\n      jump\t// in\n    tag_115:\n        /* \"#utility.yul\":1253:1324   */\n      tag_116\n        /* \"#utility.yul\":1317:1323   */\n      dup2\n        /* \"#utility.yul\":1312:1315   */\n      dup6\n        /* \"#utility.yul\":1253:1324   */\n      tag_79\n      jump\t// in\n    tag_116:\n        /* \"#utility.yul\":1246:1324   */\n      swap4\n      pop\n        /* \"#utility.yul\":1333:1398   */\n      tag_117\n        /* \"#utility.yul\":1391:1397   */\n      dup2\n        /* \"#utility.yul\":1386:1389   */\n      dup6\n        /* \"#utility.yul\":1379:1383   */\n      0x20\n        /* \"#utility.yul\":1372:1377   */\n      dup7\n        /* \"#utility.yul\":1368:1384   */\n      add\n        /* \"#utility.yul\":1333:1398   */\n      tag_80\n      jump\t// in\n    tag_117:\n        /* \"#utility.yul\":1423:1452   */\n      tag_118\n        /* \"#utility.yul\":1445:1451   */\n      dup2\n        /* \"#utility.yul\":1423:1452   */\n      tag_81\n      jump\t// in\n    tag_118:\n        /* \"#utility.yul\":1418:1421   */\n      dup5\n        /* \"#utility.yul\":1414:1453   */\n      add\n        /* \"#utility.yul\":1407:1453   */\n      swap2\n      pop\n        /* \"#utility.yul\":1174:1459   */\n      pop\n        /* \"#utility.yul\":1082:1459   */\n      swap3\n      swap2\n      pop\n      pop\n      jump\t// out\n        /* \"#utility.yul\":1465:1778   */\n    tag_22:\n        /* \"#utility.yul\":1578:1582   */\n      0x00\n        /* \"#utility.yul\":1616:1618   */\n      0x20\n        /* \"#utility.yul\":1605:1614   */\n      dup3\n        /* \"#utility.yul\":1601:1619   */\n      add\n        /* \"#utility.yul\":1593:1619   */\n      swap1\n      pop\n        /* \"#utility.yul\":1665:1674   */\n      dup2\n        /* \"#utility.yul\":1659:1663   */\n      dup2\n        /* \"#utility.yul\":1655:1675   */\n      sub\n        /* \"#utility.yul\":1651:1652   */\n      0x00\n        /* \"#utility.yul\":1640:1649   */\n      dup4\n        /* \"#utility.yul\":1636:1653   */\n      add\n        /* \"#utility.yul\":1629:1676   */\n      mstore\n        /* \"#utility.yul\":1693:1771   */\n      tag_120\n        /* \"#utility.yul\":1766:1770   */\n      dup2\n        /* \"#utility.yul\":1757:1763   */\n      dup5\n        /* \"#utility.yul\":1693:1771   */\n      tag_82\n      jump\t// in\n    tag_120:\n        /* \"#utility.yul\":1685:1771   */\n      swap1\n      pop\n        /* \"#utility.yul\":1465:1778   */\n      swap3\n      swap2\n      pop\n      pop\n      jump\t// out\n        /* \"#utility.yul\":1865:1982   */\n    tag_84:\n        /* \"#utility.yul\":1974:1975   */\n      0x00\n        /* \"#utility.yul\":1971:1972   */\n      dup1\n        /* \"#utility.yul\":1964:1976   */\n      revert\n        /* \"#utility.yul\":2111:2237   */\n    tag_86:\n        /* \"#utility.yul\":2148:2155   */\n      0x00\n        /* \"#utility.yul\":2188:2230   */\n      0xffffffffffffffffffffffffffffffffffffffff\n        /* \"#utility.yul\":2181:2186   */\n      dup3\n        /* \"#utility.yul\":2177:2231   */\n      and\n        /* \"#utility.yul\":2166:2231   */\n      swap1\n      pop\n        /* \"#utility.yul\":2111:2237   */\n      swap2\n      swap1\n      pop\n      jump\t// out\n        /* \"#utility.yul\":2243:2347   */\n    tag_87:\n        /* \"#utility.yul\":2288:2295   */\n      0x00\n        /* \"#utility.yul\":2317:2341   */\n      tag_126\n        /* \"#utility.yul\":2335:2340   */\n      dup3\n        /* \"#utility.yul\":2317:2341   */\n      tag_86\n      jump\t// in\n    tag_126:\n        /* \"#utility.yul\":2306:2341   */\n      swap1\n      pop\n        /* \"#utility.yul\":2243:2347   */\n      swap2\n      swap1\n      pop\n      jump\t// out\n        /* \"#utility.yul\":2353:2491   */\n    tag_88:\n        /* \"#utility.yul\":2434:2466   */\n      tag_128\n        /* \"#utility.yul\":2460:2465   */\n      dup2\n        /* \"#utility.yul\":2434:2466   */\n      tag_87\n      jump\t// in\n    tag_128:\n        /* \"#utility.yul\":2427:2432   */\n      dup2\n        /* \"#utility.yul\":2424:2467   */\n      eq\n        /* \"#utility.yul\":2414:2485   */\n      tag_129\n      jumpi\n        /* \"#utility.yul\":2481:2482   */\n      0x00\n        /* \"#utility.yul\":2478:2479   */\n      dup1\n        /* \"#utility.yul\":2471:2483   */\n      revert\n        /* \"#utility.yul\":2414:2485   */\n    tag_129:\n        /* \"#utility.yul\":2353:2491   */\n      pop\n      jump\t// out\n        /* \"#utility.yul\":2497:2652   */\n    tag_89:\n        /* \"#utility.yul\":2551:2556   */\n      0x00\n        /* \"#utility.yul\":2589:2595   */\n      dup2\n        /* \"#utility.yul\":2576:2596   */\n      calldataload\n        /* \"#utility.yul\":2567:2596   */\n      swap1\n      pop\n        /* \"#utility.yul\":2605:2646   */\n      tag_131\n        /* \"#utility.yul\":2640:2645   */\n      dup2\n        /* \"#utility.yul\":2605:2646   */\n      tag_88\n      jump\t// in\n    tag_131:\n        /* \"#utility.yul\":2497:2652   */\n      swap3\n      swap2\n      pop\n      pop\n      jump\t// out\n        /* \"#utility.yul\":2658:3003   */\n    tag_25:\n        /* \"#utility.yul\":2725:2731   */\n      0x00\n        /* \"#utility.yul\":2774:2776   */\n      0x20\n        /* \"#utility.yul\":2762:2771   */\n      dup3\n        /* \"#utility.yul\":2753:2760   */\n      dup5\n        /* \"#utility.yul\":2749:2772   */\n      sub\n        /* \"#utility.yul\":2745:2777   */\n      slt\n        /* \"#utility.yul\":2742:2861   */\n      iszero\n      tag_133\n      jumpi\n        /* \"#utility.yul\":2780:2859   */\n      tag_134\n      tag_84\n      jump\t// in\n    tag_134:\n        /* \"#utility.yul\":2742:2861   */\n    tag_133:\n        /* \"#utility.yul\":2900:2901   */\n      0x00\n        /* \"#utility.yul\":2925:2986   */\n      tag_135\n        /* \"#utility.yul\":2978:2985   */\n      dup5\n        /* \"#utility.yul\":2969:2975   */\n      dup3\n        /* \"#utility.yul\":2958:2967   */\n      dup6\n        /* \"#utility.yul\":2954:2976   */\n      add\n        /* \"#utility.yul\":2925:2986   */\n      tag_89\n      jump\t// in\n    tag_135:\n        /* \"#utility.yul\":2915:2986   */\n      swap2\n      pop\n        /* \"#utility.yul\":2871:2996   */\n      pop\n        /* \"#utility.yul\":2658:3003   */\n      swap3\n      swap2\n      pop\n      pop\n      jump\t// out\n        /* \"#utility.yul\":3009:3131   */\n    tag_90:\n        /* \"#utility.yul\":3082:3106   */\n      tag_137\n        /* \"#utility.yul\":3100:3105   */\n      dup2\n        /* \"#utility.yul\":3082:3106   */\n      tag_76\n      jump\t// in\n    tag_137:\n        /* \"#utility.yul\":3075:3080   */\n      dup2\n        /* \"#utility.yul\":3072:3107   */\n      eq\n        /* \"#utility.yul\":3062:3125   */\n      tag_138\n      jumpi\n        /* \"#utility.yul\":3121:3122   */\n      0x00\n        /* \"#utility.yul\":3118:3119   */\n      dup1\n        /* \"#utility.yul\":3111:3123   */\n      revert\n        /* \"#utility.yul\":3062:3125   */\n    tag_138:\n        /* \"#utility.yul\":3009:3131   */\n      pop\n      jump\t// out\n        /* \"#utility.yul\":3137:3276   */\n    tag_91:\n        /* \"#utility.yul\":3183:3188   */\n      0x00\n        /* \"#utility.yul\":3221:3227   */\n      dup2\n        /* \"#utility.yul\":3208:3228   */\n      calldataload\n        /* \"#utility.yul\":3199:3228   */\n      swap1\n      pop\n        /* \"#utility.yul\":3237:3270   */\n      tag_140\n        /* \"#utility.yul\":3264:3269   */\n      dup2\n        /* \"#utility.yul\":3237:3270   */\n      tag_90\n      jump\t// in\n    tag_140:\n        /* \"#utility.yul\":3137:3276   */\n      swap3\n      swap2\n      pop\n      pop\n      jump\t// out\n        /* \"#utility.yul\":3282:3611   */\n    tag_51:\n        /* \"#utility.yul\":3341:3347   */\n      0x00\n        /* \"#utility.yul\":3390:3392   */\n      0x20\n        /* \"#utility.yul\":3378:3387   */\n      dup3\n        /* \"#utility.yul\":3369:3376   */\n      dup5\n        /* \"#utility.yul\":3365:3388   */\n      sub\n        /* \"#utility.yul\":3361:3393   */\n      slt\n        /* \"#utility.yul\":3358:3477   */\n      iszero\n      tag_142\n      jumpi\n        /* \"#utility.yul\":3396:3475   */\n      tag_143\n      tag_84\n      jump\t// in\n    tag_143:\n        /* \"#utility.yul\":3358:3477   */\n    tag_142:\n        /* \"#utility.yul\":3516:3517   */\n      0x00\n        /* \"#utility.yul\":3541:3594   */\n      tag_144\n        /* \"#utility.yul\":3586:3593   */\n      dup5\n        /* \"#utility.yul\":3577:3583   */\n      dup3\n        /* \"#utility.yul\":3566:3575   */\n      dup6\n        /* \"#utility.yul\":3562:3584   */\n      add\n        /* \"#utility.yul\":3541:3594   */\n      tag_91\n      jump\t// in\n    tag_144:\n        /* \"#utility.yul\":3531:3594   */\n      swap2\n      pop\n        /* \"#utility.yul\":3487:3604   */\n      pop\n        /* \"#utility.yul\":3282:3611   */\n      swap3\n      swap2\n      pop\n      pop\n      jump\t// out\n        /* \"#utility.yul\":3617:3797   */\n    tag_92:\n        /* \"#utility.yul\":3665:3742   */\n      0x4e487b7100000000000000000000000000000000000000000000000000000000\n        /* \"#utility.yul\":3662:3663   */\n      0x00\n        /* \"#utility.yul\":3655:3743   */\n      mstore\n        /* \"#utility.yul\":3762:3766   */\n      0x22\n        /* \"#utility.yul\":3759:3760   */\n      0x04\n        /* \"#utility.yul\":3752:3767   */\n      mstore\n        /* \"#utility.yul\":3786:3790   */\n      0x24\n        /* \"#utility.yul\":3783:3784   */\n      0x00\n        /* \"#utility.yul\":3776:3791   */\n      revert\n        /* \"#utility.yul\":3803:4123   */\n    tag_54:\n        /* \"#utility.yul\":3847:3853   */\n      0x00\n        /* \"#utility.yul\":3884:3885   */\n      0x02\n        /* \"#utility.yul\":3878:3882   */\n      dup3\n        /* \"#utility.yul\":3874:3886   */\n      div\n        /* \"#utility.yul\":3864:3886   */\n      swap1\n      pop\n        /* \"#utility.yul\":3931:3932   */\n      0x01\n        /* \"#utility.yul\":3925:3929   */\n      dup3\n        /* \"#utility.yul\":3921:3933   */\n      and\n        /* \"#utility.yul\":3952:3970   */\n      dup1\n        /* \"#utility.yul\":3942:4023   */\n      tag_147\n      jumpi\n        /* \"#utility.yul\":4008:4012   */\n      0x7f\n        /* \"#utility.yul\":4000:4006   */\n      dup3\n        /* \"#utility.yul\":3996:4013   */\n      and\n        /* \"#utility.yul\":3986:4013   */\n      swap2\n      pop\n        /* \"#utility.yul\":3942:4023   */\n    tag_147:\n        /* \"#utility.yul\":4070:4072   */\n      0x20\n        /* \"#utility.yul\":4062:4068   */\n      dup3\n        /* \"#utility.yul\":4059:4073   */\n      lt\n        /* \"#utility.yul\":4039:4057   */\n      dup2\n        /* \"#utility.yul\":4036:4074   */\n      sub\n        /* \"#utility.yul\":4033:4117   */\n      tag_148\n      jumpi\n        /* \"#utility.yul\":4089:4107   */\n      tag_149\n      tag_92\n      jump\t// in\n    tag_149:\n        /* \"#utility.yul\":4033:4117   */\n    tag_148:\n        /* \"#utility.yul\":3854:4123   */\n      pop\n        /* \"#utility.yul\":3803:4123   */\n      swap2\n      swap1\n      pop\n      jump\t// out\n        /* \"#utility.yul\":4129:4189   */\n    tag_93:\n        /* \"#utility.yul\":4157:4160   */\n      0x00\n        /* \"#utility.yul\":4178:4183   */\n      dup2\n        /* \"#utility.yul\":4171:4183   */\n      swap1\n      pop\n        /* \"#utility.yul\":4129:4189   */\n      swap2\n      swap1\n      pop\n      jump\t// out\n        /* \"#utility.yul\":4195:4337   */\n    tag_94:\n        /* \"#utility.yul\":4245:4254   */\n      0x00\n        /* \"#utility.yul\":4278:4331   */\n      tag_152\n        /* \"#utility.yul\":4296:4330   */\n      tag_153\n        /* \"#utility.yul\":4305:4329   */\n      tag_154\n        /* \"#utility.yul\":4323:4328   */\n      dup5\n        /* \"#utility.yul\":4305:4329   */\n      tag_86\n      jump\t// in\n    tag_154:\n        /* \"#utility.yul\":4296:4330   */\n      tag_93\n      jump\t// in\n    tag_153:\n        /* \"#utility.yul\":4278:4331   */\n      tag_86\n      jump\t// in\n    tag_152:\n        /* \"#utility.yul\":4265:4331   */\n      swap1\n      pop\n        /* \"#utility.yul\":4195:4337   */\n      swap2\n      swap1\n      pop\n      jump\t// out\n        /* \"#utility.yul\":4343:4469   */\n    tag_95:\n        /* \"#utility.yul\":4393:4402   */\n      0x00\n        /* \"#utility.yul\":4426:4463   */\n      tag_156\n        /* \"#utility.yul\":4457:4462   */\n      dup3\n        /* \"#utility.yul\":4426:4463   */\n      tag_94\n      jump\t// in\n    tag_156:\n        /* \"#utility.yul\":4413:4463   */\n      swap1\n      pop\n        /* \"#utility.yul\":4343:4469   */\n      swap2\n      swap1\n      pop\n      jump\t// out\n        /* \"#utility.yul\":4475:4609   */\n    tag_96:\n        /* \"#utility.yul\":4533:4542   */\n      0x00\n        /* \"#utility.yul\":4566:4603   */\n      tag_158\n        /* \"#utility.yul\":4597:4602   */\n      dup3\n        /* \"#utility.yul\":4566:4603   */\n      tag_95\n      jump\t// in\n    tag_158:\n        /* \"#utility.yul\":4553:4603   */\n      swap1\n      pop\n        /* \"#utility.yul\":4475:4609   */\n      swap2\n      swap1\n      pop\n      jump\t// out\n        /* \"#utility.yul\":4615:4762   */\n    tag_97:\n        /* \"#utility.yul\":4710:4755   */\n      tag_160\n        /* \"#utility.yul\":4749:4754   */\n      dup2\n        /* \"#utility.yul\":4710:4755   */\n      tag_96\n      jump\t// in\n    tag_160:\n        /* \"#utility.yul\":4705:4708   */\n      dup3\n        /* \"#utility.yul\":4698:4756   */\n      mstore\n        /* \"#utility.yul\":4615:4762   */\n      pop\n      pop\n      jump\t// out\n        /* \"#utility.yul\":4768:5116   */\n    tag_63:\n        /* \"#utility.yul\":4897:4901   */\n      0x00\n        /* \"#utility.yul\":4935:4937   */\n      0x40\n        /* \"#utility.yul\":4924:4933   */\n      dup3\n        /* \"#utility.yul\":4920:4938   */\n      add\n        /* \"#utility.yul\":4912:4938   */\n      swap1\n      pop\n        /* \"#utility.yul\":4948:5027   */\n      tag_162\n        /* \"#utility.yul\":5024:5025   */\n      0x00\n        /* \"#utility.yul\":5013:5022   */\n      dup4\n        /* \"#utility.yul\":5009:5026   */\n      add\n        /* \"#utility.yul\":5000:5006   */\n      dup6\n        /* \"#utility.yul\":4948:5027   */\n      tag_97\n      jump\t// in\n    tag_162:\n        /* \"#utility.yul\":5037:5109   */\n      tag_163\n        /* \"#utility.yul\":5105:5107   */\n      0x20\n        /* \"#utility.yul\":5094:5103   */\n      dup4\n        /* \"#utility.yul\":5090:5108   */\n      add\n        /* \"#utility.yul\":5081:5087   */\n      dup5\n        /* \"#utility.yul\":5037:5109   */\n      tag_77\n      jump\t// in\n    tag_163:\n        /* \"#utility.yul\":4768:5116   */\n      swap4\n      swap3\n      pop\n      pop\n      pop\n      jump\t// out\n        /* \"#utility.yul\":5122:5302   */\n    tag_98:\n        /* \"#utility.yul\":5170:5247   */\n      0x4e487b7100000000000000000000000000000000000000000000000000000000\n        /* \"#utility.yul\":5167:5168   */\n      0x00\n        /* \"#utility.yul\":5160:5248   */\n      mstore\n        /* \"#utility.yul\":5267:5271   */\n      0x11\n        /* \"#utility.yul\":5264:5265   */\n      0x04\n        /* \"#utility.yul\":5257:5272   */\n      mstore\n        /* \"#utility.yul\":5291:5295   */\n      0x24\n        /* \"#utility.yul\":5288:5289   */\n      0x00\n        /* \"#utility.yul\":5281:5296   */\n      revert\n        /* \"#utility.yul\":5308:5479   */\n    tag_68:\n        /* \"#utility.yul\":5347:5350   */\n      0x00\n        /* \"#utility.yul\":5370:5394   */\n      tag_166\n        /* \"#utility.yul\":5388:5393   */\n      dup3\n        /* \"#utility.yul\":5370:5394   */\n      tag_76\n      jump\t// in\n    tag_166:\n        /* \"#utility.yul\":5361:5394   */\n      swap2\n      pop\n        /* \"#utility.yul\":5416:5420   */\n      0x00\n        /* \"#utility.yul\":5409:5414   */\n      dup3\n        /* \"#utility.yul\":5406:5421   */\n      sub\n        /* \"#utility.yul\":5403:5444   */\n      tag_167\n      jumpi\n        /* \"#utility.yul\":5424:5442   */\n      tag_168\n      tag_98\n      jump\t// in\n    tag_168:\n        /* \"#utility.yul\":5403:5444   */\n    tag_167:\n        /* \"#utility.yul\":5471:5472   */\n      0x01\n        /* \"#utility.yul\":5464:5469   */\n      dup3\n        /* \"#utility.yul\":5460:5473   */\n      sub\n        /* \"#utility.yul\":5453:5473   */\n      swap1\n      pop\n        /* \"#utility.yul\":5308:5479   */\n      swap2\n      swap1\n      pop\n      jump\t// out\n        /* \"#utility.yul\":5485:5718   */\n    tag_71:\n        /* \"#utility.yul\":5524:5527   */\n      0x00\n        /* \"#utility.yul\":5547:5571   */\n      tag_170\n        /* \"#utility.yul\":5565:5570   */\n      dup3\n        /* \"#utility.yul\":5547:5571   */\n      tag_76\n      jump\t// in\n    tag_170:\n        /* \"#utility.yul\":5538:5571   */\n      swap2\n      pop\n        /* \"#utility.yul\":5593:5659   */\n      0xffffffffffffffffffffffffffffffffffffffffffffffffffffffffffffffff\n        /* \"#utility.yul\":5586:5591   */\n      dup3\n        /* \"#utility.yul\":5583:5660   */\n      sub\n        /* \"#utility.yul\":5580:5683   */\n      tag_171\n      jumpi\n        /* \"#utility.yul\":5663:5681   */\n      tag_172\n      tag_98\n      jump\t// in\n    tag_172:\n        /* \"#utility.yul\":5580:5683   */\n    tag_171:\n        /* \"#utility.yul\":5710:5711   */\n      0x01\n        /* \"#utility.yul\":5703:5708   */\n      dup3\n        /* \"#utility.yul\":5699:5712   */\n      add\n        /* \"#utility.yul\":5692:5712   */\n      swap1\n      pop\n        /* \"#utility.yul\":5485:5718   */\n      swap2\n      swap1\n      pop\n      jump\t// out\n        /* \"#utility.yul\":5724:5891   */\n    tag_99:\n        /* \"#utility.yul\":5864:5883   */\n      0x436f756e74207570646174656420746f20000000000000000000000000000000\n        /* \"#utility.yul\":5860:5861   */\n      0x00\n        /* \"#utility.yul\":5852:5858   */\n      dup3\n        /* \"#utility.yul\":5848:5862   */\n      add\n        /* \"#utility.yul\":5841:5884   */\n      mstore\n        /* \"#utility.yul\":5724:5891   */\n      pop\n      jump\t// out\n        /* \"#utility.yul\":5897:6263   */\n    tag_100:\n        /* \"#utility.yul\":6039:6042   */\n      0x00\n        /* \"#utility.yul\":6060:6127   */\n      tag_175\n        /* \"#utility.yul\":6124:6126   */\n      0x11\n        /* \"#utility.yul\":6119:6122   */\n      dup4\n        /* \"#utility.yul\":6060:6127   */\n      tag_79\n      jump\t// in\n    tag_175:\n        /* \"#utility.yul\":6053:6127   */\n      swap2\n      pop\n        /* \"#utility.yul\":6136:6229   */\n      tag_176\n        /* \"#utility.yul\":6225:6228   */\n      dup3\n        /* \"#utility.yul\":6136:6229   */\n      tag_99\n      jump\t// in\n    tag_176:\n        /* \"#utility.yul\":6254:6256   */\n      0x20\n        /* \"#utility.yul\":6249:6252   */\n      dup3\n        /* \"#utility.yul\":6245:6257   */\n      add\n        /* \"#utility.yul\":6238:6257   */\n      swap1\n      pop\n        /* \"#utility.yul\":5897:6263   */\n      swap2\n      swap1\n      pop\n      jump\t// out\n        /* \"#utility.yul\":6269:6798   */\n    tag_75:\n        /* \"#utility.yul\":6463:6467   */\n      0x00\n        /* \"#utility.yul\":6501:6503   */\n      0x40\n        /* \"#utility.yul\":6490:6499   */\n      dup3\n        /* \"#utility.yul\":6486:6504   */\n      add\n        /* \"#utility.yul\":6478:6504   */\n      swap1\n      pop\n        /* \"#utility.yul\":6550:6559   */\n      dup2\n        /* \"#utility.yul\":6544:6548   */\n      dup2\n        /* \"#utility.yul\":6540:6560   */\n      sub\n        /* \"#utility.yul\":6536:6537   */\n      0x00\n        /* \"#utility.yul\":6525:6534   */\n      dup4\n        /* \"#utility.yul\":6521:6538   */\n      add\n        /* \"#utility.yul\":6514:6561   */\n      mstore\n        /* \"#utility.yul\":6578:6709   */\n      tag_178\n        /* \"#utility.yul\":6704:6708   */\n      dup2\n        /* \"#utility.yul\":6578:6709   */\n      tag_100\n      jump\t// in\n    tag_178:\n        /* \"#utility.yul\":6570:6709   */\n      swap1\n      pop\n        /* \"#utility.yul\":6719:6791   */\n      tag_179\n        /* \"#utility.yul\":6787:6789   */\n      0x20\n        /* \"#utility.yul\":6776:6785   */\n      dup4\n        /* \"#utility.yul\":6772:6790   */\n      add\n        /* \"#utility.yul\":6763:6769   */\n      dup5\n        /* \"#utility.yul\":6719:6791   */\n      tag_77\n      jump\t// in\n    tag_179:\n        /* \"#utility.yul\":6269:6798   */\n      swap3\n      swap2\n      pop\n      pop\n      jump\t// out\n\n    auxdata: 0xa2646970667358221220bdd8154c8d27bee7d0a9da114582eecc147bb57435f3e2bf205e3a5bf160aae964736f6c63430008120033\n}\n",
				"bytecode": {
					"linkReferences": {},
					"object": "60806040523480156200001157600080fd5b50609c6000819055506103e86001819055506040518060400160405280600881526020017f7361696b6972616e00000000000000000000000000000000000000000000000081525060029081620000699190620002ea565b50620003d1565b600081519050919050565b7f4e487b7100000000000000000000000000000000000000000000000000000000600052604160045260246000fd5b7f4e487b7100000000000000000000000000000000000000000000000000000000600052602260045260246000fd5b60006002820490506001821680620000f257607f821691505b602082108103620001085762000107620000aa565b5b50919050565b60008190508160005260206000209050919050565b60006020601f8301049050919050565b600082821b905092915050565b600060088302620001727fffffffffffffffffffffffffffffffffffffffffffffffffffffffffffffffff8262000133565b6200017e868362000133565b95508019841693508086168417925050509392505050565b6000819050919050565b6000819050919050565b6000620001cb620001c5620001bf8462000196565b620001a0565b62000196565b9050919050565b6000819050919050565b620001e783620001aa565b620001ff620001f682620001d2565b84845462000140565b825550505050565b600090565b6200021662000207565b62000223818484620001dc565b505050565b5b818110156200024b576200023f6000826200020c565b60018101905062000229565b5050565b601f8211156200029a5762000264816200010e565b6200026f8462000123565b810160208510156200027f578190505b620002976200028e8562000123565b83018262000228565b50505b505050565b600082821c905092915050565b6000620002bf600019846008026200029f565b1980831691505092915050565b6000620002da8383620002ac565b9150826002028217905092915050565b620002f58262000070565b67ffffffffffffffff8111156200031157620003106200007b565b5b6200031d8254620000d9565b6200032a8282856200024f565b600060209050601f8311600181146200036257600084156200034d578287015190505b620003598582620002cc565b865550620003c9565b601f19841662000372866200010e565b60005b828110156200039c5784890151825560018201915060208501945060208101905062000375565b86831015620003bc5784890151620003b8601f891682620002ac565b8355505b6001600288020188555050505b505050505050565b6107c080620003e16000396000f3fe6080604052600436106100915760003560e01c80639eb7a316116100595780639eb7a3161461015e578063a097a4921461017c578063a15ec531146101a7578063d0e30db0146101d2578063f6ad6b0a146101dc57610091565b806306661abd1461009657806306fdde03146100c15780631a695230146100ec5780634ddd108a146101085780638b7afe2e14610133575b600080fd5b3480156100a257600080fd5b506100ab610205565b6040516100b891906103d2565b60405180910390f35b3480156100cd57600080fd5b506100d661020b565b6040516100e3919061047d565b60405180910390f35b61010660048036038101906101019190610502565b610299565b005b34801561011457600080fd5b5061011d61031c565b60405161012a91906103d2565b60405180910390f35b34801561013f57600080fd5b50610148610322565b60405161015591906103d2565b60405180910390f35b61016661032a565b60405161017391906103d2565b60405180910390f35b34801561018857600080fd5b50610191610334565b60405161019e91906103d2565b60405180910390f35b3480156101b357600080fd5b506101bc610355565b6040516101c991906103d2565b60405180910390f35b6101da610376565b005b3480156101e857600080fd5b5061020360048036038101906101fe919061055b565b610378565b005b60005481565b60028054610218906105b7565b80601f0160208091040260200160405190810160405280929190818152602001828054610244906105b7565b80156102915780601f1061026657610100808354040283529160200191610291565b820191906000526020600020905b81548152906001019060200180831161027457829003601f168201915b505050505081565b8073ffffffffffffffffffffffffffffffffffffffff166108fc349081150290604051600060405180830381858888f193505050501580156102df573d6000803e3d6000fd5b507f90b91c1b7916ddc437ab46f887dc83a96828c354a6b92cfae5f89725379bff948134604051610311929190610647565b60405180910390a150565b60015481565b600047905090565b6000600154905090565b60008060008154809291906103489061069f565b9190505550600054905090565b6000806000815480929190610369906106c8565b9190505550600054905090565b565b806000819055507f934a8dfd9a342e19b7053ab93d7b52ac798168ab754cc6dbbe0c1d41172ba65c816040516103ae919061075c565b60405180910390a150565b6000819050919050565b6103cc816103b9565b82525050565b60006020820190506103e760008301846103c3565b92915050565b600081519050919050565b600082825260208201905092915050565b60005b8381101561042757808201518184015260208101905061040c565b60008484015250505050565b6000601f19601f8301169050919050565b600061044f826103ed565b61045981856103f8565b9350610469818560208601610409565b61047281610433565b840191505092915050565b600060208201905081810360008301526104978184610444565b905092915050565b600080fd5b600073ffffffffffffffffffffffffffffffffffffffff82169050919050565b60006104cf826104a4565b9050919050565b6104df816104c4565b81146104ea57600080fd5b50565b6000813590506104fc816104d6565b92915050565b6000602082840312156105185761051761049f565b5b6000610526848285016104ed565b91505092915050565b610538816103b9565b811461054357600080fd5b50565b6000813590506105558161052f565b92915050565b6000602082840312156105715761057061049f565b5b600061057f84828501610546565b91505092915050565b7f4e487b7100000000000000000000000000000000000000000000000000000000600052602260045260246000fd5b600060028204905060018216806105cf57607f821691505b6020821081036105e2576105e1610588565b5b50919050565b6000819050919050565b600061060d610608610603846104a4565b6105e8565b6104a4565b9050919050565b600061061f826105f2565b9050919050565b600061063182610614565b9050919050565b61064181610626565b82525050565b600060408201905061065c6000830185610638565b61066960208301846103c3565b9392505050565b7f4e487b7100000000000000000000000000000000000000000000000000000000600052601160045260246000fd5b60006106aa826103b9565b9150600082036106bd576106bc610670565b5b600182039050919050565b60006106d3826103b9565b91507fffffffffffffffffffffffffffffffffffffffffffffffffffffffffffffffff820361070557610704610670565b5b600182019050919050565b7f436f756e74207570646174656420746f20000000000000000000000000000000600082015250565b60006107466011836103f8565b915061075182610710565b602082019050919050565b6000604082019050818103600083015261077581610739565b905061078460208301846103c3565b9291505056fea2646970667358221220bdd8154c8d27bee7d0a9da114582eecc147bb57435f3e2bf205e3a5bf160aae964736f6c63430008120033",
					"opcodes": "PUSH1 0x80 PUSH1 0x40 MSTORE CALLVALUE DUP1 ISZERO PUSH3 0x11 JUMPI PUSH1 0x0 DUP1 REVERT JUMPDEST POP PUSH1 0x9C PUSH1 0x0 DUP2 SWAP1 SSTORE POP PUSH2 0x3E8 PUSH1 0x1 DUP2 SWAP1 SSTORE POP PUSH1 0x40 MLOAD DUP1 PUSH1 0x40 ADD PUSH1 0x40 MSTORE DUP1 PUSH1 0x8 DUP2 MSTORE PUSH1 0x20 ADD PUSH32 0x7361696B6972616E000000000000000000000000000000000000000000000000 DUP2 MSTORE POP PUSH1 0x2 SWAP1 DUP2 PUSH3 0x69 SWAP2 SWAP1 PUSH3 0x2EA JUMP JUMPDEST POP PUSH3 0x3D1 JUMP JUMPDEST PUSH1 0x0 DUP2 MLOAD SWAP1 POP SWAP2 SWAP1 POP JUMP JUMPDEST PUSH32 0x4E487B7100000000000000000000000000000000000000000000000000000000 PUSH1 0x0 MSTORE PUSH1 0x41 PUSH1 0x4 MSTORE PUSH1 0x24 PUSH1 0x0 REVERT JUMPDEST PUSH32 0x4E487B7100000000000000000000000000000000000000000000000000000000 PUSH1 0x0 MSTORE PUSH1 0x22 PUSH1 0x4 MSTORE PUSH1 0x24 PUSH1 0x0 REVERT JUMPDEST PUSH1 0x0 PUSH1 0x2 DUP3 DIV SWAP1 POP PUSH1 0x1 DUP3 AND DUP1 PUSH3 0xF2 JUMPI PUSH1 0x7F DUP3 AND SWAP2 POP JUMPDEST PUSH1 0x20 DUP3 LT DUP2 SUB PUSH3 0x108 JUMPI PUSH3 0x107 PUSH3 0xAA JUMP JUMPDEST JUMPDEST POP SWAP2 SWAP1 POP JUMP JUMPDEST PUSH1 0x0 DUP2 SWAP1 POP DUP2 PUSH1 0x0 MSTORE PUSH1 0x20 PUSH1 0x0 KECCAK256 SWAP1 POP SWAP2 SWAP1 POP JUMP JUMPDEST PUSH1 0x0 PUSH1 0x20 PUSH1 0x1F DUP4 ADD DIV SWAP1 POP SWAP2 SWAP1 POP JUMP JUMPDEST PUSH1 0x0 DUP3 DUP3 SHL SWAP1 POP SWAP3 SWAP2 POP POP JUMP JUMPDEST PUSH1 0x0 PUSH1 0x8 DUP4 MUL PUSH3 0x172 PUSH32 0xFFFFFFFFFFFFFFFFFFFFFFFFFFFFFFFFFFFFFFFFFFFFFFFFFFFFFFFFFFFFFFFF DUP3 PUSH3 0x133 JUMP JUMPDEST PUSH3 0x17E DUP7 DUP4 PUSH3 0x133 JUMP JUMPDEST SWAP6 POP DUP1 NOT DUP5 AND SWAP4 POP DUP1 DUP7 AND DUP5 OR SWAP3 POP POP POP SWAP4 SWAP3 POP POP POP JUMP JUMPDEST PUSH1 0x0 DUP2 SWAP1 POP SWAP2 SWAP1 POP JUMP JUMPDEST PUSH1 0x0 DUP2 SWAP1 POP SWAP2 SWAP1 POP JUMP JUMPDEST PUSH1 0x0 PUSH3 0x1CB PUSH3 0x1C5 PUSH3 0x1BF DUP5 PUSH3 0x196 JUMP JUMPDEST PUSH3 0x1A0 JUMP JUMPDEST PUSH3 0x196 JUMP JUMPDEST SWAP1 POP SWAP2 SWAP1 POP JUMP JUMPDEST PUSH1 0x0 DUP2 SWAP1 POP SWAP2 SWAP1 POP JUMP JUMPDEST PUSH3 0x1E7 DUP4 PUSH3 0x1AA JUMP JUMPDEST PUSH3 0x1FF PUSH3 0x1F6 DUP3 PUSH3 0x1D2 JUMP JUMPDEST DUP5 DUP5 SLOAD PUSH3 0x140 JUMP JUMPDEST DUP3 SSTORE POP POP POP POP JUMP JUMPDEST PUSH1 0x0 SWAP1 JUMP JUMPDEST PUSH3 0x216 PUSH3 0x207 JUMP JUMPDEST PUSH3 0x223 DUP2 DUP5 DUP5 PUSH3 0x1DC JUMP JUMPDEST POP POP POP JUMP JUMPDEST JUMPDEST DUP2 DUP2 LT ISZERO PUSH3 0x24B JUMPI PUSH3 0x23F PUSH1 0x0 DUP3 PUSH3 0x20C JUMP JUMPDEST PUSH1 0x1 DUP2 ADD SWAP1 POP PUSH3 0x229 JUMP JUMPDEST POP POP JUMP JUMPDEST PUSH1 0x1F DUP3 GT ISZERO PUSH3 0x29A JUMPI PUSH3 0x264 DUP2 PUSH3 0x10E JUMP JUMPDEST PUSH3 0x26F DUP5 PUSH3 0x123 JUMP JUMPDEST DUP2 ADD PUSH1 0x20 DUP6 LT ISZERO PUSH3 0x27F JUMPI DUP2 SWAP1 POP JUMPDEST PUSH3 0x297 PUSH3 0x28E DUP6 PUSH3 0x123 JUMP JUMPDEST DUP4 ADD DUP3 PUSH3 0x228 JUMP JUMPDEST POP POP JUMPDEST POP POP POP JUMP JUMPDEST PUSH1 0x0 DUP3 DUP3 SHR SWAP1 POP SWAP3 SWAP2 POP POP JUMP JUMPDEST PUSH1 0x0 PUSH3 0x2BF PUSH1 0x0 NOT DUP5 PUSH1 0x8 MUL PUSH3 0x29F JUMP JUMPDEST NOT DUP1 DUP4 AND SWAP2 POP POP SWAP3 SWAP2 POP POP JUMP JUMPDEST PUSH1 0x0 PUSH3 0x2DA DUP4 DUP4 PUSH3 0x2AC JUMP JUMPDEST SWAP2 POP DUP3 PUSH1 0x2 MUL DUP3 OR SWAP1 POP SWAP3 SWAP2 POP POP JUMP JUMPDEST PUSH3 0x2F5 DUP3 PUSH3 0x70 JUMP JUMPDEST PUSH8 0xFFFFFFFFFFFFFFFF DUP2 GT ISZERO PUSH3 0x311 JUMPI PUSH3 0x310 PUSH3 0x7B JUMP JUMPDEST JUMPDEST PUSH3 0x31D DUP3 SLOAD PUSH3 0xD9 JUMP JUMPDEST PUSH3 0x32A DUP3 DUP3 DUP6 PUSH3 0x24F JUMP JUMPDEST PUSH1 0x0 PUSH1 0x20 SWAP1 POP PUSH1 0x1F DUP4 GT PUSH1 0x1 DUP2 EQ PUSH3 0x362 JUMPI PUSH1 0x0 DUP5 ISZERO PUSH3 0x34D JUMPI DUP3 DUP8 ADD MLOAD SWAP1 POP JUMPDEST PUSH3 0x359 DUP6 DUP3 PUSH3 0x2CC JUMP JUMPDEST DUP7 SSTORE POP PUSH3 0x3C9 JUMP JUMPDEST PUSH1 0x1F NOT DUP5 AND PUSH3 0x372 DUP7 PUSH3 0x10E JUMP JUMPDEST PUSH1 0x0 JUMPDEST DUP3 DUP2 LT ISZERO PUSH3 0x39C JUMPI DUP5 DUP10 ADD MLOAD DUP3 SSTORE PUSH1 0x1 DUP3 ADD SWAP2 POP PUSH1 0x20 DUP6 ADD SWAP5 POP PUSH1 0x20 DUP2 ADD SWAP1 POP PUSH3 0x375 JUMP JUMPDEST DUP7 DUP4 LT ISZERO PUSH3 0x3BC JUMPI DUP5 DUP10 ADD MLOAD PUSH3 0x3B8 PUSH1 0x1F DUP10 AND DUP3 PUSH3 0x2AC JUMP JUMPDEST DUP4 SSTORE POP JUMPDEST PUSH1 0x1 PUSH1 0x2 DUP9 MUL ADD DUP9 SSTORE POP POP POP JUMPDEST POP POP POP POP POP POP JUMP JUMPDEST PUSH2 0x7C0 DUP1 PUSH3 0x3E1 PUSH1 0x0 CODECOPY PUSH1 0x0 RETURN INVALID PUSH1 0x80 PUSH1 0x40 MSTORE PUSH1 0x4 CALLDATASIZE LT PUSH2 0x91 JUMPI PUSH1 0x0 CALLDATALOAD PUSH1 0xE0 SHR DUP1 PUSH4 0x9EB7A316 GT PUSH2 0x59 JUMPI DUP1 PUSH4 0x9EB7A316 EQ PUSH2 0x15E JUMPI DUP1 PUSH4 0xA097A492 EQ PUSH2 0x17C JUMPI DUP1 PUSH4 0xA15EC531 EQ PUSH2 0x1A7 JUMPI DUP1 PUSH4 0xD0E30DB0 EQ PUSH2 0x1D2 JUMPI DUP1 PUSH4 0xF6AD6B0A EQ PUSH2 0x1DC JUMPI PUSH2 0x91 JUMP JUMPDEST DUP1 PUSH4 0x6661ABD EQ PUSH2 0x96 JUMPI DUP1 PUSH4 0x6FDDE03 EQ PUSH2 0xC1 JUMPI DUP1 PUSH4 0x1A695230 EQ PUSH2 0xEC JUMPI DUP1 PUSH4 0x4DDD108A EQ PUSH2 0x108 JUMPI DUP1 PUSH4 0x8B7AFE2E EQ PUSH2 0x133 JUMPI JUMPDEST PUSH1 0x0 DUP1 REVERT JUMPDEST CALLVALUE DUP1 ISZERO PUSH2 0xA2 JUMPI PUSH1 0x0 DUP1 REVERT JUMPDEST POP PUSH2 0xAB PUSH2 0x205 JUMP JUMPDEST PUSH1 0x40 MLOAD PUSH2 0xB8 SWAP2 SWAP1 PUSH2 0x3D2 JUMP JUMPDEST PUSH1 0x40 MLOAD DUP1 SWAP2 SUB SWAP1 RETURN JUMPDEST CALLVALUE DUP1 ISZERO PUSH2 0xCD JUMPI PUSH1 0x0 DUP1 REVERT JUMPDEST POP PUSH2 0xD6 PUSH2 0x20B JUMP JUMPDEST PUSH1 0x40 MLOAD PUSH2 0xE3 SWAP2 SWAP1 PUSH2 0x47D JUMP JUMPDEST PUSH1 0x40 MLOAD DUP1 SWAP2 SUB SWAP1 RETURN JUMPDEST PUSH2 0x106 PUSH1 0x4 DUP1 CALLDATASIZE SUB DUP2 ADD SWAP1 PUSH2 0x101 SWAP2 SWAP1 PUSH2 0x502 JUMP JUMPDEST PUSH2 0x299 JUMP JUMPDEST STOP JUMPDEST CALLVALUE DUP1 ISZERO PUSH2 0x114 JUMPI PUSH1 0x0 DUP1 REVERT JUMPDEST POP PUSH2 0x11D PUSH2 0x31C JUMP JUMPDEST PUSH1 0x40 MLOAD PUSH2 0x12A SWAP2 SWAP1 PUSH2 0x3D2 JUMP JUMPDEST PUSH1 0x40 MLOAD DUP1 SWAP2 SUB SWAP1 RETURN JUMPDEST CALLVALUE DUP1 ISZERO PUSH2 0x13F JUMPI PUSH1 0x0 DUP1 REVERT JUMPDEST POP PUSH2 0x148 PUSH2 0x322 JUMP JUMPDEST PUSH1 0x40 MLOAD PUSH2 0x155 SWAP2 SWAP1 PUSH2 0x3D2 JUMP JUMPDEST PUSH1 0x40 MLOAD DUP1 SWAP2 SUB SWAP1 RETURN JUMPDEST PUSH2 0x166 PUSH2 0x32A JUMP JUMPDEST PUSH1 0x40 MLOAD PUSH2 0x173 SWAP2 SWAP1 PUSH2 0x3D2 JUMP JUMPDEST PUSH1 0x40 MLOAD DUP1 SWAP2 SUB SWAP1 RETURN JUMPDEST CALLVALUE DUP1 ISZERO PUSH2 0x188 JUMPI PUSH1 0x0 DUP1 REVERT JUMPDEST POP PUSH2 0x191 PUSH2 0x334 JUMP JUMPDEST PUSH1 0x40 MLOAD PUSH2 0x19E SWAP2 SWAP1 PUSH2 0x3D2 JUMP JUMPDEST PUSH1 0x40 MLOAD DUP1 SWAP2 SUB SWAP1 RETURN JUMPDEST CALLVALUE DUP1 ISZERO PUSH2 0x1B3 JUMPI PUSH1 0x0 DUP1 REVERT JUMPDEST POP PUSH2 0x1BC PUSH2 0x355 JUMP JUMPDEST PUSH1 0x40 MLOAD PUSH2 0x1C9 SWAP2 SWAP1 PUSH2 0x3D2 JUMP JUMPDEST PUSH1 0x40 MLOAD DUP1 SWAP2 SUB SWAP1 RETURN JUMPDEST PUSH2 0x1DA PUSH2 0x376 JUMP JUMPDEST STOP JUMPDEST CALLVALUE DUP1 ISZERO PUSH2 0x1E8 JUMPI PUSH1 0x0 DUP1 REVERT JUMPDEST POP PUSH2 0x203 PUSH1 0x4 DUP1 CALLDATASIZE SUB DUP2 ADD SWAP1 PUSH2 0x1FE SWAP2 SWAP1 PUSH2 0x55B JUMP JUMPDEST PUSH2 0x378 JUMP JUMPDEST STOP JUMPDEST PUSH1 0x0 SLOAD DUP2 JUMP JUMPDEST PUSH1 0x2 DUP1 SLOAD PUSH2 0x218 SWAP1 PUSH2 0x5B7 JUMP JUMPDEST DUP1 PUSH1 0x1F ADD PUSH1 0x20 DUP1 SWAP2 DIV MUL PUSH1 0x20 ADD PUSH1 0x40 MLOAD SWAP1 DUP2 ADD PUSH1 0x40 MSTORE DUP1 SWAP3 SWAP2 SWAP1 DUP2 DUP2 MSTORE PUSH1 0x20 ADD DUP3 DUP1 SLOAD PUSH2 0x244 SWAP1 PUSH2 0x5B7 JUMP JUMPDEST DUP1 ISZERO PUSH2 0x291 JUMPI DUP1 PUSH1 0x1F LT PUSH2 0x266 JUMPI PUSH2 0x100 DUP1 DUP4 SLOAD DIV MUL DUP4 MSTORE SWAP2 PUSH1 0x20 ADD SWAP2 PUSH2 0x291 JUMP JUMPDEST DUP3 ADD SWAP2 SWAP1 PUSH1 0x0 MSTORE PUSH1 0x20 PUSH1 0x0 KECCAK256 SWAP1 JUMPDEST DUP2 SLOAD DUP2 MSTORE SWAP1 PUSH1 0x1 ADD SWAP1 PUSH1 0x20 ADD DUP1 DUP4 GT PUSH2 0x274 JUMPI DUP3 SWAP1 SUB PUSH1 0x1F AND DUP3 ADD SWAP2 JUMPDEST POP POP POP POP POP DUP2 JUMP JUMPDEST DUP1 PUSH20 0xFFFFFFFFFFFFFFFFFFFFFFFFFFFFFFFFFFFFFFFF AND PUSH2 0x8FC CALLVALUE SWAP1 DUP2 ISZERO MUL SWAP1 PUSH1 0x40 MLOAD PUSH1 0x0 PUSH1 0x40 MLOAD DUP1 DUP4 SUB DUP2 DUP6 DUP9 DUP9 CALL SWAP4 POP POP POP POP ISZERO DUP1 ISZERO PUSH2 0x2DF JUMPI RETURNDATASIZE PUSH1 0x0 DUP1 RETURNDATACOPY RETURNDATASIZE PUSH1 0x0 REVERT JUMPDEST POP PUSH32 0x90B91C1B7916DDC437AB46F887DC83A96828C354A6B92CFAE5F89725379BFF94 DUP2 CALLVALUE PUSH1 0x40 MLOAD PUSH2 0x311 SWAP3 SWAP2 SWAP1 PUSH2 0x647 JUMP JUMPDEST PUSH1 0x40 MLOAD DUP1 SWAP2 SUB SWAP1 LOG1 POP JUMP JUMPDEST PUSH1 0x1 SLOAD DUP2 JUMP JUMPDEST PUSH1 0x0 SELFBALANCE SWAP1 POP SWAP1 JUMP JUMPDEST PUSH1 0x0 PUSH1 0x1 SLOAD SWAP1 POP SWAP1 JUMP JUMPDEST PUSH1 0x0 DUP1 PUSH1 0x0 DUP2 SLOAD DUP1 SWAP3 SWAP2 SWAP1 PUSH2 0x348 SWAP1 PUSH2 0x69F JUMP JUMPDEST SWAP2 SWAP1 POP SSTORE POP PUSH1 0x0 SLOAD SWAP1 POP SWAP1 JUMP JUMPDEST PUSH1 0x0 DUP1 PUSH1 0x0 DUP2 SLOAD DUP1 SWAP3 SWAP2 SWAP1 PUSH2 0x369 SWAP1 PUSH2 0x6C8 JUMP JUMPDEST SWAP2 SWAP1 POP SSTORE POP PUSH1 0x0 SLOAD SWAP1 POP SWAP1 JUMP JUMPDEST JUMP JUMPDEST DUP1 PUSH1 0x0 DUP2 SWAP1 SSTORE POP PUSH32 0x934A8DFD9A342E19B7053AB93D7B52AC798168AB754CC6DBBE0C1D41172BA65C DUP2 PUSH1 0x40 MLOAD PUSH2 0x3AE SWAP2 SWAP1 PUSH2 0x75C JUMP JUMPDEST PUSH1 0x40 MLOAD DUP1 SWAP2 SUB SWAP1 LOG1 POP JUMP JUMPDEST PUSH1 0x0 DUP2 SWAP1 POP SWAP2 SWAP1 POP JUMP JUMPDEST PUSH2 0x3CC DUP2 PUSH2 0x3B9 JUMP JUMPDEST DUP3 MSTORE POP POP JUMP JUMPDEST PUSH1 0x0 PUSH1 0x20 DUP3 ADD SWAP1 POP PUSH2 0x3E7 PUSH1 0x0 DUP4 ADD DUP5 PUSH2 0x3C3 JUMP JUMPDEST SWAP3 SWAP2 POP POP JUMP JUMPDEST PUSH1 0x0 DUP2 MLOAD SWAP1 POP SWAP2 SWAP1 POP JUMP JUMPDEST PUSH1 0x0 DUP3 DUP3 MSTORE PUSH1 0x20 DUP3 ADD SWAP1 POP SWAP3 SWAP2 POP POP JUMP JUMPDEST PUSH1 0x0 JUMPDEST DUP4 DUP2 LT ISZERO PUSH2 0x427 JUMPI DUP1 DUP3 ADD MLOAD DUP2 DUP5 ADD MSTORE PUSH1 0x20 DUP2 ADD SWAP1 POP PUSH2 0x40C JUMP JUMPDEST PUSH1 0x0 DUP5 DUP5 ADD MSTORE POP POP POP POP JUMP JUMPDEST PUSH1 0x0 PUSH1 0x1F NOT PUSH1 0x1F DUP4 ADD AND SWAP1 POP SWAP2 SWAP1 POP JUMP JUMPDEST PUSH1 0x0 PUSH2 0x44F DUP3 PUSH2 0x3ED JUMP JUMPDEST PUSH2 0x459 DUP2 DUP6 PUSH2 0x3F8 JUMP JUMPDEST SWAP4 POP PUSH2 0x469 DUP2 DUP6 PUSH1 0x20 DUP7 ADD PUSH2 0x409 JUMP JUMPDEST PUSH2 0x472 DUP2 PUSH2 0x433 JUMP JUMPDEST DUP5 ADD SWAP2 POP POP SWAP3 SWAP2 POP POP JUMP JUMPDEST PUSH1 0x0 PUSH1 0x20 DUP3 ADD SWAP1 POP DUP2 DUP2 SUB PUSH1 0x0 DUP4 ADD MSTORE PUSH2 0x497 DUP2 DUP5 PUSH2 0x444 JUMP JUMPDEST SWAP1 POP SWAP3 SWAP2 POP POP JUMP JUMPDEST PUSH1 0x0 DUP1 REVERT JUMPDEST PUSH1 0x0 PUSH20 0xFFFFFFFFFFFFFFFFFFFFFFFFFFFFFFFFFFFFFFFF DUP3 AND SWAP1 POP SWAP2 SWAP1 POP JUMP JUMPDEST PUSH1 0x0 PUSH2 0x4CF DUP3 PUSH2 0x4A4 JUMP JUMPDEST SWAP1 POP SWAP2 SWAP1 POP JUMP JUMPDEST PUSH2 0x4DF DUP2 PUSH2 0x4C4 JUMP JUMPDEST DUP2 EQ PUSH2 0x4EA JUMPI PUSH1 0x0 DUP1 REVERT JUMPDEST POP JUMP JUMPDEST PUSH1 0x0 DUP2 CALLDATALOAD SWAP1 POP PUSH2 0x4FC DUP2 PUSH2 0x4D6 JUMP JUMPDEST SWAP3 SWAP2 POP POP JUMP JUMPDEST PUSH1 0x0 PUSH1 0x20 DUP3 DUP5 SUB SLT ISZERO PUSH2 0x518 JUMPI PUSH2 0x517 PUSH2 0x49F JUMP JUMPDEST JUMPDEST PUSH1 0x0 PUSH2 0x526 DUP5 DUP3 DUP6 ADD PUSH2 0x4ED JUMP JUMPDEST SWAP2 POP POP SWAP3 SWAP2 POP POP JUMP JUMPDEST PUSH2 0x538 DUP2 PUSH2 0x3B9 JUMP JUMPDEST DUP2 EQ PUSH2 0x543 JUMPI PUSH1 0x0 DUP1 REVERT JUMPDEST POP JUMP JUMPDEST PUSH1 0x0 DUP2 CALLDATALOAD SWAP1 POP PUSH2 0x555 DUP2 PUSH2 0x52F JUMP JUMPDEST SWAP3 SWAP2 POP POP JUMP JUMPDEST PUSH1 0x0 PUSH1 0x20 DUP3 DUP5 SUB SLT ISZERO PUSH2 0x571 JUMPI PUSH2 0x570 PUSH2 0x49F JUMP JUMPDEST JUMPDEST PUSH1 0x0 PUSH2 0x57F DUP5 DUP3 DUP6 ADD PUSH2 0x546 JUMP JUMPDEST SWAP2 POP POP SWAP3 SWAP2 POP POP JUMP JUMPDEST PUSH32 0x4E487B7100000000000000000000000000000000000000000000000000000000 PUSH1 0x0 MSTORE PUSH1 0x22 PUSH1 0x4 MSTORE PUSH1 0x24 PUSH1 0x0 REVERT JUMPDEST PUSH1 0x0 PUSH1 0x2 DUP3 DIV SWAP1 POP PUSH1 0x1 DUP3 AND DUP1 PUSH2 0x5CF JUMPI PUSH1 0x7F DUP3 AND SWAP2 POP JUMPDEST PUSH1 0x20 DUP3 LT DUP2 SUB PUSH2 0x5E2 JUMPI PUSH2 0x5E1 PUSH2 0x588 JUMP JUMPDEST JUMPDEST POP SWAP2 SWAP1 POP JUMP JUMPDEST PUSH1 0x0 DUP2 SWAP1 POP SWAP2 SWAP1 POP JUMP JUMPDEST PUSH1 0x0 PUSH2 0x60D PUSH2 0x608 PUSH2 0x603 DUP5 PUSH2 0x4A4 JUMP JUMPDEST PUSH2 0x5E8 JUMP JUMPDEST PUSH2 0x4A4 JUMP JUMPDEST SWAP1 POP SWAP2 SWAP1 POP JUMP JUMPDEST PUSH1 0x0 PUSH2 0x61F DUP3 PUSH2 0x5F2 JUMP JUMPDEST SWAP1 POP SWAP2 SWAP1 POP JUMP JUMPDEST PUSH1 0x0 PUSH2 0x631 DUP3 PUSH2 0x614 JUMP JUMPDEST SWAP1 POP SWAP2 SWAP1 POP JUMP JUMPDEST PUSH2 0x641 DUP2 PUSH2 0x626 JUMP JUMPDEST DUP3 MSTORE POP POP JUMP JUMPDEST PUSH1 0x0 PUSH1 0x40 DUP3 ADD SWAP1 POP PUSH2 0x65C PUSH1 0x0 DUP4 ADD DUP6 PUSH2 0x638 JUMP JUMPDEST PUSH2 0x669 PUSH1 0x20 DUP4 ADD DUP5 PUSH2 0x3C3 JUMP JUMPDEST SWAP4 SWAP3 POP POP POP JUMP JUMPDEST PUSH32 0x4E487B7100000000000000000000000000000000000000000000000000000000 PUSH1 0x0 MSTORE PUSH1 0x11 PUSH1 0x4 MSTORE PUSH1 0x24 PUSH1 0x0 REVERT JUMPDEST PUSH1 0x0 PUSH2 0x6AA DUP3 PUSH2 0x3B9 JUMP JUMPDEST SWAP2 POP PUSH1 0x0 DUP3 SUB PUSH2 0x6BD JUMPI PUSH2 0x6BC PUSH2 0x670 JUMP JUMPDEST JUMPDEST PUSH1 0x1 DUP3 SUB SWAP1 POP SWAP2 SWAP1 POP JUMP JUMPDEST PUSH1 0x0 PUSH2 0x6D3 DUP3 PUSH2 0x3B9 JUMP JUMPDEST SWAP2 POP PUSH32 0xFFFFFFFFFFFFFFFFFFFFFFFFFFFFFFFFFFFFFFFFFFFFFFFFFFFFFFFFFFFFFFFF DUP3 SUB PUSH2 0x705 JUMPI PUSH2 0x704 PUSH2 0x670 JUMP JUMPDEST JUMPDEST PUSH1 0x1 DUP3 ADD SWAP1 POP SWAP2 SWAP1 POP JUMP JUMPDEST PUSH32 0x436F756E74207570646174656420746F20000000000000000000000000000000 PUSH1 0x0 DUP3 ADD MSTORE POP JUMP JUMPDEST PUSH1 0x0 PUSH2 0x746 PUSH1 0x11 DUP4 PUSH2 0x3F8 JUMP JUMPDEST SWAP2 POP PUSH2 0x751 DUP3 PUSH2 0x710 JUMP JUMPDEST PUSH1 0x20 DUP3 ADD SWAP1 POP SWAP2 SWAP1 POP JUMP JUMPDEST PUSH1 0x0 PUSH1 0x40 DUP3 ADD SWAP1 POP DUP2 DUP2 SUB PUSH1 0x0 DUP4 ADD MSTORE PUSH2 0x775 DUP2 PUSH2 0x739 JUMP JUMPDEST SWAP1 POP PUSH2 0x784 PUSH1 0x20 DUP4 ADD DUP5 PUSH2 0x3C3 JUMP JUMPDEST SWAP3 SWAP2 POP POP JUMP INVALID LOG2 PUSH5 0x6970667358 0x22 SLT KECCAK256 0xBD 0xD8 ISZERO 0x4C DUP14 0x27 0xBE 0xE7 0xD0 0xA9 0xDA GT GASLIMIT DUP3 0xEE 0xCC EQ PUSH28 0xB57435F3E2BF205E3A5BF160AAE964736F6C63430008120033000000 "
				},
				"gasEstimates": {
					"creation": {
						"codeDepositCost": "396800",
						"executionCost": "infinite",
						"totalCost": "infinite"
					},
					"external": {
						"contractBalance()": "428",
						"count()": "2430",
						"decrementcount()": "infinite",
						"deposit()": "186",
						"displayamount()": "2413",
						"incrementcount()": "infinite",
						"money()": "2496",
						"name()": "infinite",
						"setcount(uint256)": "infinite",
						"transfer(address)": "infinite"
					}
				},
				"methodIdentifiers": {
					"contractBalance()": "8b7afe2e",
					"count()": "06661abd",
					"decrementcount()": "a097a492",
					"deposit()": "d0e30db0",
					"displayamount()": "9eb7a316",
					"incrementcount()": "a15ec531",
					"money()": "4ddd108a",
					"name()": "06fdde03",
					"setcount(uint256)": "f6ad6b0a",
					"transfer(address)": "1a695230"
				}
			},
			"storageLayout": {
				"storage": [
					{
						"astId": 3,
						"contract": "contracts/simple.sol:counter",
						"label": "count",
						"offset": 0,
						"slot": "0",
						"type": "t_uint256"
					},
					{
						"astId": 5,
						"contract": "contracts/simple.sol:counter",
						"label": "money",
						"offset": 0,
						"slot": "1",
						"type": "t_uint256"
					},
					{
						"astId": 7,
						"contract": "contracts/simple.sol:counter",
						"label": "name",
						"offset": 0,
						"slot": "2",
						"type": "t_string_storage"
					}
				],
				"types": {
					"t_string_storage": {
						"encoding": "bytes",
						"label": "string",
						"numberOfBytes": "32"
					},
					"t_uint256": {
						"encoding": "inplace",
						"label": "uint256",
						"numberOfBytes": "32"
					}
				}
			},
			"userdoc": {
				"kind": "user",
				"methods": {},
				"version": 1
			}
		}
	}
}