{
	"contracts/Transfer.sol": {
		"balance": {
			"abi": [
				{
					"inputs": [],
					"stateMutability": "nonpayable",
					"type": "constructor"
				},
				{
					"anonymous": false,
					"inputs": [
						{
							"indexed": false,
							"internalType": "string",
							"name": "message",
							"type": "string"
						},
						{
							"indexed": false,
							"internalType": "uint256",
							"name": "data",
							"type": "uint256"
						}
					],
					"name": "CheckGas",
					"type": "event"
				},
				{
					"stateMutability": "payable",
					"type": "fallback"
				},
				{
					"inputs": [
						{
							"internalType": "address",
							"name": "",
							"type": "address"
						}
					],
					"name": "balances",
					"outputs": [
						{
							"internalType": "uint256",
							"name": "",
							"type": "uint256"
						}
					],
					"stateMutability": "view",
					"type": "function"
				},
				{
					"inputs": [],
					"name": "checkBalance",
					"outputs": [
						{
							"internalType": "uint256",
							"name": "",
							"type": "uint256"
						}
					],
					"stateMutability": "view",
					"type": "function"
				},
				{
					"inputs": [
						{
							"internalType": "address payable",
							"name": "_to",
							"type": "address"
						}
					],
					"name": "sendbycall",
					"outputs": [],
					"stateMutability": "payable",
					"type": "function"
				},
				{
					"inputs": [
						{
							"internalType": "address payable",
							"name": "_to",
							"type": "address"
						}
					],
					"name": "sendbysend",
					"outputs": [],
					"stateMutability": "payable",
					"type": "function"
				},
				{
					"inputs": [
						{
							"internalType": "address payable",
							"name": "_to",
							"type": "address"
						},
						{
							"internalType": "uint256",
							"name": "_amount",
							"type": "uint256"
						}
					],
					"name": "sendbytransfer",
					"outputs": [],
					"stateMutability": "payable",
					"type": "function"
				},
				{
					"stateMutability": "payable",
					"type": "receive"
				}
			],
			"devdoc": {
				"kind": "dev",
				"methods": {},
				"version": 1
			},
			"evm": {
				"assembly": "    /* \"contracts/Transfer.sol\":70:1514  contract balance{... */\n  mstore(0x40, 0x80)\n    /* \"contracts/Transfer.sol\":167:224  constructor(){... */\n  callvalue\n  dup1\n  iszero\n  tag_1\n  jumpi\n  0x00\n  dup1\n  revert\ntag_1:\n  pop\n    /* \"contracts/Transfer.sol\":206:216  msg.sender */\n  caller\n    /* \"contracts/Transfer.sol\":190:195  owner */\n  0x00\n  dup1\n    /* \"contracts/Transfer.sol\":190:217  owner = payable(msg.sender) */\n  0x0100\n  exp\n  dup2\n  sload\n  dup2\n  0xffffffffffffffffffffffffffffffffffffffff\n  mul\n  not\n  and\n  swap1\n  dup4\n  0xffffffffffffffffffffffffffffffffffffffff\n  and\n  mul\n  or\n  swap1\n  sstore\n  pop\n    /* \"contracts/Transfer.sol\":70:1514  contract balance{... */\n  dataSize(sub_0)\n  dup1\n  dataOffset(sub_0)\n  0x00\n  codecopy\n  0x00\n  return\nstop\n\nsub_0: assembly {\n        /* \"contracts/Transfer.sol\":70:1514  contract balance{... */\n      mstore(0x40, 0x80)\n      jumpi(tag_1, lt(calldatasize, 0x04))\n      shr(0xe0, calldataload(0x00))\n      dup1\n      0x27e235e3\n      eq\n      tag_3\n      jumpi\n      dup1\n      0x835659b2\n      eq\n      tag_4\n      jumpi\n      dup1\n      0xa3850439\n      eq\n      tag_5\n      jumpi\n      dup1\n      0xa5e1ff34\n      eq\n      tag_6\n      jumpi\n      dup1\n      0xc71daccb\n      eq\n      tag_7\n      jumpi\n      jump(tag_2)\n    tag_1:\n      jumpi(tag_2, calldatasize)\n        /* \"contracts/Transfer.sol\":1376:1412  CheckGas(\"Receive called\",gasleft()) */\n      0x809602c7ceb0106d2d51ecba1ee76e76148ab6bd91a4a0f2570371ecf3ff3547\n        /* \"contracts/Transfer.sol\":1402:1411  gasleft() */\n      gas\n        /* \"contracts/Transfer.sol\":1376:1412  CheckGas(\"Receive called\",gasleft()) */\n      mload(0x40)\n      tag_10\n      swap2\n      swap1\n      tag_11\n      jump\t// in\n    tag_10:\n      mload(0x40)\n      dup1\n      swap2\n      sub\n      swap1\n      log1\n        /* \"contracts/Transfer.sol\":70:1514  contract balance{... */\n      stop\n    tag_2:\n        /* \"contracts/Transfer.sol\":1467:1504  CheckGas(\"Fallback called\",gasleft()) */\n      0x809602c7ceb0106d2d51ecba1ee76e76148ab6bd91a4a0f2570371ecf3ff3547\n        /* \"contracts/Transfer.sol\":1494:1503  gasleft() */\n      gas\n        /* \"contracts/Transfer.sol\":1467:1504  CheckGas(\"Fallback called\",gasleft()) */\n      mload(0x40)\n      tag_14\n      swap2\n      swap1\n      tag_15\n      jump\t// in\n    tag_14:\n      mload(0x40)\n      dup1\n      swap2\n      sub\n      swap1\n      log1\n        /* \"contracts/Transfer.sol\":70:1514  contract balance{... */\n      stop\n        /* \"contracts/Transfer.sol\":120:160  mapping(address => uint) public balances */\n    tag_3:\n      callvalue\n      dup1\n      iszero\n      tag_16\n      jumpi\n      0x00\n      dup1\n      revert\n    tag_16:\n      pop\n      tag_17\n      0x04\n      dup1\n      calldatasize\n      sub\n      dup2\n      add\n      swap1\n      tag_18\n      swap2\n      swap1\n      tag_19\n      jump\t// in\n    tag_18:\n      tag_20\n      jump\t// in\n    tag_17:\n      mload(0x40)\n      tag_21\n      swap2\n      swap1\n      tag_22\n      jump\t// in\n    tag_21:\n      mload(0x40)\n      dup1\n      swap2\n      sub\n      swap1\n      return\n        /* \"contracts/Transfer.sol\":402:560  function sendbysend(address payable _to) public payable{... */\n    tag_4:\n      tag_23\n      0x04\n      dup1\n      calldatasize\n      sub\n      dup2\n      add\n      swap1\n      tag_24\n      swap2\n      swap1\n      tag_25\n      jump\t// in\n    tag_24:\n      tag_26\n      jump\t// in\n    tag_23:\n      stop\n        /* \"contracts/Transfer.sol\":566:722  function sendbytransfer(address payable _to,uint _amount) public payable{... */\n    tag_5:\n      tag_27\n      0x04\n      dup1\n      calldatasize\n      sub\n      dup2\n      add\n      swap1\n      tag_28\n      swap2\n      swap1\n      tag_29\n      jump\t// in\n    tag_28:\n      tag_30\n      jump\t// in\n    tag_27:\n      stop\n        /* \"contracts/Transfer.sol\":728:898  function sendbycall(address payable _to) public payable{... */\n    tag_6:\n      tag_31\n      0x04\n      dup1\n      calldatasize\n      sub\n      dup2\n      add\n      swap1\n      tag_32\n      swap2\n      swap1\n      tag_25\n      jump\t// in\n    tag_32:\n      tag_33\n      jump\t// in\n    tag_31:\n      stop\n        /* \"contracts/Transfer.sol\":230:395  function checkBalance() public view returns(uint){... */\n    tag_7:\n      callvalue\n      dup1\n      iszero\n      tag_34\n      jumpi\n      0x00\n      dup1\n      revert\n    tag_34:\n      pop\n      tag_35\n      tag_36\n      jump\t// in\n    tag_35:\n      mload(0x40)\n      tag_37\n      swap2\n      swap1\n      tag_22\n      jump\t// in\n    tag_37:\n      mload(0x40)\n      dup1\n      swap2\n      sub\n      swap1\n      return\n        /* \"contracts/Transfer.sol\":120:160  mapping(address => uint) public balances */\n    tag_20:\n      mstore(0x20, 0x01)\n      dup1\n      0x00\n      mstore\n      keccak256(0x00, 0x40)\n      0x00\n      swap2\n      pop\n      swap1\n      pop\n      sload\n      dup2\n      jump\t// out\n        /* \"contracts/Transfer.sol\":402:560  function sendbysend(address payable _to) public payable{... */\n    tag_26:\n        /* \"contracts/Transfer.sol\":467:478  bool status */\n      0x00\n        /* \"contracts/Transfer.sol\":481:484  _to */\n      dup2\n        /* \"contracts/Transfer.sol\":481:489  _to.send */\n      0xffffffffffffffffffffffffffffffffffffffff\n      and\n        /* \"contracts/Transfer.sol\":481:500  _to.send(msg.value) */\n      0x08fc\n        /* \"contracts/Transfer.sol\":490:499  msg.value */\n      callvalue\n        /* \"contracts/Transfer.sol\":481:500  _to.send(msg.value) */\n      swap1\n      dup2\n      iszero\n      mul\n      swap1\n      mload(0x40)\n      0x00\n      mload(0x40)\n      dup1\n      dup4\n      sub\n      dup2\n      dup6\n      dup9\n      dup9\n      call\n      swap4\n      pop\n      pop\n      pop\n      pop\n        /* \"contracts/Transfer.sol\":467:500  bool status = _to.send(msg.value) */\n      swap1\n      pop\n        /* \"contracts/Transfer.sol\":518:524  status */\n      dup1\n        /* \"contracts/Transfer.sol\":510:553  require(status,\"Transcation unsuccessfull\") */\n      tag_40\n      jumpi\n      mload(0x40)\n      0x08c379a000000000000000000000000000000000000000000000000000000000\n      dup2\n      mstore\n      0x04\n      add\n      tag_41\n      swap1\n      tag_42\n      jump\t// in\n    tag_41:\n      mload(0x40)\n      dup1\n      swap2\n      sub\n      swap1\n      revert\n    tag_40:\n        /* \"contracts/Transfer.sol\":457:560  {... */\n      pop\n        /* \"contracts/Transfer.sol\":402:560  function sendbysend(address payable _to) public payable{... */\n      pop\n      jump\t// out\n        /* \"contracts/Transfer.sol\":566:722  function sendbytransfer(address payable _to,uint _amount) public payable{... */\n    tag_30:\n        /* \"contracts/Transfer.sol\":693:696  _to */\n      dup2\n        /* \"contracts/Transfer.sol\":693:705  _to.transfer */\n      0xffffffffffffffffffffffffffffffffffffffff\n      and\n        /* \"contracts/Transfer.sol\":693:714  _to.transfer(_amount) */\n      0x08fc\n        /* \"contracts/Transfer.sol\":706:713  _amount */\n      dup3\n        /* \"contracts/Transfer.sol\":693:714  _to.transfer(_amount) */\n      swap1\n      dup2\n      iszero\n      mul\n      swap1\n      mload(0x40)\n      0x00\n      mload(0x40)\n      dup1\n      dup4\n      sub\n      dup2\n      dup6\n      dup9\n      dup9\n      call\n      swap4\n      pop\n      pop\n      pop\n      pop\n      iszero\n      dup1\n      iszero\n      tag_45\n      jumpi\n      returndatasize\n      0x00\n      dup1\n      returndatacopy\n      revert(0x00, returndatasize)\n    tag_45:\n      pop\n        /* \"contracts/Transfer.sol\":566:722  function sendbytransfer(address payable _to,uint _amount) public payable{... */\n      pop\n      pop\n      jump\t// out\n        /* \"contracts/Transfer.sol\":728:898  function sendbycall(address payable _to) public payable{... */\n    tag_33:\n        /* \"contracts/Transfer.sol\":794:805  bool result */\n      0x00\n        /* \"contracts/Transfer.sol\":810:813  _to */\n      dup2\n        /* \"contracts/Transfer.sol\":810:818  _to.call */\n      0xffffffffffffffffffffffffffffffffffffffff\n      and\n        /* \"contracts/Transfer.sol\":825:834  msg.value */\n      callvalue\n        /* \"contracts/Transfer.sol\":810:839  _to.call{value:msg.value}(\"\") */\n      mload(0x40)\n      tag_47\n      swap1\n      tag_48\n      jump\t// in\n    tag_47:\n      0x00\n      mload(0x40)\n      dup1\n      dup4\n      sub\n      dup2\n      dup6\n      dup8\n      gas\n      call\n      swap3\n      pop\n      pop\n      pop\n      returndatasize\n      dup1\n      0x00\n      dup2\n      eq\n      tag_51\n      jumpi\n      mload(0x40)\n      swap2\n      pop\n      and(add(returndatasize, 0x3f), not(0x1f))\n      dup3\n      add\n      0x40\n      mstore\n      returndatasize\n      dup3\n      mstore\n      returndatasize\n      0x00\n      0x20\n      dup5\n      add\n      returndatacopy\n      jump(tag_50)\n    tag_51:\n      0x60\n      swap2\n      pop\n    tag_50:\n      pop\n        /* \"contracts/Transfer.sol\":793:839  (bool result,) = _to.call{value:msg.value}(\"\") */\n      pop\n      swap1\n      pop\n        /* \"contracts/Transfer.sol\":857:863  result */\n      dup1\n        /* \"contracts/Transfer.sol\":849:891  require(result,\"Unsuccessful transcation\") */\n      tag_52\n      jumpi\n      mload(0x40)\n      0x08c379a000000000000000000000000000000000000000000000000000000000\n      dup2\n      mstore\n      0x04\n      add\n      tag_53\n      swap1\n      tag_54\n      jump\t// in\n    tag_53:\n      mload(0x40)\n      dup1\n      swap2\n      sub\n      swap1\n      revert\n    tag_52:\n        /* \"contracts/Transfer.sol\":783:898  {... */\n      pop\n        /* \"contracts/Transfer.sol\":728:898  function sendbycall(address payable _to) public payable{... */\n      pop\n      jump\t// out\n        /* \"contracts/Transfer.sol\":230:395  function checkBalance() public view returns(uint){... */\n    tag_36:\n        /* \"contracts/Transfer.sol\":274:278  uint */\n      0x00\n        /* \"contracts/Transfer.sol\":309:314  owner */\n      dup1\n      0x00\n      swap1\n      sload\n      swap1\n      0x0100\n      exp\n      swap1\n      div\n      0xffffffffffffffffffffffffffffffffffffffff\n      and\n        /* \"contracts/Transfer.sol\":297:314  msg.sender==owner */\n      0xffffffffffffffffffffffffffffffffffffffff\n      and\n        /* \"contracts/Transfer.sol\":297:307  msg.sender */\n      caller\n        /* \"contracts/Transfer.sol\":297:314  msg.sender==owner */\n      0xffffffffffffffffffffffffffffffffffffffff\n      and\n      eq\n        /* \"contracts/Transfer.sol\":289:350  require(msg.sender==owner,\"Only owner can check the balance\") */\n      tag_56\n      jumpi\n      mload(0x40)\n      0x08c379a000000000000000000000000000000000000000000000000000000000\n      dup2\n      mstore\n      0x04\n      add\n      tag_57\n      swap1\n      tag_58\n      jump\t// in\n    tag_57:\n      mload(0x40)\n      dup1\n      swap2\n      sub\n      swap1\n      revert\n    tag_56:\n        /* \"contracts/Transfer.sol\":367:388  address(this).balance */\n      selfbalance\n        /* \"contracts/Transfer.sol\":360:388  return address(this).balance */\n      swap1\n      pop\n        /* \"contracts/Transfer.sol\":230:395  function checkBalance() public view returns(uint){... */\n      swap1\n      jump\t// out\n        /* \"#utility.yul\":7:176   */\n    tag_59:\n        /* \"#utility.yul\":91:102   */\n      0x00\n        /* \"#utility.yul\":125:131   */\n      dup3\n        /* \"#utility.yul\":120:123   */\n      dup3\n        /* \"#utility.yul\":113:132   */\n      mstore\n        /* \"#utility.yul\":165:169   */\n      0x20\n        /* \"#utility.yul\":160:163   */\n      dup3\n        /* \"#utility.yul\":156:170   */\n      add\n        /* \"#utility.yul\":141:170   */\n      swap1\n      pop\n        /* \"#utility.yul\":7:176   */\n      swap3\n      swap2\n      pop\n      pop\n      jump\t// out\n        /* \"#utility.yul\":182:346   */\n    tag_60:\n        /* \"#utility.yul\":322:338   */\n      0x526563656976652063616c6c6564000000000000000000000000000000000000\n        /* \"#utility.yul\":318:319   */\n      0x00\n        /* \"#utility.yul\":310:316   */\n      dup3\n        /* \"#utility.yul\":306:320   */\n      add\n        /* \"#utility.yul\":299:339   */\n      mstore\n        /* \"#utility.yul\":182:346   */\n      pop\n      jump\t// out\n        /* \"#utility.yul\":352:718   */\n    tag_61:\n        /* \"#utility.yul\":494:497   */\n      0x00\n        /* \"#utility.yul\":515:582   */\n      tag_91\n        /* \"#utility.yul\":579:581   */\n      0x0e\n        /* \"#utility.yul\":574:577   */\n      dup4\n        /* \"#utility.yul\":515:582   */\n      tag_59\n      jump\t// in\n    tag_91:\n        /* \"#utility.yul\":508:582   */\n      swap2\n      pop\n        /* \"#utility.yul\":591:684   */\n      tag_92\n        /* \"#utility.yul\":680:683   */\n      dup3\n        /* \"#utility.yul\":591:684   */\n      tag_60\n      jump\t// in\n    tag_92:\n        /* \"#utility.yul\":709:711   */\n      0x20\n        /* \"#utility.yul\":704:707   */\n      dup3\n        /* \"#utility.yul\":700:712   */\n      add\n        /* \"#utility.yul\":693:712   */\n      swap1\n      pop\n        /* \"#utility.yul\":352:718   */\n      swap2\n      swap1\n      pop\n      jump\t// out\n        /* \"#utility.yul\":724:801   */\n    tag_62:\n        /* \"#utility.yul\":761:768   */\n      0x00\n        /* \"#utility.yul\":790:795   */\n      dup2\n        /* \"#utility.yul\":779:795   */\n      swap1\n      pop\n        /* \"#utility.yul\":724:801   */\n      swap2\n      swap1\n      pop\n      jump\t// out\n        /* \"#utility.yul\":807:925   */\n    tag_63:\n        /* \"#utility.yul\":894:918   */\n      tag_95\n        /* \"#utility.yul\":912:917   */\n      dup2\n        /* \"#utility.yul\":894:918   */\n      tag_62\n      jump\t// in\n    tag_95:\n        /* \"#utility.yul\":889:892   */\n      dup3\n        /* \"#utility.yul\":882:919   */\n      mstore\n        /* \"#utility.yul\":807:925   */\n      pop\n      pop\n      jump\t// out\n        /* \"#utility.yul\":931:1460   */\n    tag_11:\n        /* \"#utility.yul\":1125:1129   */\n      0x00\n        /* \"#utility.yul\":1163:1165   */\n      0x40\n        /* \"#utility.yul\":1152:1161   */\n      dup3\n        /* \"#utility.yul\":1148:1166   */\n      add\n        /* \"#utility.yul\":1140:1166   */\n      swap1\n      pop\n        /* \"#utility.yul\":1212:1221   */\n      dup2\n        /* \"#utility.yul\":1206:1210   */\n      dup2\n        /* \"#utility.yul\":1202:1222   */\n      sub\n        /* \"#utility.yul\":1198:1199   */\n      0x00\n        /* \"#utility.yul\":1187:1196   */\n      dup4\n        /* \"#utility.yul\":1183:1200   */\n      add\n        /* \"#utility.yul\":1176:1223   */\n      mstore\n        /* \"#utility.yul\":1240:1371   */\n      tag_97\n        /* \"#utility.yul\":1366:1370   */\n      dup2\n        /* \"#utility.yul\":1240:1371   */\n      tag_61\n      jump\t// in\n    tag_97:\n        /* \"#utility.yul\":1232:1371   */\n      swap1\n      pop\n        /* \"#utility.yul\":1381:1453   */\n      tag_98\n        /* \"#utility.yul\":1449:1451   */\n      0x20\n        /* \"#utility.yul\":1438:1447   */\n      dup4\n        /* \"#utility.yul\":1434:1452   */\n      add\n        /* \"#utility.yul\":1425:1431   */\n      dup5\n        /* \"#utility.yul\":1381:1453   */\n      tag_63\n      jump\t// in\n    tag_98:\n        /* \"#utility.yul\":931:1460   */\n      swap3\n      swap2\n      pop\n      pop\n      jump\t// out\n        /* \"#utility.yul\":1466:1631   */\n    tag_64:\n        /* \"#utility.yul\":1606:1623   */\n      0x46616c6c6261636b2063616c6c65640000000000000000000000000000000000\n        /* \"#utility.yul\":1602:1603   */\n      0x00\n        /* \"#utility.yul\":1594:1600   */\n      dup3\n        /* \"#utility.yul\":1590:1604   */\n      add\n        /* \"#utility.yul\":1583:1624   */\n      mstore\n        /* \"#utility.yul\":1466:1631   */\n      pop\n      jump\t// out\n        /* \"#utility.yul\":1637:2003   */\n    tag_65:\n        /* \"#utility.yul\":1779:1782   */\n      0x00\n        /* \"#utility.yul\":1800:1867   */\n      tag_101\n        /* \"#utility.yul\":1864:1866   */\n      0x0f\n        /* \"#utility.yul\":1859:1862   */\n      dup4\n        /* \"#utility.yul\":1800:1867   */\n      tag_59\n      jump\t// in\n    tag_101:\n        /* \"#utility.yul\":1793:1867   */\n      swap2\n      pop\n        /* \"#utility.yul\":1876:1969   */\n      tag_102\n        /* \"#utility.yul\":1965:1968   */\n      dup3\n        /* \"#utility.yul\":1876:1969   */\n      tag_64\n      jump\t// in\n    tag_102:\n        /* \"#utility.yul\":1994:1996   */\n      0x20\n        /* \"#utility.yul\":1989:1992   */\n      dup3\n        /* \"#utility.yul\":1985:1997   */\n      add\n        /* \"#utility.yul\":1978:1997   */\n      swap1\n      pop\n        /* \"#utility.yul\":1637:2003   */\n      swap2\n      swap1\n      pop\n      jump\t// out\n        /* \"#utility.yul\":2009:2538   */\n    tag_15:\n        /* \"#utility.yul\":2203:2207   */\n      0x00\n        /* \"#utility.yul\":2241:2243   */\n      0x40\n        /* \"#utility.yul\":2230:2239   */\n      dup3\n        /* \"#utility.yul\":2226:2244   */\n      add\n        /* \"#utility.yul\":2218:2244   */\n      swap1\n      pop\n        /* \"#utility.yul\":2290:2299   */\n      dup2\n        /* \"#utility.yul\":2284:2288   */\n      dup2\n        /* \"#utility.yul\":2280:2300   */\n      sub\n        /* \"#utility.yul\":2276:2277   */\n      0x00\n        /* \"#utility.yul\":2265:2274   */\n      dup4\n        /* \"#utility.yul\":2261:2278   */\n      add\n        /* \"#utility.yul\":2254:2301   */\n      mstore\n        /* \"#utility.yul\":2318:2449   */\n      tag_104\n        /* \"#utility.yul\":2444:2448   */\n      dup2\n        /* \"#utility.yul\":2318:2449   */\n      tag_65\n      jump\t// in\n    tag_104:\n        /* \"#utility.yul\":2310:2449   */\n      swap1\n      pop\n        /* \"#utility.yul\":2459:2531   */\n      tag_105\n        /* \"#utility.yul\":2527:2529   */\n      0x20\n        /* \"#utility.yul\":2516:2525   */\n      dup4\n        /* \"#utility.yul\":2512:2530   */\n      add\n        /* \"#utility.yul\":2503:2509   */\n      dup5\n        /* \"#utility.yul\":2459:2531   */\n      tag_63\n      jump\t// in\n    tag_105:\n        /* \"#utility.yul\":2009:2538   */\n      swap3\n      swap2\n      pop\n      pop\n      jump\t// out\n        /* \"#utility.yul\":2625:2742   */\n    tag_67:\n        /* \"#utility.yul\":2734:2735   */\n      0x00\n        /* \"#utility.yul\":2731:2732   */\n      dup1\n        /* \"#utility.yul\":2724:2736   */\n      revert\n        /* \"#utility.yul\":2871:2997   */\n    tag_69:\n        /* \"#utility.yul\":2908:2915   */\n      0x00\n        /* \"#utility.yul\":2948:2990   */\n      0xffffffffffffffffffffffffffffffffffffffff\n        /* \"#utility.yul\":2941:2946   */\n      dup3\n        /* \"#utility.yul\":2937:2991   */\n      and\n        /* \"#utility.yul\":2926:2991   */\n      swap1\n      pop\n        /* \"#utility.yul\":2871:2997   */\n      swap2\n      swap1\n      pop\n      jump\t// out\n        /* \"#utility.yul\":3003:3099   */\n    tag_70:\n        /* \"#utility.yul\":3040:3047   */\n      0x00\n        /* \"#utility.yul\":3069:3093   */\n      tag_111\n        /* \"#utility.yul\":3087:3092   */\n      dup3\n        /* \"#utility.yul\":3069:3093   */\n      tag_69\n      jump\t// in\n    tag_111:\n        /* \"#utility.yul\":3058:3093   */\n      swap1\n      pop\n        /* \"#utility.yul\":3003:3099   */\n      swap2\n      swap1\n      pop\n      jump\t// out\n        /* \"#utility.yul\":3105:3227   */\n    tag_71:\n        /* \"#utility.yul\":3178:3202   */\n      tag_113\n        /* \"#utility.yul\":3196:3201   */\n      dup2\n        /* \"#utility.yul\":3178:3202   */\n      tag_70\n      jump\t// in\n    tag_113:\n        /* \"#utility.yul\":3171:3176   */\n      dup2\n        /* \"#utility.yul\":3168:3203   */\n      eq\n        /* \"#utility.yul\":3158:3221   */\n      tag_114\n      jumpi\n        /* \"#utility.yul\":3217:3218   */\n      0x00\n        /* \"#utility.yul\":3214:3215   */\n      dup1\n        /* \"#utility.yul\":3207:3219   */\n      revert\n        /* \"#utility.yul\":3158:3221   */\n    tag_114:\n        /* \"#utility.yul\":3105:3227   */\n      pop\n      jump\t// out\n        /* \"#utility.yul\":3233:3372   */\n    tag_72:\n        /* \"#utility.yul\":3279:3284   */\n      0x00\n        /* \"#utility.yul\":3317:3323   */\n      dup2\n        /* \"#utility.yul\":3304:3324   */\n      calldataload\n        /* \"#utility.yul\":3295:3324   */\n      swap1\n      pop\n        /* \"#utility.yul\":3333:3366   */\n      tag_116\n        /* \"#utility.yul\":3360:3365   */\n      dup2\n        /* \"#utility.yul\":3333:3366   */\n      tag_71\n      jump\t// in\n    tag_116:\n        /* \"#utility.yul\":3233:3372   */\n      swap3\n      swap2\n      pop\n      pop\n      jump\t// out\n        /* \"#utility.yul\":3378:3707   */\n    tag_19:\n        /* \"#utility.yul\":3437:3443   */\n      0x00\n        /* \"#utility.yul\":3486:3488   */\n      0x20\n        /* \"#utility.yul\":3474:3483   */\n      dup3\n        /* \"#utility.yul\":3465:3472   */\n      dup5\n        /* \"#utility.yul\":3461:3484   */\n      sub\n        /* \"#utility.yul\":3457:3489   */\n      slt\n        /* \"#utility.yul\":3454:3573   */\n      iszero\n      tag_118\n      jumpi\n        /* \"#utility.yul\":3492:3571   */\n      tag_119\n      tag_67\n      jump\t// in\n    tag_119:\n        /* \"#utility.yul\":3454:3573   */\n    tag_118:\n        /* \"#utility.yul\":3612:3613   */\n      0x00\n        /* \"#utility.yul\":3637:3690   */\n      tag_120\n        /* \"#utility.yul\":3682:3689   */\n      dup5\n        /* \"#utility.yul\":3673:3679   */\n      dup3\n        /* \"#utility.yul\":3662:3671   */\n      dup6\n        /* \"#utility.yul\":3658:3680   */\n      add\n        /* \"#utility.yul\":3637:3690   */\n      tag_72\n      jump\t// in\n    tag_120:\n        /* \"#utility.yul\":3627:3690   */\n      swap2\n      pop\n        /* \"#utility.yul\":3583:3700   */\n      pop\n        /* \"#utility.yul\":3378:3707   */\n      swap3\n      swap2\n      pop\n      pop\n      jump\t// out\n        /* \"#utility.yul\":3713:3935   */\n    tag_22:\n        /* \"#utility.yul\":3806:3810   */\n      0x00\n        /* \"#utility.yul\":3844:3846   */\n      0x20\n        /* \"#utility.yul\":3833:3842   */\n      dup3\n        /* \"#utility.yul\":3829:3847   */\n      add\n        /* \"#utility.yul\":3821:3847   */\n      swap1\n      pop\n        /* \"#utility.yul\":3857:3928   */\n      tag_122\n        /* \"#utility.yul\":3925:3926   */\n      0x00\n        /* \"#utility.yul\":3914:3923   */\n      dup4\n        /* \"#utility.yul\":3910:3927   */\n      add\n        /* \"#utility.yul\":3901:3907   */\n      dup5\n        /* \"#utility.yul\":3857:3928   */\n      tag_63\n      jump\t// in\n    tag_122:\n        /* \"#utility.yul\":3713:3935   */\n      swap3\n      swap2\n      pop\n      pop\n      jump\t// out\n        /* \"#utility.yul\":3941:4045   */\n    tag_73:\n        /* \"#utility.yul\":3986:3993   */\n      0x00\n        /* \"#utility.yul\":4015:4039   */\n      tag_124\n        /* \"#utility.yul\":4033:4038   */\n      dup3\n        /* \"#utility.yul\":4015:4039   */\n      tag_69\n      jump\t// in\n    tag_124:\n        /* \"#utility.yul\":4004:4039   */\n      swap1\n      pop\n        /* \"#utility.yul\":3941:4045   */\n      swap2\n      swap1\n      pop\n      jump\t// out\n        /* \"#utility.yul\":4051:4189   */\n    tag_74:\n        /* \"#utility.yul\":4132:4164   */\n      tag_126\n        /* \"#utility.yul\":4158:4163   */\n      dup2\n        /* \"#utility.yul\":4132:4164   */\n      tag_73\n      jump\t// in\n    tag_126:\n        /* \"#utility.yul\":4125:4130   */\n      dup2\n        /* \"#utility.yul\":4122:4165   */\n      eq\n        /* \"#utility.yul\":4112:4183   */\n      tag_127\n      jumpi\n        /* \"#utility.yul\":4179:4180   */\n      0x00\n        /* \"#utility.yul\":4176:4177   */\n      dup1\n        /* \"#utility.yul\":4169:4181   */\n      revert\n        /* \"#utility.yul\":4112:4183   */\n    tag_127:\n        /* \"#utility.yul\":4051:4189   */\n      pop\n      jump\t// out\n        /* \"#utility.yul\":4195:4350   */\n    tag_75:\n        /* \"#utility.yul\":4249:4254   */\n      0x00\n        /* \"#utility.yul\":4287:4293   */\n      dup2\n        /* \"#utility.yul\":4274:4294   */\n      calldataload\n        /* \"#utility.yul\":4265:4294   */\n      swap1\n      pop\n        /* \"#utility.yul\":4303:4344   */\n      tag_129\n        /* \"#utility.yul\":4338:4343   */\n      dup2\n        /* \"#utility.yul\":4303:4344   */\n      tag_74\n      jump\t// in\n    tag_129:\n        /* \"#utility.yul\":4195:4350   */\n      swap3\n      swap2\n      pop\n      pop\n      jump\t// out\n        /* \"#utility.yul\":4356:4701   */\n    tag_25:\n        /* \"#utility.yul\":4423:4429   */\n      0x00\n        /* \"#utility.yul\":4472:4474   */\n      0x20\n        /* \"#utility.yul\":4460:4469   */\n      dup3\n        /* \"#utility.yul\":4451:4458   */\n      dup5\n        /* \"#utility.yul\":4447:4470   */\n      sub\n        /* \"#utility.yul\":4443:4475   */\n      slt\n        /* \"#utility.yul\":4440:4559   */\n      iszero\n      tag_131\n      jumpi\n        /* \"#utility.yul\":4478:4557   */\n      tag_132\n      tag_67\n      jump\t// in\n    tag_132:\n        /* \"#utility.yul\":4440:4559   */\n    tag_131:\n        /* \"#utility.yul\":4598:4599   */\n      0x00\n        /* \"#utility.yul\":4623:4684   */\n      tag_133\n        /* \"#utility.yul\":4676:4683   */\n      dup5\n        /* \"#utility.yul\":4667:4673   */\n      dup3\n        /* \"#utility.yul\":4656:4665   */\n      dup6\n        /* \"#utility.yul\":4652:4674   */\n      add\n        /* \"#utility.yul\":4623:4684   */\n      tag_75\n      jump\t// in\n    tag_133:\n        /* \"#utility.yul\":4613:4684   */\n      swap2\n      pop\n        /* \"#utility.yul\":4569:4694   */\n      pop\n        /* \"#utility.yul\":4356:4701   */\n      swap3\n      swap2\n      pop\n      pop\n      jump\t// out\n        /* \"#utility.yul\":4707:4829   */\n    tag_76:\n        /* \"#utility.yul\":4780:4804   */\n      tag_135\n        /* \"#utility.yul\":4798:4803   */\n      dup2\n        /* \"#utility.yul\":4780:4804   */\n      tag_62\n      jump\t// in\n    tag_135:\n        /* \"#utility.yul\":4773:4778   */\n      dup2\n        /* \"#utility.yul\":4770:4805   */\n      eq\n        /* \"#utility.yul\":4760:4823   */\n      tag_136\n      jumpi\n        /* \"#utility.yul\":4819:4820   */\n      0x00\n        /* \"#utility.yul\":4816:4817   */\n      dup1\n        /* \"#utility.yul\":4809:4821   */\n      revert\n        /* \"#utility.yul\":4760:4823   */\n    tag_136:\n        /* \"#utility.yul\":4707:4829   */\n      pop\n      jump\t// out\n        /* \"#utility.yul\":4835:4974   */\n    tag_77:\n        /* \"#utility.yul\":4881:4886   */\n      0x00\n        /* \"#utility.yul\":4919:4925   */\n      dup2\n        /* \"#utility.yul\":4906:4926   */\n      calldataload\n        /* \"#utility.yul\":4897:4926   */\n      swap1\n      pop\n        /* \"#utility.yul\":4935:4968   */\n      tag_138\n        /* \"#utility.yul\":4962:4967   */\n      dup2\n        /* \"#utility.yul\":4935:4968   */\n      tag_76\n      jump\t// in\n    tag_138:\n        /* \"#utility.yul\":4835:4974   */\n      swap3\n      swap2\n      pop\n      pop\n      jump\t// out\n        /* \"#utility.yul\":4980:5470   */\n    tag_29:\n        /* \"#utility.yul\":5056:5062   */\n      0x00\n        /* \"#utility.yul\":5064:5070   */\n      dup1\n        /* \"#utility.yul\":5113:5115   */\n      0x40\n        /* \"#utility.yul\":5101:5110   */\n      dup4\n        /* \"#utility.yul\":5092:5099   */\n      dup6\n        /* \"#utility.yul\":5088:5111   */\n      sub\n        /* \"#utility.yul\":5084:5116   */\n      slt\n        /* \"#utility.yul\":5081:5200   */\n      iszero\n      tag_140\n      jumpi\n        /* \"#utility.yul\":5119:5198   */\n      tag_141\n      tag_67\n      jump\t// in\n    tag_141:\n        /* \"#utility.yul\":5081:5200   */\n    tag_140:\n        /* \"#utility.yul\":5239:5240   */\n      0x00\n        /* \"#utility.yul\":5264:5325   */\n      tag_142\n        /* \"#utility.yul\":5317:5324   */\n      dup6\n        /* \"#utility.yul\":5308:5314   */\n      dup3\n        /* \"#utility.yul\":5297:5306   */\n      dup7\n        /* \"#utility.yul\":5293:5315   */\n      add\n        /* \"#utility.yul\":5264:5325   */\n      tag_75\n      jump\t// in\n    tag_142:\n        /* \"#utility.yul\":5254:5325   */\n      swap3\n      pop\n        /* \"#utility.yul\":5210:5335   */\n      pop\n        /* \"#utility.yul\":5374:5376   */\n      0x20\n        /* \"#utility.yul\":5400:5453   */\n      tag_143\n        /* \"#utility.yul\":5445:5452   */\n      dup6\n        /* \"#utility.yul\":5436:5442   */\n      dup3\n        /* \"#utility.yul\":5425:5434   */\n      dup7\n        /* \"#utility.yul\":5421:5443   */\n      add\n        /* \"#utility.yul\":5400:5453   */\n      tag_77\n      jump\t// in\n    tag_143:\n        /* \"#utility.yul\":5390:5453   */\n      swap2\n      pop\n        /* \"#utility.yul\":5345:5463   */\n      pop\n        /* \"#utility.yul\":4980:5470   */\n      swap3\n      pop\n      swap3\n      swap1\n      pop\n      jump\t// out\n        /* \"#utility.yul\":5476:5651   */\n    tag_78:\n        /* \"#utility.yul\":5616:5643   */\n      0x5472616e73636174696f6e20756e7375636365737366756c6c00000000000000\n        /* \"#utility.yul\":5612:5613   */\n      0x00\n        /* \"#utility.yul\":5604:5610   */\n      dup3\n        /* \"#utility.yul\":5600:5614   */\n      add\n        /* \"#utility.yul\":5593:5644   */\n      mstore\n        /* \"#utility.yul\":5476:5651   */\n      pop\n      jump\t// out\n        /* \"#utility.yul\":5657:6023   */\n    tag_79:\n        /* \"#utility.yul\":5799:5802   */\n      0x00\n        /* \"#utility.yul\":5820:5887   */\n      tag_146\n        /* \"#utility.yul\":5884:5886   */\n      0x19\n        /* \"#utility.yul\":5879:5882   */\n      dup4\n        /* \"#utility.yul\":5820:5887   */\n      tag_59\n      jump\t// in\n    tag_146:\n        /* \"#utility.yul\":5813:5887   */\n      swap2\n      pop\n        /* \"#utility.yul\":5896:5989   */\n      tag_147\n        /* \"#utility.yul\":5985:5988   */\n      dup3\n        /* \"#utility.yul\":5896:5989   */\n      tag_78\n      jump\t// in\n    tag_147:\n        /* \"#utility.yul\":6014:6016   */\n      0x20\n        /* \"#utility.yul\":6009:6012   */\n      dup3\n        /* \"#utility.yul\":6005:6017   */\n      add\n        /* \"#utility.yul\":5998:6017   */\n      swap1\n      pop\n        /* \"#utility.yul\":5657:6023   */\n      swap2\n      swap1\n      pop\n      jump\t// out\n        /* \"#utility.yul\":6029:6448   */\n    tag_42:\n        /* \"#utility.yul\":6195:6199   */\n      0x00\n        /* \"#utility.yul\":6233:6235   */\n      0x20\n        /* \"#utility.yul\":6222:6231   */\n      dup3\n        /* \"#utility.yul\":6218:6236   */\n      add\n        /* \"#utility.yul\":6210:6236   */\n      swap1\n      pop\n        /* \"#utility.yul\":6282:6291   */\n      dup2\n        /* \"#utility.yul\":6276:6280   */\n      dup2\n        /* \"#utility.yul\":6272:6292   */\n      sub\n        /* \"#utility.yul\":6268:6269   */\n      0x00\n        /* \"#utility.yul\":6257:6266   */\n      dup4\n        /* \"#utility.yul\":6253:6270   */\n      add\n        /* \"#utility.yul\":6246:6293   */\n      mstore\n        /* \"#utility.yul\":6310:6441   */\n      tag_149\n        /* \"#utility.yul\":6436:6440   */\n      dup2\n        /* \"#utility.yul\":6310:6441   */\n      tag_79\n      jump\t// in\n    tag_149:\n        /* \"#utility.yul\":6302:6441   */\n      swap1\n      pop\n        /* \"#utility.yul\":6029:6448   */\n      swap2\n      swap1\n      pop\n      jump\t// out\n        /* \"#utility.yul\":6454:6601   */\n    tag_80:\n        /* \"#utility.yul\":6555:6566   */\n      0x00\n        /* \"#utility.yul\":6592:6595   */\n      dup2\n        /* \"#utility.yul\":6577:6595   */\n      swap1\n      pop\n        /* \"#utility.yul\":6454:6601   */\n      swap3\n      swap2\n      pop\n      pop\n      jump\t// out\n        /* \"#utility.yul\":6607:6721   */\n    tag_81:\n      pop\n      jump\t// out\n        /* \"#utility.yul\":6727:7125   */\n    tag_82:\n        /* \"#utility.yul\":6886:6889   */\n      0x00\n        /* \"#utility.yul\":6907:6990   */\n      tag_153\n        /* \"#utility.yul\":6988:6989   */\n      0x00\n        /* \"#utility.yul\":6983:6986   */\n      dup4\n        /* \"#utility.yul\":6907:6990   */\n      tag_80\n      jump\t// in\n    tag_153:\n        /* \"#utility.yul\":6900:6990   */\n      swap2\n      pop\n        /* \"#utility.yul\":6999:7092   */\n      tag_154\n        /* \"#utility.yul\":7088:7091   */\n      dup3\n        /* \"#utility.yul\":6999:7092   */\n      tag_81\n      jump\t// in\n    tag_154:\n        /* \"#utility.yul\":7117:7118   */\n      0x00\n        /* \"#utility.yul\":7112:7115   */\n      dup3\n        /* \"#utility.yul\":7108:7119   */\n      add\n        /* \"#utility.yul\":7101:7119   */\n      swap1\n      pop\n        /* \"#utility.yul\":6727:7125   */\n      swap2\n      swap1\n      pop\n      jump\t// out\n        /* \"#utility.yul\":7131:7510   */\n    tag_48:\n        /* \"#utility.yul\":7315:7318   */\n      0x00\n        /* \"#utility.yul\":7337:7484   */\n      tag_156\n        /* \"#utility.yul\":7480:7483   */\n      dup3\n        /* \"#utility.yul\":7337:7484   */\n      tag_82\n      jump\t// in\n    tag_156:\n        /* \"#utility.yul\":7330:7484   */\n      swap2\n      pop\n        /* \"#utility.yul\":7501:7504   */\n      dup2\n        /* \"#utility.yul\":7494:7504   */\n      swap1\n      pop\n        /* \"#utility.yul\":7131:7510   */\n      swap2\n      swap1\n      pop\n      jump\t// out\n        /* \"#utility.yul\":7516:7690   */\n    tag_83:\n        /* \"#utility.yul\":7656:7682   */\n      0x556e7375636365737366756c207472616e73636174696f6e0000000000000000\n        /* \"#utility.yul\":7652:7653   */\n      0x00\n        /* \"#utility.yul\":7644:7650   */\n      dup3\n        /* \"#utility.yul\":7640:7654   */\n      add\n        /* \"#utility.yul\":7633:7683   */\n      mstore\n        /* \"#utility.yul\":7516:7690   */\n      pop\n      jump\t// out\n        /* \"#utility.yul\":7696:8062   */\n    tag_84:\n        /* \"#utility.yul\":7838:7841   */\n      0x00\n        /* \"#utility.yul\":7859:7926   */\n      tag_159\n        /* \"#utility.yul\":7923:7925   */\n      0x18\n        /* \"#utility.yul\":7918:7921   */\n      dup4\n        /* \"#utility.yul\":7859:7926   */\n      tag_59\n      jump\t// in\n    tag_159:\n        /* \"#utility.yul\":7852:7926   */\n      swap2\n      pop\n        /* \"#utility.yul\":7935:8028   */\n      tag_160\n        /* \"#utility.yul\":8024:8027   */\n      dup3\n        /* \"#utility.yul\":7935:8028   */\n      tag_83\n      jump\t// in\n    tag_160:\n        /* \"#utility.yul\":8053:8055   */\n      0x20\n        /* \"#utility.yul\":8048:8051   */\n      dup3\n        /* \"#utility.yul\":8044:8056   */\n      add\n        /* \"#utility.yul\":8037:8056   */\n      swap1\n      pop\n        /* \"#utility.yul\":7696:8062   */\n      swap2\n      swap1\n      pop\n      jump\t// out\n        /* \"#utility.yul\":8068:8487   */\n    tag_54:\n        /* \"#utility.yul\":8234:8238   */\n      0x00\n        /* \"#utility.yul\":8272:8274   */\n      0x20\n        /* \"#utility.yul\":8261:8270   */\n      dup3\n        /* \"#utility.yul\":8257:8275   */\n      add\n        /* \"#utility.yul\":8249:8275   */\n      swap1\n      pop\n        /* \"#utility.yul\":8321:8330   */\n      dup2\n        /* \"#utility.yul\":8315:8319   */\n      dup2\n        /* \"#utility.yul\":8311:8331   */\n      sub\n        /* \"#utility.yul\":8307:8308   */\n      0x00\n        /* \"#utility.yul\":8296:8305   */\n      dup4\n        /* \"#utility.yul\":8292:8309   */\n      add\n        /* \"#utility.yul\":8285:8332   */\n      mstore\n        /* \"#utility.yul\":8349:8480   */\n      tag_162\n        /* \"#utility.yul\":8475:8479   */\n      dup2\n        /* \"#utility.yul\":8349:8480   */\n      tag_84\n      jump\t// in\n    tag_162:\n        /* \"#utility.yul\":8341:8480   */\n      swap1\n      pop\n        /* \"#utility.yul\":8068:8487   */\n      swap2\n      swap1\n      pop\n      jump\t// out\n        /* \"#utility.yul\":8493:8675   */\n    tag_85:\n        /* \"#utility.yul\":8633:8667   */\n      0x4f6e6c79206f776e65722063616e20636865636b207468652062616c616e6365\n        /* \"#utility.yul\":8629:8630   */\n      0x00\n        /* \"#utility.yul\":8621:8627   */\n      dup3\n        /* \"#utility.yul\":8617:8631   */\n      add\n        /* \"#utility.yul\":8610:8668   */\n      mstore\n        /* \"#utility.yul\":8493:8675   */\n      pop\n      jump\t// out\n        /* \"#utility.yul\":8681:9047   */\n    tag_86:\n        /* \"#utility.yul\":8823:8826   */\n      0x00\n        /* \"#utility.yul\":8844:8911   */\n      tag_165\n        /* \"#utility.yul\":8908:8910   */\n      0x20\n        /* \"#utility.yul\":8903:8906   */\n      dup4\n        /* \"#utility.yul\":8844:8911   */\n      tag_59\n      jump\t// in\n    tag_165:\n        /* \"#utility.yul\":8837:8911   */\n      swap2\n      pop\n        /* \"#utility.yul\":8920:9013   */\n      tag_166\n        /* \"#utility.yul\":9009:9012   */\n      dup3\n        /* \"#utility.yul\":8920:9013   */\n      tag_85\n      jump\t// in\n    tag_166:\n        /* \"#utility.yul\":9038:9040   */\n      0x20\n        /* \"#utility.yul\":9033:9036   */\n      dup3\n        /* \"#utility.yul\":9029:9041   */\n      add\n        /* \"#utility.yul\":9022:9041   */\n      swap1\n      pop\n        /* \"#utility.yul\":8681:9047   */\n      swap2\n      swap1\n      pop\n      jump\t// out\n        /* \"#utility.yul\":9053:9472   */\n    tag_58:\n        /* \"#utility.yul\":9219:9223   */\n      0x00\n        /* \"#utility.yul\":9257:9259   */\n      0x20\n        /* \"#utility.yul\":9246:9255   */\n      dup3\n        /* \"#utility.yul\":9242:9260   */\n      add\n        /* \"#utility.yul\":9234:9260   */\n      swap1\n      pop\n        /* \"#utility.yul\":9306:9315   */\n      dup2\n        /* \"#utility.yul\":9300:9304   */\n      dup2\n        /* \"#utility.yul\":9296:9316   */\n      sub\n        /* \"#utility.yul\":9292:9293   */\n      0x00\n        /* \"#utility.yul\":9281:9290   */\n      dup4\n        /* \"#utility.yul\":9277:9294   */\n      add\n        /* \"#utility.yul\":9270:9317   */\n      mstore\n        /* \"#utility.yul\":9334:9465   */\n      tag_168\n        /* \"#utility.yul\":9460:9464   */\n      dup2\n        /* \"#utility.yul\":9334:9465   */\n      tag_86\n      jump\t// in\n    tag_168:\n        /* \"#utility.yul\":9326:9465   */\n      swap1\n      pop\n        /* \"#utility.yul\":9053:9472   */\n      swap2\n      swap1\n      pop\n      jump\t// out\n\n    auxdata: 0xa26469706673582212208794c94052019f11072038faf101d123b5a699ec974283a99555a52cb9e534c664736f6c63430008120033\n}\n",
				"bytecode": {
					"linkReferences": {},
					"object": "608060405234801561001057600080fd5b50336000806101000a81548173ffffffffffffffffffffffffffffffffffffffff021916908373ffffffffffffffffffffffffffffffffffffffff160217905550610808806100606000396000f3fe60806040526004361061004e5760003560e01c806327e235e3146100c5578063835659b214610102578063a38504391461011e578063a5e1ff341461013a578063c71daccb146101565761008c565b3661008c577f809602c7ceb0106d2d51ecba1ee76e76148ab6bd91a4a0f2570371ecf3ff35475a604051610082919061041e565b60405180910390a1005b7f809602c7ceb0106d2d51ecba1ee76e76148ab6bd91a4a0f2570371ecf3ff35475a6040516100bb9190610498565b60405180910390a1005b3480156100d157600080fd5b506100ec60048036038101906100e79190610529565b610181565b6040516100f99190610556565b60405180910390f35b61011c600480360381019061011791906105af565b610199565b005b61013860048036038101906101339190610608565b610216565b005b610154600480360381019061014f91906105af565b610261565b005b34801561016257600080fd5b5061016b610311565b6040516101789190610556565b60405180910390f35b60016020528060005260406000206000915090505481565b60008173ffffffffffffffffffffffffffffffffffffffff166108fc349081150290604051600060405180830381858888f19350505050905080610212576040517f08c379a000000000000000000000000000000000000000000000000000000000815260040161020990610694565b60405180910390fd5b5050565b8173ffffffffffffffffffffffffffffffffffffffff166108fc829081150290604051600060405180830381858888f1935050505015801561025c573d6000803e3d6000fd5b505050565b60008173ffffffffffffffffffffffffffffffffffffffff1634604051610287906106e5565b60006040518083038185875af1925050503d80600081146102c4576040519150601f19603f3d011682016040523d82523d6000602084013e6102c9565b606091505b505090508061030d576040517f08c379a000000000000000000000000000000000000000000000000000000000815260040161030490610746565b60405180910390fd5b5050565b60008060009054906101000a900473ffffffffffffffffffffffffffffffffffffffff1673ffffffffffffffffffffffffffffffffffffffff163373ffffffffffffffffffffffffffffffffffffffff16146103a2576040517f08c379a0000000000000000000000000000000000000000000000000000000008152600401610399906107b2565b60405180910390fd5b47905090565b600082825260208201905092915050565b7f526563656976652063616c6c6564000000000000000000000000000000000000600082015250565b60006103ef600e836103a8565b91506103fa826103b9565b602082019050919050565b6000819050919050565b61041881610405565b82525050565b60006040820190508181036000830152610437816103e2565b9050610446602083018461040f565b92915050565b7f46616c6c6261636b2063616c6c65640000000000000000000000000000000000600082015250565b6000610482600f836103a8565b915061048d8261044c565b602082019050919050565b600060408201905081810360008301526104b181610475565b90506104c0602083018461040f565b92915050565b600080fd5b600073ffffffffffffffffffffffffffffffffffffffff82169050919050565b60006104f6826104cb565b9050919050565b610506816104eb565b811461051157600080fd5b50565b600081359050610523816104fd565b92915050565b60006020828403121561053f5761053e6104c6565b5b600061054d84828501610514565b91505092915050565b600060208201905061056b600083018461040f565b92915050565b600061057c826104cb565b9050919050565b61058c81610571565b811461059757600080fd5b50565b6000813590506105a981610583565b92915050565b6000602082840312156105c5576105c46104c6565b5b60006105d38482850161059a565b91505092915050565b6105e581610405565b81146105f057600080fd5b50565b600081359050610602816105dc565b92915050565b6000806040838503121561061f5761061e6104c6565b5b600061062d8582860161059a565b925050602061063e858286016105f3565b9150509250929050565b7f5472616e73636174696f6e20756e7375636365737366756c6c00000000000000600082015250565b600061067e6019836103a8565b915061068982610648565b602082019050919050565b600060208201905081810360008301526106ad81610671565b9050919050565b600081905092915050565b50565b60006106cf6000836106b4565b91506106da826106bf565b600082019050919050565b60006106f0826106c2565b9150819050919050565b7f556e7375636365737366756c207472616e73636174696f6e0000000000000000600082015250565b60006107306018836103a8565b915061073b826106fa565b602082019050919050565b6000602082019050818103600083015261075f81610723565b9050919050565b7f4f6e6c79206f776e65722063616e20636865636b207468652062616c616e6365600082015250565b600061079c6020836103a8565b91506107a782610766565b602082019050919050565b600060208201905081810360008301526107cb8161078f565b905091905056fea26469706673582212208794c94052019f11072038faf101d123b5a699ec974283a99555a52cb9e534c664736f6c63430008120033",
					"opcodes": "PUSH1 0x80 PUSH1 0x40 MSTORE CALLVALUE DUP1 ISZERO PUSH2 0x10 JUMPI PUSH1 0x0 DUP1 REVERT JUMPDEST POP CALLER PUSH1 0x0 DUP1 PUSH2 0x100 EXP DUP2 SLOAD DUP2 PUSH20 0xFFFFFFFFFFFFFFFFFFFFFFFFFFFFFFFFFFFFFFFF MUL NOT AND SWAP1 DUP4 PUSH20 0xFFFFFFFFFFFFFFFFFFFFFFFFFFFFFFFFFFFFFFFF AND MUL OR SWAP1 SSTORE POP PUSH2 0x808 DUP1 PUSH2 0x60 PUSH1 0x0 CODECOPY PUSH1 0x0 RETURN INVALID PUSH1 0x80 PUSH1 0x40 MSTORE PUSH1 0x4 CALLDATASIZE LT PUSH2 0x4E JUMPI PUSH1 0x0 CALLDATALOAD PUSH1 0xE0 SHR DUP1 PUSH4 0x27E235E3 EQ PUSH2 0xC5 JUMPI DUP1 PUSH4 0x835659B2 EQ PUSH2 0x102 JUMPI DUP1 PUSH4 0xA3850439 EQ PUSH2 0x11E JUMPI DUP1 PUSH4 0xA5E1FF34 EQ PUSH2 0x13A JUMPI DUP1 PUSH4 0xC71DACCB EQ PUSH2 0x156 JUMPI PUSH2 0x8C JUMP JUMPDEST CALLDATASIZE PUSH2 0x8C JUMPI PUSH32 0x809602C7CEB0106D2D51ECBA1EE76E76148AB6BD91A4A0F2570371ECF3FF3547 GAS PUSH1 0x40 MLOAD PUSH2 0x82 SWAP2 SWAP1 PUSH2 0x41E JUMP JUMPDEST PUSH1 0x40 MLOAD DUP1 SWAP2 SUB SWAP1 LOG1 STOP JUMPDEST PUSH32 0x809602C7CEB0106D2D51ECBA1EE76E76148AB6BD91A4A0F2570371ECF3FF3547 GAS PUSH1 0x40 MLOAD PUSH2 0xBB SWAP2 SWAP1 PUSH2 0x498 JUMP JUMPDEST PUSH1 0x40 MLOAD DUP1 SWAP2 SUB SWAP1 LOG1 STOP JUMPDEST CALLVALUE DUP1 ISZERO PUSH2 0xD1 JUMPI PUSH1 0x0 DUP1 REVERT JUMPDEST POP PUSH2 0xEC PUSH1 0x4 DUP1 CALLDATASIZE SUB DUP2 ADD SWAP1 PUSH2 0xE7 SWAP2 SWAP1 PUSH2 0x529 JUMP JUMPDEST PUSH2 0x181 JUMP JUMPDEST PUSH1 0x40 MLOAD PUSH2 0xF9 SWAP2 SWAP1 PUSH2 0x556 JUMP JUMPDEST PUSH1 0x40 MLOAD DUP1 SWAP2 SUB SWAP1 RETURN JUMPDEST PUSH2 0x11C PUSH1 0x4 DUP1 CALLDATASIZE SUB DUP2 ADD SWAP1 PUSH2 0x117 SWAP2 SWAP1 PUSH2 0x5AF JUMP JUMPDEST PUSH2 0x199 JUMP JUMPDEST STOP JUMPDEST PUSH2 0x138 PUSH1 0x4 DUP1 CALLDATASIZE SUB DUP2 ADD SWAP1 PUSH2 0x133 SWAP2 SWAP1 PUSH2 0x608 JUMP JUMPDEST PUSH2 0x216 JUMP JUMPDEST STOP JUMPDEST PUSH2 0x154 PUSH1 0x4 DUP1 CALLDATASIZE SUB DUP2 ADD SWAP1 PUSH2 0x14F SWAP2 SWAP1 PUSH2 0x5AF JUMP JUMPDEST PUSH2 0x261 JUMP JUMPDEST STOP JUMPDEST CALLVALUE DUP1 ISZERO PUSH2 0x162 JUMPI PUSH1 0x0 DUP1 REVERT JUMPDEST POP PUSH2 0x16B PUSH2 0x311 JUMP JUMPDEST PUSH1 0x40 MLOAD PUSH2 0x178 SWAP2 SWAP1 PUSH2 0x556 JUMP JUMPDEST PUSH1 0x40 MLOAD DUP1 SWAP2 SUB SWAP1 RETURN JUMPDEST PUSH1 0x1 PUSH1 0x20 MSTORE DUP1 PUSH1 0x0 MSTORE PUSH1 0x40 PUSH1 0x0 KECCAK256 PUSH1 0x0 SWAP2 POP SWAP1 POP SLOAD DUP2 JUMP JUMPDEST PUSH1 0x0 DUP2 PUSH20 0xFFFFFFFFFFFFFFFFFFFFFFFFFFFFFFFFFFFFFFFF AND PUSH2 0x8FC CALLVALUE SWAP1 DUP2 ISZERO MUL SWAP1 PUSH1 0x40 MLOAD PUSH1 0x0 PUSH1 0x40 MLOAD DUP1 DUP4 SUB DUP2 DUP6 DUP9 DUP9 CALL SWAP4 POP POP POP POP SWAP1 POP DUP1 PUSH2 0x212 JUMPI PUSH1 0x40 MLOAD PUSH32 0x8C379A000000000000000000000000000000000000000000000000000000000 DUP2 MSTORE PUSH1 0x4 ADD PUSH2 0x209 SWAP1 PUSH2 0x694 JUMP JUMPDEST PUSH1 0x40 MLOAD DUP1 SWAP2 SUB SWAP1 REVERT JUMPDEST POP POP JUMP JUMPDEST DUP2 PUSH20 0xFFFFFFFFFFFFFFFFFFFFFFFFFFFFFFFFFFFFFFFF AND PUSH2 0x8FC DUP3 SWAP1 DUP2 ISZERO MUL SWAP1 PUSH1 0x40 MLOAD PUSH1 0x0 PUSH1 0x40 MLOAD DUP1 DUP4 SUB DUP2 DUP6 DUP9 DUP9 CALL SWAP4 POP POP POP POP ISZERO DUP1 ISZERO PUSH2 0x25C JUMPI RETURNDATASIZE PUSH1 0x0 DUP1 RETURNDATACOPY RETURNDATASIZE PUSH1 0x0 REVERT JUMPDEST POP POP POP JUMP JUMPDEST PUSH1 0x0 DUP2 PUSH20 0xFFFFFFFFFFFFFFFFFFFFFFFFFFFFFFFFFFFFFFFF AND CALLVALUE PUSH1 0x40 MLOAD PUSH2 0x287 SWAP1 PUSH2 0x6E5 JUMP JUMPDEST PUSH1 0x0 PUSH1 0x40 MLOAD DUP1 DUP4 SUB DUP2 DUP6 DUP8 GAS CALL SWAP3 POP POP POP RETURNDATASIZE DUP1 PUSH1 0x0 DUP2 EQ PUSH2 0x2C4 JUMPI PUSH1 0x40 MLOAD SWAP2 POP PUSH1 0x1F NOT PUSH1 0x3F RETURNDATASIZE ADD AND DUP3 ADD PUSH1 0x40 MSTORE RETURNDATASIZE DUP3 MSTORE RETURNDATASIZE PUSH1 0x0 PUSH1 0x20 DUP5 ADD RETURNDATACOPY PUSH2 0x2C9 JUMP JUMPDEST PUSH1 0x60 SWAP2 POP JUMPDEST POP POP SWAP1 POP DUP1 PUSH2 0x30D JUMPI PUSH1 0x40 MLOAD PUSH32 0x8C379A000000000000000000000000000000000000000000000000000000000 DUP2 MSTORE PUSH1 0x4 ADD PUSH2 0x304 SWAP1 PUSH2 0x746 JUMP JUMPDEST PUSH1 0x40 MLOAD DUP1 SWAP2 SUB SWAP1 REVERT JUMPDEST POP POP JUMP JUMPDEST PUSH1 0x0 DUP1 PUSH1 0x0 SWAP1 SLOAD SWAP1 PUSH2 0x100 EXP SWAP1 DIV PUSH20 0xFFFFFFFFFFFFFFFFFFFFFFFFFFFFFFFFFFFFFFFF AND PUSH20 0xFFFFFFFFFFFFFFFFFFFFFFFFFFFFFFFFFFFFFFFF AND CALLER PUSH20 0xFFFFFFFFFFFFFFFFFFFFFFFFFFFFFFFFFFFFFFFF AND EQ PUSH2 0x3A2 JUMPI PUSH1 0x40 MLOAD PUSH32 0x8C379A000000000000000000000000000000000000000000000000000000000 DUP2 MSTORE PUSH1 0x4 ADD PUSH2 0x399 SWAP1 PUSH2 0x7B2 JUMP JUMPDEST PUSH1 0x40 MLOAD DUP1 SWAP2 SUB SWAP1 REVERT JUMPDEST SELFBALANCE SWAP1 POP SWAP1 JUMP JUMPDEST PUSH1 0x0 DUP3 DUP3 MSTORE PUSH1 0x20 DUP3 ADD SWAP1 POP SWAP3 SWAP2 POP POP JUMP JUMPDEST PUSH32 0x526563656976652063616C6C6564000000000000000000000000000000000000 PUSH1 0x0 DUP3 ADD MSTORE POP JUMP JUMPDEST PUSH1 0x0 PUSH2 0x3EF PUSH1 0xE DUP4 PUSH2 0x3A8 JUMP JUMPDEST SWAP2 POP PUSH2 0x3FA DUP3 PUSH2 0x3B9 JUMP JUMPDEST PUSH1 0x20 DUP3 ADD SWAP1 POP SWAP2 SWAP1 POP JUMP JUMPDEST PUSH1 0x0 DUP2 SWAP1 POP SWAP2 SWAP1 POP JUMP JUMPDEST PUSH2 0x418 DUP2 PUSH2 0x405 JUMP JUMPDEST DUP3 MSTORE POP POP JUMP JUMPDEST PUSH1 0x0 PUSH1 0x40 DUP3 ADD SWAP1 POP DUP2 DUP2 SUB PUSH1 0x0 DUP4 ADD MSTORE PUSH2 0x437 DUP2 PUSH2 0x3E2 JUMP JUMPDEST SWAP1 POP PUSH2 0x446 PUSH1 0x20 DUP4 ADD DUP5 PUSH2 0x40F JUMP JUMPDEST SWAP3 SWAP2 POP POP JUMP JUMPDEST PUSH32 0x46616C6C6261636B2063616C6C65640000000000000000000000000000000000 PUSH1 0x0 DUP3 ADD MSTORE POP JUMP JUMPDEST PUSH1 0x0 PUSH2 0x482 PUSH1 0xF DUP4 PUSH2 0x3A8 JUMP JUMPDEST SWAP2 POP PUSH2 0x48D DUP3 PUSH2 0x44C JUMP JUMPDEST PUSH1 0x20 DUP3 ADD SWAP1 POP SWAP2 SWAP1 POP JUMP JUMPDEST PUSH1 0x0 PUSH1 0x40 DUP3 ADD SWAP1 POP DUP2 DUP2 SUB PUSH1 0x0 DUP4 ADD MSTORE PUSH2 0x4B1 DUP2 PUSH2 0x475 JUMP JUMPDEST SWAP1 POP PUSH2 0x4C0 PUSH1 0x20 DUP4 ADD DUP5 PUSH2 0x40F JUMP JUMPDEST SWAP3 SWAP2 POP POP JUMP JUMPDEST PUSH1 0x0 DUP1 REVERT JUMPDEST PUSH1 0x0 PUSH20 0xFFFFFFFFFFFFFFFFFFFFFFFFFFFFFFFFFFFFFFFF DUP3 AND SWAP1 POP SWAP2 SWAP1 POP JUMP JUMPDEST PUSH1 0x0 PUSH2 0x4F6 DUP3 PUSH2 0x4CB JUMP JUMPDEST SWAP1 POP SWAP2 SWAP1 POP JUMP JUMPDEST PUSH2 0x506 DUP2 PUSH2 0x4EB JUMP JUMPDEST DUP2 EQ PUSH2 0x511 JUMPI PUSH1 0x0 DUP1 REVERT JUMPDEST POP JUMP JUMPDEST PUSH1 0x0 DUP2 CALLDATALOAD SWAP1 POP PUSH2 0x523 DUP2 PUSH2 0x4FD JUMP JUMPDEST SWAP3 SWAP2 POP POP JUMP JUMPDEST PUSH1 0x0 PUSH1 0x20 DUP3 DUP5 SUB SLT ISZERO PUSH2 0x53F JUMPI PUSH2 0x53E PUSH2 0x4C6 JUMP JUMPDEST JUMPDEST PUSH1 0x0 PUSH2 0x54D DUP5 DUP3 DUP6 ADD PUSH2 0x514 JUMP JUMPDEST SWAP2 POP POP SWAP3 SWAP2 POP POP JUMP JUMPDEST PUSH1 0x0 PUSH1 0x20 DUP3 ADD SWAP1 POP PUSH2 0x56B PUSH1 0x0 DUP4 ADD DUP5 PUSH2 0x40F JUMP JUMPDEST SWAP3 SWAP2 POP POP JUMP JUMPDEST PUSH1 0x0 PUSH2 0x57C DUP3 PUSH2 0x4CB JUMP JUMPDEST SWAP1 POP SWAP2 SWAP1 POP JUMP JUMPDEST PUSH2 0x58C DUP2 PUSH2 0x571 JUMP JUMPDEST DUP2 EQ PUSH2 0x597 JUMPI PUSH1 0x0 DUP1 REVERT JUMPDEST POP JUMP JUMPDEST PUSH1 0x0 DUP2 CALLDATALOAD SWAP1 POP PUSH2 0x5A9 DUP2 PUSH2 0x583 JUMP JUMPDEST SWAP3 SWAP2 POP POP JUMP JUMPDEST PUSH1 0x0 PUSH1 0x20 DUP3 DUP5 SUB SLT ISZERO PUSH2 0x5C5 JUMPI PUSH2 0x5C4 PUSH2 0x4C6 JUMP JUMPDEST JUMPDEST PUSH1 0x0 PUSH2 0x5D3 DUP5 DUP3 DUP6 ADD PUSH2 0x59A JUMP JUMPDEST SWAP2 POP POP SWAP3 SWAP2 POP POP JUMP JUMPDEST PUSH2 0x5E5 DUP2 PUSH2 0x405 JUMP JUMPDEST DUP2 EQ PUSH2 0x5F0 JUMPI PUSH1 0x0 DUP1 REVERT JUMPDEST POP JUMP JUMPDEST PUSH1 0x0 DUP2 CALLDATALOAD SWAP1 POP PUSH2 0x602 DUP2 PUSH2 0x5DC JUMP JUMPDEST SWAP3 SWAP2 POP POP JUMP JUMPDEST PUSH1 0x0 DUP1 PUSH1 0x40 DUP4 DUP6 SUB SLT ISZERO PUSH2 0x61F JUMPI PUSH2 0x61E PUSH2 0x4C6 JUMP JUMPDEST JUMPDEST PUSH1 0x0 PUSH2 0x62D DUP6 DUP3 DUP7 ADD PUSH2 0x59A JUMP JUMPDEST SWAP3 POP POP PUSH1 0x20 PUSH2 0x63E DUP6 DUP3 DUP7 ADD PUSH2 0x5F3 JUMP JUMPDEST SWAP2 POP POP SWAP3 POP SWAP3 SWAP1 POP JUMP JUMPDEST PUSH32 0x5472616E73636174696F6E20756E7375636365737366756C6C00000000000000 PUSH1 0x0 DUP3 ADD MSTORE POP JUMP JUMPDEST PUSH1 0x0 PUSH2 0x67E PUSH1 0x19 DUP4 PUSH2 0x3A8 JUMP JUMPDEST SWAP2 POP PUSH2 0x689 DUP3 PUSH2 0x648 JUMP JUMPDEST PUSH1 0x20 DUP3 ADD SWAP1 POP SWAP2 SWAP1 POP JUMP JUMPDEST PUSH1 0x0 PUSH1 0x20 DUP3 ADD SWAP1 POP DUP2 DUP2 SUB PUSH1 0x0 DUP4 ADD MSTORE PUSH2 0x6AD DUP2 PUSH2 0x671 JUMP JUMPDEST SWAP1 POP SWAP2 SWAP1 POP JUMP JUMPDEST PUSH1 0x0 DUP2 SWAP1 POP SWAP3 SWAP2 POP POP JUMP JUMPDEST POP JUMP JUMPDEST PUSH1 0x0 PUSH2 0x6CF PUSH1 0x0 DUP4 PUSH2 0x6B4 JUMP JUMPDEST SWAP2 POP PUSH2 0x6DA DUP3 PUSH2 0x6BF JUMP JUMPDEST PUSH1 0x0 DUP3 ADD SWAP1 POP SWAP2 SWAP1 POP JUMP JUMPDEST PUSH1 0x0 PUSH2 0x6F0 DUP3 PUSH2 0x6C2 JUMP JUMPDEST SWAP2 POP DUP2 SWAP1 POP SWAP2 SWAP1 POP JUMP JUMPDEST PUSH32 0x556E7375636365737366756C207472616E73636174696F6E0000000000000000 PUSH1 0x0 DUP3 ADD MSTORE POP JUMP JUMPDEST PUSH1 0x0 PUSH2 0x730 PUSH1 0x18 DUP4 PUSH2 0x3A8 JUMP JUMPDEST SWAP2 POP PUSH2 0x73B DUP3 PUSH2 0x6FA JUMP JUMPDEST PUSH1 0x20 DUP3 ADD SWAP1 POP SWAP2 SWAP1 POP JUMP JUMPDEST PUSH1 0x0 PUSH1 0x20 DUP3 ADD SWAP1 POP DUP2 DUP2 SUB PUSH1 0x0 DUP4 ADD MSTORE PUSH2 0x75F DUP2 PUSH2 0x723 JUMP JUMPDEST SWAP1 POP SWAP2 SWAP1 POP JUMP JUMPDEST PUSH32 0x4F6E6C79206F776E65722063616E20636865636B207468652062616C616E6365 PUSH1 0x0 DUP3 ADD MSTORE POP JUMP JUMPDEST PUSH1 0x0 PUSH2 0x79C PUSH1 0x20 DUP4 PUSH2 0x3A8 JUMP JUMPDEST SWAP2 POP PUSH2 0x7A7 DUP3 PUSH2 0x766 JUMP JUMPDEST PUSH1 0x20 DUP3 ADD SWAP1 POP SWAP2 SWAP1 POP JUMP JUMPDEST PUSH1 0x0 PUSH1 0x20 DUP3 ADD SWAP1 POP DUP2 DUP2 SUB PUSH1 0x0 DUP4 ADD MSTORE PUSH2 0x7CB DUP2 PUSH2 0x78F JUMP JUMPDEST SWAP1 POP SWAP2 SWAP1 POP JUMP INVALID LOG2 PUSH5 0x6970667358 0x22 SLT KECCAK256 DUP8 SWAP5 0xC9 BLOCKHASH MSTORE ADD SWAP16 GT SMOD KECCAK256 CODESIZE STATICCALL CALL ADD 0xD1 0x23 0xB5 0xA6 SWAP10 0xEC SWAP8 TIMESTAMP DUP4 0xA9 SWAP6 SSTORE 0xA5 0x2C 0xB9 0xE5 CALLVALUE 0xC6 PUSH5 0x736F6C6343 STOP ADDMOD SLT STOP CALLER "
				},
				"gasEstimates": {
					"creation": {
						"codeDepositCost": "411200",
						"executionCost": "24715",
						"totalCost": "435915"
					},
					"external": {
						"": "2333",
						"balances(address)": "2792",
						"checkBalance()": "2672",
						"sendbycall(address)": "infinite",
						"sendbysend(address)": "infinite",
						"sendbytransfer(address,uint256)": "infinite"
					}
				},
				"methodIdentifiers": {
					"balances(address)": "27e235e3",
					"checkBalance()": "c71daccb",
					"sendbycall(address)": "a5e1ff34",
					"sendbysend(address)": "835659b2",
					"sendbytransfer(address,uint256)": "a3850439"
				}
			},
			"storageLayout": {
				"storage": [
					{
						"astId": 3,
						"contract": "contracts/Transfer.sol:balance",
						"label": "owner",
						"offset": 0,
						"slot": "0",
						"type": "t_address_payable"
					},
					{
						"astId": 7,
						"contract": "contracts/Transfer.sol:balance",
						"label": "balances",
						"offset": 0,
						"slot": "1",
						"type": "t_mapping(t_address,t_uint256)"
					}
				],
				"types": {
					"t_address": {
						"encoding": "inplace",
						"label": "address",
						"numberOfBytes": "20"
					},
					"t_address_payable": {
						"encoding": "inplace",
						"label": "address payable",
						"numberOfBytes": "20"
					},
					"t_mapping(t_address,t_uint256)": {
						"encoding": "mapping",
						"key": "t_address",
						"label": "mapping(address => uint256)",
						"numberOfBytes": "32",
						"value": "t_uint256"
					},
					"t_uint256": {
						"encoding": "inplace",
						"label": "uint256",
						"numberOfBytes": "32"
					}
				}
			},
			"userdoc": {
				"kind": "user",
				"methods": {},
				"version": 1
			}
		}
	}
}