{
	"contracts/Functions.sol": {
		"functions": {
			"abi": [
				{
					"anonymous": false,
					"inputs": [
						{
							"indexed": false,
							"internalType": "address",
							"name": "_addr",
							"type": "address"
						}
					],
					"name": "end",
					"type": "event"
				},
				{
					"anonymous": false,
					"inputs": [
						{
							"indexed": true,
							"internalType": "address",
							"name": "_add",
							"type": "address"
						},
						{
							"indexed": false,
							"internalType": "uint256",
							"name": "_id",
							"type": "uint256"
						},
						{
							"indexed": false,
							"internalType": "string",
							"name": "data",
							"type": "string"
						}
					],
					"name": "temporarydata",
					"type": "event"
				},
				{
					"inputs": [],
					"name": "data",
					"outputs": [
						{
							"internalType": "uint256",
							"name": "",
							"type": "uint256"
						}
					],
					"stateMutability": "view",
					"type": "function"
				},
				{
					"inputs": [],
					"name": "datatypes",
					"outputs": [
						{
							"internalType": "uint256",
							"name": "",
							"type": "uint256"
						},
						{
							"internalType": "bool",
							"name": "",
							"type": "bool"
						},
						{
							"internalType": "string",
							"name": "",
							"type": "string"
						}
					],
					"stateMutability": "nonpayable",
					"type": "function"
				},
				{
					"inputs": [],
					"name": "flag",
					"outputs": [
						{
							"internalType": "bool",
							"name": "",
							"type": "bool"
						}
					],
					"stateMutability": "view",
					"type": "function"
				},
				{
					"inputs": [],
					"name": "getinfo",
					"outputs": [
						{
							"internalType": "uint256",
							"name": "",
							"type": "uint256"
						},
						{
							"internalType": "bool",
							"name": "",
							"type": "bool"
						},
						{
							"internalType": "string",
							"name": "",
							"type": "string"
						},
						{
							"internalType": "uint256",
							"name": "",
							"type": "uint256"
						},
						{
							"internalType": "uint256",
							"name": "",
							"type": "uint256"
						}
					],
					"stateMutability": "nonpayable",
					"type": "function"
				},
				{
					"inputs": [],
					"name": "name",
					"outputs": [
						{
							"internalType": "string",
							"name": "",
							"type": "string"
						}
					],
					"stateMutability": "view",
					"type": "function"
				},
				{
					"inputs": [],
					"name": "temp",
					"outputs": [],
					"stateMutability": "nonpayable",
					"type": "function"
				}
			],
			"devdoc": {
				"kind": "dev",
				"methods": {},
				"version": 1
			},
			"evm": {
				"assembly": "    /* \"contracts/Functions.sol\":70:844  contract functions{... */\n  mstore(0x40, 0x80)\n  callvalue\n  dup1\n  iszero\n  tag_1\n  jumpi\n  0x00\n  dup1\n  revert\ntag_1:\n  pop\n  dataSize(sub_0)\n  dup1\n  dataOffset(sub_0)\n  0x00\n  codecopy\n  0x00\n  return\nstop\n\nsub_0: assembly {\n        /* \"contracts/Functions.sol\":70:844  contract functions{... */\n      mstore(0x40, 0x80)\n      callvalue\n      dup1\n      iszero\n      tag_1\n      jumpi\n      0x00\n      dup1\n      revert\n    tag_1:\n      pop\n      jumpi(tag_2, lt(calldatasize, 0x04))\n      shr(0xe0, calldataload(0x00))\n      dup1\n      0x06fdde03\n      eq\n      tag_3\n      jumpi\n      dup1\n      0x1a2d8629\n      eq\n      tag_4\n      jumpi\n      dup1\n      0x673402e5\n      eq\n      tag_5\n      jumpi\n      dup1\n      0x73d4a13a\n      eq\n      tag_6\n      jumpi\n      dup1\n      0x890eba68\n      eq\n      tag_7\n      jumpi\n      dup1\n      0xeb382282\n      eq\n      tag_8\n      jumpi\n    tag_2:\n      0x00\n      dup1\n      revert\n        /* \"contracts/Functions.sol\":138:156  string public name */\n    tag_3:\n      tag_9\n      tag_10\n      jump\t// in\n    tag_9:\n      mload(0x40)\n      tag_11\n      swap2\n      swap1\n      tag_12\n      jump\t// in\n    tag_11:\n      mload(0x40)\n      dup1\n      swap2\n      sub\n      swap1\n      return\n        /* \"contracts/Functions.sol\":331:569  function getinfo() public returns (uint,bool,string memory,uint,uint){... */\n    tag_4:\n      tag_13\n      tag_14\n      jump\t// in\n    tag_13:\n      mload(0x40)\n      tag_15\n      swap6\n      swap5\n      swap4\n      swap3\n      swap2\n      swap1\n      tag_16\n      jump\t// in\n    tag_15:\n      mload(0x40)\n      dup1\n      swap2\n      sub\n      swap1\n      return\n        /* \"contracts/Functions.sol\":674:842  function temp() public {... */\n    tag_5:\n      tag_17\n      tag_18\n      jump\t// in\n    tag_17:\n      stop\n        /* \"contracts/Functions.sol\":94:110  uint public data */\n    tag_6:\n      tag_19\n      tag_20\n      jump\t// in\n    tag_19:\n      mload(0x40)\n      tag_21\n      swap2\n      swap1\n      tag_22\n      jump\t// in\n    tag_21:\n      mload(0x40)\n      dup1\n      swap2\n      sub\n      swap1\n      return\n        /* \"contracts/Functions.sol\":116:132  bool public flag */\n    tag_7:\n      tag_23\n      tag_24\n      jump\t// in\n    tag_23:\n      mload(0x40)\n      tag_25\n      swap2\n      swap1\n      tag_26\n      jump\t// in\n    tag_25:\n      mload(0x40)\n      dup1\n      swap2\n      sub\n      swap1\n      return\n        /* \"contracts/Functions.sol\":162:325  function datatypes() public returns(uint,bool,string memory){... */\n    tag_8:\n      tag_27\n      tag_28\n      jump\t// in\n    tag_27:\n      mload(0x40)\n      tag_29\n      swap4\n      swap3\n      swap2\n      swap1\n      tag_30\n      jump\t// in\n    tag_29:\n      mload(0x40)\n      dup1\n      swap2\n      sub\n      swap1\n      return\n        /* \"contracts/Functions.sol\":138:156  string public name */\n    tag_10:\n      0x02\n      dup1\n      sload\n      tag_31\n      swap1\n      tag_32\n      jump\t// in\n    tag_31:\n      dup1\n      0x1f\n      add\n      0x20\n      dup1\n      swap2\n      div\n      mul\n      0x20\n      add\n      mload(0x40)\n      swap1\n      dup2\n      add\n      0x40\n      mstore\n      dup1\n      swap3\n      swap2\n      swap1\n      dup2\n      dup2\n      mstore\n      0x20\n      add\n      dup3\n      dup1\n      sload\n      tag_33\n      swap1\n      tag_32\n      jump\t// in\n    tag_33:\n      dup1\n      iszero\n      tag_34\n      jumpi\n      dup1\n      0x1f\n      lt\n      tag_35\n      jumpi\n      0x0100\n      dup1\n      dup4\n      sload\n      div\n      mul\n      dup4\n      mstore\n      swap2\n      0x20\n      add\n      swap2\n      jump(tag_34)\n    tag_35:\n      dup3\n      add\n      swap2\n      swap1\n      0x00\n      mstore\n      keccak256(0x00, 0x20)\n      swap1\n    tag_36:\n      dup2\n      sload\n      dup2\n      mstore\n      swap1\n      0x01\n      add\n      swap1\n      0x20\n      add\n      dup1\n      dup4\n      gt\n      tag_36\n      jumpi\n      dup3\n      swap1\n      sub\n      0x1f\n      and\n      dup3\n      add\n      swap2\n    tag_34:\n      pop\n      pop\n      pop\n      pop\n      pop\n      dup2\n      jump\t// out\n        /* \"contracts/Functions.sol\":331:569  function getinfo() public returns (uint,bool,string memory,uint,uint){... */\n    tag_14:\n        /* \"contracts/Functions.sol\":366:370  uint */\n      0x00\n        /* \"contracts/Functions.sol\":371:375  bool */\n      dup1\n        /* \"contracts/Functions.sol\":376:389  string memory */\n      0x60\n        /* \"contracts/Functions.sol\":390:394  uint */\n      0x00\n        /* \"contracts/Functions.sol\":395:399  uint */\n      dup1\n        /* \"contracts/Functions.sol\":411:421  uint data1 */\n      0x00\n        /* \"contracts/Functions.sol\":422:432  bool flag1 */\n      dup1\n        /* \"contracts/Functions.sol\":433:452  string memory name1 */\n      0x00\n        /* \"contracts/Functions.sol\":454:465  datatypes() */\n      tag_38\n        /* \"contracts/Functions.sol\":454:463  datatypes */\n      tag_28\n        /* \"contracts/Functions.sol\":454:465  datatypes() */\n      jump\t// in\n    tag_38:\n        /* \"contracts/Functions.sol\":410:465  (uint data1,bool flag1,string memory name1)=datatypes() */\n      swap3\n      pop\n      swap3\n      pop\n      swap3\n      pop\n        /* \"contracts/Functions.sol\":476:483  uint _x */\n      0x00\n        /* \"contracts/Functions.sol\":485:492  uint _y */\n      dup1\n        /* \"contracts/Functions.sol\":495:497  22 */\n      0x16\n        /* \"contracts/Functions.sol\":498:500  33 */\n      0x21\n        /* \"contracts/Functions.sol\":501:503  44 */\n      0x2c\n        /* \"contracts/Functions.sol\":475:504  (uint _x,,uint _y)=(22,33,44) */\n      swap3\n      pop\n      pop\n      swap2\n      pop\n        /* \"contracts/Functions.sol\":537:542  data1 */\n      dup5\n        /* \"contracts/Functions.sol\":543:548  flag1 */\n      dup5\n        /* \"contracts/Functions.sol\":549:554  name1 */\n      dup5\n        /* \"contracts/Functions.sol\":555:557  _x */\n      dup5\n        /* \"contracts/Functions.sol\":558:560  _y */\n      dup5\n        /* \"contracts/Functions.sol\":529:561  return (data1,flag1,name1,_x,_y) */\n      swap10\n      pop\n      swap10\n      pop\n      swap10\n      pop\n      swap10\n      pop\n      swap10\n      pop\n      pop\n      pop\n      pop\n      pop\n      pop\n        /* \"contracts/Functions.sol\":331:569  function getinfo() public returns (uint,bool,string memory,uint,uint){... */\n      swap1\n      swap2\n      swap3\n      swap4\n      swap5\n      jump\t// out\n        /* \"contracts/Functions.sol\":674:842  function temp() public {... */\n    tag_18:\n        /* \"contracts/Functions.sol\":734:735  0 */\n      0x00\n        /* \"contracts/Functions.sol\":712:749  temporarydata(address(0),12,\"dfgsfg\") */\n      0xffffffffffffffffffffffffffffffffffffffff\n      and\n      0x9e3516d5476ed4533aecc463d31c71b81ec5f21c047a58416c45a8b0e9a1fd80\n        /* \"contracts/Functions.sol\":737:739  12 */\n      0x0c\n        /* \"contracts/Functions.sol\":712:749  temporarydata(address(0),12,\"dfgsfg\") */\n      mload(0x40)\n      tag_40\n      swap2\n      swap1\n      tag_41\n      jump\t// in\n    tag_40:\n      mload(0x40)\n      dup1\n      swap2\n      sub\n      swap1\n      log2\n        /* \"contracts/Functions.sol\":786:787  1 */\n      0x01\n        /* \"contracts/Functions.sol\":764:804  temporarydata(address(1),13,\"dfdsfgsfg\") */\n      0xffffffffffffffffffffffffffffffffffffffff\n      and\n      0x9e3516d5476ed4533aecc463d31c71b81ec5f21c047a58416c45a8b0e9a1fd80\n        /* \"contracts/Functions.sol\":789:791  13 */\n      0x0d\n        /* \"contracts/Functions.sol\":764:804  temporarydata(address(1),13,\"dfdsfgsfg\") */\n      mload(0x40)\n      tag_42\n      swap2\n      swap1\n      tag_43\n      jump\t// in\n    tag_42:\n      mload(0x40)\n      dup1\n      swap2\n      sub\n      swap1\n      log2\n        /* \"contracts/Functions.sol\":819:834  end(msg.sender) */\n      0x8c4dd39dc4085cdecc180444e5c6ad1ccaf0817052ebcc4fd8958a68d5401026\n        /* \"contracts/Functions.sol\":823:833  msg.sender */\n      caller\n        /* \"contracts/Functions.sol\":819:834  end(msg.sender) */\n      mload(0x40)\n      tag_44\n      swap2\n      swap1\n      tag_45\n      jump\t// in\n    tag_44:\n      mload(0x40)\n      dup1\n      swap2\n      sub\n      swap1\n      log1\n        /* \"contracts/Functions.sol\":674:842  function temp() public {... */\n      jump\t// out\n        /* \"contracts/Functions.sol\":94:110  uint public data */\n    tag_20:\n      sload(0x00)\n      dup2\n      jump\t// out\n        /* \"contracts/Functions.sol\":116:132  bool public flag */\n    tag_24:\n      0x01\n      0x00\n      swap1\n      sload\n      swap1\n      0x0100\n      exp\n      swap1\n      div\n      0xff\n      and\n      dup2\n      jump\t// out\n        /* \"contracts/Functions.sol\":162:325  function datatypes() public returns(uint,bool,string memory){... */\n    tag_28:\n        /* \"contracts/Functions.sol\":198:202  uint */\n      0x00\n        /* \"contracts/Functions.sol\":203:207  bool */\n      dup1\n        /* \"contracts/Functions.sol\":208:221  string memory */\n      0x60\n        /* \"contracts/Functions.sol\":239:242  156 */\n      0x9c\n        /* \"contracts/Functions.sol\":232:236  data */\n      0x00\n        /* \"contracts/Functions.sol\":232:242  data = 156 */\n      dup2\n      swap1\n      sstore\n      pop\n        /* \"contracts/Functions.sol\":259:263  true */\n      0x01\n        /* \"contracts/Functions.sol\":252:256  flag */\n      dup1\n      0x00\n        /* \"contracts/Functions.sol\":252:263  flag = true */\n      0x0100\n      exp\n      dup2\n      sload\n      dup2\n      0xff\n      mul\n      not\n      and\n      swap1\n      dup4\n      iszero\n      iszero\n      mul\n      or\n      swap1\n      sstore\n      pop\n        /* \"contracts/Functions.sol\":273:285  name = \"abc\" */\n      mload(0x40)\n      dup1\n      0x40\n      add\n      0x40\n      mstore\n      dup1\n      0x03\n      dup2\n      mstore\n      0x20\n      add\n      0x6162630000000000000000000000000000000000000000000000000000000000\n      dup2\n      mstore\n      pop\n        /* \"contracts/Functions.sol\":273:277  name */\n      0x02\n        /* \"contracts/Functions.sol\":273:285  name = \"abc\" */\n      swap1\n      dup2\n      tag_47\n      swap2\n      swap1\n      tag_48\n      jump\t// in\n    tag_47:\n      pop\n        /* \"contracts/Functions.sol\":303:307  data */\n      sload(0x00)\n        /* \"contracts/Functions.sol\":308:312  flag */\n      0x01\n      0x00\n      swap1\n      sload\n      swap1\n      0x0100\n      exp\n      swap1\n      div\n      0xff\n      and\n        /* \"contracts/Functions.sol\":313:317  name */\n      0x02\n        /* \"contracts/Functions.sol\":295:318  return (data,flag,name) */\n      dup1\n      dup1\n      sload\n      tag_49\n      swap1\n      tag_32\n      jump\t// in\n    tag_49:\n      dup1\n      0x1f\n      add\n      0x20\n      dup1\n      swap2\n      div\n      mul\n      0x20\n      add\n      mload(0x40)\n      swap1\n      dup2\n      add\n      0x40\n      mstore\n      dup1\n      swap3\n      swap2\n      swap1\n      dup2\n      dup2\n      mstore\n      0x20\n      add\n      dup3\n      dup1\n      sload\n      tag_50\n      swap1\n      tag_32\n      jump\t// in\n    tag_50:\n      dup1\n      iszero\n      tag_51\n      jumpi\n      dup1\n      0x1f\n      lt\n      tag_52\n      jumpi\n      0x0100\n      dup1\n      dup4\n      sload\n      div\n      mul\n      dup4\n      mstore\n      swap2\n      0x20\n      add\n      swap2\n      jump(tag_51)\n    tag_52:\n      dup3\n      add\n      swap2\n      swap1\n      0x00\n      mstore\n      keccak256(0x00, 0x20)\n      swap1\n    tag_53:\n      dup2\n      sload\n      dup2\n      mstore\n      swap1\n      0x01\n      add\n      swap1\n      0x20\n      add\n      dup1\n      dup4\n      gt\n      tag_53\n      jumpi\n      dup3\n      swap1\n      sub\n      0x1f\n      and\n      dup3\n      add\n      swap2\n    tag_51:\n      pop\n      pop\n      pop\n      pop\n      pop\n      swap1\n      pop\n      swap3\n      pop\n      swap3\n      pop\n      swap3\n      pop\n        /* \"contracts/Functions.sol\":162:325  function datatypes() public returns(uint,bool,string memory){... */\n      swap1\n      swap2\n      swap3\n      jump\t// out\n        /* \"#utility.yul\":7:106   */\n    tag_54:\n        /* \"#utility.yul\":59:65   */\n      0x00\n        /* \"#utility.yul\":93:98   */\n      dup2\n        /* \"#utility.yul\":87:99   */\n      mload\n        /* \"#utility.yul\":77:99   */\n      swap1\n      pop\n        /* \"#utility.yul\":7:106   */\n      swap2\n      swap1\n      pop\n      jump\t// out\n        /* \"#utility.yul\":112:281   */\n    tag_55:\n        /* \"#utility.yul\":196:207   */\n      0x00\n        /* \"#utility.yul\":230:236   */\n      dup3\n        /* \"#utility.yul\":225:228   */\n      dup3\n        /* \"#utility.yul\":218:237   */\n      mstore\n        /* \"#utility.yul\":270:274   */\n      0x20\n        /* \"#utility.yul\":265:268   */\n      dup3\n        /* \"#utility.yul\":261:275   */\n      add\n        /* \"#utility.yul\":246:275   */\n      swap1\n      pop\n        /* \"#utility.yul\":112:281   */\n      swap3\n      swap2\n      pop\n      pop\n      jump\t// out\n        /* \"#utility.yul\":287:533   */\n    tag_56:\n        /* \"#utility.yul\":368:369   */\n      0x00\n        /* \"#utility.yul\":378:491   */\n    tag_97:\n        /* \"#utility.yul\":392:398   */\n      dup4\n        /* \"#utility.yul\":389:390   */\n      dup2\n        /* \"#utility.yul\":386:399   */\n      lt\n        /* \"#utility.yul\":378:491   */\n      iszero\n      tag_99\n      jumpi\n        /* \"#utility.yul\":477:478   */\n      dup1\n        /* \"#utility.yul\":472:475   */\n      dup3\n        /* \"#utility.yul\":468:479   */\n      add\n        /* \"#utility.yul\":462:480   */\n      mload\n        /* \"#utility.yul\":458:459   */\n      dup2\n        /* \"#utility.yul\":453:456   */\n      dup5\n        /* \"#utility.yul\":449:460   */\n      add\n        /* \"#utility.yul\":442:481   */\n      mstore\n        /* \"#utility.yul\":414:416   */\n      0x20\n        /* \"#utility.yul\":411:412   */\n      dup2\n        /* \"#utility.yul\":407:417   */\n      add\n        /* \"#utility.yul\":402:417   */\n      swap1\n      pop\n        /* \"#utility.yul\":378:491   */\n      jump(tag_97)\n    tag_99:\n        /* \"#utility.yul\":525:526   */\n      0x00\n        /* \"#utility.yul\":516:522   */\n      dup5\n        /* \"#utility.yul\":511:514   */\n      dup5\n        /* \"#utility.yul\":507:523   */\n      add\n        /* \"#utility.yul\":500:527   */\n      mstore\n        /* \"#utility.yul\":349:533   */\n      pop\n        /* \"#utility.yul\":287:533   */\n      pop\n      pop\n      pop\n      jump\t// out\n        /* \"#utility.yul\":539:641   */\n    tag_57:\n        /* \"#utility.yul\":580:586   */\n      0x00\n        /* \"#utility.yul\":631:633   */\n      0x1f\n        /* \"#utility.yul\":627:634   */\n      not\n        /* \"#utility.yul\":622:624   */\n      0x1f\n        /* \"#utility.yul\":615:620   */\n      dup4\n        /* \"#utility.yul\":611:625   */\n      add\n        /* \"#utility.yul\":607:635   */\n      and\n        /* \"#utility.yul\":597:635   */\n      swap1\n      pop\n        /* \"#utility.yul\":539:641   */\n      swap2\n      swap1\n      pop\n      jump\t// out\n        /* \"#utility.yul\":647:1024   */\n    tag_58:\n        /* \"#utility.yul\":735:738   */\n      0x00\n        /* \"#utility.yul\":763:802   */\n      tag_102\n        /* \"#utility.yul\":796:801   */\n      dup3\n        /* \"#utility.yul\":763:802   */\n      tag_54\n      jump\t// in\n    tag_102:\n        /* \"#utility.yul\":818:889   */\n      tag_103\n        /* \"#utility.yul\":882:888   */\n      dup2\n        /* \"#utility.yul\":877:880   */\n      dup6\n        /* \"#utility.yul\":818:889   */\n      tag_55\n      jump\t// in\n    tag_103:\n        /* \"#utility.yul\":811:889   */\n      swap4\n      pop\n        /* \"#utility.yul\":898:963   */\n      tag_104\n        /* \"#utility.yul\":956:962   */\n      dup2\n        /* \"#utility.yul\":951:954   */\n      dup6\n        /* \"#utility.yul\":944:948   */\n      0x20\n        /* \"#utility.yul\":937:942   */\n      dup7\n        /* \"#utility.yul\":933:949   */\n      add\n        /* \"#utility.yul\":898:963   */\n      tag_56\n      jump\t// in\n    tag_104:\n        /* \"#utility.yul\":988:1017   */\n      tag_105\n        /* \"#utility.yul\":1010:1016   */\n      dup2\n        /* \"#utility.yul\":988:1017   */\n      tag_57\n      jump\t// in\n    tag_105:\n        /* \"#utility.yul\":983:986   */\n      dup5\n        /* \"#utility.yul\":979:1018   */\n      add\n        /* \"#utility.yul\":972:1018   */\n      swap2\n      pop\n        /* \"#utility.yul\":739:1024   */\n      pop\n        /* \"#utility.yul\":647:1024   */\n      swap3\n      swap2\n      pop\n      pop\n      jump\t// out\n        /* \"#utility.yul\":1030:1343   */\n    tag_12:\n        /* \"#utility.yul\":1143:1147   */\n      0x00\n        /* \"#utility.yul\":1181:1183   */\n      0x20\n        /* \"#utility.yul\":1170:1179   */\n      dup3\n        /* \"#utility.yul\":1166:1184   */\n      add\n        /* \"#utility.yul\":1158:1184   */\n      swap1\n      pop\n        /* \"#utility.yul\":1230:1239   */\n      dup2\n        /* \"#utility.yul\":1224:1228   */\n      dup2\n        /* \"#utility.yul\":1220:1240   */\n      sub\n        /* \"#utility.yul\":1216:1217   */\n      0x00\n        /* \"#utility.yul\":1205:1214   */\n      dup4\n        /* \"#utility.yul\":1201:1218   */\n      add\n        /* \"#utility.yul\":1194:1241   */\n      mstore\n        /* \"#utility.yul\":1258:1336   */\n      tag_107\n        /* \"#utility.yul\":1331:1335   */\n      dup2\n        /* \"#utility.yul\":1322:1328   */\n      dup5\n        /* \"#utility.yul\":1258:1336   */\n      tag_58\n      jump\t// in\n    tag_107:\n        /* \"#utility.yul\":1250:1336   */\n      swap1\n      pop\n        /* \"#utility.yul\":1030:1343   */\n      swap3\n      swap2\n      pop\n      pop\n      jump\t// out\n        /* \"#utility.yul\":1349:1426   */\n    tag_59:\n        /* \"#utility.yul\":1386:1393   */\n      0x00\n        /* \"#utility.yul\":1415:1420   */\n      dup2\n        /* \"#utility.yul\":1404:1420   */\n      swap1\n      pop\n        /* \"#utility.yul\":1349:1426   */\n      swap2\n      swap1\n      pop\n      jump\t// out\n        /* \"#utility.yul\":1432:1550   */\n    tag_60:\n        /* \"#utility.yul\":1519:1543   */\n      tag_110\n        /* \"#utility.yul\":1537:1542   */\n      dup2\n        /* \"#utility.yul\":1519:1543   */\n      tag_59\n      jump\t// in\n    tag_110:\n        /* \"#utility.yul\":1514:1517   */\n      dup3\n        /* \"#utility.yul\":1507:1544   */\n      mstore\n        /* \"#utility.yul\":1432:1550   */\n      pop\n      pop\n      jump\t// out\n        /* \"#utility.yul\":1556:1646   */\n    tag_61:\n        /* \"#utility.yul\":1590:1597   */\n      0x00\n        /* \"#utility.yul\":1633:1638   */\n      dup2\n        /* \"#utility.yul\":1626:1639   */\n      iszero\n        /* \"#utility.yul\":1619:1640   */\n      iszero\n        /* \"#utility.yul\":1608:1640   */\n      swap1\n      pop\n        /* \"#utility.yul\":1556:1646   */\n      swap2\n      swap1\n      pop\n      jump\t// out\n        /* \"#utility.yul\":1652:1761   */\n    tag_62:\n        /* \"#utility.yul\":1733:1754   */\n      tag_113\n        /* \"#utility.yul\":1748:1753   */\n      dup2\n        /* \"#utility.yul\":1733:1754   */\n      tag_61\n      jump\t// in\n    tag_113:\n        /* \"#utility.yul\":1728:1731   */\n      dup3\n        /* \"#utility.yul\":1721:1755   */\n      mstore\n        /* \"#utility.yul\":1652:1761   */\n      pop\n      pop\n      jump\t// out\n        /* \"#utility.yul\":1767:2510   */\n    tag_16:\n        /* \"#utility.yul\":1986:1990   */\n      0x00\n        /* \"#utility.yul\":2024:2027   */\n      0xa0\n        /* \"#utility.yul\":2013:2022   */\n      dup3\n        /* \"#utility.yul\":2009:2028   */\n      add\n        /* \"#utility.yul\":2001:2028   */\n      swap1\n      pop\n        /* \"#utility.yul\":2038:2109   */\n      tag_115\n        /* \"#utility.yul\":2106:2107   */\n      0x00\n        /* \"#utility.yul\":2095:2104   */\n      dup4\n        /* \"#utility.yul\":2091:2108   */\n      add\n        /* \"#utility.yul\":2082:2088   */\n      dup9\n        /* \"#utility.yul\":2038:2109   */\n      tag_60\n      jump\t// in\n    tag_115:\n        /* \"#utility.yul\":2119:2185   */\n      tag_116\n        /* \"#utility.yul\":2181:2183   */\n      0x20\n        /* \"#utility.yul\":2170:2179   */\n      dup4\n        /* \"#utility.yul\":2166:2184   */\n      add\n        /* \"#utility.yul\":2157:2163   */\n      dup8\n        /* \"#utility.yul\":2119:2185   */\n      tag_62\n      jump\t// in\n    tag_116:\n        /* \"#utility.yul\":2232:2241   */\n      dup2\n        /* \"#utility.yul\":2226:2230   */\n      dup2\n        /* \"#utility.yul\":2222:2242   */\n      sub\n        /* \"#utility.yul\":2217:2219   */\n      0x40\n        /* \"#utility.yul\":2206:2215   */\n      dup4\n        /* \"#utility.yul\":2202:2220   */\n      add\n        /* \"#utility.yul\":2195:2243   */\n      mstore\n        /* \"#utility.yul\":2260:2338   */\n      tag_117\n        /* \"#utility.yul\":2333:2337   */\n      dup2\n        /* \"#utility.yul\":2324:2330   */\n      dup7\n        /* \"#utility.yul\":2260:2338   */\n      tag_58\n      jump\t// in\n    tag_117:\n        /* \"#utility.yul\":2252:2338   */\n      swap1\n      pop\n        /* \"#utility.yul\":2348:2420   */\n      tag_118\n        /* \"#utility.yul\":2416:2418   */\n      0x60\n        /* \"#utility.yul\":2405:2414   */\n      dup4\n        /* \"#utility.yul\":2401:2419   */\n      add\n        /* \"#utility.yul\":2392:2398   */\n      dup6\n        /* \"#utility.yul\":2348:2420   */\n      tag_60\n      jump\t// in\n    tag_118:\n        /* \"#utility.yul\":2430:2503   */\n      tag_119\n        /* \"#utility.yul\":2498:2501   */\n      0x80\n        /* \"#utility.yul\":2487:2496   */\n      dup4\n        /* \"#utility.yul\":2483:2502   */\n      add\n        /* \"#utility.yul\":2474:2480   */\n      dup5\n        /* \"#utility.yul\":2430:2503   */\n      tag_60\n      jump\t// in\n    tag_119:\n        /* \"#utility.yul\":1767:2510   */\n      swap7\n      swap6\n      pop\n      pop\n      pop\n      pop\n      pop\n      pop\n      jump\t// out\n        /* \"#utility.yul\":2516:2738   */\n    tag_22:\n        /* \"#utility.yul\":2609:2613   */\n      0x00\n        /* \"#utility.yul\":2647:2649   */\n      0x20\n        /* \"#utility.yul\":2636:2645   */\n      dup3\n        /* \"#utility.yul\":2632:2650   */\n      add\n        /* \"#utility.yul\":2624:2650   */\n      swap1\n      pop\n        /* \"#utility.yul\":2660:2731   */\n      tag_121\n        /* \"#utility.yul\":2728:2729   */\n      0x00\n        /* \"#utility.yul\":2717:2726   */\n      dup4\n        /* \"#utility.yul\":2713:2730   */\n      add\n        /* \"#utility.yul\":2704:2710   */\n      dup5\n        /* \"#utility.yul\":2660:2731   */\n      tag_60\n      jump\t// in\n    tag_121:\n        /* \"#utility.yul\":2516:2738   */\n      swap3\n      swap2\n      pop\n      pop\n      jump\t// out\n        /* \"#utility.yul\":2744:2954   */\n    tag_26:\n        /* \"#utility.yul\":2831:2835   */\n      0x00\n        /* \"#utility.yul\":2869:2871   */\n      0x20\n        /* \"#utility.yul\":2858:2867   */\n      dup3\n        /* \"#utility.yul\":2854:2872   */\n      add\n        /* \"#utility.yul\":2846:2872   */\n      swap1\n      pop\n        /* \"#utility.yul\":2882:2947   */\n      tag_123\n        /* \"#utility.yul\":2944:2945   */\n      0x00\n        /* \"#utility.yul\":2933:2942   */\n      dup4\n        /* \"#utility.yul\":2929:2946   */\n      add\n        /* \"#utility.yul\":2920:2926   */\n      dup5\n        /* \"#utility.yul\":2882:2947   */\n      tag_62\n      jump\t// in\n    tag_123:\n        /* \"#utility.yul\":2744:2954   */\n      swap3\n      swap2\n      pop\n      pop\n      jump\t// out\n        /* \"#utility.yul\":2960:3481   */\n    tag_30:\n        /* \"#utility.yul\":3123:3127   */\n      0x00\n        /* \"#utility.yul\":3161:3163   */\n      0x60\n        /* \"#utility.yul\":3150:3159   */\n      dup3\n        /* \"#utility.yul\":3146:3164   */\n      add\n        /* \"#utility.yul\":3138:3164   */\n      swap1\n      pop\n        /* \"#utility.yul\":3174:3245   */\n      tag_125\n        /* \"#utility.yul\":3242:3243   */\n      0x00\n        /* \"#utility.yul\":3231:3240   */\n      dup4\n        /* \"#utility.yul\":3227:3244   */\n      add\n        /* \"#utility.yul\":3218:3224   */\n      dup7\n        /* \"#utility.yul\":3174:3245   */\n      tag_60\n      jump\t// in\n    tag_125:\n        /* \"#utility.yul\":3255:3321   */\n      tag_126\n        /* \"#utility.yul\":3317:3319   */\n      0x20\n        /* \"#utility.yul\":3306:3315   */\n      dup4\n        /* \"#utility.yul\":3302:3320   */\n      add\n        /* \"#utility.yul\":3293:3299   */\n      dup6\n        /* \"#utility.yul\":3255:3321   */\n      tag_62\n      jump\t// in\n    tag_126:\n        /* \"#utility.yul\":3368:3377   */\n      dup2\n        /* \"#utility.yul\":3362:3366   */\n      dup2\n        /* \"#utility.yul\":3358:3378   */\n      sub\n        /* \"#utility.yul\":3353:3355   */\n      0x40\n        /* \"#utility.yul\":3342:3351   */\n      dup4\n        /* \"#utility.yul\":3338:3356   */\n      add\n        /* \"#utility.yul\":3331:3379   */\n      mstore\n        /* \"#utility.yul\":3396:3474   */\n      tag_127\n        /* \"#utility.yul\":3469:3473   */\n      dup2\n        /* \"#utility.yul\":3460:3466   */\n      dup5\n        /* \"#utility.yul\":3396:3474   */\n      tag_58\n      jump\t// in\n    tag_127:\n        /* \"#utility.yul\":3388:3474   */\n      swap1\n      pop\n        /* \"#utility.yul\":2960:3481   */\n      swap5\n      swap4\n      pop\n      pop\n      pop\n      pop\n      jump\t// out\n        /* \"#utility.yul\":3487:3667   */\n    tag_63:\n        /* \"#utility.yul\":3535:3612   */\n      0x4e487b7100000000000000000000000000000000000000000000000000000000\n        /* \"#utility.yul\":3532:3533   */\n      0x00\n        /* \"#utility.yul\":3525:3613   */\n      mstore\n        /* \"#utility.yul\":3632:3636   */\n      0x22\n        /* \"#utility.yul\":3629:3630   */\n      0x04\n        /* \"#utility.yul\":3622:3637   */\n      mstore\n        /* \"#utility.yul\":3656:3660   */\n      0x24\n        /* \"#utility.yul\":3653:3654   */\n      0x00\n        /* \"#utility.yul\":3646:3661   */\n      revert\n        /* \"#utility.yul\":3673:3993   */\n    tag_32:\n        /* \"#utility.yul\":3717:3723   */\n      0x00\n        /* \"#utility.yul\":3754:3755   */\n      0x02\n        /* \"#utility.yul\":3748:3752   */\n      dup3\n        /* \"#utility.yul\":3744:3756   */\n      div\n        /* \"#utility.yul\":3734:3756   */\n      swap1\n      pop\n        /* \"#utility.yul\":3801:3802   */\n      0x01\n        /* \"#utility.yul\":3795:3799   */\n      dup3\n        /* \"#utility.yul\":3791:3803   */\n      and\n        /* \"#utility.yul\":3822:3840   */\n      dup1\n        /* \"#utility.yul\":3812:3893   */\n      tag_130\n      jumpi\n        /* \"#utility.yul\":3878:3882   */\n      0x7f\n        /* \"#utility.yul\":3870:3876   */\n      dup3\n        /* \"#utility.yul\":3866:3883   */\n      and\n        /* \"#utility.yul\":3856:3883   */\n      swap2\n      pop\n        /* \"#utility.yul\":3812:3893   */\n    tag_130:\n        /* \"#utility.yul\":3940:3942   */\n      0x20\n        /* \"#utility.yul\":3932:3938   */\n      dup3\n        /* \"#utility.yul\":3929:3943   */\n      lt\n        /* \"#utility.yul\":3909:3927   */\n      dup2\n        /* \"#utility.yul\":3906:3944   */\n      sub\n        /* \"#utility.yul\":3903:3987   */\n      tag_131\n      jumpi\n        /* \"#utility.yul\":3959:3977   */\n      tag_132\n      tag_63\n      jump\t// in\n    tag_132:\n        /* \"#utility.yul\":3903:3987   */\n    tag_131:\n        /* \"#utility.yul\":3724:3993   */\n      pop\n        /* \"#utility.yul\":3673:3993   */\n      swap2\n      swap1\n      pop\n      jump\t// out\n        /* \"#utility.yul\":3999:4085   */\n    tag_64:\n        /* \"#utility.yul\":4045:4052   */\n      0x00\n        /* \"#utility.yul\":4074:4079   */\n      dup2\n        /* \"#utility.yul\":4063:4079   */\n      swap1\n      pop\n        /* \"#utility.yul\":3999:4085   */\n      swap2\n      swap1\n      pop\n      jump\t// out\n        /* \"#utility.yul\":4091:4151   */\n    tag_65:\n        /* \"#utility.yul\":4119:4122   */\n      0x00\n        /* \"#utility.yul\":4140:4145   */\n      dup2\n        /* \"#utility.yul\":4133:4145   */\n      swap1\n      pop\n        /* \"#utility.yul\":4091:4151   */\n      swap2\n      swap1\n      pop\n      jump\t// out\n        /* \"#utility.yul\":4157:4317   */\n    tag_66:\n        /* \"#utility.yul\":4216:4225   */\n      0x00\n        /* \"#utility.yul\":4249:4311   */\n      tag_136\n        /* \"#utility.yul\":4267:4310   */\n      tag_137\n        /* \"#utility.yul\":4276:4309   */\n      tag_138\n        /* \"#utility.yul\":4303:4308   */\n      dup5\n        /* \"#utility.yul\":4276:4309   */\n      tag_64\n      jump\t// in\n    tag_138:\n        /* \"#utility.yul\":4267:4310   */\n      tag_65\n      jump\t// in\n    tag_137:\n        /* \"#utility.yul\":4249:4311   */\n      tag_59\n      jump\t// in\n    tag_136:\n        /* \"#utility.yul\":4236:4311   */\n      swap1\n      pop\n        /* \"#utility.yul\":4157:4317   */\n      swap2\n      swap1\n      pop\n      jump\t// out\n        /* \"#utility.yul\":4323:4472   */\n    tag_67:\n        /* \"#utility.yul\":4419:4465   */\n      tag_140\n        /* \"#utility.yul\":4459:4464   */\n      dup2\n        /* \"#utility.yul\":4419:4465   */\n      tag_66\n      jump\t// in\n    tag_140:\n        /* \"#utility.yul\":4414:4417   */\n      dup3\n        /* \"#utility.yul\":4407:4466   */\n      mstore\n        /* \"#utility.yul\":4323:4472   */\n      pop\n      pop\n      jump\t// out\n        /* \"#utility.yul\":4478:4634   */\n    tag_68:\n        /* \"#utility.yul\":4618:4626   */\n      0x6466677366670000000000000000000000000000000000000000000000000000\n        /* \"#utility.yul\":4614:4615   */\n      0x00\n        /* \"#utility.yul\":4606:4612   */\n      dup3\n        /* \"#utility.yul\":4602:4616   */\n      add\n        /* \"#utility.yul\":4595:4627   */\n      mstore\n        /* \"#utility.yul\":4478:4634   */\n      pop\n      jump\t// out\n        /* \"#utility.yul\":4640:5005   */\n    tag_69:\n        /* \"#utility.yul\":4782:4785   */\n      0x00\n        /* \"#utility.yul\":4803:4869   */\n      tag_143\n        /* \"#utility.yul\":4867:4868   */\n      0x06\n        /* \"#utility.yul\":4862:4865   */\n      dup4\n        /* \"#utility.yul\":4803:4869   */\n      tag_55\n      jump\t// in\n    tag_143:\n        /* \"#utility.yul\":4796:4869   */\n      swap2\n      pop\n        /* \"#utility.yul\":4878:4971   */\n      tag_144\n        /* \"#utility.yul\":4967:4970   */\n      dup3\n        /* \"#utility.yul\":4878:4971   */\n      tag_68\n      jump\t// in\n    tag_144:\n        /* \"#utility.yul\":4996:4998   */\n      0x20\n        /* \"#utility.yul\":4991:4994   */\n      dup3\n        /* \"#utility.yul\":4987:4999   */\n      add\n        /* \"#utility.yul\":4980:4999   */\n      swap1\n      pop\n        /* \"#utility.yul\":4640:5005   */\n      swap2\n      swap1\n      pop\n      jump\t// out\n        /* \"#utility.yul\":5011:5558   */\n    tag_41:\n        /* \"#utility.yul\":5214:5218   */\n      0x00\n        /* \"#utility.yul\":5252:5254   */\n      0x40\n        /* \"#utility.yul\":5241:5250   */\n      dup3\n        /* \"#utility.yul\":5237:5255   */\n      add\n        /* \"#utility.yul\":5229:5255   */\n      swap1\n      pop\n        /* \"#utility.yul\":5265:5345   */\n      tag_146\n        /* \"#utility.yul\":5342:5343   */\n      0x00\n        /* \"#utility.yul\":5331:5340   */\n      dup4\n        /* \"#utility.yul\":5327:5344   */\n      add\n        /* \"#utility.yul\":5318:5324   */\n      dup5\n        /* \"#utility.yul\":5265:5345   */\n      tag_67\n      jump\t// in\n    tag_146:\n        /* \"#utility.yul\":5392:5401   */\n      dup2\n        /* \"#utility.yul\":5386:5390   */\n      dup2\n        /* \"#utility.yul\":5382:5402   */\n      sub\n        /* \"#utility.yul\":5377:5379   */\n      0x20\n        /* \"#utility.yul\":5366:5375   */\n      dup4\n        /* \"#utility.yul\":5362:5380   */\n      add\n        /* \"#utility.yul\":5355:5403   */\n      mstore\n        /* \"#utility.yul\":5420:5551   */\n      tag_147\n        /* \"#utility.yul\":5546:5550   */\n      dup2\n        /* \"#utility.yul\":5420:5551   */\n      tag_69\n      jump\t// in\n    tag_147:\n        /* \"#utility.yul\":5412:5551   */\n      swap1\n      pop\n        /* \"#utility.yul\":5011:5558   */\n      swap3\n      swap2\n      pop\n      pop\n      jump\t// out\n        /* \"#utility.yul\":5564:5650   */\n    tag_70:\n        /* \"#utility.yul\":5610:5617   */\n      0x00\n        /* \"#utility.yul\":5639:5644   */\n      dup2\n        /* \"#utility.yul\":5628:5644   */\n      swap1\n      pop\n        /* \"#utility.yul\":5564:5650   */\n      swap2\n      swap1\n      pop\n      jump\t// out\n        /* \"#utility.yul\":5656:5816   */\n    tag_71:\n        /* \"#utility.yul\":5715:5724   */\n      0x00\n        /* \"#utility.yul\":5748:5810   */\n      tag_150\n        /* \"#utility.yul\":5766:5809   */\n      tag_151\n        /* \"#utility.yul\":5775:5808   */\n      tag_152\n        /* \"#utility.yul\":5802:5807   */\n      dup5\n        /* \"#utility.yul\":5775:5808   */\n      tag_70\n      jump\t// in\n    tag_152:\n        /* \"#utility.yul\":5766:5809   */\n      tag_65\n      jump\t// in\n    tag_151:\n        /* \"#utility.yul\":5748:5810   */\n      tag_59\n      jump\t// in\n    tag_150:\n        /* \"#utility.yul\":5735:5810   */\n      swap1\n      pop\n        /* \"#utility.yul\":5656:5816   */\n      swap2\n      swap1\n      pop\n      jump\t// out\n        /* \"#utility.yul\":5822:5971   */\n    tag_72:\n        /* \"#utility.yul\":5918:5964   */\n      tag_154\n        /* \"#utility.yul\":5958:5963   */\n      dup2\n        /* \"#utility.yul\":5918:5964   */\n      tag_71\n      jump\t// in\n    tag_154:\n        /* \"#utility.yul\":5913:5916   */\n      dup3\n        /* \"#utility.yul\":5906:5965   */\n      mstore\n        /* \"#utility.yul\":5822:5971   */\n      pop\n      pop\n      jump\t// out\n        /* \"#utility.yul\":5977:6136   */\n    tag_73:\n        /* \"#utility.yul\":6117:6128   */\n      0x6466647366677366670000000000000000000000000000000000000000000000\n        /* \"#utility.yul\":6113:6114   */\n      0x00\n        /* \"#utility.yul\":6105:6111   */\n      dup3\n        /* \"#utility.yul\":6101:6115   */\n      add\n        /* \"#utility.yul\":6094:6129   */\n      mstore\n        /* \"#utility.yul\":5977:6136   */\n      pop\n      jump\t// out\n        /* \"#utility.yul\":6142:6507   */\n    tag_74:\n        /* \"#utility.yul\":6284:6287   */\n      0x00\n        /* \"#utility.yul\":6305:6371   */\n      tag_157\n        /* \"#utility.yul\":6369:6370   */\n      0x09\n        /* \"#utility.yul\":6364:6367   */\n      dup4\n        /* \"#utility.yul\":6305:6371   */\n      tag_55\n      jump\t// in\n    tag_157:\n        /* \"#utility.yul\":6298:6371   */\n      swap2\n      pop\n        /* \"#utility.yul\":6380:6473   */\n      tag_158\n        /* \"#utility.yul\":6469:6472   */\n      dup3\n        /* \"#utility.yul\":6380:6473   */\n      tag_73\n      jump\t// in\n    tag_158:\n        /* \"#utility.yul\":6498:6500   */\n      0x20\n        /* \"#utility.yul\":6493:6496   */\n      dup3\n        /* \"#utility.yul\":6489:6501   */\n      add\n        /* \"#utility.yul\":6482:6501   */\n      swap1\n      pop\n        /* \"#utility.yul\":6142:6507   */\n      swap2\n      swap1\n      pop\n      jump\t// out\n        /* \"#utility.yul\":6513:7060   */\n    tag_43:\n        /* \"#utility.yul\":6716:6720   */\n      0x00\n        /* \"#utility.yul\":6754:6756   */\n      0x40\n        /* \"#utility.yul\":6743:6752   */\n      dup3\n        /* \"#utility.yul\":6739:6757   */\n      add\n        /* \"#utility.yul\":6731:6757   */\n      swap1\n      pop\n        /* \"#utility.yul\":6767:6847   */\n      tag_160\n        /* \"#utility.yul\":6844:6845   */\n      0x00\n        /* \"#utility.yul\":6833:6842   */\n      dup4\n        /* \"#utility.yul\":6829:6846   */\n      add\n        /* \"#utility.yul\":6820:6826   */\n      dup5\n        /* \"#utility.yul\":6767:6847   */\n      tag_72\n      jump\t// in\n    tag_160:\n        /* \"#utility.yul\":6894:6903   */\n      dup2\n        /* \"#utility.yul\":6888:6892   */\n      dup2\n        /* \"#utility.yul\":6884:6904   */\n      sub\n        /* \"#utility.yul\":6879:6881   */\n      0x20\n        /* \"#utility.yul\":6868:6877   */\n      dup4\n        /* \"#utility.yul\":6864:6882   */\n      add\n        /* \"#utility.yul\":6857:6905   */\n      mstore\n        /* \"#utility.yul\":6922:7053   */\n      tag_161\n        /* \"#utility.yul\":7048:7052   */\n      dup2\n        /* \"#utility.yul\":6922:7053   */\n      tag_74\n      jump\t// in\n    tag_161:\n        /* \"#utility.yul\":6914:7053   */\n      swap1\n      pop\n        /* \"#utility.yul\":6513:7060   */\n      swap3\n      swap2\n      pop\n      pop\n      jump\t// out\n        /* \"#utility.yul\":7066:7192   */\n    tag_75:\n        /* \"#utility.yul\":7103:7110   */\n      0x00\n        /* \"#utility.yul\":7143:7185   */\n      0xffffffffffffffffffffffffffffffffffffffff\n        /* \"#utility.yul\":7136:7141   */\n      dup3\n        /* \"#utility.yul\":7132:7186   */\n      and\n        /* \"#utility.yul\":7121:7186   */\n      swap1\n      pop\n        /* \"#utility.yul\":7066:7192   */\n      swap2\n      swap1\n      pop\n      jump\t// out\n        /* \"#utility.yul\":7198:7294   */\n    tag_76:\n        /* \"#utility.yul\":7235:7242   */\n      0x00\n        /* \"#utility.yul\":7264:7288   */\n      tag_164\n        /* \"#utility.yul\":7282:7287   */\n      dup3\n        /* \"#utility.yul\":7264:7288   */\n      tag_75\n      jump\t// in\n    tag_164:\n        /* \"#utility.yul\":7253:7288   */\n      swap1\n      pop\n        /* \"#utility.yul\":7198:7294   */\n      swap2\n      swap1\n      pop\n      jump\t// out\n        /* \"#utility.yul\":7300:7418   */\n    tag_77:\n        /* \"#utility.yul\":7387:7411   */\n      tag_166\n        /* \"#utility.yul\":7405:7410   */\n      dup2\n        /* \"#utility.yul\":7387:7411   */\n      tag_76\n      jump\t// in\n    tag_166:\n        /* \"#utility.yul\":7382:7385   */\n      dup3\n        /* \"#utility.yul\":7375:7412   */\n      mstore\n        /* \"#utility.yul\":7300:7418   */\n      pop\n      pop\n      jump\t// out\n        /* \"#utility.yul\":7424:7646   */\n    tag_45:\n        /* \"#utility.yul\":7517:7521   */\n      0x00\n        /* \"#utility.yul\":7555:7557   */\n      0x20\n        /* \"#utility.yul\":7544:7553   */\n      dup3\n        /* \"#utility.yul\":7540:7558   */\n      add\n        /* \"#utility.yul\":7532:7558   */\n      swap1\n      pop\n        /* \"#utility.yul\":7568:7639   */\n      tag_168\n        /* \"#utility.yul\":7636:7637   */\n      0x00\n        /* \"#utility.yul\":7625:7634   */\n      dup4\n        /* \"#utility.yul\":7621:7638   */\n      add\n        /* \"#utility.yul\":7612:7618   */\n      dup5\n        /* \"#utility.yul\":7568:7639   */\n      tag_77\n      jump\t// in\n    tag_168:\n        /* \"#utility.yul\":7424:7646   */\n      swap3\n      swap2\n      pop\n      pop\n      jump\t// out\n        /* \"#utility.yul\":7652:7832   */\n    tag_78:\n        /* \"#utility.yul\":7700:7777   */\n      0x4e487b7100000000000000000000000000000000000000000000000000000000\n        /* \"#utility.yul\":7697:7698   */\n      0x00\n        /* \"#utility.yul\":7690:7778   */\n      mstore\n        /* \"#utility.yul\":7797:7801   */\n      0x41\n        /* \"#utility.yul\":7794:7795   */\n      0x04\n        /* \"#utility.yul\":7787:7802   */\n      mstore\n        /* \"#utility.yul\":7821:7825   */\n      0x24\n        /* \"#utility.yul\":7818:7819   */\n      0x00\n        /* \"#utility.yul\":7811:7826   */\n      revert\n        /* \"#utility.yul\":7838:7979   */\n    tag_79:\n        /* \"#utility.yul\":7887:7891   */\n      0x00\n        /* \"#utility.yul\":7910:7913   */\n      dup2\n        /* \"#utility.yul\":7902:7913   */\n      swap1\n      pop\n        /* \"#utility.yul\":7933:7936   */\n      dup2\n        /* \"#utility.yul\":7930:7931   */\n      0x00\n        /* \"#utility.yul\":7923:7937   */\n      mstore\n        /* \"#utility.yul\":7967:7971   */\n      0x20\n        /* \"#utility.yul\":7964:7965   */\n      0x00\n        /* \"#utility.yul\":7954:7972   */\n      keccak256\n        /* \"#utility.yul\":7946:7972   */\n      swap1\n      pop\n        /* \"#utility.yul\":7838:7979   */\n      swap2\n      swap1\n      pop\n      jump\t// out\n        /* \"#utility.yul\":7985:8078   */\n    tag_80:\n        /* \"#utility.yul\":8022:8028   */\n      0x00\n        /* \"#utility.yul\":8069:8071   */\n      0x20\n        /* \"#utility.yul\":8064:8066   */\n      0x1f\n        /* \"#utility.yul\":8057:8062   */\n      dup4\n        /* \"#utility.yul\":8053:8067   */\n      add\n        /* \"#utility.yul\":8049:8072   */\n      div\n        /* \"#utility.yul\":8039:8072   */\n      swap1\n      pop\n        /* \"#utility.yul\":7985:8078   */\n      swap2\n      swap1\n      pop\n      jump\t// out\n        /* \"#utility.yul\":8084:8191   */\n    tag_81:\n        /* \"#utility.yul\":8128:8136   */\n      0x00\n        /* \"#utility.yul\":8178:8183   */\n      dup3\n        /* \"#utility.yul\":8172:8176   */\n      dup3\n        /* \"#utility.yul\":8168:8184   */\n      shl\n        /* \"#utility.yul\":8147:8184   */\n      swap1\n      pop\n        /* \"#utility.yul\":8084:8191   */\n      swap3\n      swap2\n      pop\n      pop\n      jump\t// out\n        /* \"#utility.yul\":8197:8590   */\n    tag_82:\n        /* \"#utility.yul\":8266:8272   */\n      0x00\n        /* \"#utility.yul\":8316:8317   */\n      0x08\n        /* \"#utility.yul\":8304:8314   */\n      dup4\n        /* \"#utility.yul\":8300:8318   */\n      mul\n        /* \"#utility.yul\":8339:8436   */\n      tag_174\n        /* \"#utility.yul\":8369:8435   */\n      0xffffffffffffffffffffffffffffffffffffffffffffffffffffffffffffffff\n        /* \"#utility.yul\":8358:8367   */\n      dup3\n        /* \"#utility.yul\":8339:8436   */\n      tag_81\n      jump\t// in\n    tag_174:\n        /* \"#utility.yul\":8457:8496   */\n      tag_175\n        /* \"#utility.yul\":8487:8495   */\n      dup7\n        /* \"#utility.yul\":8476:8485   */\n      dup4\n        /* \"#utility.yul\":8457:8496   */\n      tag_81\n      jump\t// in\n    tag_175:\n        /* \"#utility.yul\":8445:8496   */\n      swap6\n      pop\n        /* \"#utility.yul\":8529:8533   */\n      dup1\n        /* \"#utility.yul\":8525:8534   */\n      not\n        /* \"#utility.yul\":8518:8523   */\n      dup5\n        /* \"#utility.yul\":8514:8535   */\n      and\n        /* \"#utility.yul\":8505:8535   */\n      swap4\n      pop\n        /* \"#utility.yul\":8578:8582   */\n      dup1\n        /* \"#utility.yul\":8568:8576   */\n      dup7\n        /* \"#utility.yul\":8564:8583   */\n      and\n        /* \"#utility.yul\":8557:8562   */\n      dup5\n        /* \"#utility.yul\":8554:8584   */\n      or\n        /* \"#utility.yul\":8544:8584   */\n      swap3\n      pop\n        /* \"#utility.yul\":8273:8590   */\n      pop\n      pop\n        /* \"#utility.yul\":8197:8590   */\n      swap4\n      swap3\n      pop\n      pop\n      pop\n      jump\t// out\n        /* \"#utility.yul\":8596:8738   */\n    tag_83:\n        /* \"#utility.yul\":8646:8655   */\n      0x00\n        /* \"#utility.yul\":8679:8732   */\n      tag_177\n        /* \"#utility.yul\":8697:8731   */\n      tag_178\n        /* \"#utility.yul\":8706:8730   */\n      tag_179\n        /* \"#utility.yul\":8724:8729   */\n      dup5\n        /* \"#utility.yul\":8706:8730   */\n      tag_59\n      jump\t// in\n    tag_179:\n        /* \"#utility.yul\":8697:8731   */\n      tag_65\n      jump\t// in\n    tag_178:\n        /* \"#utility.yul\":8679:8732   */\n      tag_59\n      jump\t// in\n    tag_177:\n        /* \"#utility.yul\":8666:8732   */\n      swap1\n      pop\n        /* \"#utility.yul\":8596:8738   */\n      swap2\n      swap1\n      pop\n      jump\t// out\n        /* \"#utility.yul\":8744:8819   */\n    tag_84:\n        /* \"#utility.yul\":8787:8790   */\n      0x00\n        /* \"#utility.yul\":8808:8813   */\n      dup2\n        /* \"#utility.yul\":8801:8813   */\n      swap1\n      pop\n        /* \"#utility.yul\":8744:8819   */\n      swap2\n      swap1\n      pop\n      jump\t// out\n        /* \"#utility.yul\":8825:9094   */\n    tag_85:\n        /* \"#utility.yul\":8935:8974   */\n      tag_182\n        /* \"#utility.yul\":8966:8973   */\n      dup4\n        /* \"#utility.yul\":8935:8974   */\n      tag_83\n      jump\t// in\n    tag_182:\n        /* \"#utility.yul\":8996:9087   */\n      tag_183\n        /* \"#utility.yul\":9045:9086   */\n      tag_184\n        /* \"#utility.yul\":9069:9085   */\n      dup3\n        /* \"#utility.yul\":9045:9086   */\n      tag_84\n      jump\t// in\n    tag_184:\n        /* \"#utility.yul\":9037:9043   */\n      dup5\n        /* \"#utility.yul\":9030:9034   */\n      dup5\n        /* \"#utility.yul\":9024:9035   */\n      sload\n        /* \"#utility.yul\":8996:9087   */\n      tag_82\n      jump\t// in\n    tag_183:\n        /* \"#utility.yul\":8990:8994   */\n      dup3\n        /* \"#utility.yul\":8983:9088   */\n      sstore\n        /* \"#utility.yul\":8901:9094   */\n      pop\n        /* \"#utility.yul\":8825:9094   */\n      pop\n      pop\n      pop\n      jump\t// out\n        /* \"#utility.yul\":9100:9173   */\n    tag_86:\n        /* \"#utility.yul\":9145:9148   */\n      0x00\n        /* \"#utility.yul\":9100:9173   */\n      swap1\n      jump\t// out\n        /* \"#utility.yul\":9179:9368   */\n    tag_87:\n        /* \"#utility.yul\":9256:9288   */\n      tag_187\n      tag_86\n      jump\t// in\n    tag_187:\n        /* \"#utility.yul\":9297:9362   */\n      tag_188\n        /* \"#utility.yul\":9355:9361   */\n      dup2\n        /* \"#utility.yul\":9347:9353   */\n      dup5\n        /* \"#utility.yul\":9341:9345   */\n      dup5\n        /* \"#utility.yul\":9297:9362   */\n      tag_85\n      jump\t// in\n    tag_188:\n        /* \"#utility.yul\":9232:9368   */\n      pop\n        /* \"#utility.yul\":9179:9368   */\n      pop\n      pop\n      jump\t// out\n        /* \"#utility.yul\":9374:9560   */\n    tag_88:\n        /* \"#utility.yul\":9434:9554   */\n    tag_190:\n        /* \"#utility.yul\":9451:9454   */\n      dup2\n        /* \"#utility.yul\":9444:9449   */\n      dup2\n        /* \"#utility.yul\":9441:9455   */\n      lt\n        /* \"#utility.yul\":9434:9554   */\n      iszero\n      tag_192\n      jumpi\n        /* \"#utility.yul\":9505:9544   */\n      tag_193\n        /* \"#utility.yul\":9542:9543   */\n      0x00\n        /* \"#utility.yul\":9535:9540   */\n      dup3\n        /* \"#utility.yul\":9505:9544   */\n      tag_87\n      jump\t// in\n    tag_193:\n        /* \"#utility.yul\":9478:9479   */\n      0x01\n        /* \"#utility.yul\":9471:9476   */\n      dup2\n        /* \"#utility.yul\":9467:9480   */\n      add\n        /* \"#utility.yul\":9458:9480   */\n      swap1\n      pop\n        /* \"#utility.yul\":9434:9554   */\n      jump(tag_190)\n    tag_192:\n        /* \"#utility.yul\":9374:9560   */\n      pop\n      pop\n      jump\t// out\n        /* \"#utility.yul\":9566:10109   */\n    tag_89:\n        /* \"#utility.yul\":9667:9669   */\n      0x1f\n        /* \"#utility.yul\":9662:9665   */\n      dup3\n        /* \"#utility.yul\":9659:9670   */\n      gt\n        /* \"#utility.yul\":9656:10102   */\n      iszero\n      tag_195\n      jumpi\n        /* \"#utility.yul\":9701:9739   */\n      tag_196\n        /* \"#utility.yul\":9733:9738   */\n      dup2\n        /* \"#utility.yul\":9701:9739   */\n      tag_79\n      jump\t// in\n    tag_196:\n        /* \"#utility.yul\":9785:9814   */\n      tag_197\n        /* \"#utility.yul\":9803:9813   */\n      dup5\n        /* \"#utility.yul\":9785:9814   */\n      tag_80\n      jump\t// in\n    tag_197:\n        /* \"#utility.yul\":9775:9783   */\n      dup2\n        /* \"#utility.yul\":9771:9815   */\n      add\n        /* \"#utility.yul\":9968:9970   */\n      0x20\n        /* \"#utility.yul\":9956:9966   */\n      dup6\n        /* \"#utility.yul\":9953:9971   */\n      lt\n        /* \"#utility.yul\":9950:9999   */\n      iszero\n      tag_198\n      jumpi\n        /* \"#utility.yul\":9989:9997   */\n      dup2\n        /* \"#utility.yul\":9974:9997   */\n      swap1\n      pop\n        /* \"#utility.yul\":9950:9999   */\n    tag_198:\n        /* \"#utility.yul\":10012:10092   */\n      tag_199\n        /* \"#utility.yul\":10068:10090   */\n      tag_200\n        /* \"#utility.yul\":10086:10089   */\n      dup6\n        /* \"#utility.yul\":10068:10090   */\n      tag_80\n      jump\t// in\n    tag_200:\n        /* \"#utility.yul\":10058:10066   */\n      dup4\n        /* \"#utility.yul\":10054:10091   */\n      add\n        /* \"#utility.yul\":10041:10052   */\n      dup3\n        /* \"#utility.yul\":10012:10092   */\n      tag_88\n      jump\t// in\n    tag_199:\n        /* \"#utility.yul\":9671:10102   */\n      pop\n      pop\n        /* \"#utility.yul\":9656:10102   */\n    tag_195:\n        /* \"#utility.yul\":9566:10109   */\n      pop\n      pop\n      pop\n      jump\t// out\n        /* \"#utility.yul\":10115:10232   */\n    tag_90:\n        /* \"#utility.yul\":10169:10177   */\n      0x00\n        /* \"#utility.yul\":10219:10224   */\n      dup3\n        /* \"#utility.yul\":10213:10217   */\n      dup3\n        /* \"#utility.yul\":10209:10225   */\n      shr\n        /* \"#utility.yul\":10188:10225   */\n      swap1\n      pop\n        /* \"#utility.yul\":10115:10232   */\n      swap3\n      swap2\n      pop\n      pop\n      jump\t// out\n        /* \"#utility.yul\":10238:10407   */\n    tag_91:\n        /* \"#utility.yul\":10282:10288   */\n      0x00\n        /* \"#utility.yul\":10315:10366   */\n      tag_203\n        /* \"#utility.yul\":10363:10364   */\n      0x00\n        /* \"#utility.yul\":10359:10365   */\n      not\n        /* \"#utility.yul\":10351:10356   */\n      dup5\n        /* \"#utility.yul\":10348:10349   */\n      0x08\n        /* \"#utility.yul\":10344:10357   */\n      mul\n        /* \"#utility.yul\":10315:10366   */\n      tag_90\n      jump\t// in\n    tag_203:\n        /* \"#utility.yul\":10311:10367   */\n      not\n        /* \"#utility.yul\":10396:10400   */\n      dup1\n        /* \"#utility.yul\":10390:10394   */\n      dup4\n        /* \"#utility.yul\":10386:10401   */\n      and\n        /* \"#utility.yul\":10376:10401   */\n      swap2\n      pop\n        /* \"#utility.yul\":10289:10407   */\n      pop\n        /* \"#utility.yul\":10238:10407   */\n      swap3\n      swap2\n      pop\n      pop\n      jump\t// out\n        /* \"#utility.yul\":10412:10707   */\n    tag_92:\n        /* \"#utility.yul\":10488:10492   */\n      0x00\n        /* \"#utility.yul\":10634:10663   */\n      tag_205\n        /* \"#utility.yul\":10659:10662   */\n      dup4\n        /* \"#utility.yul\":10653:10657   */\n      dup4\n        /* \"#utility.yul\":10634:10663   */\n      tag_91\n      jump\t// in\n    tag_205:\n        /* \"#utility.yul\":10626:10663   */\n      swap2\n      pop\n        /* \"#utility.yul\":10696:10699   */\n      dup3\n        /* \"#utility.yul\":10693:10694   */\n      0x02\n        /* \"#utility.yul\":10689:10700   */\n      mul\n        /* \"#utility.yul\":10683:10687   */\n      dup3\n        /* \"#utility.yul\":10680:10701   */\n      or\n        /* \"#utility.yul\":10672:10701   */\n      swap1\n      pop\n        /* \"#utility.yul\":10412:10707   */\n      swap3\n      swap2\n      pop\n      pop\n      jump\t// out\n        /* \"#utility.yul\":10712:12107   */\n    tag_48:\n        /* \"#utility.yul\":10829:10866   */\n      tag_207\n        /* \"#utility.yul\":10862:10865   */\n      dup3\n        /* \"#utility.yul\":10829:10866   */\n      tag_54\n      jump\t// in\n    tag_207:\n        /* \"#utility.yul\":10931:10949   */\n      0xffffffffffffffff\n        /* \"#utility.yul\":10923:10929   */\n      dup2\n        /* \"#utility.yul\":10920:10950   */\n      gt\n        /* \"#utility.yul\":10917:10973   */\n      iszero\n      tag_208\n      jumpi\n        /* \"#utility.yul\":10953:10971   */\n      tag_209\n      tag_78\n      jump\t// in\n    tag_209:\n        /* \"#utility.yul\":10917:10973   */\n    tag_208:\n        /* \"#utility.yul\":10997:11035   */\n      tag_210\n        /* \"#utility.yul\":11029:11033   */\n      dup3\n        /* \"#utility.yul\":11023:11034   */\n      sload\n        /* \"#utility.yul\":10997:11035   */\n      tag_32\n      jump\t// in\n    tag_210:\n        /* \"#utility.yul\":11082:11149   */\n      tag_211\n        /* \"#utility.yul\":11142:11148   */\n      dup3\n        /* \"#utility.yul\":11134:11140   */\n      dup3\n        /* \"#utility.yul\":11128:11132   */\n      dup6\n        /* \"#utility.yul\":11082:11149   */\n      tag_89\n      jump\t// in\n    tag_211:\n        /* \"#utility.yul\":11176:11177   */\n      0x00\n        /* \"#utility.yul\":11200:11204   */\n      0x20\n        /* \"#utility.yul\":11187:11204   */\n      swap1\n      pop\n        /* \"#utility.yul\":11232:11234   */\n      0x1f\n        /* \"#utility.yul\":11224:11230   */\n      dup4\n        /* \"#utility.yul\":11221:11235   */\n      gt\n        /* \"#utility.yul\":11249:11250   */\n      0x01\n        /* \"#utility.yul\":11244:11862   */\n      dup2\n      eq\n      tag_213\n      jumpi\n        /* \"#utility.yul\":11906:11907   */\n      0x00\n        /* \"#utility.yul\":11923:11929   */\n      dup5\n        /* \"#utility.yul\":11920:11997   */\n      iszero\n      tag_214\n      jumpi\n        /* \"#utility.yul\":11972:11981   */\n      dup3\n        /* \"#utility.yul\":11967:11970   */\n      dup8\n        /* \"#utility.yul\":11963:11982   */\n      add\n        /* \"#utility.yul\":11957:11983   */\n      mload\n        /* \"#utility.yul\":11948:11983   */\n      swap1\n      pop\n        /* \"#utility.yul\":11920:11997   */\n    tag_214:\n        /* \"#utility.yul\":12023:12090   */\n      tag_215\n        /* \"#utility.yul\":12083:12089   */\n      dup6\n        /* \"#utility.yul\":12076:12081   */\n      dup3\n        /* \"#utility.yul\":12023:12090   */\n      tag_92\n      jump\t// in\n    tag_215:\n        /* \"#utility.yul\":12017:12021   */\n      dup7\n        /* \"#utility.yul\":12010:12091   */\n      sstore\n        /* \"#utility.yul\":11879:12101   */\n      pop\n        /* \"#utility.yul\":11214:12101   */\n      jump(tag_212)\n        /* \"#utility.yul\":11244:11862   */\n    tag_213:\n        /* \"#utility.yul\":11296:11300   */\n      0x1f\n        /* \"#utility.yul\":11292:11301   */\n      not\n        /* \"#utility.yul\":11284:11290   */\n      dup5\n        /* \"#utility.yul\":11280:11302   */\n      and\n        /* \"#utility.yul\":11330:11367   */\n      tag_216\n        /* \"#utility.yul\":11362:11366   */\n      dup7\n        /* \"#utility.yul\":11330:11367   */\n      tag_79\n      jump\t// in\n    tag_216:\n        /* \"#utility.yul\":11389:11390   */\n      0x00\n        /* \"#utility.yul\":11403:11611   */\n    tag_217:\n        /* \"#utility.yul\":11417:11424   */\n      dup3\n        /* \"#utility.yul\":11414:11415   */\n      dup2\n        /* \"#utility.yul\":11411:11425   */\n      lt\n        /* \"#utility.yul\":11403:11611   */\n      iszero\n      tag_219\n      jumpi\n        /* \"#utility.yul\":11496:11505   */\n      dup5\n        /* \"#utility.yul\":11491:11494   */\n      dup10\n        /* \"#utility.yul\":11487:11506   */\n      add\n        /* \"#utility.yul\":11481:11507   */\n      mload\n        /* \"#utility.yul\":11473:11479   */\n      dup3\n        /* \"#utility.yul\":11466:11508   */\n      sstore\n        /* \"#utility.yul\":11547:11548   */\n      0x01\n        /* \"#utility.yul\":11539:11545   */\n      dup3\n        /* \"#utility.yul\":11535:11549   */\n      add\n        /* \"#utility.yul\":11525:11549   */\n      swap2\n      pop\n        /* \"#utility.yul\":11594:11596   */\n      0x20\n        /* \"#utility.yul\":11583:11592   */\n      dup6\n        /* \"#utility.yul\":11579:11597   */\n      add\n        /* \"#utility.yul\":11566:11597   */\n      swap5\n      pop\n        /* \"#utility.yul\":11440:11444   */\n      0x20\n        /* \"#utility.yul\":11437:11438   */\n      dup2\n        /* \"#utility.yul\":11433:11445   */\n      add\n        /* \"#utility.yul\":11428:11445   */\n      swap1\n      pop\n        /* \"#utility.yul\":11403:11611   */\n      jump(tag_217)\n    tag_219:\n        /* \"#utility.yul\":11639:11645   */\n      dup7\n        /* \"#utility.yul\":11630:11637   */\n      dup4\n        /* \"#utility.yul\":11627:11646   */\n      lt\n        /* \"#utility.yul\":11624:11803   */\n      iszero\n      tag_220\n      jumpi\n        /* \"#utility.yul\":11697:11706   */\n      dup5\n        /* \"#utility.yul\":11692:11695   */\n      dup10\n        /* \"#utility.yul\":11688:11707   */\n      add\n        /* \"#utility.yul\":11682:11708   */\n      mload\n        /* \"#utility.yul\":11740:11788   */\n      tag_221\n        /* \"#utility.yul\":11782:11786   */\n      0x1f\n        /* \"#utility.yul\":11774:11780   */\n      dup10\n        /* \"#utility.yul\":11770:11787   */\n      and\n        /* \"#utility.yul\":11759:11768   */\n      dup3\n        /* \"#utility.yul\":11740:11788   */\n      tag_91\n      jump\t// in\n    tag_221:\n        /* \"#utility.yul\":11732:11738   */\n      dup4\n        /* \"#utility.yul\":11725:11789   */\n      sstore\n        /* \"#utility.yul\":11647:11803   */\n      pop\n        /* \"#utility.yul\":11624:11803   */\n    tag_220:\n        /* \"#utility.yul\":11849:11850   */\n      0x01\n        /* \"#utility.yul\":11845:11846   */\n      0x02\n        /* \"#utility.yul\":11837:11843   */\n      dup9\n        /* \"#utility.yul\":11833:11847   */\n      mul\n        /* \"#utility.yul\":11829:11851   */\n      add\n        /* \"#utility.yul\":11823:11827   */\n      dup9\n        /* \"#utility.yul\":11816:11852   */\n      sstore\n        /* \"#utility.yul\":11251:11862   */\n      pop\n      pop\n      pop\n        /* \"#utility.yul\":11214:12101   */\n    tag_212:\n      pop\n        /* \"#utility.yul\":10804:12107   */\n      pop\n      pop\n      pop\n        /* \"#utility.yul\":10712:12107   */\n      pop\n      pop\n      jump\t// out\n\n    auxdata: 0xa26469706673582212204a776cce1c68e4a1a2f0ed4a939fd3e87c5931d04fa6df4e0e808e5c5b67619364736f6c63430008120033\n}\n",
				"bytecode": {
					"linkReferences": {},
					"object": "608060405234801561001057600080fd5b50610aa6806100206000396000f3fe608060405234801561001057600080fd5b50600436106100625760003560e01c806306fdde03146100675780631a2d862914610085578063673402e5146100a757806373d4a13a146100b1578063890eba68146100cf578063eb382282146100ed575b600080fd5b61006f61010d565b60405161007c9190610479565b60405180910390f35b61008d61019b565b60405161009e9594939291906104cf565b60405180910390f35b6100af6101df565b005b6100b96102b8565b6040516100c69190610529565b60405180910390f35b6100d76102be565b6040516100e49190610544565b60405180910390f35b6100f56102d1565b6040516101049392919061055f565b60405180910390f35b6002805461011a906105cc565b80601f0160208091040260200160405190810160405280929190818152602001828054610146906105cc565b80156101935780601f1061016857610100808354040283529160200191610193565b820191906000526020600020905b81548152906001019060200180831161017657829003601f168201915b505050505081565b600080606060008060008060006101b06102d1565b92509250925060008060166021602c925050915084848484849950995099509950995050505050509091929394565b600073ffffffffffffffffffffffffffffffffffffffff167f9e3516d5476ed4533aecc463d31c71b81ec5f21c047a58416c45a8b0e9a1fd80600c604051610227919061068e565b60405180910390a2600173ffffffffffffffffffffffffffffffffffffffff167f9e3516d5476ed4533aecc463d31c71b81ec5f21c047a58416c45a8b0e9a1fd80600d6040516102779190610743565b60405180910390a27f8c4dd39dc4085cdecc180444e5c6ad1ccaf0817052ebcc4fd8958a68d5401026336040516102ae91906107b2565b60405180910390a1565b60005481565b600160009054906101000a900460ff1681565b6000806060609c60008190555060018060006101000a81548160ff0219169083151502179055506040518060400160405280600381526020017f61626300000000000000000000000000000000000000000000000000000000008152506002908161033c919061099e565b50600054600160009054906101000a900460ff16600280805461035e906105cc565b80601f016020809104026020016040519081016040528092919081815260200182805461038a906105cc565b80156103d75780601f106103ac576101008083540402835291602001916103d7565b820191906000526020600020905b8154815290600101906020018083116103ba57829003601f168201915b50505050509050925092509250909192565b600081519050919050565b600082825260208201905092915050565b60005b83811015610423578082015181840152602081019050610408565b60008484015250505050565b6000601f19601f8301169050919050565b600061044b826103e9565b61045581856103f4565b9350610465818560208601610405565b61046e8161042f565b840191505092915050565b600060208201905081810360008301526104938184610440565b905092915050565b6000819050919050565b6104ae8161049b565b82525050565b60008115159050919050565b6104c9816104b4565b82525050565b600060a0820190506104e460008301886104a5565b6104f160208301876104c0565b81810360408301526105038186610440565b905061051260608301856104a5565b61051f60808301846104a5565b9695505050505050565b600060208201905061053e60008301846104a5565b92915050565b600060208201905061055960008301846104c0565b92915050565b600060608201905061057460008301866104a5565b61058160208301856104c0565b81810360408301526105938184610440565b9050949350505050565b7f4e487b7100000000000000000000000000000000000000000000000000000000600052602260045260246000fd5b600060028204905060018216806105e457607f821691505b6020821081036105f7576105f661059d565b5b50919050565b6000819050919050565b6000819050919050565b600061062c610627610622846105fd565b610607565b61049b565b9050919050565b61063c81610611565b82525050565b7f6466677366670000000000000000000000000000000000000000000000000000600082015250565b60006106786006836103f4565b915061068382610642565b602082019050919050565b60006040820190506106a36000830184610633565b81810360208301526106b48161066b565b905092915050565b6000819050919050565b60006106e16106dc6106d7846106bc565b610607565b61049b565b9050919050565b6106f1816106c6565b82525050565b7f6466647366677366670000000000000000000000000000000000000000000000600082015250565b600061072d6009836103f4565b9150610738826106f7565b602082019050919050565b600060408201905061075860008301846106e8565b818103602083015261076981610720565b905092915050565b600073ffffffffffffffffffffffffffffffffffffffff82169050919050565b600061079c82610771565b9050919050565b6107ac81610791565b82525050565b60006020820190506107c760008301846107a3565b92915050565b7f4e487b7100000000000000000000000000000000000000000000000000000000600052604160045260246000fd5b60008190508160005260206000209050919050565b60006020601f8301049050919050565b600082821b905092915050565b60006008830261085e7fffffffffffffffffffffffffffffffffffffffffffffffffffffffffffffffff82610821565b6108688683610821565b95508019841693508086168417925050509392505050565b600061089b6108966108918461049b565b610607565b61049b565b9050919050565b6000819050919050565b6108b583610880565b6108c96108c1826108a2565b84845461082e565b825550505050565b600090565b6108de6108d1565b6108e98184846108ac565b505050565b5b8181101561090d576109026000826108d6565b6001810190506108ef565b5050565b601f82111561095257610923816107fc565b61092c84610811565b8101602085101561093b578190505b61094f61094785610811565b8301826108ee565b50505b505050565b600082821c905092915050565b600061097560001984600802610957565b1980831691505092915050565b600061098e8383610964565b9150826002028217905092915050565b6109a7826103e9565b67ffffffffffffffff8111156109c0576109bf6107cd565b5b6109ca82546105cc565b6109d5828285610911565b600060209050601f831160018114610a0857600084156109f6578287015190505b610a008582610982565b865550610a68565b601f198416610a16866107fc565b60005b82811015610a3e57848901518255600182019150602085019450602081019050610a19565b86831015610a5b5784890151610a57601f891682610964565b8355505b6001600288020188555050505b50505050505056fea26469706673582212204a776cce1c68e4a1a2f0ed4a939fd3e87c5931d04fa6df4e0e808e5c5b67619364736f6c63430008120033",
					"opcodes": "PUSH1 0x80 PUSH1 0x40 MSTORE CALLVALUE DUP1 ISZERO PUSH2 0x10 JUMPI PUSH1 0x0 DUP1 REVERT JUMPDEST POP PUSH2 0xAA6 DUP1 PUSH2 0x20 PUSH1 0x0 CODECOPY PUSH1 0x0 RETURN INVALID PUSH1 0x80 PUSH1 0x40 MSTORE CALLVALUE DUP1 ISZERO PUSH2 0x10 JUMPI PUSH1 0x0 DUP1 REVERT JUMPDEST POP PUSH1 0x4 CALLDATASIZE LT PUSH2 0x62 JUMPI PUSH1 0x0 CALLDATALOAD PUSH1 0xE0 SHR DUP1 PUSH4 0x6FDDE03 EQ PUSH2 0x67 JUMPI DUP1 PUSH4 0x1A2D8629 EQ PUSH2 0x85 JUMPI DUP1 PUSH4 0x673402E5 EQ PUSH2 0xA7 JUMPI DUP1 PUSH4 0x73D4A13A EQ PUSH2 0xB1 JUMPI DUP1 PUSH4 0x890EBA68 EQ PUSH2 0xCF JUMPI DUP1 PUSH4 0xEB382282 EQ PUSH2 0xED JUMPI JUMPDEST PUSH1 0x0 DUP1 REVERT JUMPDEST PUSH2 0x6F PUSH2 0x10D JUMP JUMPDEST PUSH1 0x40 MLOAD PUSH2 0x7C SWAP2 SWAP1 PUSH2 0x479 JUMP JUMPDEST PUSH1 0x40 MLOAD DUP1 SWAP2 SUB SWAP1 RETURN JUMPDEST PUSH2 0x8D PUSH2 0x19B JUMP JUMPDEST PUSH1 0x40 MLOAD PUSH2 0x9E SWAP6 SWAP5 SWAP4 SWAP3 SWAP2 SWAP1 PUSH2 0x4CF JUMP JUMPDEST PUSH1 0x40 MLOAD DUP1 SWAP2 SUB SWAP1 RETURN JUMPDEST PUSH2 0xAF PUSH2 0x1DF JUMP JUMPDEST STOP JUMPDEST PUSH2 0xB9 PUSH2 0x2B8 JUMP JUMPDEST PUSH1 0x40 MLOAD PUSH2 0xC6 SWAP2 SWAP1 PUSH2 0x529 JUMP JUMPDEST PUSH1 0x40 MLOAD DUP1 SWAP2 SUB SWAP1 RETURN JUMPDEST PUSH2 0xD7 PUSH2 0x2BE JUMP JUMPDEST PUSH1 0x40 MLOAD PUSH2 0xE4 SWAP2 SWAP1 PUSH2 0x544 JUMP JUMPDEST PUSH1 0x40 MLOAD DUP1 SWAP2 SUB SWAP1 RETURN JUMPDEST PUSH2 0xF5 PUSH2 0x2D1 JUMP JUMPDEST PUSH1 0x40 MLOAD PUSH2 0x104 SWAP4 SWAP3 SWAP2 SWAP1 PUSH2 0x55F JUMP JUMPDEST PUSH1 0x40 MLOAD DUP1 SWAP2 SUB SWAP1 RETURN JUMPDEST PUSH1 0x2 DUP1 SLOAD PUSH2 0x11A SWAP1 PUSH2 0x5CC JUMP JUMPDEST DUP1 PUSH1 0x1F ADD PUSH1 0x20 DUP1 SWAP2 DIV MUL PUSH1 0x20 ADD PUSH1 0x40 MLOAD SWAP1 DUP2 ADD PUSH1 0x40 MSTORE DUP1 SWAP3 SWAP2 SWAP1 DUP2 DUP2 MSTORE PUSH1 0x20 ADD DUP3 DUP1 SLOAD PUSH2 0x146 SWAP1 PUSH2 0x5CC JUMP JUMPDEST DUP1 ISZERO PUSH2 0x193 JUMPI DUP1 PUSH1 0x1F LT PUSH2 0x168 JUMPI PUSH2 0x100 DUP1 DUP4 SLOAD DIV MUL DUP4 MSTORE SWAP2 PUSH1 0x20 ADD SWAP2 PUSH2 0x193 JUMP JUMPDEST DUP3 ADD SWAP2 SWAP1 PUSH1 0x0 MSTORE PUSH1 0x20 PUSH1 0x0 KECCAK256 SWAP1 JUMPDEST DUP2 SLOAD DUP2 MSTORE SWAP1 PUSH1 0x1 ADD SWAP1 PUSH1 0x20 ADD DUP1 DUP4 GT PUSH2 0x176 JUMPI DUP3 SWAP1 SUB PUSH1 0x1F AND DUP3 ADD SWAP2 JUMPDEST POP POP POP POP POP DUP2 JUMP JUMPDEST PUSH1 0x0 DUP1 PUSH1 0x60 PUSH1 0x0 DUP1 PUSH1 0x0 DUP1 PUSH1 0x0 PUSH2 0x1B0 PUSH2 0x2D1 JUMP JUMPDEST SWAP3 POP SWAP3 POP SWAP3 POP PUSH1 0x0 DUP1 PUSH1 0x16 PUSH1 0x21 PUSH1 0x2C SWAP3 POP POP SWAP2 POP DUP5 DUP5 DUP5 DUP5 DUP5 SWAP10 POP SWAP10 POP SWAP10 POP SWAP10 POP SWAP10 POP POP POP POP POP POP SWAP1 SWAP2 SWAP3 SWAP4 SWAP5 JUMP JUMPDEST PUSH1 0x0 PUSH20 0xFFFFFFFFFFFFFFFFFFFFFFFFFFFFFFFFFFFFFFFF AND PUSH32 0x9E3516D5476ED4533AECC463D31C71B81EC5F21C047A58416C45A8B0E9A1FD80 PUSH1 0xC PUSH1 0x40 MLOAD PUSH2 0x227 SWAP2 SWAP1 PUSH2 0x68E JUMP JUMPDEST PUSH1 0x40 MLOAD DUP1 SWAP2 SUB SWAP1 LOG2 PUSH1 0x1 PUSH20 0xFFFFFFFFFFFFFFFFFFFFFFFFFFFFFFFFFFFFFFFF AND PUSH32 0x9E3516D5476ED4533AECC463D31C71B81EC5F21C047A58416C45A8B0E9A1FD80 PUSH1 0xD PUSH1 0x40 MLOAD PUSH2 0x277 SWAP2 SWAP1 PUSH2 0x743 JUMP JUMPDEST PUSH1 0x40 MLOAD DUP1 SWAP2 SUB SWAP1 LOG2 PUSH32 0x8C4DD39DC4085CDECC180444E5C6AD1CCAF0817052EBCC4FD8958A68D5401026 CALLER PUSH1 0x40 MLOAD PUSH2 0x2AE SWAP2 SWAP1 PUSH2 0x7B2 JUMP JUMPDEST PUSH1 0x40 MLOAD DUP1 SWAP2 SUB SWAP1 LOG1 JUMP JUMPDEST PUSH1 0x0 SLOAD DUP2 JUMP JUMPDEST PUSH1 0x1 PUSH1 0x0 SWAP1 SLOAD SWAP1 PUSH2 0x100 EXP SWAP1 DIV PUSH1 0xFF AND DUP2 JUMP JUMPDEST PUSH1 0x0 DUP1 PUSH1 0x60 PUSH1 0x9C PUSH1 0x0 DUP2 SWAP1 SSTORE POP PUSH1 0x1 DUP1 PUSH1 0x0 PUSH2 0x100 EXP DUP2 SLOAD DUP2 PUSH1 0xFF MUL NOT AND SWAP1 DUP4 ISZERO ISZERO MUL OR SWAP1 SSTORE POP PUSH1 0x40 MLOAD DUP1 PUSH1 0x40 ADD PUSH1 0x40 MSTORE DUP1 PUSH1 0x3 DUP2 MSTORE PUSH1 0x20 ADD PUSH32 0x6162630000000000000000000000000000000000000000000000000000000000 DUP2 MSTORE POP PUSH1 0x2 SWAP1 DUP2 PUSH2 0x33C SWAP2 SWAP1 PUSH2 0x99E JUMP JUMPDEST POP PUSH1 0x0 SLOAD PUSH1 0x1 PUSH1 0x0 SWAP1 SLOAD SWAP1 PUSH2 0x100 EXP SWAP1 DIV PUSH1 0xFF AND PUSH1 0x2 DUP1 DUP1 SLOAD PUSH2 0x35E SWAP1 PUSH2 0x5CC JUMP JUMPDEST DUP1 PUSH1 0x1F ADD PUSH1 0x20 DUP1 SWAP2 DIV MUL PUSH1 0x20 ADD PUSH1 0x40 MLOAD SWAP1 DUP2 ADD PUSH1 0x40 MSTORE DUP1 SWAP3 SWAP2 SWAP1 DUP2 DUP2 MSTORE PUSH1 0x20 ADD DUP3 DUP1 SLOAD PUSH2 0x38A SWAP1 PUSH2 0x5CC JUMP JUMPDEST DUP1 ISZERO PUSH2 0x3D7 JUMPI DUP1 PUSH1 0x1F LT PUSH2 0x3AC JUMPI PUSH2 0x100 DUP1 DUP4 SLOAD DIV MUL DUP4 MSTORE SWAP2 PUSH1 0x20 ADD SWAP2 PUSH2 0x3D7 JUMP JUMPDEST DUP3 ADD SWAP2 SWAP1 PUSH1 0x0 MSTORE PUSH1 0x20 PUSH1 0x0 KECCAK256 SWAP1 JUMPDEST DUP2 SLOAD DUP2 MSTORE SWAP1 PUSH1 0x1 ADD SWAP1 PUSH1 0x20 ADD DUP1 DUP4 GT PUSH2 0x3BA JUMPI DUP3 SWAP1 SUB PUSH1 0x1F AND DUP3 ADD SWAP2 JUMPDEST POP POP POP POP POP SWAP1 POP SWAP3 POP SWAP3 POP SWAP3 POP SWAP1 SWAP2 SWAP3 JUMP JUMPDEST PUSH1 0x0 DUP2 MLOAD SWAP1 POP SWAP2 SWAP1 POP JUMP JUMPDEST PUSH1 0x0 DUP3 DUP3 MSTORE PUSH1 0x20 DUP3 ADD SWAP1 POP SWAP3 SWAP2 POP POP JUMP JUMPDEST PUSH1 0x0 JUMPDEST DUP4 DUP2 LT ISZERO PUSH2 0x423 JUMPI DUP1 DUP3 ADD MLOAD DUP2 DUP5 ADD MSTORE PUSH1 0x20 DUP2 ADD SWAP1 POP PUSH2 0x408 JUMP JUMPDEST PUSH1 0x0 DUP5 DUP5 ADD MSTORE POP POP POP POP JUMP JUMPDEST PUSH1 0x0 PUSH1 0x1F NOT PUSH1 0x1F DUP4 ADD AND SWAP1 POP SWAP2 SWAP1 POP JUMP JUMPDEST PUSH1 0x0 PUSH2 0x44B DUP3 PUSH2 0x3E9 JUMP JUMPDEST PUSH2 0x455 DUP2 DUP6 PUSH2 0x3F4 JUMP JUMPDEST SWAP4 POP PUSH2 0x465 DUP2 DUP6 PUSH1 0x20 DUP7 ADD PUSH2 0x405 JUMP JUMPDEST PUSH2 0x46E DUP2 PUSH2 0x42F JUMP JUMPDEST DUP5 ADD SWAP2 POP POP SWAP3 SWAP2 POP POP JUMP JUMPDEST PUSH1 0x0 PUSH1 0x20 DUP3 ADD SWAP1 POP DUP2 DUP2 SUB PUSH1 0x0 DUP4 ADD MSTORE PUSH2 0x493 DUP2 DUP5 PUSH2 0x440 JUMP JUMPDEST SWAP1 POP SWAP3 SWAP2 POP POP JUMP JUMPDEST PUSH1 0x0 DUP2 SWAP1 POP SWAP2 SWAP1 POP JUMP JUMPDEST PUSH2 0x4AE DUP2 PUSH2 0x49B JUMP JUMPDEST DUP3 MSTORE POP POP JUMP JUMPDEST PUSH1 0x0 DUP2 ISZERO ISZERO SWAP1 POP SWAP2 SWAP1 POP JUMP JUMPDEST PUSH2 0x4C9 DUP2 PUSH2 0x4B4 JUMP JUMPDEST DUP3 MSTORE POP POP JUMP JUMPDEST PUSH1 0x0 PUSH1 0xA0 DUP3 ADD SWAP1 POP PUSH2 0x4E4 PUSH1 0x0 DUP4 ADD DUP9 PUSH2 0x4A5 JUMP JUMPDEST PUSH2 0x4F1 PUSH1 0x20 DUP4 ADD DUP8 PUSH2 0x4C0 JUMP JUMPDEST DUP2 DUP2 SUB PUSH1 0x40 DUP4 ADD MSTORE PUSH2 0x503 DUP2 DUP7 PUSH2 0x440 JUMP JUMPDEST SWAP1 POP PUSH2 0x512 PUSH1 0x60 DUP4 ADD DUP6 PUSH2 0x4A5 JUMP JUMPDEST PUSH2 0x51F PUSH1 0x80 DUP4 ADD DUP5 PUSH2 0x4A5 JUMP JUMPDEST SWAP7 SWAP6 POP POP POP POP POP POP JUMP JUMPDEST PUSH1 0x0 PUSH1 0x20 DUP3 ADD SWAP1 POP PUSH2 0x53E PUSH1 0x0 DUP4 ADD DUP5 PUSH2 0x4A5 JUMP JUMPDEST SWAP3 SWAP2 POP POP JUMP JUMPDEST PUSH1 0x0 PUSH1 0x20 DUP3 ADD SWAP1 POP PUSH2 0x559 PUSH1 0x0 DUP4 ADD DUP5 PUSH2 0x4C0 JUMP JUMPDEST SWAP3 SWAP2 POP POP JUMP JUMPDEST PUSH1 0x0 PUSH1 0x60 DUP3 ADD SWAP1 POP PUSH2 0x574 PUSH1 0x0 DUP4 ADD DUP7 PUSH2 0x4A5 JUMP JUMPDEST PUSH2 0x581 PUSH1 0x20 DUP4 ADD DUP6 PUSH2 0x4C0 JUMP JUMPDEST DUP2 DUP2 SUB PUSH1 0x40 DUP4 ADD MSTORE PUSH2 0x593 DUP2 DUP5 PUSH2 0x440 JUMP JUMPDEST SWAP1 POP SWAP5 SWAP4 POP POP POP POP JUMP JUMPDEST PUSH32 0x4E487B7100000000000000000000000000000000000000000000000000000000 PUSH1 0x0 MSTORE PUSH1 0x22 PUSH1 0x4 MSTORE PUSH1 0x24 PUSH1 0x0 REVERT JUMPDEST PUSH1 0x0 PUSH1 0x2 DUP3 DIV SWAP1 POP PUSH1 0x1 DUP3 AND DUP1 PUSH2 0x5E4 JUMPI PUSH1 0x7F DUP3 AND SWAP2 POP JUMPDEST PUSH1 0x20 DUP3 LT DUP2 SUB PUSH2 0x5F7 JUMPI PUSH2 0x5F6 PUSH2 0x59D JUMP JUMPDEST JUMPDEST POP SWAP2 SWAP1 POP JUMP JUMPDEST PUSH1 0x0 DUP2 SWAP1 POP SWAP2 SWAP1 POP JUMP JUMPDEST PUSH1 0x0 DUP2 SWAP1 POP SWAP2 SWAP1 POP JUMP JUMPDEST PUSH1 0x0 PUSH2 0x62C PUSH2 0x627 PUSH2 0x622 DUP5 PUSH2 0x5FD JUMP JUMPDEST PUSH2 0x607 JUMP JUMPDEST PUSH2 0x49B JUMP JUMPDEST SWAP1 POP SWAP2 SWAP1 POP JUMP JUMPDEST PUSH2 0x63C DUP2 PUSH2 0x611 JUMP JUMPDEST DUP3 MSTORE POP POP JUMP JUMPDEST PUSH32 0x6466677366670000000000000000000000000000000000000000000000000000 PUSH1 0x0 DUP3 ADD MSTORE POP JUMP JUMPDEST PUSH1 0x0 PUSH2 0x678 PUSH1 0x6 DUP4 PUSH2 0x3F4 JUMP JUMPDEST SWAP2 POP PUSH2 0x683 DUP3 PUSH2 0x642 JUMP JUMPDEST PUSH1 0x20 DUP3 ADD SWAP1 POP SWAP2 SWAP1 POP JUMP JUMPDEST PUSH1 0x0 PUSH1 0x40 DUP3 ADD SWAP1 POP PUSH2 0x6A3 PUSH1 0x0 DUP4 ADD DUP5 PUSH2 0x633 JUMP JUMPDEST DUP2 DUP2 SUB PUSH1 0x20 DUP4 ADD MSTORE PUSH2 0x6B4 DUP2 PUSH2 0x66B JUMP JUMPDEST SWAP1 POP SWAP3 SWAP2 POP POP JUMP JUMPDEST PUSH1 0x0 DUP2 SWAP1 POP SWAP2 SWAP1 POP JUMP JUMPDEST PUSH1 0x0 PUSH2 0x6E1 PUSH2 0x6DC PUSH2 0x6D7 DUP5 PUSH2 0x6BC JUMP JUMPDEST PUSH2 0x607 JUMP JUMPDEST PUSH2 0x49B JUMP JUMPDEST SWAP1 POP SWAP2 SWAP1 POP JUMP JUMPDEST PUSH2 0x6F1 DUP2 PUSH2 0x6C6 JUMP JUMPDEST DUP3 MSTORE POP POP JUMP JUMPDEST PUSH32 0x6466647366677366670000000000000000000000000000000000000000000000 PUSH1 0x0 DUP3 ADD MSTORE POP JUMP JUMPDEST PUSH1 0x0 PUSH2 0x72D PUSH1 0x9 DUP4 PUSH2 0x3F4 JUMP JUMPDEST SWAP2 POP PUSH2 0x738 DUP3 PUSH2 0x6F7 JUMP JUMPDEST PUSH1 0x20 DUP3 ADD SWAP1 POP SWAP2 SWAP1 POP JUMP JUMPDEST PUSH1 0x0 PUSH1 0x40 DUP3 ADD SWAP1 POP PUSH2 0x758 PUSH1 0x0 DUP4 ADD DUP5 PUSH2 0x6E8 JUMP JUMPDEST DUP2 DUP2 SUB PUSH1 0x20 DUP4 ADD MSTORE PUSH2 0x769 DUP2 PUSH2 0x720 JUMP JUMPDEST SWAP1 POP SWAP3 SWAP2 POP POP JUMP JUMPDEST PUSH1 0x0 PUSH20 0xFFFFFFFFFFFFFFFFFFFFFFFFFFFFFFFFFFFFFFFF DUP3 AND SWAP1 POP SWAP2 SWAP1 POP JUMP JUMPDEST PUSH1 0x0 PUSH2 0x79C DUP3 PUSH2 0x771 JUMP JUMPDEST SWAP1 POP SWAP2 SWAP1 POP JUMP JUMPDEST PUSH2 0x7AC DUP2 PUSH2 0x791 JUMP JUMPDEST DUP3 MSTORE POP POP JUMP JUMPDEST PUSH1 0x0 PUSH1 0x20 DUP3 ADD SWAP1 POP PUSH2 0x7C7 PUSH1 0x0 DUP4 ADD DUP5 PUSH2 0x7A3 JUMP JUMPDEST SWAP3 SWAP2 POP POP JUMP JUMPDEST PUSH32 0x4E487B7100000000000000000000000000000000000000000000000000000000 PUSH1 0x0 MSTORE PUSH1 0x41 PUSH1 0x4 MSTORE PUSH1 0x24 PUSH1 0x0 REVERT JUMPDEST PUSH1 0x0 DUP2 SWAP1 POP DUP2 PUSH1 0x0 MSTORE PUSH1 0x20 PUSH1 0x0 KECCAK256 SWAP1 POP SWAP2 SWAP1 POP JUMP JUMPDEST PUSH1 0x0 PUSH1 0x20 PUSH1 0x1F DUP4 ADD DIV SWAP1 POP SWAP2 SWAP1 POP JUMP JUMPDEST PUSH1 0x0 DUP3 DUP3 SHL SWAP1 POP SWAP3 SWAP2 POP POP JUMP JUMPDEST PUSH1 0x0 PUSH1 0x8 DUP4 MUL PUSH2 0x85E PUSH32 0xFFFFFFFFFFFFFFFFFFFFFFFFFFFFFFFFFFFFFFFFFFFFFFFFFFFFFFFFFFFFFFFF DUP3 PUSH2 0x821 JUMP JUMPDEST PUSH2 0x868 DUP7 DUP4 PUSH2 0x821 JUMP JUMPDEST SWAP6 POP DUP1 NOT DUP5 AND SWAP4 POP DUP1 DUP7 AND DUP5 OR SWAP3 POP POP POP SWAP4 SWAP3 POP POP POP JUMP JUMPDEST PUSH1 0x0 PUSH2 0x89B PUSH2 0x896 PUSH2 0x891 DUP5 PUSH2 0x49B JUMP JUMPDEST PUSH2 0x607 JUMP JUMPDEST PUSH2 0x49B JUMP JUMPDEST SWAP1 POP SWAP2 SWAP1 POP JUMP JUMPDEST PUSH1 0x0 DUP2 SWAP1 POP SWAP2 SWAP1 POP JUMP JUMPDEST PUSH2 0x8B5 DUP4 PUSH2 0x880 JUMP JUMPDEST PUSH2 0x8C9 PUSH2 0x8C1 DUP3 PUSH2 0x8A2 JUMP JUMPDEST DUP5 DUP5 SLOAD PUSH2 0x82E JUMP JUMPDEST DUP3 SSTORE POP POP POP POP JUMP JUMPDEST PUSH1 0x0 SWAP1 JUMP JUMPDEST PUSH2 0x8DE PUSH2 0x8D1 JUMP JUMPDEST PUSH2 0x8E9 DUP2 DUP5 DUP5 PUSH2 0x8AC JUMP JUMPDEST POP POP POP JUMP JUMPDEST JUMPDEST DUP2 DUP2 LT ISZERO PUSH2 0x90D JUMPI PUSH2 0x902 PUSH1 0x0 DUP3 PUSH2 0x8D6 JUMP JUMPDEST PUSH1 0x1 DUP2 ADD SWAP1 POP PUSH2 0x8EF JUMP JUMPDEST POP POP JUMP JUMPDEST PUSH1 0x1F DUP3 GT ISZERO PUSH2 0x952 JUMPI PUSH2 0x923 DUP2 PUSH2 0x7FC JUMP JUMPDEST PUSH2 0x92C DUP5 PUSH2 0x811 JUMP JUMPDEST DUP2 ADD PUSH1 0x20 DUP6 LT ISZERO PUSH2 0x93B JUMPI DUP2 SWAP1 POP JUMPDEST PUSH2 0x94F PUSH2 0x947 DUP6 PUSH2 0x811 JUMP JUMPDEST DUP4 ADD DUP3 PUSH2 0x8EE JUMP JUMPDEST POP POP JUMPDEST POP POP POP JUMP JUMPDEST PUSH1 0x0 DUP3 DUP3 SHR SWAP1 POP SWAP3 SWAP2 POP POP JUMP JUMPDEST PUSH1 0x0 PUSH2 0x975 PUSH1 0x0 NOT DUP5 PUSH1 0x8 MUL PUSH2 0x957 JUMP JUMPDEST NOT DUP1 DUP4 AND SWAP2 POP POP SWAP3 SWAP2 POP POP JUMP JUMPDEST PUSH1 0x0 PUSH2 0x98E DUP4 DUP4 PUSH2 0x964 JUMP JUMPDEST SWAP2 POP DUP3 PUSH1 0x2 MUL DUP3 OR SWAP1 POP SWAP3 SWAP2 POP POP JUMP JUMPDEST PUSH2 0x9A7 DUP3 PUSH2 0x3E9 JUMP JUMPDEST PUSH8 0xFFFFFFFFFFFFFFFF DUP2 GT ISZERO PUSH2 0x9C0 JUMPI PUSH2 0x9BF PUSH2 0x7CD JUMP JUMPDEST JUMPDEST PUSH2 0x9CA DUP3 SLOAD PUSH2 0x5CC JUMP JUMPDEST PUSH2 0x9D5 DUP3 DUP3 DUP6 PUSH2 0x911 JUMP JUMPDEST PUSH1 0x0 PUSH1 0x20 SWAP1 POP PUSH1 0x1F DUP4 GT PUSH1 0x1 DUP2 EQ PUSH2 0xA08 JUMPI PUSH1 0x0 DUP5 ISZERO PUSH2 0x9F6 JUMPI DUP3 DUP8 ADD MLOAD SWAP1 POP JUMPDEST PUSH2 0xA00 DUP6 DUP3 PUSH2 0x982 JUMP JUMPDEST DUP7 SSTORE POP PUSH2 0xA68 JUMP JUMPDEST PUSH1 0x1F NOT DUP5 AND PUSH2 0xA16 DUP7 PUSH2 0x7FC JUMP JUMPDEST PUSH1 0x0 JUMPDEST DUP3 DUP2 LT ISZERO PUSH2 0xA3E JUMPI DUP5 DUP10 ADD MLOAD DUP3 SSTORE PUSH1 0x1 DUP3 ADD SWAP2 POP PUSH1 0x20 DUP6 ADD SWAP5 POP PUSH1 0x20 DUP2 ADD SWAP1 POP PUSH2 0xA19 JUMP JUMPDEST DUP7 DUP4 LT ISZERO PUSH2 0xA5B JUMPI DUP5 DUP10 ADD MLOAD PUSH2 0xA57 PUSH1 0x1F DUP10 AND DUP3 PUSH2 0x964 JUMP JUMPDEST DUP4 SSTORE POP JUMPDEST PUSH1 0x1 PUSH1 0x2 DUP9 MUL ADD DUP9 SSTORE POP POP POP JUMPDEST POP POP POP POP POP POP JUMP INVALID LOG2 PUSH5 0x6970667358 0x22 SLT KECCAK256 0x4A PUSH24 0x6CCE1C68E4A1A2F0ED4A939FD3E87C5931D04FA6DF4E0E80 DUP15 0x5C JUMPDEST PUSH8 0x619364736F6C6343 STOP ADDMOD SLT STOP CALLER "
				},
				"gasEstimates": {
					"creation": {
						"codeDepositCost": "545200",
						"executionCost": "581",
						"totalCost": "545781"
					},
					"external": {
						"data()": "2473",
						"datatypes()": "infinite",
						"flag()": "2537",
						"getinfo()": "infinite",
						"name()": "infinite",
						"temp()": "infinite"
					}
				},
				"methodIdentifiers": {
					"data()": "73d4a13a",
					"datatypes()": "eb382282",
					"flag()": "890eba68",
					"getinfo()": "1a2d8629",
					"name()": "06fdde03",
					"temp()": "673402e5"
				}
			},
			"storageLayout": {
				"storage": [
					{
						"astId": 3,
						"contract": "contracts/Functions.sol:functions",
						"label": "data",
						"offset": 0,
						"slot": "0",
						"type": "t_uint256"
					},
					{
						"astId": 5,
						"contract": "contracts/Functions.sol:functions",
						"label": "flag",
						"offset": 0,
						"slot": "1",
						"type": "t_bool"
					},
					{
						"astId": 7,
						"contract": "contracts/Functions.sol:functions",
						"label": "name",
						"offset": 0,
						"slot": "2",
						"type": "t_string_storage"
					}
				],
				"types": {
					"t_bool": {
						"encoding": "inplace",
						"label": "bool",
						"numberOfBytes": "1"
					},
					"t_string_storage": {
						"encoding": "bytes",
						"label": "string",
						"numberOfBytes": "32"
					},
					"t_uint256": {
						"encoding": "inplace",
						"label": "uint256",
						"numberOfBytes": "32"
					}
				}
			},
			"userdoc": {
				"kind": "user",
				"methods": {},
				"version": 1
			}
		}
	}
}