{
	"contracts/Lottery1.sol": {
		"Lottery": {
			"abi": [
				{
					"inputs": [
						{
							"internalType": "contract IERC20",
							"name": "_tokenaddress",
							"type": "address"
						}
					],
					"stateMutability": "nonpayable",
					"type": "constructor"
				},
				{
					"inputs": [],
					"name": "findWinner",
					"outputs": [],
					"stateMutability": "nonpayable",
					"type": "function"
				},
				{
					"inputs": [
						{
							"internalType": "uint256",
							"name": "_amount",
							"type": "uint256"
						}
					],
					"name": "getTicket",
					"outputs": [],
					"stateMutability": "nonpayable",
					"type": "function"
				},
				{
					"inputs": [],
					"name": "manager",
					"outputs": [
						{
							"internalType": "address",
							"name": "",
							"type": "address"
						}
					],
					"stateMutability": "view",
					"type": "function"
				},
				{
					"inputs": [
						{
							"internalType": "uint256",
							"name": "",
							"type": "uint256"
						}
					],
					"name": "participants",
					"outputs": [
						{
							"internalType": "address payable",
							"name": "",
							"type": "address"
						}
					],
					"stateMutability": "view",
					"type": "function"
				},
				{
					"inputs": [],
					"name": "showBalance",
					"outputs": [
						{
							"internalType": "uint256",
							"name": "",
							"type": "uint256"
						}
					],
					"stateMutability": "view",
					"type": "function"
				},
				{
					"inputs": [],
					"name": "token",
					"outputs": [
						{
							"internalType": "contract IERC20",
							"name": "",
							"type": "address"
						}
					],
					"stateMutability": "view",
					"type": "function"
				},
				{
					"inputs": [],
					"name": "winner",
					"outputs": [
						{
							"internalType": "address",
							"name": "",
							"type": "address"
						}
					],
					"stateMutability": "view",
					"type": "function"
				}
			],
			"devdoc": {
				"kind": "dev",
				"methods": {},
				"version": 1
			},
			"evm": {
				"assembly": "    /* \"contracts/Lottery1.sol\":304:1567  contract Lottery{... */\n  mstore(0x40, 0x80)\n    /* \"contracts/Lottery1.sol\":471:573  constructor(IERC20 _tokenaddress){... */\n  callvalue\n  dup1\n  iszero\n  tag_1\n  jumpi\n  0x00\n  dup1\n  revert\ntag_1:\n  pop\n  mload(0x40)\n  sub(codesize, bytecodeSize)\n  dup1\n  bytecodeSize\n  dup4\n  codecopy\n  dup2\n  dup2\n  add\n  0x40\n  mstore\n  dup2\n  add\n  swap1\n  tag_2\n  swap2\n  swap1\n  tag_3\n  jump\t// in\ntag_2:\n    /* \"contracts/Lottery1.sol\":524:534  msg.sender */\n  caller\n    /* \"contracts/Lottery1.sol\":514:521  manager */\n  0x01\n  0x00\n    /* \"contracts/Lottery1.sol\":514:534  manager = msg.sender */\n  0x0100\n  exp\n  dup2\n  sload\n  dup2\n  0xffffffffffffffffffffffffffffffffffffffff\n  mul\n  not\n  and\n  swap1\n  dup4\n  0xffffffffffffffffffffffffffffffffffffffff\n  and\n  mul\n  or\n  swap1\n  sstore\n  pop\n    /* \"contracts/Lottery1.sol\":552:565  _tokenaddress */\n  dup1\n    /* \"contracts/Lottery1.sol\":544:549  token */\n  0x00\n  dup1\n    /* \"contracts/Lottery1.sol\":544:565  token = _tokenaddress */\n  0x0100\n  exp\n  dup2\n  sload\n  dup2\n  0xffffffffffffffffffffffffffffffffffffffff\n  mul\n  not\n  and\n  swap1\n  dup4\n  0xffffffffffffffffffffffffffffffffffffffff\n  and\n  mul\n  or\n  swap1\n  sstore\n  pop\n    /* \"contracts/Lottery1.sol\":471:573  constructor(IERC20 _tokenaddress){... */\n  pop\n    /* \"contracts/Lottery1.sol\":304:1567  contract Lottery{... */\n  jump(tag_6)\n    /* \"#utility.yul\":88:205   */\ntag_8:\n    /* \"#utility.yul\":197:198   */\n  0x00\n    /* \"#utility.yul\":194:195   */\n  dup1\n    /* \"#utility.yul\":187:199   */\n  revert\n    /* \"#utility.yul\":334:460   */\ntag_10:\n    /* \"#utility.yul\":371:378   */\n  0x00\n    /* \"#utility.yul\":411:453   */\n  0xffffffffffffffffffffffffffffffffffffffff\n    /* \"#utility.yul\":404:409   */\n  dup3\n    /* \"#utility.yul\":400:454   */\n  and\n    /* \"#utility.yul\":389:454   */\n  swap1\n  pop\n    /* \"#utility.yul\":334:460   */\n  swap2\n  swap1\n  pop\n  jump\t// out\n    /* \"#utility.yul\":466:562   */\ntag_11:\n    /* \"#utility.yul\":503:510   */\n  0x00\n    /* \"#utility.yul\":532:556   */\n  tag_21\n    /* \"#utility.yul\":550:555   */\n  dup3\n    /* \"#utility.yul\":532:556   */\n  tag_10\n  jump\t// in\ntag_21:\n    /* \"#utility.yul\":521:556   */\n  swap1\n  pop\n    /* \"#utility.yul\":466:562   */\n  swap2\n  swap1\n  pop\n  jump\t// out\n    /* \"#utility.yul\":568:678   */\ntag_12:\n    /* \"#utility.yul\":619:626   */\n  0x00\n    /* \"#utility.yul\":648:672   */\n  tag_23\n    /* \"#utility.yul\":666:671   */\n  dup3\n    /* \"#utility.yul\":648:672   */\n  tag_11\n  jump\t// in\ntag_23:\n    /* \"#utility.yul\":637:672   */\n  swap1\n  pop\n    /* \"#utility.yul\":568:678   */\n  swap2\n  swap1\n  pop\n  jump\t// out\n    /* \"#utility.yul\":684:834   */\ntag_13:\n    /* \"#utility.yul\":771:809   */\n  tag_25\n    /* \"#utility.yul\":803:808   */\n  dup2\n    /* \"#utility.yul\":771:809   */\n  tag_12\n  jump\t// in\ntag_25:\n    /* \"#utility.yul\":764:769   */\n  dup2\n    /* \"#utility.yul\":761:810   */\n  eq\n    /* \"#utility.yul\":751:828   */\n  tag_26\n  jumpi\n    /* \"#utility.yul\":824:825   */\n  0x00\n    /* \"#utility.yul\":821:822   */\n  dup1\n    /* \"#utility.yul\":814:826   */\n  revert\n    /* \"#utility.yul\":751:828   */\ntag_26:\n    /* \"#utility.yul\":684:834   */\n  pop\n  jump\t// out\n    /* \"#utility.yul\":840:1011   */\ntag_14:\n    /* \"#utility.yul\":911:916   */\n  0x00\n    /* \"#utility.yul\":942:948   */\n  dup2\n    /* \"#utility.yul\":936:949   */\n  mload\n    /* \"#utility.yul\":927:949   */\n  swap1\n  pop\n    /* \"#utility.yul\":958:1005   */\n  tag_28\n    /* \"#utility.yul\":999:1004   */\n  dup2\n    /* \"#utility.yul\":958:1005   */\n  tag_13\n  jump\t// in\ntag_28:\n    /* \"#utility.yul\":840:1011   */\n  swap3\n  swap2\n  pop\n  pop\n  jump\t// out\n    /* \"#utility.yul\":1017:1396   */\ntag_3:\n    /* \"#utility.yul\":1101:1107   */\n  0x00\n    /* \"#utility.yul\":1150:1152   */\n  0x20\n    /* \"#utility.yul\":1138:1147   */\n  dup3\n    /* \"#utility.yul\":1129:1136   */\n  dup5\n    /* \"#utility.yul\":1125:1148   */\n  sub\n    /* \"#utility.yul\":1121:1153   */\n  slt\n    /* \"#utility.yul\":1118:1237   */\n  iszero\n  tag_30\n  jumpi\n    /* \"#utility.yul\":1156:1235   */\n  tag_31\n  tag_8\n  jump\t// in\ntag_31:\n    /* \"#utility.yul\":1118:1237   */\ntag_30:\n    /* \"#utility.yul\":1276:1277   */\n  0x00\n    /* \"#utility.yul\":1301:1379   */\n  tag_32\n    /* \"#utility.yul\":1371:1378   */\n  dup5\n    /* \"#utility.yul\":1362:1368   */\n  dup3\n    /* \"#utility.yul\":1351:1360   */\n  dup6\n    /* \"#utility.yul\":1347:1369   */\n  add\n    /* \"#utility.yul\":1301:1379   */\n  tag_14\n  jump\t// in\ntag_32:\n    /* \"#utility.yul\":1291:1379   */\n  swap2\n  pop\n    /* \"#utility.yul\":1247:1389   */\n  pop\n    /* \"#utility.yul\":1017:1396   */\n  swap3\n  swap2\n  pop\n  pop\n  jump\t// out\n    /* \"contracts/Lottery1.sol\":304:1567  contract Lottery{... */\ntag_6:\n  dataSize(sub_0)\n  dup1\n  dataOffset(sub_0)\n  0x00\n  codecopy\n  0x00\n  return\nstop\n\nsub_0: assembly {\n        /* \"contracts/Lottery1.sol\":304:1567  contract Lottery{... */\n      mstore(0x40, 0x80)\n      callvalue\n      dup1\n      iszero\n      tag_1\n      jumpi\n      0x00\n      dup1\n      revert\n    tag_1:\n      pop\n      jumpi(tag_2, lt(calldatasize, 0x04))\n      shr(0xe0, calldataload(0x00))\n      dup1\n      0x81b2d07b\n      gt\n      tag_10\n      jumpi\n      dup1\n      0x81b2d07b\n      eq\n      tag_6\n      jumpi\n      dup1\n      0x8e71decb\n      eq\n      tag_7\n      jumpi\n      dup1\n      0xdfbf53ae\n      eq\n      tag_8\n      jumpi\n      dup1\n      0xfc0c546a\n      eq\n      tag_9\n      jumpi\n      jump(tag_2)\n    tag_10:\n      dup1\n      0x35c1d349\n      eq\n      tag_3\n      jumpi\n      dup1\n      0x481c6a75\n      eq\n      tag_4\n      jumpi\n      dup1\n      0x7dc379fa\n      eq\n      tag_5\n      jumpi\n    tag_2:\n      0x00\n      dup1\n      revert\n        /* \"contracts/Lottery1.sol\":397:434  address payable[] public participants */\n    tag_3:\n      tag_11\n      0x04\n      dup1\n      calldatasize\n      sub\n      dup2\n      add\n      swap1\n      tag_12\n      swap2\n      swap1\n      tag_13\n      jump\t// in\n    tag_12:\n      tag_14\n      jump\t// in\n    tag_11:\n      mload(0x40)\n      tag_15\n      swap2\n      swap1\n      tag_16\n      jump\t// in\n    tag_15:\n      mload(0x40)\n      dup1\n      swap2\n      sub\n      swap1\n      return\n        /* \"contracts/Lottery1.sol\":351:373  address public manager */\n    tag_4:\n      tag_17\n      tag_18\n      jump\t// in\n    tag_17:\n      mload(0x40)\n      tag_19\n      swap2\n      swap1\n      tag_20\n      jump\t// in\n    tag_19:\n      mload(0x40)\n      dup1\n      swap2\n      sub\n      swap1\n      return\n        /* \"contracts/Lottery1.sol\":663:910  function getTicket(uint _amount) external{... */\n    tag_5:\n      tag_21\n      0x04\n      dup1\n      calldatasize\n      sub\n      dup2\n      add\n      swap1\n      tag_22\n      swap2\n      swap1\n      tag_13\n      jump\t// in\n    tag_22:\n      tag_23\n      jump\t// in\n    tag_21:\n      stop\n        /* \"contracts/Lottery1.sol\":916:1035  function showBalance() public view onlyOwner returns(uint256){... */\n    tag_6:\n      tag_24\n      tag_25\n      jump\t// in\n    tag_24:\n      mload(0x40)\n      tag_26\n      swap2\n      swap1\n      tag_27\n      jump\t// in\n    tag_26:\n      mload(0x40)\n      dup1\n      swap2\n      sub\n      swap1\n      return\n        /* \"contracts/Lottery1.sol\":1217:1560  function findWinner() external onlyOwner{... */\n    tag_7:\n      tag_28\n      tag_29\n      jump\t// in\n    tag_28:\n      stop\n        /* \"contracts/Lottery1.sol\":440:461  address public winner */\n    tag_8:\n      tag_30\n      tag_31\n      jump\t// in\n    tag_30:\n      mload(0x40)\n      tag_32\n      swap2\n      swap1\n      tag_20\n      jump\t// in\n    tag_32:\n      mload(0x40)\n      dup1\n      swap2\n      sub\n      swap1\n      return\n        /* \"contracts/Lottery1.sol\":326:345  IERC20 public token */\n    tag_9:\n      tag_33\n      tag_34\n      jump\t// in\n    tag_33:\n      mload(0x40)\n      tag_35\n      swap2\n      swap1\n      tag_36\n      jump\t// in\n    tag_35:\n      mload(0x40)\n      dup1\n      swap2\n      sub\n      swap1\n      return\n        /* \"contracts/Lottery1.sol\":397:434  address payable[] public participants */\n    tag_14:\n      0x02\n      dup2\n      dup2\n      sload\n      dup2\n      lt\n      tag_37\n      jumpi\n      0x00\n      dup1\n      revert\n    tag_37:\n      swap1\n      0x00\n      mstore\n      keccak256(0x00, 0x20)\n      add\n      0x00\n      swap2\n      pop\n      sload\n      swap1\n      0x0100\n      exp\n      swap1\n      div\n      0xffffffffffffffffffffffffffffffffffffffff\n      and\n      dup2\n      jump\t// out\n        /* \"contracts/Lottery1.sol\":351:373  address public manager */\n    tag_18:\n      0x01\n      0x00\n      swap1\n      sload\n      swap1\n      0x0100\n      exp\n      swap1\n      div\n      0xffffffffffffffffffffffffffffffffffffffff\n      and\n      dup2\n      jump\t// out\n        /* \"contracts/Lottery1.sol\":663:910  function getTicket(uint _amount) external{... */\n    tag_23:\n        /* \"contracts/Lottery1.sol\":737:745  1*10**18 */\n      0x0de0b6b3a7640000\n        /* \"contracts/Lottery1.sol\":727:734  _amount */\n      dup2\n        /* \"contracts/Lottery1.sol\":727:746  _amount==(1*10**18) */\n      eq\n        /* \"contracts/Lottery1.sol\":719:747  require(_amount==(1*10**18)) */\n      tag_40\n      jumpi\n      0x00\n      dup1\n      revert\n    tag_40:\n        /* \"contracts/Lottery1.sol\":770:775  token */\n      0x00\n      dup1\n      sload\n      swap1\n      0x0100\n      exp\n      swap1\n      div\n      0xffffffffffffffffffffffffffffffffffffffff\n      and\n        /* \"contracts/Lottery1.sol\":770:788  token.transferFrom */\n      0xffffffffffffffffffffffffffffffffffffffff\n      and\n      0x23b872dd\n        /* \"contracts/Lottery1.sol\":789:799  msg.sender */\n      caller\n        /* \"contracts/Lottery1.sol\":808:812  this */\n      address\n        /* \"contracts/Lottery1.sol\":814:821  _amount */\n      dup5\n        /* \"contracts/Lottery1.sol\":770:822  token.transferFrom(msg.sender,address(this),_amount) */\n      mload(0x40)\n      dup5\n      0xffffffff\n      and\n      0xe0\n      shl\n      dup2\n      mstore\n      0x04\n      add\n      tag_41\n      swap4\n      swap3\n      swap2\n      swap1\n      tag_42\n      jump\t// in\n    tag_41:\n      0x20\n      mload(0x40)\n      dup1\n      dup4\n      sub\n      dup2\n      0x00\n      dup8\n      gas\n      call\n      iszero\n      dup1\n      iszero\n      tag_44\n      jumpi\n      returndatasize\n      0x00\n      dup1\n      returndatacopy\n      revert(0x00, returndatasize)\n    tag_44:\n      pop\n      pop\n      pop\n      pop\n      mload(0x40)\n      returndatasize\n      not(0x1f)\n      0x1f\n      dup3\n      add\n      and\n      dup3\n      add\n      dup1\n      0x40\n      mstore\n      pop\n      dup2\n      add\n      swap1\n      tag_45\n      swap2\n      swap1\n      tag_46\n      jump\t// in\n    tag_45:\n        /* \"contracts/Lottery1.sol\":762:850  require(token.transferFrom(msg.sender,address(this),_amount),\"Transaction unsuccessful\") */\n      tag_47\n      jumpi\n      mload(0x40)\n      0x08c379a000000000000000000000000000000000000000000000000000000000\n      dup2\n      mstore\n      0x04\n      add\n      tag_48\n      swap1\n      tag_49\n      jump\t// in\n    tag_48:\n      mload(0x40)\n      dup1\n      swap2\n      sub\n      swap1\n      revert\n    tag_47:\n        /* \"contracts/Lottery1.sol\":865:877  participants */\n      0x02\n        /* \"contracts/Lottery1.sol\":891:901  msg.sender */\n      caller\n        /* \"contracts/Lottery1.sol\":865:903  participants.push(payable(msg.sender)) */\n      swap1\n      dup1\n      0x01\n      dup2\n      sload\n      add\n      dup1\n      dup3\n      sstore\n      dup1\n      swap2\n      pop\n      pop\n      0x01\n      swap1\n      sub\n      swap1\n      0x00\n      mstore\n      keccak256(0x00, 0x20)\n      add\n      0x00\n      swap1\n      swap2\n      swap1\n      swap2\n      swap1\n      swap2\n      0x0100\n      exp\n      dup2\n      sload\n      dup2\n      0xffffffffffffffffffffffffffffffffffffffff\n      mul\n      not\n      and\n      swap1\n      dup4\n      0xffffffffffffffffffffffffffffffffffffffff\n      and\n      mul\n      or\n      swap1\n      sstore\n      pop\n        /* \"contracts/Lottery1.sol\":663:910  function getTicket(uint _amount) external{... */\n      pop\n      jump\t// out\n        /* \"contracts/Lottery1.sol\":916:1035  function showBalance() public view onlyOwner returns(uint256){... */\n    tag_25:\n        /* \"contracts/Lottery1.sol\":969:976  uint256 */\n      0x00\n        /* \"contracts/Lottery1.sol\":627:634  manager */\n      0x01\n      0x00\n      swap1\n      sload\n      swap1\n      0x0100\n      exp\n      swap1\n      div\n      0xffffffffffffffffffffffffffffffffffffffff\n      and\n        /* \"contracts/Lottery1.sol\":615:634  msg.sender==manager */\n      0xffffffffffffffffffffffffffffffffffffffff\n      and\n        /* \"contracts/Lottery1.sol\":615:625  msg.sender */\n      caller\n        /* \"contracts/Lottery1.sol\":615:634  msg.sender==manager */\n      0xffffffffffffffffffffffffffffffffffffffff\n      and\n      eq\n        /* \"contracts/Lottery1.sol\":607:635  require(msg.sender==manager) */\n      tag_52\n      jumpi\n      0x00\n      dup1\n      revert\n    tag_52:\n        /* \"contracts/Lottery1.sol\":994:999  token */\n      0x00\n      dup1\n      sload\n      swap1\n      0x0100\n      exp\n      swap1\n      div\n      0xffffffffffffffffffffffffffffffffffffffff\n      and\n        /* \"contracts/Lottery1.sol\":994:1009  token.balanceOf */\n      0xffffffffffffffffffffffffffffffffffffffff\n      and\n      0x70a08231\n        /* \"contracts/Lottery1.sol\":1018:1022  this */\n      address\n        /* \"contracts/Lottery1.sol\":994:1024  token.balanceOf(address(this)) */\n      mload(0x40)\n      dup3\n      0xffffffff\n      and\n      0xe0\n      shl\n      dup2\n      mstore\n      0x04\n      add\n      tag_54\n      swap2\n      swap1\n      tag_20\n      jump\t// in\n    tag_54:\n      0x20\n      mload(0x40)\n      dup1\n      dup4\n      sub\n      dup2\n      dup7\n      gas\n      staticcall\n      iszero\n      dup1\n      iszero\n      tag_56\n      jumpi\n      returndatasize\n      0x00\n      dup1\n      returndatacopy\n      revert(0x00, returndatasize)\n    tag_56:\n      pop\n      pop\n      pop\n      pop\n      mload(0x40)\n      returndatasize\n      not(0x1f)\n      0x1f\n      dup3\n      add\n      and\n      dup3\n      add\n      dup1\n      0x40\n      mstore\n      pop\n      dup2\n      add\n      swap1\n      tag_57\n      swap2\n      swap1\n      tag_58\n      jump\t// in\n    tag_57:\n        /* \"contracts/Lottery1.sol\":987:1024  return token.balanceOf(address(this)) */\n      swap1\n      pop\n        /* \"contracts/Lottery1.sol\":916:1035  function showBalance() public view onlyOwner returns(uint256){... */\n      swap1\n      jump\t// out\n        /* \"contracts/Lottery1.sol\":1217:1560  function findWinner() external onlyOwner{... */\n    tag_29:\n        /* \"contracts/Lottery1.sol\":627:634  manager */\n      0x01\n      0x00\n      swap1\n      sload\n      swap1\n      0x0100\n      exp\n      swap1\n      div\n      0xffffffffffffffffffffffffffffffffffffffff\n      and\n        /* \"contracts/Lottery1.sol\":615:634  msg.sender==manager */\n      0xffffffffffffffffffffffffffffffffffffffff\n      and\n        /* \"contracts/Lottery1.sol\":615:625  msg.sender */\n      caller\n        /* \"contracts/Lottery1.sol\":615:634  msg.sender==manager */\n      0xffffffffffffffffffffffffffffffffffffffff\n      and\n      eq\n        /* \"contracts/Lottery1.sol\":607:635  require(msg.sender==manager) */\n      tag_60\n      jumpi\n      0x00\n      dup1\n      revert\n    tag_60:\n        /* \"contracts/Lottery1.sol\":1296:1297  3 */\n      0x03\n        /* \"contracts/Lottery1.sol\":1275:1287  participants */\n      0x02\n        /* \"contracts/Lottery1.sol\":1275:1294  participants.length */\n      dup1\n      sload\n      swap1\n      pop\n        /* \"contracts/Lottery1.sol\":1275:1297  participants.length>=3 */\n      lt\n      iszero\n        /* \"contracts/Lottery1.sol\":1267:1298  require(participants.length>=3) */\n      tag_62\n      jumpi\n      0x00\n      dup1\n      revert\n    tag_62:\n        /* \"contracts/Lottery1.sol\":1308:1317  uint rand */\n      0x00\n        /* \"contracts/Lottery1.sol\":1320:1328  random() */\n      tag_63\n        /* \"contracts/Lottery1.sol\":1320:1326  random */\n      tag_64\n        /* \"contracts/Lottery1.sol\":1320:1328  random() */\n      jump\t// in\n    tag_63:\n        /* \"contracts/Lottery1.sol\":1308:1328  uint rand = random() */\n      swap1\n      pop\n        /* \"contracts/Lottery1.sol\":1338:1348  uint index */\n      0x00\n        /* \"contracts/Lottery1.sol\":1356:1368  participants */\n      0x02\n        /* \"contracts/Lottery1.sol\":1356:1375  participants.length */\n      dup1\n      sload\n      swap1\n      pop\n        /* \"contracts/Lottery1.sol\":1351:1355  rand */\n      dup3\n        /* \"contracts/Lottery1.sol\":1351:1375  rand%participants.length */\n      tag_65\n      swap2\n      swap1\n      tag_66\n      jump\t// in\n    tag_65:\n        /* \"contracts/Lottery1.sol\":1338:1375  uint index = rand%participants.length */\n      swap1\n      pop\n        /* \"contracts/Lottery1.sol\":1394:1406  participants */\n      0x02\n        /* \"contracts/Lottery1.sol\":1407:1412  index */\n      dup2\n        /* \"contracts/Lottery1.sol\":1394:1413  participants[index] */\n      dup2\n      sload\n      dup2\n      lt\n      tag_67\n      jumpi\n      tag_68\n      tag_69\n      jump\t// in\n    tag_68:\n    tag_67:\n      swap1\n      0x00\n      mstore\n      keccak256(0x00, 0x20)\n      add\n      0x00\n      swap1\n      sload\n      swap1\n      0x0100\n      exp\n      swap1\n      div\n      0xffffffffffffffffffffffffffffffffffffffff\n      and\n        /* \"contracts/Lottery1.sol\":1385:1391  winner */\n      0x03\n      0x00\n        /* \"contracts/Lottery1.sol\":1385:1413  winner = participants[index] */\n      0x0100\n      exp\n      dup2\n      sload\n      dup2\n      0xffffffffffffffffffffffffffffffffffffffff\n      mul\n      not\n      and\n      swap1\n      dup4\n      0xffffffffffffffffffffffffffffffffffffffff\n      and\n      mul\n      or\n      swap1\n      sstore\n      pop\n        /* \"contracts/Lottery1.sol\":1431:1436  token */\n      0x00\n      dup1\n      sload\n      swap1\n      0x0100\n      exp\n      swap1\n      div\n      0xffffffffffffffffffffffffffffffffffffffff\n      and\n        /* \"contracts/Lottery1.sol\":1431:1445  token.transfer */\n      0xffffffffffffffffffffffffffffffffffffffff\n      and\n      0xa9059cbb\n        /* \"contracts/Lottery1.sol\":1454:1460  winner */\n      0x03\n      0x00\n      swap1\n      sload\n      swap1\n      0x0100\n      exp\n      swap1\n      div\n      0xffffffffffffffffffffffffffffffffffffffff\n      and\n        /* \"contracts/Lottery1.sol\":1462:1475  showBalance() */\n      tag_71\n        /* \"contracts/Lottery1.sol\":1462:1473  showBalance */\n      tag_25\n        /* \"contracts/Lottery1.sol\":1462:1475  showBalance() */\n      jump\t// in\n    tag_71:\n        /* \"contracts/Lottery1.sol\":1431:1476  token.transfer(payable(winner),showBalance()) */\n      mload(0x40)\n      dup4\n      0xffffffff\n      and\n      0xe0\n      shl\n      dup2\n      mstore\n      0x04\n      add\n      tag_72\n      swap3\n      swap2\n      swap1\n      tag_73\n      jump\t// in\n    tag_72:\n      0x20\n      mload(0x40)\n      dup1\n      dup4\n      sub\n      dup2\n      0x00\n      dup8\n      gas\n      call\n      iszero\n      dup1\n      iszero\n      tag_75\n      jumpi\n      returndatasize\n      0x00\n      dup1\n      returndatacopy\n      revert(0x00, returndatasize)\n    tag_75:\n      pop\n      pop\n      pop\n      pop\n      mload(0x40)\n      returndatasize\n      not(0x1f)\n      0x1f\n      dup3\n      add\n      and\n      dup3\n      add\n      dup1\n      0x40\n      mstore\n      pop\n      dup2\n      add\n      swap1\n      tag_76\n      swap2\n      swap1\n      tag_46\n      jump\t// in\n    tag_76:\n        /* \"contracts/Lottery1.sol\":1423:1504  require(token.transfer(payable(winner),showBalance()),\"Transaction unsuccessful\") */\n      tag_77\n      jumpi\n      mload(0x40)\n      0x08c379a000000000000000000000000000000000000000000000000000000000\n      dup2\n      mstore\n      0x04\n      add\n      tag_78\n      swap1\n      tag_49\n      jump\t// in\n    tag_78:\n      mload(0x40)\n      dup1\n      swap2\n      sub\n      swap1\n      revert\n    tag_77:\n        /* \"contracts/Lottery1.sol\":1551:1552  0 */\n      0x00\n        /* \"contracts/Lottery1.sol\":1529:1553  new address payable[](0) */\n      0xffffffffffffffff\n      dup2\n      gt\n      iszero\n      tag_79\n      jumpi\n      tag_80\n      tag_81\n      jump\t// in\n    tag_80:\n    tag_79:\n      mload(0x40)\n      swap1\n      dup1\n      dup3\n      mstore\n      dup1\n      0x20\n      mul\n      0x20\n      add\n      dup3\n      add\n      0x40\n      mstore\n      dup1\n      iszero\n      tag_82\n      jumpi\n      dup2\n      0x20\n      add\n      0x20\n      dup3\n      mul\n      dup1\n      calldatasize\n      dup4\n      calldatacopy\n      dup1\n      dup3\n      add\n      swap2\n      pop\n      pop\n      swap1\n      pop\n    tag_82:\n      pop\n        /* \"contracts/Lottery1.sol\":1514:1526  participants */\n      0x02\n        /* \"contracts/Lottery1.sol\":1514:1553  participants = new address payable[](0) */\n      swap1\n      dup1\n      mload\n      swap1\n      0x20\n      add\n      swap1\n      tag_83\n      swap3\n      swap2\n      swap1\n      tag_84\n      jump\t// in\n    tag_83:\n      pop\n        /* \"contracts/Lottery1.sol\":1257:1560  {... */\n      pop\n      pop\n        /* \"contracts/Lottery1.sol\":1217:1560  function findWinner() external onlyOwner{... */\n      jump\t// out\n        /* \"contracts/Lottery1.sol\":440:461  address public winner */\n    tag_31:\n      0x03\n      0x00\n      swap1\n      sload\n      swap1\n      0x0100\n      exp\n      swap1\n      div\n      0xffffffffffffffffffffffffffffffffffffffff\n      and\n      dup2\n      jump\t// out\n        /* \"contracts/Lottery1.sol\":326:345  IERC20 public token */\n    tag_34:\n      0x00\n      dup1\n      sload\n      swap1\n      0x0100\n      exp\n      swap1\n      div\n      0xffffffffffffffffffffffffffffffffffffffff\n      and\n      dup2\n      jump\t// out\n        /* \"contracts/Lottery1.sol\":1041:1211  function random() private view  returns (uint){... */\n    tag_64:\n        /* \"contracts/Lottery1.sol\":1082:1086  uint */\n      0x00\n        /* \"contracts/Lottery1.sol\":1136:1148  block.number */\n      number\n        /* \"contracts/Lottery1.sol\":1149:1165  block.prevrandao */\n      prevrandao\n        /* \"contracts/Lottery1.sol\":1166:1181  block.timestamp */\n      timestamp\n        /* \"contracts/Lottery1.sol\":1182:1194  participants */\n      0x02\n        /* \"contracts/Lottery1.sol\":1182:1201  participants.length */\n      dup1\n      sload\n      swap1\n      pop\n        /* \"contracts/Lottery1.sol\":1119:1202  abi.encodePacked(block.number,block.prevrandao,block.timestamp,participants.length) */\n      add(0x20, mload(0x40))\n      tag_86\n      swap5\n      swap4\n      swap3\n      swap2\n      swap1\n      tag_87\n      jump\t// in\n    tag_86:\n      mload(0x40)\n      0x20\n      dup2\n      dup4\n      sub\n      sub\n      dup2\n      mstore\n      swap1\n      0x40\n      mstore\n        /* \"contracts/Lottery1.sol\":1109:1203  keccak256(abi.encodePacked(block.number,block.prevrandao,block.timestamp,participants.length)) */\n      dup1\n      mload\n      swap1\n      0x20\n      add\n      keccak256\n        /* \"contracts/Lottery1.sol\":1104:1204  uint(keccak256(abi.encodePacked(block.number,block.prevrandao,block.timestamp,participants.length))) */\n      0x00\n      shr\n        /* \"contracts/Lottery1.sol\":1097:1204  return uint(keccak256(abi.encodePacked(block.number,block.prevrandao,block.timestamp,participants.length))) */\n      swap1\n      pop\n        /* \"contracts/Lottery1.sol\":1041:1211  function random() private view  returns (uint){... */\n      swap1\n      jump\t// out\n    tag_84:\n      dup3\n      dup1\n      sload\n      dup3\n      dup3\n      sstore\n      swap1\n      0x00\n      mstore\n      keccak256(0x00, 0x20)\n      swap1\n      dup2\n      add\n      swap3\n      dup3\n      iszero\n      tag_88\n      jumpi\n      swap2\n      0x20\n      mul\n      dup3\n      add\n    tag_89:\n      dup3\n      dup2\n      gt\n      iszero\n      tag_90\n      jumpi\n      dup3\n      mload\n      dup3\n      exp(0x0100, 0x00)\n      dup2\n      sload\n      dup2\n      0xffffffffffffffffffffffffffffffffffffffff\n      mul\n      not\n      and\n      swap1\n      dup4\n      0xffffffffffffffffffffffffffffffffffffffff\n      and\n      mul\n      or\n      swap1\n      sstore\n      pop\n      swap2\n      0x20\n      add\n      swap2\n      swap1\n      0x01\n      add\n      swap1\n      jump(tag_89)\n    tag_90:\n    tag_88:\n      pop\n      swap1\n      pop\n      tag_91\n      swap2\n      swap1\n      tag_92\n      jump\t// in\n    tag_91:\n      pop\n      swap1\n      jump\t// out\n    tag_92:\n    tag_93:\n      dup1\n      dup3\n      gt\n      iszero\n      tag_94\n      jumpi\n      0x00\n      dup2\n      0x00\n      swap1\n      sstore\n      pop\n      0x01\n      add\n      jump(tag_93)\n    tag_94:\n      pop\n      swap1\n      jump\t// out\n        /* \"#utility.yul\":88:205   */\n    tag_96:\n        /* \"#utility.yul\":197:198   */\n      0x00\n        /* \"#utility.yul\":194:195   */\n      dup1\n        /* \"#utility.yul\":187:199   */\n      revert\n        /* \"#utility.yul\":334:411   */\n    tag_98:\n        /* \"#utility.yul\":371:378   */\n      0x00\n        /* \"#utility.yul\":400:405   */\n      dup2\n        /* \"#utility.yul\":389:405   */\n      swap1\n      pop\n        /* \"#utility.yul\":334:411   */\n      swap2\n      swap1\n      pop\n      jump\t// out\n        /* \"#utility.yul\":417:539   */\n    tag_99:\n        /* \"#utility.yul\":490:514   */\n      tag_130\n        /* \"#utility.yul\":508:513   */\n      dup2\n        /* \"#utility.yul\":490:514   */\n      tag_98\n      jump\t// in\n    tag_130:\n        /* \"#utility.yul\":483:488   */\n      dup2\n        /* \"#utility.yul\":480:515   */\n      eq\n        /* \"#utility.yul\":470:533   */\n      tag_131\n      jumpi\n        /* \"#utility.yul\":529:530   */\n      0x00\n        /* \"#utility.yul\":526:527   */\n      dup1\n        /* \"#utility.yul\":519:531   */\n      revert\n        /* \"#utility.yul\":470:533   */\n    tag_131:\n        /* \"#utility.yul\":417:539   */\n      pop\n      jump\t// out\n        /* \"#utility.yul\":545:684   */\n    tag_100:\n        /* \"#utility.yul\":591:596   */\n      0x00\n        /* \"#utility.yul\":629:635   */\n      dup2\n        /* \"#utility.yul\":616:636   */\n      calldataload\n        /* \"#utility.yul\":607:636   */\n      swap1\n      pop\n        /* \"#utility.yul\":645:678   */\n      tag_133\n        /* \"#utility.yul\":672:677   */\n      dup2\n        /* \"#utility.yul\":645:678   */\n      tag_99\n      jump\t// in\n    tag_133:\n        /* \"#utility.yul\":545:684   */\n      swap3\n      swap2\n      pop\n      pop\n      jump\t// out\n        /* \"#utility.yul\":690:1019   */\n    tag_13:\n        /* \"#utility.yul\":749:755   */\n      0x00\n        /* \"#utility.yul\":798:800   */\n      0x20\n        /* \"#utility.yul\":786:795   */\n      dup3\n        /* \"#utility.yul\":777:784   */\n      dup5\n        /* \"#utility.yul\":773:796   */\n      sub\n        /* \"#utility.yul\":769:801   */\n      slt\n        /* \"#utility.yul\":766:885   */\n      iszero\n      tag_135\n      jumpi\n        /* \"#utility.yul\":804:883   */\n      tag_136\n      tag_96\n      jump\t// in\n    tag_136:\n        /* \"#utility.yul\":766:885   */\n    tag_135:\n        /* \"#utility.yul\":924:925   */\n      0x00\n        /* \"#utility.yul\":949:1002   */\n      tag_137\n        /* \"#utility.yul\":994:1001   */\n      dup5\n        /* \"#utility.yul\":985:991   */\n      dup3\n        /* \"#utility.yul\":974:983   */\n      dup6\n        /* \"#utility.yul\":970:992   */\n      add\n        /* \"#utility.yul\":949:1002   */\n      tag_100\n      jump\t// in\n    tag_137:\n        /* \"#utility.yul\":939:1002   */\n      swap2\n      pop\n        /* \"#utility.yul\":895:1012   */\n      pop\n        /* \"#utility.yul\":690:1019   */\n      swap3\n      swap2\n      pop\n      pop\n      jump\t// out\n        /* \"#utility.yul\":1025:1151   */\n    tag_101:\n        /* \"#utility.yul\":1062:1069   */\n      0x00\n        /* \"#utility.yul\":1102:1144   */\n      0xffffffffffffffffffffffffffffffffffffffff\n        /* \"#utility.yul\":1095:1100   */\n      dup3\n        /* \"#utility.yul\":1091:1145   */\n      and\n        /* \"#utility.yul\":1080:1145   */\n      swap1\n      pop\n        /* \"#utility.yul\":1025:1151   */\n      swap2\n      swap1\n      pop\n      jump\t// out\n        /* \"#utility.yul\":1157:1261   */\n    tag_102:\n        /* \"#utility.yul\":1202:1209   */\n      0x00\n        /* \"#utility.yul\":1231:1255   */\n      tag_140\n        /* \"#utility.yul\":1249:1254   */\n      dup3\n        /* \"#utility.yul\":1231:1255   */\n      tag_101\n      jump\t// in\n    tag_140:\n        /* \"#utility.yul\":1220:1255   */\n      swap1\n      pop\n        /* \"#utility.yul\":1157:1261   */\n      swap2\n      swap1\n      pop\n      jump\t// out\n        /* \"#utility.yul\":1267:1409   */\n    tag_103:\n        /* \"#utility.yul\":1370:1402   */\n      tag_142\n        /* \"#utility.yul\":1396:1401   */\n      dup2\n        /* \"#utility.yul\":1370:1402   */\n      tag_102\n      jump\t// in\n    tag_142:\n        /* \"#utility.yul\":1365:1368   */\n      dup3\n        /* \"#utility.yul\":1358:1403   */\n      mstore\n        /* \"#utility.yul\":1267:1409   */\n      pop\n      pop\n      jump\t// out\n        /* \"#utility.yul\":1415:1669   */\n    tag_16:\n        /* \"#utility.yul\":1524:1528   */\n      0x00\n        /* \"#utility.yul\":1562:1564   */\n      0x20\n        /* \"#utility.yul\":1551:1560   */\n      dup3\n        /* \"#utility.yul\":1547:1565   */\n      add\n        /* \"#utility.yul\":1539:1565   */\n      swap1\n      pop\n        /* \"#utility.yul\":1575:1662   */\n      tag_144\n        /* \"#utility.yul\":1659:1660   */\n      0x00\n        /* \"#utility.yul\":1648:1657   */\n      dup4\n        /* \"#utility.yul\":1644:1661   */\n      add\n        /* \"#utility.yul\":1635:1641   */\n      dup5\n        /* \"#utility.yul\":1575:1662   */\n      tag_103\n      jump\t// in\n    tag_144:\n        /* \"#utility.yul\":1415:1669   */\n      swap3\n      swap2\n      pop\n      pop\n      jump\t// out\n        /* \"#utility.yul\":1675:1771   */\n    tag_104:\n        /* \"#utility.yul\":1712:1719   */\n      0x00\n        /* \"#utility.yul\":1741:1765   */\n      tag_146\n        /* \"#utility.yul\":1759:1764   */\n      dup3\n        /* \"#utility.yul\":1741:1765   */\n      tag_101\n      jump\t// in\n    tag_146:\n        /* \"#utility.yul\":1730:1765   */\n      swap1\n      pop\n        /* \"#utility.yul\":1675:1771   */\n      swap2\n      swap1\n      pop\n      jump\t// out\n        /* \"#utility.yul\":1777:1895   */\n    tag_105:\n        /* \"#utility.yul\":1864:1888   */\n      tag_148\n        /* \"#utility.yul\":1882:1887   */\n      dup2\n        /* \"#utility.yul\":1864:1888   */\n      tag_104\n      jump\t// in\n    tag_148:\n        /* \"#utility.yul\":1859:1862   */\n      dup3\n        /* \"#utility.yul\":1852:1889   */\n      mstore\n        /* \"#utility.yul\":1777:1895   */\n      pop\n      pop\n      jump\t// out\n        /* \"#utility.yul\":1901:2123   */\n    tag_20:\n        /* \"#utility.yul\":1994:1998   */\n      0x00\n        /* \"#utility.yul\":2032:2034   */\n      0x20\n        /* \"#utility.yul\":2021:2030   */\n      dup3\n        /* \"#utility.yul\":2017:2035   */\n      add\n        /* \"#utility.yul\":2009:2035   */\n      swap1\n      pop\n        /* \"#utility.yul\":2045:2116   */\n      tag_150\n        /* \"#utility.yul\":2113:2114   */\n      0x00\n        /* \"#utility.yul\":2102:2111   */\n      dup4\n        /* \"#utility.yul\":2098:2115   */\n      add\n        /* \"#utility.yul\":2089:2095   */\n      dup5\n        /* \"#utility.yul\":2045:2116   */\n      tag_105\n      jump\t// in\n    tag_150:\n        /* \"#utility.yul\":1901:2123   */\n      swap3\n      swap2\n      pop\n      pop\n      jump\t// out\n        /* \"#utility.yul\":2129:2247   */\n    tag_106:\n        /* \"#utility.yul\":2216:2240   */\n      tag_152\n        /* \"#utility.yul\":2234:2239   */\n      dup2\n        /* \"#utility.yul\":2216:2240   */\n      tag_98\n      jump\t// in\n    tag_152:\n        /* \"#utility.yul\":2211:2214   */\n      dup3\n        /* \"#utility.yul\":2204:2241   */\n      mstore\n        /* \"#utility.yul\":2129:2247   */\n      pop\n      pop\n      jump\t// out\n        /* \"#utility.yul\":2253:2475   */\n    tag_27:\n        /* \"#utility.yul\":2346:2350   */\n      0x00\n        /* \"#utility.yul\":2384:2386   */\n      0x20\n        /* \"#utility.yul\":2373:2382   */\n      dup3\n        /* \"#utility.yul\":2369:2387   */\n      add\n        /* \"#utility.yul\":2361:2387   */\n      swap1\n      pop\n        /* \"#utility.yul\":2397:2468   */\n      tag_154\n        /* \"#utility.yul\":2465:2466   */\n      0x00\n        /* \"#utility.yul\":2454:2463   */\n      dup4\n        /* \"#utility.yul\":2450:2467   */\n      add\n        /* \"#utility.yul\":2441:2447   */\n      dup5\n        /* \"#utility.yul\":2397:2468   */\n      tag_106\n      jump\t// in\n    tag_154:\n        /* \"#utility.yul\":2253:2475   */\n      swap3\n      swap2\n      pop\n      pop\n      jump\t// out\n        /* \"#utility.yul\":2481:2541   */\n    tag_107:\n        /* \"#utility.yul\":2509:2512   */\n      0x00\n        /* \"#utility.yul\":2530:2535   */\n      dup2\n        /* \"#utility.yul\":2523:2535   */\n      swap1\n      pop\n        /* \"#utility.yul\":2481:2541   */\n      swap2\n      swap1\n      pop\n      jump\t// out\n        /* \"#utility.yul\":2547:2689   */\n    tag_108:\n        /* \"#utility.yul\":2597:2606   */\n      0x00\n        /* \"#utility.yul\":2630:2683   */\n      tag_157\n        /* \"#utility.yul\":2648:2682   */\n      tag_158\n        /* \"#utility.yul\":2657:2681   */\n      tag_159\n        /* \"#utility.yul\":2675:2680   */\n      dup5\n        /* \"#utility.yul\":2657:2681   */\n      tag_101\n      jump\t// in\n    tag_159:\n        /* \"#utility.yul\":2648:2682   */\n      tag_107\n      jump\t// in\n    tag_158:\n        /* \"#utility.yul\":2630:2683   */\n      tag_101\n      jump\t// in\n    tag_157:\n        /* \"#utility.yul\":2617:2683   */\n      swap1\n      pop\n        /* \"#utility.yul\":2547:2689   */\n      swap2\n      swap1\n      pop\n      jump\t// out\n        /* \"#utility.yul\":2695:2821   */\n    tag_109:\n        /* \"#utility.yul\":2745:2754   */\n      0x00\n        /* \"#utility.yul\":2778:2815   */\n      tag_161\n        /* \"#utility.yul\":2809:2814   */\n      dup3\n        /* \"#utility.yul\":2778:2815   */\n      tag_108\n      jump\t// in\n    tag_161:\n        /* \"#utility.yul\":2765:2815   */\n      swap1\n      pop\n        /* \"#utility.yul\":2695:2821   */\n      swap2\n      swap1\n      pop\n      jump\t// out\n        /* \"#utility.yul\":2827:2967   */\n    tag_110:\n        /* \"#utility.yul\":2891:2900   */\n      0x00\n        /* \"#utility.yul\":2924:2961   */\n      tag_163\n        /* \"#utility.yul\":2955:2960   */\n      dup3\n        /* \"#utility.yul\":2924:2961   */\n      tag_109\n      jump\t// in\n    tag_163:\n        /* \"#utility.yul\":2911:2961   */\n      swap1\n      pop\n        /* \"#utility.yul\":2827:2967   */\n      swap2\n      swap1\n      pop\n      jump\t// out\n        /* \"#utility.yul\":2973:3132   */\n    tag_111:\n        /* \"#utility.yul\":3074:3125   */\n      tag_165\n        /* \"#utility.yul\":3119:3124   */\n      dup2\n        /* \"#utility.yul\":3074:3125   */\n      tag_110\n      jump\t// in\n    tag_165:\n        /* \"#utility.yul\":3069:3072   */\n      dup3\n        /* \"#utility.yul\":3062:3126   */\n      mstore\n        /* \"#utility.yul\":2973:3132   */\n      pop\n      pop\n      jump\t// out\n        /* \"#utility.yul\":3138:3388   */\n    tag_36:\n        /* \"#utility.yul\":3245:3249   */\n      0x00\n        /* \"#utility.yul\":3283:3285   */\n      0x20\n        /* \"#utility.yul\":3272:3281   */\n      dup3\n        /* \"#utility.yul\":3268:3286   */\n      add\n        /* \"#utility.yul\":3260:3286   */\n      swap1\n      pop\n        /* \"#utility.yul\":3296:3381   */\n      tag_167\n        /* \"#utility.yul\":3378:3379   */\n      0x00\n        /* \"#utility.yul\":3367:3376   */\n      dup4\n        /* \"#utility.yul\":3363:3380   */\n      add\n        /* \"#utility.yul\":3354:3360   */\n      dup5\n        /* \"#utility.yul\":3296:3381   */\n      tag_111\n      jump\t// in\n    tag_167:\n        /* \"#utility.yul\":3138:3388   */\n      swap3\n      swap2\n      pop\n      pop\n      jump\t// out\n        /* \"#utility.yul\":3394:3836   */\n    tag_42:\n        /* \"#utility.yul\":3543:3547   */\n      0x00\n        /* \"#utility.yul\":3581:3583   */\n      0x60\n        /* \"#utility.yul\":3570:3579   */\n      dup3\n        /* \"#utility.yul\":3566:3584   */\n      add\n        /* \"#utility.yul\":3558:3584   */\n      swap1\n      pop\n        /* \"#utility.yul\":3594:3665   */\n      tag_169\n        /* \"#utility.yul\":3662:3663   */\n      0x00\n        /* \"#utility.yul\":3651:3660   */\n      dup4\n        /* \"#utility.yul\":3647:3664   */\n      add\n        /* \"#utility.yul\":3638:3644   */\n      dup7\n        /* \"#utility.yul\":3594:3665   */\n      tag_105\n      jump\t// in\n    tag_169:\n        /* \"#utility.yul\":3675:3747   */\n      tag_170\n        /* \"#utility.yul\":3743:3745   */\n      0x20\n        /* \"#utility.yul\":3732:3741   */\n      dup4\n        /* \"#utility.yul\":3728:3746   */\n      add\n        /* \"#utility.yul\":3719:3725   */\n      dup6\n        /* \"#utility.yul\":3675:3747   */\n      tag_105\n      jump\t// in\n    tag_170:\n        /* \"#utility.yul\":3757:3829   */\n      tag_171\n        /* \"#utility.yul\":3825:3827   */\n      0x40\n        /* \"#utility.yul\":3814:3823   */\n      dup4\n        /* \"#utility.yul\":3810:3828   */\n      add\n        /* \"#utility.yul\":3801:3807   */\n      dup5\n        /* \"#utility.yul\":3757:3829   */\n      tag_106\n      jump\t// in\n    tag_171:\n        /* \"#utility.yul\":3394:3836   */\n      swap5\n      swap4\n      pop\n      pop\n      pop\n      pop\n      jump\t// out\n        /* \"#utility.yul\":3842:3932   */\n    tag_112:\n        /* \"#utility.yul\":3876:3883   */\n      0x00\n        /* \"#utility.yul\":3919:3924   */\n      dup2\n        /* \"#utility.yul\":3912:3925   */\n      iszero\n        /* \"#utility.yul\":3905:3926   */\n      iszero\n        /* \"#utility.yul\":3894:3926   */\n      swap1\n      pop\n        /* \"#utility.yul\":3842:3932   */\n      swap2\n      swap1\n      pop\n      jump\t// out\n        /* \"#utility.yul\":3938:4054   */\n    tag_113:\n        /* \"#utility.yul\":4008:4029   */\n      tag_174\n        /* \"#utility.yul\":4023:4028   */\n      dup2\n        /* \"#utility.yul\":4008:4029   */\n      tag_112\n      jump\t// in\n    tag_174:\n        /* \"#utility.yul\":4001:4006   */\n      dup2\n        /* \"#utility.yul\":3998:4030   */\n      eq\n        /* \"#utility.yul\":3988:4048   */\n      tag_175\n      jumpi\n        /* \"#utility.yul\":4044:4045   */\n      0x00\n        /* \"#utility.yul\":4041:4042   */\n      dup1\n        /* \"#utility.yul\":4034:4046   */\n      revert\n        /* \"#utility.yul\":3988:4048   */\n    tag_175:\n        /* \"#utility.yul\":3938:4054   */\n      pop\n      jump\t// out\n        /* \"#utility.yul\":4060:4197   */\n    tag_114:\n        /* \"#utility.yul\":4114:4119   */\n      0x00\n        /* \"#utility.yul\":4145:4151   */\n      dup2\n        /* \"#utility.yul\":4139:4152   */\n      mload\n        /* \"#utility.yul\":4130:4152   */\n      swap1\n      pop\n        /* \"#utility.yul\":4161:4191   */\n      tag_177\n        /* \"#utility.yul\":4185:4190   */\n      dup2\n        /* \"#utility.yul\":4161:4191   */\n      tag_113\n      jump\t// in\n    tag_177:\n        /* \"#utility.yul\":4060:4197   */\n      swap3\n      swap2\n      pop\n      pop\n      jump\t// out\n        /* \"#utility.yul\":4203:4548   */\n    tag_46:\n        /* \"#utility.yul\":4270:4276   */\n      0x00\n        /* \"#utility.yul\":4319:4321   */\n      0x20\n        /* \"#utility.yul\":4307:4316   */\n      dup3\n        /* \"#utility.yul\":4298:4305   */\n      dup5\n        /* \"#utility.yul\":4294:4317   */\n      sub\n        /* \"#utility.yul\":4290:4322   */\n      slt\n        /* \"#utility.yul\":4287:4406   */\n      iszero\n      tag_179\n      jumpi\n        /* \"#utility.yul\":4325:4404   */\n      tag_180\n      tag_96\n      jump\t// in\n    tag_180:\n        /* \"#utility.yul\":4287:4406   */\n    tag_179:\n        /* \"#utility.yul\":4445:4446   */\n      0x00\n        /* \"#utility.yul\":4470:4531   */\n      tag_181\n        /* \"#utility.yul\":4523:4530   */\n      dup5\n        /* \"#utility.yul\":4514:4520   */\n      dup3\n        /* \"#utility.yul\":4503:4512   */\n      dup6\n        /* \"#utility.yul\":4499:4521   */\n      add\n        /* \"#utility.yul\":4470:4531   */\n      tag_114\n      jump\t// in\n    tag_181:\n        /* \"#utility.yul\":4460:4531   */\n      swap2\n      pop\n        /* \"#utility.yul\":4416:4541   */\n      pop\n        /* \"#utility.yul\":4203:4548   */\n      swap3\n      swap2\n      pop\n      pop\n      jump\t// out\n        /* \"#utility.yul\":4554:4723   */\n    tag_115:\n        /* \"#utility.yul\":4638:4649   */\n      0x00\n        /* \"#utility.yul\":4672:4678   */\n      dup3\n        /* \"#utility.yul\":4667:4670   */\n      dup3\n        /* \"#utility.yul\":4660:4679   */\n      mstore\n        /* \"#utility.yul\":4712:4716   */\n      0x20\n        /* \"#utility.yul\":4707:4710   */\n      dup3\n        /* \"#utility.yul\":4703:4717   */\n      add\n        /* \"#utility.yul\":4688:4717   */\n      swap1\n      pop\n        /* \"#utility.yul\":4554:4723   */\n      swap3\n      swap2\n      pop\n      pop\n      jump\t// out\n        /* \"#utility.yul\":4729:4903   */\n    tag_116:\n        /* \"#utility.yul\":4869:4895   */\n      0x5472616e73616374696f6e20756e7375636365737366756c0000000000000000\n        /* \"#utility.yul\":4865:4866   */\n      0x00\n        /* \"#utility.yul\":4857:4863   */\n      dup3\n        /* \"#utility.yul\":4853:4867   */\n      add\n        /* \"#utility.yul\":4846:4896   */\n      mstore\n        /* \"#utility.yul\":4729:4903   */\n      pop\n      jump\t// out\n        /* \"#utility.yul\":4909:5275   */\n    tag_117:\n        /* \"#utility.yul\":5051:5054   */\n      0x00\n        /* \"#utility.yul\":5072:5139   */\n      tag_185\n        /* \"#utility.yul\":5136:5138   */\n      0x18\n        /* \"#utility.yul\":5131:5134   */\n      dup4\n        /* \"#utility.yul\":5072:5139   */\n      tag_115\n      jump\t// in\n    tag_185:\n        /* \"#utility.yul\":5065:5139   */\n      swap2\n      pop\n        /* \"#utility.yul\":5148:5241   */\n      tag_186\n        /* \"#utility.yul\":5237:5240   */\n      dup3\n        /* \"#utility.yul\":5148:5241   */\n      tag_116\n      jump\t// in\n    tag_186:\n        /* \"#utility.yul\":5266:5268   */\n      0x20\n        /* \"#utility.yul\":5261:5264   */\n      dup3\n        /* \"#utility.yul\":5257:5269   */\n      add\n        /* \"#utility.yul\":5250:5269   */\n      swap1\n      pop\n        /* \"#utility.yul\":4909:5275   */\n      swap2\n      swap1\n      pop\n      jump\t// out\n        /* \"#utility.yul\":5281:5700   */\n    tag_49:\n        /* \"#utility.yul\":5447:5451   */\n      0x00\n        /* \"#utility.yul\":5485:5487   */\n      0x20\n        /* \"#utility.yul\":5474:5483   */\n      dup3\n        /* \"#utility.yul\":5470:5488   */\n      add\n        /* \"#utility.yul\":5462:5488   */\n      swap1\n      pop\n        /* \"#utility.yul\":5534:5543   */\n      dup2\n        /* \"#utility.yul\":5528:5532   */\n      dup2\n        /* \"#utility.yul\":5524:5544   */\n      sub\n        /* \"#utility.yul\":5520:5521   */\n      0x00\n        /* \"#utility.yul\":5509:5518   */\n      dup4\n        /* \"#utility.yul\":5505:5522   */\n      add\n        /* \"#utility.yul\":5498:5545   */\n      mstore\n        /* \"#utility.yul\":5562:5693   */\n      tag_188\n        /* \"#utility.yul\":5688:5692   */\n      dup2\n        /* \"#utility.yul\":5562:5693   */\n      tag_117\n      jump\t// in\n    tag_188:\n        /* \"#utility.yul\":5554:5693   */\n      swap1\n      pop\n        /* \"#utility.yul\":5281:5700   */\n      swap2\n      swap1\n      pop\n      jump\t// out\n        /* \"#utility.yul\":5706:5849   */\n    tag_118:\n        /* \"#utility.yul\":5763:5768   */\n      0x00\n        /* \"#utility.yul\":5794:5800   */\n      dup2\n        /* \"#utility.yul\":5788:5801   */\n      mload\n        /* \"#utility.yul\":5779:5801   */\n      swap1\n      pop\n        /* \"#utility.yul\":5810:5843   */\n      tag_190\n        /* \"#utility.yul\":5837:5842   */\n      dup2\n        /* \"#utility.yul\":5810:5843   */\n      tag_99\n      jump\t// in\n    tag_190:\n        /* \"#utility.yul\":5706:5849   */\n      swap3\n      swap2\n      pop\n      pop\n      jump\t// out\n        /* \"#utility.yul\":5855:6206   */\n    tag_58:\n        /* \"#utility.yul\":5925:5931   */\n      0x00\n        /* \"#utility.yul\":5974:5976   */\n      0x20\n        /* \"#utility.yul\":5962:5971   */\n      dup3\n        /* \"#utility.yul\":5953:5960   */\n      dup5\n        /* \"#utility.yul\":5949:5972   */\n      sub\n        /* \"#utility.yul\":5945:5977   */\n      slt\n        /* \"#utility.yul\":5942:6061   */\n      iszero\n      tag_192\n      jumpi\n        /* \"#utility.yul\":5980:6059   */\n      tag_193\n      tag_96\n      jump\t// in\n    tag_193:\n        /* \"#utility.yul\":5942:6061   */\n    tag_192:\n        /* \"#utility.yul\":6100:6101   */\n      0x00\n        /* \"#utility.yul\":6125:6189   */\n      tag_194\n        /* \"#utility.yul\":6181:6188   */\n      dup5\n        /* \"#utility.yul\":6172:6178   */\n      dup3\n        /* \"#utility.yul\":6161:6170   */\n      dup6\n        /* \"#utility.yul\":6157:6179   */\n      add\n        /* \"#utility.yul\":6125:6189   */\n      tag_118\n      jump\t// in\n    tag_194:\n        /* \"#utility.yul\":6115:6189   */\n      swap2\n      pop\n        /* \"#utility.yul\":6071:6199   */\n      pop\n        /* \"#utility.yul\":5855:6206   */\n      swap3\n      swap2\n      pop\n      pop\n      jump\t// out\n        /* \"#utility.yul\":6212:6392   */\n    tag_119:\n        /* \"#utility.yul\":6260:6337   */\n      0x4e487b7100000000000000000000000000000000000000000000000000000000\n        /* \"#utility.yul\":6257:6258   */\n      0x00\n        /* \"#utility.yul\":6250:6338   */\n      mstore\n        /* \"#utility.yul\":6357:6361   */\n      0x12\n        /* \"#utility.yul\":6354:6355   */\n      0x04\n        /* \"#utility.yul\":6347:6362   */\n      mstore\n        /* \"#utility.yul\":6381:6385   */\n      0x24\n        /* \"#utility.yul\":6378:6379   */\n      0x00\n        /* \"#utility.yul\":6371:6386   */\n      revert\n        /* \"#utility.yul\":6398:6574   */\n    tag_66:\n        /* \"#utility.yul\":6430:6431   */\n      0x00\n        /* \"#utility.yul\":6447:6467   */\n      tag_197\n        /* \"#utility.yul\":6465:6466   */\n      dup3\n        /* \"#utility.yul\":6447:6467   */\n      tag_98\n      jump\t// in\n    tag_197:\n        /* \"#utility.yul\":6442:6467   */\n      swap2\n      pop\n        /* \"#utility.yul\":6481:6501   */\n      tag_198\n        /* \"#utility.yul\":6499:6500   */\n      dup4\n        /* \"#utility.yul\":6481:6501   */\n      tag_98\n      jump\t// in\n    tag_198:\n        /* \"#utility.yul\":6476:6501   */\n      swap3\n      pop\n        /* \"#utility.yul\":6520:6521   */\n      dup3\n        /* \"#utility.yul\":6510:6545   */\n      tag_199\n      jumpi\n        /* \"#utility.yul\":6525:6543   */\n      tag_200\n      tag_119\n      jump\t// in\n    tag_200:\n        /* \"#utility.yul\":6510:6545   */\n    tag_199:\n        /* \"#utility.yul\":6566:6567   */\n      dup3\n        /* \"#utility.yul\":6563:6564   */\n      dup3\n        /* \"#utility.yul\":6559:6568   */\n      mod\n        /* \"#utility.yul\":6554:6568   */\n      swap1\n      pop\n        /* \"#utility.yul\":6398:6574   */\n      swap3\n      swap2\n      pop\n      pop\n      jump\t// out\n        /* \"#utility.yul\":6580:6760   */\n    tag_69:\n        /* \"#utility.yul\":6628:6705   */\n      0x4e487b7100000000000000000000000000000000000000000000000000000000\n        /* \"#utility.yul\":6625:6626   */\n      0x00\n        /* \"#utility.yul\":6618:6706   */\n      mstore\n        /* \"#utility.yul\":6725:6729   */\n      0x32\n        /* \"#utility.yul\":6722:6723   */\n      0x04\n        /* \"#utility.yul\":6715:6730   */\n      mstore\n        /* \"#utility.yul\":6749:6753   */\n      0x24\n        /* \"#utility.yul\":6746:6747   */\n      0x00\n        /* \"#utility.yul\":6739:6754   */\n      revert\n        /* \"#utility.yul\":6766:6900   */\n    tag_120:\n        /* \"#utility.yul\":6824:6833   */\n      0x00\n        /* \"#utility.yul\":6857:6894   */\n      tag_203\n        /* \"#utility.yul\":6888:6893   */\n      dup3\n        /* \"#utility.yul\":6857:6894   */\n      tag_109\n      jump\t// in\n    tag_203:\n        /* \"#utility.yul\":6844:6894   */\n      swap1\n      pop\n        /* \"#utility.yul\":6766:6900   */\n      swap2\n      swap1\n      pop\n      jump\t// out\n        /* \"#utility.yul\":6906:7053   */\n    tag_121:\n        /* \"#utility.yul\":7001:7046   */\n      tag_205\n        /* \"#utility.yul\":7040:7045   */\n      dup2\n        /* \"#utility.yul\":7001:7046   */\n      tag_120\n      jump\t// in\n    tag_205:\n        /* \"#utility.yul\":6996:6999   */\n      dup3\n        /* \"#utility.yul\":6989:7047   */\n      mstore\n        /* \"#utility.yul\":6906:7053   */\n      pop\n      pop\n      jump\t// out\n        /* \"#utility.yul\":7059:7407   */\n    tag_73:\n        /* \"#utility.yul\":7188:7192   */\n      0x00\n        /* \"#utility.yul\":7226:7228   */\n      0x40\n        /* \"#utility.yul\":7215:7224   */\n      dup3\n        /* \"#utility.yul\":7211:7229   */\n      add\n        /* \"#utility.yul\":7203:7229   */\n      swap1\n      pop\n        /* \"#utility.yul\":7239:7318   */\n      tag_207\n        /* \"#utility.yul\":7315:7316   */\n      0x00\n        /* \"#utility.yul\":7304:7313   */\n      dup4\n        /* \"#utility.yul\":7300:7317   */\n      add\n        /* \"#utility.yul\":7291:7297   */\n      dup6\n        /* \"#utility.yul\":7239:7318   */\n      tag_121\n      jump\t// in\n    tag_207:\n        /* \"#utility.yul\":7328:7400   */\n      tag_208\n        /* \"#utility.yul\":7396:7398   */\n      0x20\n        /* \"#utility.yul\":7385:7394   */\n      dup4\n        /* \"#utility.yul\":7381:7399   */\n      add\n        /* \"#utility.yul\":7372:7378   */\n      dup5\n        /* \"#utility.yul\":7328:7400   */\n      tag_106\n      jump\t// in\n    tag_208:\n        /* \"#utility.yul\":7059:7407   */\n      swap4\n      swap3\n      pop\n      pop\n      pop\n      jump\t// out\n        /* \"#utility.yul\":7413:7593   */\n    tag_81:\n        /* \"#utility.yul\":7461:7538   */\n      0x4e487b7100000000000000000000000000000000000000000000000000000000\n        /* \"#utility.yul\":7458:7459   */\n      0x00\n        /* \"#utility.yul\":7451:7539   */\n      mstore\n        /* \"#utility.yul\":7558:7562   */\n      0x41\n        /* \"#utility.yul\":7555:7556   */\n      0x04\n        /* \"#utility.yul\":7548:7563   */\n      mstore\n        /* \"#utility.yul\":7582:7586   */\n      0x24\n        /* \"#utility.yul\":7579:7580   */\n      0x00\n        /* \"#utility.yul\":7572:7587   */\n      revert\n        /* \"#utility.yul\":7599:7678   */\n    tag_122:\n        /* \"#utility.yul\":7638:7645   */\n      0x00\n        /* \"#utility.yul\":7667:7672   */\n      dup2\n        /* \"#utility.yul\":7656:7672   */\n      swap1\n      pop\n        /* \"#utility.yul\":7599:7678   */\n      swap2\n      swap1\n      pop\n      jump\t// out\n        /* \"#utility.yul\":7684:7841   */\n    tag_123:\n        /* \"#utility.yul\":7789:7834   */\n      tag_212\n        /* \"#utility.yul\":7809:7833   */\n      tag_213\n        /* \"#utility.yul\":7827:7832   */\n      dup3\n        /* \"#utility.yul\":7809:7833   */\n      tag_98\n      jump\t// in\n    tag_213:\n        /* \"#utility.yul\":7789:7834   */\n      tag_122\n      jump\t// in\n    tag_212:\n        /* \"#utility.yul\":7784:7787   */\n      dup3\n        /* \"#utility.yul\":7777:7835   */\n      mstore\n        /* \"#utility.yul\":7684:7841   */\n      pop\n      pop\n      jump\t// out\n        /* \"#utility.yul\":7847:8526   */\n    tag_87:\n        /* \"#utility.yul\":8043:8046   */\n      0x00\n        /* \"#utility.yul\":8058:8133   */\n      tag_215\n        /* \"#utility.yul\":8129:8132   */\n      dup3\n        /* \"#utility.yul\":8120:8126   */\n      dup8\n        /* \"#utility.yul\":8058:8133   */\n      tag_123\n      jump\t// in\n    tag_215:\n        /* \"#utility.yul\":8158:8160   */\n      0x20\n        /* \"#utility.yul\":8153:8156   */\n      dup3\n        /* \"#utility.yul\":8149:8161   */\n      add\n        /* \"#utility.yul\":8142:8161   */\n      swap2\n      pop\n        /* \"#utility.yul\":8171:8246   */\n      tag_216\n        /* \"#utility.yul\":8242:8245   */\n      dup3\n        /* \"#utility.yul\":8233:8239   */\n      dup7\n        /* \"#utility.yul\":8171:8246   */\n      tag_123\n      jump\t// in\n    tag_216:\n        /* \"#utility.yul\":8271:8273   */\n      0x20\n        /* \"#utility.yul\":8266:8269   */\n      dup3\n        /* \"#utility.yul\":8262:8274   */\n      add\n        /* \"#utility.yul\":8255:8274   */\n      swap2\n      pop\n        /* \"#utility.yul\":8284:8359   */\n      tag_217\n        /* \"#utility.yul\":8355:8358   */\n      dup3\n        /* \"#utility.yul\":8346:8352   */\n      dup6\n        /* \"#utility.yul\":8284:8359   */\n      tag_123\n      jump\t// in\n    tag_217:\n        /* \"#utility.yul\":8384:8386   */\n      0x20\n        /* \"#utility.yul\":8379:8382   */\n      dup3\n        /* \"#utility.yul\":8375:8387   */\n      add\n        /* \"#utility.yul\":8368:8387   */\n      swap2\n      pop\n        /* \"#utility.yul\":8397:8472   */\n      tag_218\n        /* \"#utility.yul\":8468:8471   */\n      dup3\n        /* \"#utility.yul\":8459:8465   */\n      dup5\n        /* \"#utility.yul\":8397:8472   */\n      tag_123\n      jump\t// in\n    tag_218:\n        /* \"#utility.yul\":8497:8499   */\n      0x20\n        /* \"#utility.yul\":8492:8495   */\n      dup3\n        /* \"#utility.yul\":8488:8500   */\n      add\n        /* \"#utility.yul\":8481:8500   */\n      swap2\n      pop\n        /* \"#utility.yul\":8517:8520   */\n      dup2\n        /* \"#utility.yul\":8510:8520   */\n      swap1\n      pop\n        /* \"#utility.yul\":7847:8526   */\n      swap6\n      swap5\n      pop\n      pop\n      pop\n      pop\n      pop\n      jump\t// out\n\n    auxdata: 0xa264697066735822122065010c2fd05e6362fef165de385474b2ff405df22fe9fcc74cf910298d25dc2264736f6c63430008120033\n}\n",
				"bytecode": {
					"linkReferences": {},
					"object": "608060405234801561001057600080fd5b50604051610dc3380380610dc38339818101604052810190610032919061012e565b33600160006101000a81548173ffffffffffffffffffffffffffffffffffffffff021916908373ffffffffffffffffffffffffffffffffffffffff160217905550806000806101000a81548173ffffffffffffffffffffffffffffffffffffffff021916908373ffffffffffffffffffffffffffffffffffffffff1602179055505061015b565b600080fd5b600073ffffffffffffffffffffffffffffffffffffffff82169050919050565b60006100e9826100be565b9050919050565b60006100fb826100de565b9050919050565b61010b816100f0565b811461011657600080fd5b50565b60008151905061012881610102565b92915050565b600060208284031215610144576101436100b9565b5b600061015284828501610119565b91505092915050565b610c598061016a6000396000f3fe608060405234801561001057600080fd5b506004361061007d5760003560e01c806381b2d07b1161005b57806381b2d07b146100ec5780638e71decb1461010a578063dfbf53ae14610114578063fc0c546a146101325761007d565b806335c1d34914610082578063481c6a75146100b25780637dc379fa146100d0575b600080fd5b61009c600480360381019061009791906107e8565b610150565b6040516100a99190610856565b60405180910390f35b6100ba61018f565b6040516100c79190610892565b60405180910390f35b6100ea60048036038101906100e591906107e8565b6101b5565b005b6100f461030e565b60405161010191906108bc565b60405180910390f35b610112610409565b005b61011c610680565b6040516101299190610892565b60405180910390f35b61013a6106a6565b6040516101479190610936565b60405180910390f35b6002818154811061016057600080fd5b906000526020600020016000915054906101000a900473ffffffffffffffffffffffffffffffffffffffff1681565b600160009054906101000a900473ffffffffffffffffffffffffffffffffffffffff1681565b670de0b6b3a764000081146101c957600080fd5b60008054906101000a900473ffffffffffffffffffffffffffffffffffffffff1673ffffffffffffffffffffffffffffffffffffffff166323b872dd3330846040518463ffffffff1660e01b815260040161022693929190610951565b6020604051808303816000875af1158015610245573d6000803e3d6000fd5b505050506040513d601f19601f8201168201806040525081019061026991906109c0565b6102a8576040517f08c379a000000000000000000000000000000000000000000000000000000000815260040161029f90610a4a565b60405180910390fd5b6002339080600181540180825580915050600190039060005260206000200160009091909190916101000a81548173ffffffffffffffffffffffffffffffffffffffff021916908373ffffffffffffffffffffffffffffffffffffffff16021790555050565b6000600160009054906101000a900473ffffffffffffffffffffffffffffffffffffffff1673ffffffffffffffffffffffffffffffffffffffff163373ffffffffffffffffffffffffffffffffffffffff161461036a57600080fd5b60008054906101000a900473ffffffffffffffffffffffffffffffffffffffff1673ffffffffffffffffffffffffffffffffffffffff166370a08231306040518263ffffffff1660e01b81526004016103c39190610892565b602060405180830381865afa1580156103e0573d6000803e3d6000fd5b505050506040513d601f19601f820116820180604052508101906104049190610a7f565b905090565b600160009054906101000a900473ffffffffffffffffffffffffffffffffffffffff1673ffffffffffffffffffffffffffffffffffffffff163373ffffffffffffffffffffffffffffffffffffffff161461046357600080fd5b6003600280549050101561047657600080fd5b60006104806106ca565b90506000600280549050826104959190610adb565b9050600281815481106104ab576104aa610b0c565b5b9060005260206000200160009054906101000a900473ffffffffffffffffffffffffffffffffffffffff16600360006101000a81548173ffffffffffffffffffffffffffffffffffffffff021916908373ffffffffffffffffffffffffffffffffffffffff16021790555060008054906101000a900473ffffffffffffffffffffffffffffffffffffffff1673ffffffffffffffffffffffffffffffffffffffff1663a9059cbb600360009054906101000a900473ffffffffffffffffffffffffffffffffffffffff1661057d61030e565b6040518363ffffffff1660e01b815260040161059a929190610b5c565b6020604051808303816000875af11580156105b9573d6000803e3d6000fd5b505050506040513d601f19601f820116820180604052508101906105dd91906109c0565b61061c576040517f08c379a000000000000000000000000000000000000000000000000000000000815260040161061390610a4a565b60405180910390fd5b600067ffffffffffffffff81111561063757610636610b85565b5b6040519080825280602002602001820160405280156106655781602001602082028036833780820191505090505b506002908051906020019061067b929190610706565b505050565b600360009054906101000a900473ffffffffffffffffffffffffffffffffffffffff1681565b60008054906101000a900473ffffffffffffffffffffffffffffffffffffffff1681565b60004344426002805490506040516020016106e89493929190610bd5565b6040516020818303038152906040528051906020012060001c905090565b82805482825590600052602060002090810192821561077f579160200282015b8281111561077e5782518260006101000a81548173ffffffffffffffffffffffffffffffffffffffff021916908373ffffffffffffffffffffffffffffffffffffffff16021790555091602001919060010190610726565b5b50905061078c9190610790565b5090565b5b808211156107a9576000816000905550600101610791565b5090565b600080fd5b6000819050919050565b6107c5816107b2565b81146107d057600080fd5b50565b6000813590506107e2816107bc565b92915050565b6000602082840312156107fe576107fd6107ad565b5b600061080c848285016107d3565b91505092915050565b600073ffffffffffffffffffffffffffffffffffffffff82169050919050565b600061084082610815565b9050919050565b61085081610835565b82525050565b600060208201905061086b6000830184610847565b92915050565b600061087c82610815565b9050919050565b61088c81610871565b82525050565b60006020820190506108a76000830184610883565b92915050565b6108b6816107b2565b82525050565b60006020820190506108d160008301846108ad565b92915050565b6000819050919050565b60006108fc6108f76108f284610815565b6108d7565b610815565b9050919050565b600061090e826108e1565b9050919050565b600061092082610903565b9050919050565b61093081610915565b82525050565b600060208201905061094b6000830184610927565b92915050565b60006060820190506109666000830186610883565b6109736020830185610883565b61098060408301846108ad565b949350505050565b60008115159050919050565b61099d81610988565b81146109a857600080fd5b50565b6000815190506109ba81610994565b92915050565b6000602082840312156109d6576109d56107ad565b5b60006109e4848285016109ab565b91505092915050565b600082825260208201905092915050565b7f5472616e73616374696f6e20756e7375636365737366756c0000000000000000600082015250565b6000610a346018836109ed565b9150610a3f826109fe565b602082019050919050565b60006020820190508181036000830152610a6381610a27565b9050919050565b600081519050610a79816107bc565b92915050565b600060208284031215610a9557610a946107ad565b5b6000610aa384828501610a6a565b91505092915050565b7f4e487b7100000000000000000000000000000000000000000000000000000000600052601260045260246000fd5b6000610ae6826107b2565b9150610af1836107b2565b925082610b0157610b00610aac565b5b828206905092915050565b7f4e487b7100000000000000000000000000000000000000000000000000000000600052603260045260246000fd5b6000610b4682610903565b9050919050565b610b5681610b3b565b82525050565b6000604082019050610b716000830185610b4d565b610b7e60208301846108ad565b9392505050565b7f4e487b7100000000000000000000000000000000000000000000000000000000600052604160045260246000fd5b6000819050919050565b610bcf610bca826107b2565b610bb4565b82525050565b6000610be18287610bbe565b602082019150610bf18286610bbe565b602082019150610c018285610bbe565b602082019150610c118284610bbe565b6020820191508190509594505050505056fea264697066735822122065010c2fd05e6362fef165de385474b2ff405df22fe9fcc74cf910298d25dc2264736f6c63430008120033",
					"opcodes": "PUSH1 0x80 PUSH1 0x40 MSTORE CALLVALUE DUP1 ISZERO PUSH2 0x10 JUMPI PUSH1 0x0 DUP1 REVERT JUMPDEST POP PUSH1 0x40 MLOAD PUSH2 0xDC3 CODESIZE SUB DUP1 PUSH2 0xDC3 DUP4 CODECOPY DUP2 DUP2 ADD PUSH1 0x40 MSTORE DUP2 ADD SWAP1 PUSH2 0x32 SWAP2 SWAP1 PUSH2 0x12E JUMP JUMPDEST CALLER PUSH1 0x1 PUSH1 0x0 PUSH2 0x100 EXP DUP2 SLOAD DUP2 PUSH20 0xFFFFFFFFFFFFFFFFFFFFFFFFFFFFFFFFFFFFFFFF MUL NOT AND SWAP1 DUP4 PUSH20 0xFFFFFFFFFFFFFFFFFFFFFFFFFFFFFFFFFFFFFFFF AND MUL OR SWAP1 SSTORE POP DUP1 PUSH1 0x0 DUP1 PUSH2 0x100 EXP DUP2 SLOAD DUP2 PUSH20 0xFFFFFFFFFFFFFFFFFFFFFFFFFFFFFFFFFFFFFFFF MUL NOT AND SWAP1 DUP4 PUSH20 0xFFFFFFFFFFFFFFFFFFFFFFFFFFFFFFFFFFFFFFFF AND MUL OR SWAP1 SSTORE POP POP PUSH2 0x15B JUMP JUMPDEST PUSH1 0x0 DUP1 REVERT JUMPDEST PUSH1 0x0 PUSH20 0xFFFFFFFFFFFFFFFFFFFFFFFFFFFFFFFFFFFFFFFF DUP3 AND SWAP1 POP SWAP2 SWAP1 POP JUMP JUMPDEST PUSH1 0x0 PUSH2 0xE9 DUP3 PUSH2 0xBE JUMP JUMPDEST SWAP1 POP SWAP2 SWAP1 POP JUMP JUMPDEST PUSH1 0x0 PUSH2 0xFB DUP3 PUSH2 0xDE JUMP JUMPDEST SWAP1 POP SWAP2 SWAP1 POP JUMP JUMPDEST PUSH2 0x10B DUP2 PUSH2 0xF0 JUMP JUMPDEST DUP2 EQ PUSH2 0x116 JUMPI PUSH1 0x0 DUP1 REVERT JUMPDEST POP JUMP JUMPDEST PUSH1 0x0 DUP2 MLOAD SWAP1 POP PUSH2 0x128 DUP2 PUSH2 0x102 JUMP JUMPDEST SWAP3 SWAP2 POP POP JUMP JUMPDEST PUSH1 0x0 PUSH1 0x20 DUP3 DUP5 SUB SLT ISZERO PUSH2 0x144 JUMPI PUSH2 0x143 PUSH2 0xB9 JUMP JUMPDEST JUMPDEST PUSH1 0x0 PUSH2 0x152 DUP5 DUP3 DUP6 ADD PUSH2 0x119 JUMP JUMPDEST SWAP2 POP POP SWAP3 SWAP2 POP POP JUMP JUMPDEST PUSH2 0xC59 DUP1 PUSH2 0x16A PUSH1 0x0 CODECOPY PUSH1 0x0 RETURN INVALID PUSH1 0x80 PUSH1 0x40 MSTORE CALLVALUE DUP1 ISZERO PUSH2 0x10 JUMPI PUSH1 0x0 DUP1 REVERT JUMPDEST POP PUSH1 0x4 CALLDATASIZE LT PUSH2 0x7D JUMPI PUSH1 0x0 CALLDATALOAD PUSH1 0xE0 SHR DUP1 PUSH4 0x81B2D07B GT PUSH2 0x5B JUMPI DUP1 PUSH4 0x81B2D07B EQ PUSH2 0xEC JUMPI DUP1 PUSH4 0x8E71DECB EQ PUSH2 0x10A JUMPI DUP1 PUSH4 0xDFBF53AE EQ PUSH2 0x114 JUMPI DUP1 PUSH4 0xFC0C546A EQ PUSH2 0x132 JUMPI PUSH2 0x7D JUMP JUMPDEST DUP1 PUSH4 0x35C1D349 EQ PUSH2 0x82 JUMPI DUP1 PUSH4 0x481C6A75 EQ PUSH2 0xB2 JUMPI DUP1 PUSH4 0x7DC379FA EQ PUSH2 0xD0 JUMPI JUMPDEST PUSH1 0x0 DUP1 REVERT JUMPDEST PUSH2 0x9C PUSH1 0x4 DUP1 CALLDATASIZE SUB DUP2 ADD SWAP1 PUSH2 0x97 SWAP2 SWAP1 PUSH2 0x7E8 JUMP JUMPDEST PUSH2 0x150 JUMP JUMPDEST PUSH1 0x40 MLOAD PUSH2 0xA9 SWAP2 SWAP1 PUSH2 0x856 JUMP JUMPDEST PUSH1 0x40 MLOAD DUP1 SWAP2 SUB SWAP1 RETURN JUMPDEST PUSH2 0xBA PUSH2 0x18F JUMP JUMPDEST PUSH1 0x40 MLOAD PUSH2 0xC7 SWAP2 SWAP1 PUSH2 0x892 JUMP JUMPDEST PUSH1 0x40 MLOAD DUP1 SWAP2 SUB SWAP1 RETURN JUMPDEST PUSH2 0xEA PUSH1 0x4 DUP1 CALLDATASIZE SUB DUP2 ADD SWAP1 PUSH2 0xE5 SWAP2 SWAP1 PUSH2 0x7E8 JUMP JUMPDEST PUSH2 0x1B5 JUMP JUMPDEST STOP JUMPDEST PUSH2 0xF4 PUSH2 0x30E JUMP JUMPDEST PUSH1 0x40 MLOAD PUSH2 0x101 SWAP2 SWAP1 PUSH2 0x8BC JUMP JUMPDEST PUSH1 0x40 MLOAD DUP1 SWAP2 SUB SWAP1 RETURN JUMPDEST PUSH2 0x112 PUSH2 0x409 JUMP JUMPDEST STOP JUMPDEST PUSH2 0x11C PUSH2 0x680 JUMP JUMPDEST PUSH1 0x40 MLOAD PUSH2 0x129 SWAP2 SWAP1 PUSH2 0x892 JUMP JUMPDEST PUSH1 0x40 MLOAD DUP1 SWAP2 SUB SWAP1 RETURN JUMPDEST PUSH2 0x13A PUSH2 0x6A6 JUMP JUMPDEST PUSH1 0x40 MLOAD PUSH2 0x147 SWAP2 SWAP1 PUSH2 0x936 JUMP JUMPDEST PUSH1 0x40 MLOAD DUP1 SWAP2 SUB SWAP1 RETURN JUMPDEST PUSH1 0x2 DUP2 DUP2 SLOAD DUP2 LT PUSH2 0x160 JUMPI PUSH1 0x0 DUP1 REVERT JUMPDEST SWAP1 PUSH1 0x0 MSTORE PUSH1 0x20 PUSH1 0x0 KECCAK256 ADD PUSH1 0x0 SWAP2 POP SLOAD SWAP1 PUSH2 0x100 EXP SWAP1 DIV PUSH20 0xFFFFFFFFFFFFFFFFFFFFFFFFFFFFFFFFFFFFFFFF AND DUP2 JUMP JUMPDEST PUSH1 0x1 PUSH1 0x0 SWAP1 SLOAD SWAP1 PUSH2 0x100 EXP SWAP1 DIV PUSH20 0xFFFFFFFFFFFFFFFFFFFFFFFFFFFFFFFFFFFFFFFF AND DUP2 JUMP JUMPDEST PUSH8 0xDE0B6B3A7640000 DUP2 EQ PUSH2 0x1C9 JUMPI PUSH1 0x0 DUP1 REVERT JUMPDEST PUSH1 0x0 DUP1 SLOAD SWAP1 PUSH2 0x100 EXP SWAP1 DIV PUSH20 0xFFFFFFFFFFFFFFFFFFFFFFFFFFFFFFFFFFFFFFFF AND PUSH20 0xFFFFFFFFFFFFFFFFFFFFFFFFFFFFFFFFFFFFFFFF AND PUSH4 0x23B872DD CALLER ADDRESS DUP5 PUSH1 0x40 MLOAD DUP5 PUSH4 0xFFFFFFFF AND PUSH1 0xE0 SHL DUP2 MSTORE PUSH1 0x4 ADD PUSH2 0x226 SWAP4 SWAP3 SWAP2 SWAP1 PUSH2 0x951 JUMP JUMPDEST PUSH1 0x20 PUSH1 0x40 MLOAD DUP1 DUP4 SUB DUP2 PUSH1 0x0 DUP8 GAS CALL ISZERO DUP1 ISZERO PUSH2 0x245 JUMPI RETURNDATASIZE PUSH1 0x0 DUP1 RETURNDATACOPY RETURNDATASIZE PUSH1 0x0 REVERT JUMPDEST POP POP POP POP PUSH1 0x40 MLOAD RETURNDATASIZE PUSH1 0x1F NOT PUSH1 0x1F DUP3 ADD AND DUP3 ADD DUP1 PUSH1 0x40 MSTORE POP DUP2 ADD SWAP1 PUSH2 0x269 SWAP2 SWAP1 PUSH2 0x9C0 JUMP JUMPDEST PUSH2 0x2A8 JUMPI PUSH1 0x40 MLOAD PUSH32 0x8C379A000000000000000000000000000000000000000000000000000000000 DUP2 MSTORE PUSH1 0x4 ADD PUSH2 0x29F SWAP1 PUSH2 0xA4A JUMP JUMPDEST PUSH1 0x40 MLOAD DUP1 SWAP2 SUB SWAP1 REVERT JUMPDEST PUSH1 0x2 CALLER SWAP1 DUP1 PUSH1 0x1 DUP2 SLOAD ADD DUP1 DUP3 SSTORE DUP1 SWAP2 POP POP PUSH1 0x1 SWAP1 SUB SWAP1 PUSH1 0x0 MSTORE PUSH1 0x20 PUSH1 0x0 KECCAK256 ADD PUSH1 0x0 SWAP1 SWAP2 SWAP1 SWAP2 SWAP1 SWAP2 PUSH2 0x100 EXP DUP2 SLOAD DUP2 PUSH20 0xFFFFFFFFFFFFFFFFFFFFFFFFFFFFFFFFFFFFFFFF MUL NOT AND SWAP1 DUP4 PUSH20 0xFFFFFFFFFFFFFFFFFFFFFFFFFFFFFFFFFFFFFFFF AND MUL OR SWAP1 SSTORE POP POP JUMP JUMPDEST PUSH1 0x0 PUSH1 0x1 PUSH1 0x0 SWAP1 SLOAD SWAP1 PUSH2 0x100 EXP SWAP1 DIV PUSH20 0xFFFFFFFFFFFFFFFFFFFFFFFFFFFFFFFFFFFFFFFF AND PUSH20 0xFFFFFFFFFFFFFFFFFFFFFFFFFFFFFFFFFFFFFFFF AND CALLER PUSH20 0xFFFFFFFFFFFFFFFFFFFFFFFFFFFFFFFFFFFFFFFF AND EQ PUSH2 0x36A JUMPI PUSH1 0x0 DUP1 REVERT JUMPDEST PUSH1 0x0 DUP1 SLOAD SWAP1 PUSH2 0x100 EXP SWAP1 DIV PUSH20 0xFFFFFFFFFFFFFFFFFFFFFFFFFFFFFFFFFFFFFFFF AND PUSH20 0xFFFFFFFFFFFFFFFFFFFFFFFFFFFFFFFFFFFFFFFF AND PUSH4 0x70A08231 ADDRESS PUSH1 0x40 MLOAD DUP3 PUSH4 0xFFFFFFFF AND PUSH1 0xE0 SHL DUP2 MSTORE PUSH1 0x4 ADD PUSH2 0x3C3 SWAP2 SWAP1 PUSH2 0x892 JUMP JUMPDEST PUSH1 0x20 PUSH1 0x40 MLOAD DUP1 DUP4 SUB DUP2 DUP7 GAS STATICCALL ISZERO DUP1 ISZERO PUSH2 0x3E0 JUMPI RETURNDATASIZE PUSH1 0x0 DUP1 RETURNDATACOPY RETURNDATASIZE PUSH1 0x0 REVERT JUMPDEST POP POP POP POP PUSH1 0x40 MLOAD RETURNDATASIZE PUSH1 0x1F NOT PUSH1 0x1F DUP3 ADD AND DUP3 ADD DUP1 PUSH1 0x40 MSTORE POP DUP2 ADD SWAP1 PUSH2 0x404 SWAP2 SWAP1 PUSH2 0xA7F JUMP JUMPDEST SWAP1 POP SWAP1 JUMP JUMPDEST PUSH1 0x1 PUSH1 0x0 SWAP1 SLOAD SWAP1 PUSH2 0x100 EXP SWAP1 DIV PUSH20 0xFFFFFFFFFFFFFFFFFFFFFFFFFFFFFFFFFFFFFFFF AND PUSH20 0xFFFFFFFFFFFFFFFFFFFFFFFFFFFFFFFFFFFFFFFF AND CALLER PUSH20 0xFFFFFFFFFFFFFFFFFFFFFFFFFFFFFFFFFFFFFFFF AND EQ PUSH2 0x463 JUMPI PUSH1 0x0 DUP1 REVERT JUMPDEST PUSH1 0x3 PUSH1 0x2 DUP1 SLOAD SWAP1 POP LT ISZERO PUSH2 0x476 JUMPI PUSH1 0x0 DUP1 REVERT JUMPDEST PUSH1 0x0 PUSH2 0x480 PUSH2 0x6CA JUMP JUMPDEST SWAP1 POP PUSH1 0x0 PUSH1 0x2 DUP1 SLOAD SWAP1 POP DUP3 PUSH2 0x495 SWAP2 SWAP1 PUSH2 0xADB JUMP JUMPDEST SWAP1 POP PUSH1 0x2 DUP2 DUP2 SLOAD DUP2 LT PUSH2 0x4AB JUMPI PUSH2 0x4AA PUSH2 0xB0C JUMP JUMPDEST JUMPDEST SWAP1 PUSH1 0x0 MSTORE PUSH1 0x20 PUSH1 0x0 KECCAK256 ADD PUSH1 0x0 SWAP1 SLOAD SWAP1 PUSH2 0x100 EXP SWAP1 DIV PUSH20 0xFFFFFFFFFFFFFFFFFFFFFFFFFFFFFFFFFFFFFFFF AND PUSH1 0x3 PUSH1 0x0 PUSH2 0x100 EXP DUP2 SLOAD DUP2 PUSH20 0xFFFFFFFFFFFFFFFFFFFFFFFFFFFFFFFFFFFFFFFF MUL NOT AND SWAP1 DUP4 PUSH20 0xFFFFFFFFFFFFFFFFFFFFFFFFFFFFFFFFFFFFFFFF AND MUL OR SWAP1 SSTORE POP PUSH1 0x0 DUP1 SLOAD SWAP1 PUSH2 0x100 EXP SWAP1 DIV PUSH20 0xFFFFFFFFFFFFFFFFFFFFFFFFFFFFFFFFFFFFFFFF AND PUSH20 0xFFFFFFFFFFFFFFFFFFFFFFFFFFFFFFFFFFFFFFFF AND PUSH4 0xA9059CBB PUSH1 0x3 PUSH1 0x0 SWAP1 SLOAD SWAP1 PUSH2 0x100 EXP SWAP1 DIV PUSH20 0xFFFFFFFFFFFFFFFFFFFFFFFFFFFFFFFFFFFFFFFF AND PUSH2 0x57D PUSH2 0x30E JUMP JUMPDEST PUSH1 0x40 MLOAD DUP4 PUSH4 0xFFFFFFFF AND PUSH1 0xE0 SHL DUP2 MSTORE PUSH1 0x4 ADD PUSH2 0x59A SWAP3 SWAP2 SWAP1 PUSH2 0xB5C JUMP JUMPDEST PUSH1 0x20 PUSH1 0x40 MLOAD DUP1 DUP4 SUB DUP2 PUSH1 0x0 DUP8 GAS CALL ISZERO DUP1 ISZERO PUSH2 0x5B9 JUMPI RETURNDATASIZE PUSH1 0x0 DUP1 RETURNDATACOPY RETURNDATASIZE PUSH1 0x0 REVERT JUMPDEST POP POP POP POP PUSH1 0x40 MLOAD RETURNDATASIZE PUSH1 0x1F NOT PUSH1 0x1F DUP3 ADD AND DUP3 ADD DUP1 PUSH1 0x40 MSTORE POP DUP2 ADD SWAP1 PUSH2 0x5DD SWAP2 SWAP1 PUSH2 0x9C0 JUMP JUMPDEST PUSH2 0x61C JUMPI PUSH1 0x40 MLOAD PUSH32 0x8C379A000000000000000000000000000000000000000000000000000000000 DUP2 MSTORE PUSH1 0x4 ADD PUSH2 0x613 SWAP1 PUSH2 0xA4A JUMP JUMPDEST PUSH1 0x40 MLOAD DUP1 SWAP2 SUB SWAP1 REVERT JUMPDEST PUSH1 0x0 PUSH8 0xFFFFFFFFFFFFFFFF DUP2 GT ISZERO PUSH2 0x637 JUMPI PUSH2 0x636 PUSH2 0xB85 JUMP JUMPDEST JUMPDEST PUSH1 0x40 MLOAD SWAP1 DUP1 DUP3 MSTORE DUP1 PUSH1 0x20 MUL PUSH1 0x20 ADD DUP3 ADD PUSH1 0x40 MSTORE DUP1 ISZERO PUSH2 0x665 JUMPI DUP2 PUSH1 0x20 ADD PUSH1 0x20 DUP3 MUL DUP1 CALLDATASIZE DUP4 CALLDATACOPY DUP1 DUP3 ADD SWAP2 POP POP SWAP1 POP JUMPDEST POP PUSH1 0x2 SWAP1 DUP1 MLOAD SWAP1 PUSH1 0x20 ADD SWAP1 PUSH2 0x67B SWAP3 SWAP2 SWAP1 PUSH2 0x706 JUMP JUMPDEST POP POP POP JUMP JUMPDEST PUSH1 0x3 PUSH1 0x0 SWAP1 SLOAD SWAP1 PUSH2 0x100 EXP SWAP1 DIV PUSH20 0xFFFFFFFFFFFFFFFFFFFFFFFFFFFFFFFFFFFFFFFF AND DUP2 JUMP JUMPDEST PUSH1 0x0 DUP1 SLOAD SWAP1 PUSH2 0x100 EXP SWAP1 DIV PUSH20 0xFFFFFFFFFFFFFFFFFFFFFFFFFFFFFFFFFFFFFFFF AND DUP2 JUMP JUMPDEST PUSH1 0x0 NUMBER PREVRANDAO TIMESTAMP PUSH1 0x2 DUP1 SLOAD SWAP1 POP PUSH1 0x40 MLOAD PUSH1 0x20 ADD PUSH2 0x6E8 SWAP5 SWAP4 SWAP3 SWAP2 SWAP1 PUSH2 0xBD5 JUMP JUMPDEST PUSH1 0x40 MLOAD PUSH1 0x20 DUP2 DUP4 SUB SUB DUP2 MSTORE SWAP1 PUSH1 0x40 MSTORE DUP1 MLOAD SWAP1 PUSH1 0x20 ADD KECCAK256 PUSH1 0x0 SHR SWAP1 POP SWAP1 JUMP JUMPDEST DUP3 DUP1 SLOAD DUP3 DUP3 SSTORE SWAP1 PUSH1 0x0 MSTORE PUSH1 0x20 PUSH1 0x0 KECCAK256 SWAP1 DUP2 ADD SWAP3 DUP3 ISZERO PUSH2 0x77F JUMPI SWAP2 PUSH1 0x20 MUL DUP3 ADD JUMPDEST DUP3 DUP2 GT ISZERO PUSH2 0x77E JUMPI DUP3 MLOAD DUP3 PUSH1 0x0 PUSH2 0x100 EXP DUP2 SLOAD DUP2 PUSH20 0xFFFFFFFFFFFFFFFFFFFFFFFFFFFFFFFFFFFFFFFF MUL NOT AND SWAP1 DUP4 PUSH20 0xFFFFFFFFFFFFFFFFFFFFFFFFFFFFFFFFFFFFFFFF AND MUL OR SWAP1 SSTORE POP SWAP2 PUSH1 0x20 ADD SWAP2 SWAP1 PUSH1 0x1 ADD SWAP1 PUSH2 0x726 JUMP JUMPDEST JUMPDEST POP SWAP1 POP PUSH2 0x78C SWAP2 SWAP1 PUSH2 0x790 JUMP JUMPDEST POP SWAP1 JUMP JUMPDEST JUMPDEST DUP1 DUP3 GT ISZERO PUSH2 0x7A9 JUMPI PUSH1 0x0 DUP2 PUSH1 0x0 SWAP1 SSTORE POP PUSH1 0x1 ADD PUSH2 0x791 JUMP JUMPDEST POP SWAP1 JUMP JUMPDEST PUSH1 0x0 DUP1 REVERT JUMPDEST PUSH1 0x0 DUP2 SWAP1 POP SWAP2 SWAP1 POP JUMP JUMPDEST PUSH2 0x7C5 DUP2 PUSH2 0x7B2 JUMP JUMPDEST DUP2 EQ PUSH2 0x7D0 JUMPI PUSH1 0x0 DUP1 REVERT JUMPDEST POP JUMP JUMPDEST PUSH1 0x0 DUP2 CALLDATALOAD SWAP1 POP PUSH2 0x7E2 DUP2 PUSH2 0x7BC JUMP JUMPDEST SWAP3 SWAP2 POP POP JUMP JUMPDEST PUSH1 0x0 PUSH1 0x20 DUP3 DUP5 SUB SLT ISZERO PUSH2 0x7FE JUMPI PUSH2 0x7FD PUSH2 0x7AD JUMP JUMPDEST JUMPDEST PUSH1 0x0 PUSH2 0x80C DUP5 DUP3 DUP6 ADD PUSH2 0x7D3 JUMP JUMPDEST SWAP2 POP POP SWAP3 SWAP2 POP POP JUMP JUMPDEST PUSH1 0x0 PUSH20 0xFFFFFFFFFFFFFFFFFFFFFFFFFFFFFFFFFFFFFFFF DUP3 AND SWAP1 POP SWAP2 SWAP1 POP JUMP JUMPDEST PUSH1 0x0 PUSH2 0x840 DUP3 PUSH2 0x815 JUMP JUMPDEST SWAP1 POP SWAP2 SWAP1 POP JUMP JUMPDEST PUSH2 0x850 DUP2 PUSH2 0x835 JUMP JUMPDEST DUP3 MSTORE POP POP JUMP JUMPDEST PUSH1 0x0 PUSH1 0x20 DUP3 ADD SWAP1 POP PUSH2 0x86B PUSH1 0x0 DUP4 ADD DUP5 PUSH2 0x847 JUMP JUMPDEST SWAP3 SWAP2 POP POP JUMP JUMPDEST PUSH1 0x0 PUSH2 0x87C DUP3 PUSH2 0x815 JUMP JUMPDEST SWAP1 POP SWAP2 SWAP1 POP JUMP JUMPDEST PUSH2 0x88C DUP2 PUSH2 0x871 JUMP JUMPDEST DUP3 MSTORE POP POP JUMP JUMPDEST PUSH1 0x0 PUSH1 0x20 DUP3 ADD SWAP1 POP PUSH2 0x8A7 PUSH1 0x0 DUP4 ADD DUP5 PUSH2 0x883 JUMP JUMPDEST SWAP3 SWAP2 POP POP JUMP JUMPDEST PUSH2 0x8B6 DUP2 PUSH2 0x7B2 JUMP JUMPDEST DUP3 MSTORE POP POP JUMP JUMPDEST PUSH1 0x0 PUSH1 0x20 DUP3 ADD SWAP1 POP PUSH2 0x8D1 PUSH1 0x0 DUP4 ADD DUP5 PUSH2 0x8AD JUMP JUMPDEST SWAP3 SWAP2 POP POP JUMP JUMPDEST PUSH1 0x0 DUP2 SWAP1 POP SWAP2 SWAP1 POP JUMP JUMPDEST PUSH1 0x0 PUSH2 0x8FC PUSH2 0x8F7 PUSH2 0x8F2 DUP5 PUSH2 0x815 JUMP JUMPDEST PUSH2 0x8D7 JUMP JUMPDEST PUSH2 0x815 JUMP JUMPDEST SWAP1 POP SWAP2 SWAP1 POP JUMP JUMPDEST PUSH1 0x0 PUSH2 0x90E DUP3 PUSH2 0x8E1 JUMP JUMPDEST SWAP1 POP SWAP2 SWAP1 POP JUMP JUMPDEST PUSH1 0x0 PUSH2 0x920 DUP3 PUSH2 0x903 JUMP JUMPDEST SWAP1 POP SWAP2 SWAP1 POP JUMP JUMPDEST PUSH2 0x930 DUP2 PUSH2 0x915 JUMP JUMPDEST DUP3 MSTORE POP POP JUMP JUMPDEST PUSH1 0x0 PUSH1 0x20 DUP3 ADD SWAP1 POP PUSH2 0x94B PUSH1 0x0 DUP4 ADD DUP5 PUSH2 0x927 JUMP JUMPDEST SWAP3 SWAP2 POP POP JUMP JUMPDEST PUSH1 0x0 PUSH1 0x60 DUP3 ADD SWAP1 POP PUSH2 0x966 PUSH1 0x0 DUP4 ADD DUP7 PUSH2 0x883 JUMP JUMPDEST PUSH2 0x973 PUSH1 0x20 DUP4 ADD DUP6 PUSH2 0x883 JUMP JUMPDEST PUSH2 0x980 PUSH1 0x40 DUP4 ADD DUP5 PUSH2 0x8AD JUMP JUMPDEST SWAP5 SWAP4 POP POP POP POP JUMP JUMPDEST PUSH1 0x0 DUP2 ISZERO ISZERO SWAP1 POP SWAP2 SWAP1 POP JUMP JUMPDEST PUSH2 0x99D DUP2 PUSH2 0x988 JUMP JUMPDEST DUP2 EQ PUSH2 0x9A8 JUMPI PUSH1 0x0 DUP1 REVERT JUMPDEST POP JUMP JUMPDEST PUSH1 0x0 DUP2 MLOAD SWAP1 POP PUSH2 0x9BA DUP2 PUSH2 0x994 JUMP JUMPDEST SWAP3 SWAP2 POP POP JUMP JUMPDEST PUSH1 0x0 PUSH1 0x20 DUP3 DUP5 SUB SLT ISZERO PUSH2 0x9D6 JUMPI PUSH2 0x9D5 PUSH2 0x7AD JUMP JUMPDEST JUMPDEST PUSH1 0x0 PUSH2 0x9E4 DUP5 DUP3 DUP6 ADD PUSH2 0x9AB JUMP JUMPDEST SWAP2 POP POP SWAP3 SWAP2 POP POP JUMP JUMPDEST PUSH1 0x0 DUP3 DUP3 MSTORE PUSH1 0x20 DUP3 ADD SWAP1 POP SWAP3 SWAP2 POP POP JUMP JUMPDEST PUSH32 0x5472616E73616374696F6E20756E7375636365737366756C0000000000000000 PUSH1 0x0 DUP3 ADD MSTORE POP JUMP JUMPDEST PUSH1 0x0 PUSH2 0xA34 PUSH1 0x18 DUP4 PUSH2 0x9ED JUMP JUMPDEST SWAP2 POP PUSH2 0xA3F DUP3 PUSH2 0x9FE JUMP JUMPDEST PUSH1 0x20 DUP3 ADD SWAP1 POP SWAP2 SWAP1 POP JUMP JUMPDEST PUSH1 0x0 PUSH1 0x20 DUP3 ADD SWAP1 POP DUP2 DUP2 SUB PUSH1 0x0 DUP4 ADD MSTORE PUSH2 0xA63 DUP2 PUSH2 0xA27 JUMP JUMPDEST SWAP1 POP SWAP2 SWAP1 POP JUMP JUMPDEST PUSH1 0x0 DUP2 MLOAD SWAP1 POP PUSH2 0xA79 DUP2 PUSH2 0x7BC JUMP JUMPDEST SWAP3 SWAP2 POP POP JUMP JUMPDEST PUSH1 0x0 PUSH1 0x20 DUP3 DUP5 SUB SLT ISZERO PUSH2 0xA95 JUMPI PUSH2 0xA94 PUSH2 0x7AD JUMP JUMPDEST JUMPDEST PUSH1 0x0 PUSH2 0xAA3 DUP5 DUP3 DUP6 ADD PUSH2 0xA6A JUMP JUMPDEST SWAP2 POP POP SWAP3 SWAP2 POP POP JUMP JUMPDEST PUSH32 0x4E487B7100000000000000000000000000000000000000000000000000000000 PUSH1 0x0 MSTORE PUSH1 0x12 PUSH1 0x4 MSTORE PUSH1 0x24 PUSH1 0x0 REVERT JUMPDEST PUSH1 0x0 PUSH2 0xAE6 DUP3 PUSH2 0x7B2 JUMP JUMPDEST SWAP2 POP PUSH2 0xAF1 DUP4 PUSH2 0x7B2 JUMP JUMPDEST SWAP3 POP DUP3 PUSH2 0xB01 JUMPI PUSH2 0xB00 PUSH2 0xAAC JUMP JUMPDEST JUMPDEST DUP3 DUP3 MOD SWAP1 POP SWAP3 SWAP2 POP POP JUMP JUMPDEST PUSH32 0x4E487B7100000000000000000000000000000000000000000000000000000000 PUSH1 0x0 MSTORE PUSH1 0x32 PUSH1 0x4 MSTORE PUSH1 0x24 PUSH1 0x0 REVERT JUMPDEST PUSH1 0x0 PUSH2 0xB46 DUP3 PUSH2 0x903 JUMP JUMPDEST SWAP1 POP SWAP2 SWAP1 POP JUMP JUMPDEST PUSH2 0xB56 DUP2 PUSH2 0xB3B JUMP JUMPDEST DUP3 MSTORE POP POP JUMP JUMPDEST PUSH1 0x0 PUSH1 0x40 DUP3 ADD SWAP1 POP PUSH2 0xB71 PUSH1 0x0 DUP4 ADD DUP6 PUSH2 0xB4D JUMP JUMPDEST PUSH2 0xB7E PUSH1 0x20 DUP4 ADD DUP5 PUSH2 0x8AD JUMP JUMPDEST SWAP4 SWAP3 POP POP POP JUMP JUMPDEST PUSH32 0x4E487B7100000000000000000000000000000000000000000000000000000000 PUSH1 0x0 MSTORE PUSH1 0x41 PUSH1 0x4 MSTORE PUSH1 0x24 PUSH1 0x0 REVERT JUMPDEST PUSH1 0x0 DUP2 SWAP1 POP SWAP2 SWAP1 POP JUMP JUMPDEST PUSH2 0xBCF PUSH2 0xBCA DUP3 PUSH2 0x7B2 JUMP JUMPDEST PUSH2 0xBB4 JUMP JUMPDEST DUP3 MSTORE POP POP JUMP JUMPDEST PUSH1 0x0 PUSH2 0xBE1 DUP3 DUP8 PUSH2 0xBBE JUMP JUMPDEST PUSH1 0x20 DUP3 ADD SWAP2 POP PUSH2 0xBF1 DUP3 DUP7 PUSH2 0xBBE JUMP JUMPDEST PUSH1 0x20 DUP3 ADD SWAP2 POP PUSH2 0xC01 DUP3 DUP6 PUSH2 0xBBE JUMP JUMPDEST PUSH1 0x20 DUP3 ADD SWAP2 POP PUSH2 0xC11 DUP3 DUP5 PUSH2 0xBBE JUMP JUMPDEST PUSH1 0x20 DUP3 ADD SWAP2 POP DUP2 SWAP1 POP SWAP6 SWAP5 POP POP POP POP POP JUMP INVALID LOG2 PUSH5 0x6970667358 0x22 SLT KECCAK256 PUSH6 0x10C2FD05E63 PUSH3 0xFEF165 0xDE CODESIZE SLOAD PUSH21 0xB2FF405DF22FE9FCC74CF910298D25DC2264736F6C PUSH4 0x43000812 STOP CALLER "
				},
				"gasEstimates": {
					"creation": {
						"codeDepositCost": "632200",
						"executionCost": "infinite",
						"totalCost": "infinite"
					},
					"external": {
						"findWinner()": "infinite",
						"getTicket(uint256)": "infinite",
						"manager()": "2537",
						"participants(uint256)": "4957",
						"showBalance()": "infinite",
						"token()": "infinite",
						"winner()": "2558"
					},
					"internal": {
						"random()": "infinite"
					}
				},
				"methodIdentifiers": {
					"findWinner()": "8e71decb",
					"getTicket(uint256)": "7dc379fa",
					"manager()": "481c6a75",
					"participants(uint256)": "35c1d349",
					"showBalance()": "81b2d07b",
					"token()": "fc0c546a",
					"winner()": "dfbf53ae"
				}
			},
			"storageLayout": {
				"storage": [
					{
						"astId": 6,
						"contract": "contracts/Lottery1.sol:Lottery",
						"label": "token",
						"offset": 0,
						"slot": "0",
						"type": "t_contract(IERC20)838"
					},
					{
						"astId": 8,
						"contract": "contracts/Lottery1.sol:Lottery",
						"label": "manager",
						"offset": 0,
						"slot": "1",
						"type": "t_address"
					},
					{
						"astId": 11,
						"contract": "contracts/Lottery1.sol:Lottery",
						"label": "participants",
						"offset": 0,
						"slot": "2",
						"type": "t_array(t_address_payable)dyn_storage"
					},
					{
						"astId": 13,
						"contract": "contracts/Lottery1.sol:Lottery",
						"label": "winner",
						"offset": 0,
						"slot": "3",
						"type": "t_address"
					}
				],
				"types": {
					"t_address": {
						"encoding": "inplace",
						"label": "address",
						"numberOfBytes": "20"
					},
					"t_address_payable": {
						"encoding": "inplace",
						"label": "address payable",
						"numberOfBytes": "20"
					},
					"t_array(t_address_payable)dyn_storage": {
						"base": "t_address_payable",
						"encoding": "dynamic_array",
						"label": "address payable[]",
						"numberOfBytes": "32"
					},
					"t_contract(IERC20)838": {
						"encoding": "inplace",
						"label": "contract IERC20",
						"numberOfBytes": "20"
					}
				}
			},
			"userdoc": {
				"kind": "user",
				"methods": {},
				"version": 1
			}
		}
	}
}