{
	"contracts/Super.sol": {
		"Father": {
			"abi": [
				{
					"anonymous": false,
					"inputs": [
						{
							"indexed": false,
							"internalType": "string",
							"name": "msg",
							"type": "string"
						}
					],
					"name": "familytree",
					"type": "event"
				},
				{
					"inputs": [],
					"name": "call",
					"outputs": [],
					"stateMutability": "nonpayable",
					"type": "function"
				},
				{
					"inputs": [],
					"name": "nothing",
					"outputs": [],
					"stateMutability": "nonpayable",
					"type": "function"
				}
			],
			"devdoc": {
				"kind": "dev",
				"methods": {},
				"version": 1
			},
			"evm": {
				"assembly": "    /* \"contracts/Super.sol\":303:596  contract Father is Grandparent{... */\n  mstore(0x40, 0x80)\n  callvalue\n  dup1\n  iszero\n  tag_1\n  jumpi\n  0x00\n  dup1\n  revert\ntag_1:\n  pop\n  dataSize(sub_0)\n  dup1\n  dataOffset(sub_0)\n  0x00\n  codecopy\n  0x00\n  return\nstop\n\nsub_0: assembly {\n        /* \"contracts/Super.sol\":303:596  contract Father is Grandparent{... */\n      mstore(0x40, 0x80)\n      callvalue\n      dup1\n      iszero\n      tag_1\n      jumpi\n      0x00\n      dup1\n      revert\n    tag_1:\n      pop\n      jumpi(tag_2, lt(calldatasize, 0x04))\n      shr(0xe0, calldataload(0x00))\n      dup1\n      0x28b5e32b\n      eq\n      tag_3\n      jumpi\n      dup1\n      0x448f30a3\n      eq\n      tag_4\n      jumpi\n    tag_2:\n      0x00\n      dup1\n      revert\n        /* \"contracts/Super.sol\":339:472  function call() virtual override public{... */\n    tag_3:\n      tag_5\n      tag_6\n      jump\t// in\n    tag_5:\n      stop\n        /* \"contracts/Super.sol\":478:594  function nothing() virtual override public{... */\n    tag_4:\n      tag_7\n      tag_8\n      jump\t// in\n    tag_7:\n      stop\n        /* \"contracts/Super.sol\":339:472  function call() virtual override public{... */\n    tag_6:\n        /* \"contracts/Super.sol\":393:437  familytree(\"Grandfather called from father\") */\n      0x56c05551327a2c059b3cafdf953d0582bf2dd46829734b0369bb5e1398b52a8b\n      mload(0x40)\n      tag_10\n      swap1\n      tag_11\n      jump\t// in\n    tag_10:\n      mload(0x40)\n      dup1\n      swap2\n      sub\n      swap1\n      log1\n        /* \"contracts/Super.sol\":447:465  Grandparent.call() */\n      tag_12\n        /* \"contracts/Super.sol\":447:463  Grandparent.call */\n      tag_13\n        /* \"contracts/Super.sol\":447:465  Grandparent.call() */\n      jump\t// in\n    tag_12:\n        /* \"contracts/Super.sol\":339:472  function call() virtual override public{... */\n      jump\t// out\n        /* \"contracts/Super.sol\":478:594  function nothing() virtual override public{... */\n    tag_8:\n        /* \"contracts/Super.sol\":535:562  familytree(\"Father called\") */\n      0x56c05551327a2c059b3cafdf953d0582bf2dd46829734b0369bb5e1398b52a8b\n      mload(0x40)\n      tag_15\n      swap1\n      tag_16\n      jump\t// in\n    tag_15:\n      mload(0x40)\n      dup1\n      swap2\n      sub\n      swap1\n      log1\n        /* \"contracts/Super.sol\":572:587  super.nothing() */\n      tag_17\n        /* \"contracts/Super.sol\":572:585  super.nothing */\n      tag_18\n        /* \"contracts/Super.sol\":572:587  super.nothing() */\n      jump\t// in\n    tag_17:\n        /* \"contracts/Super.sol\":478:594  function nothing() virtual override public{... */\n      jump\t// out\n        /* \"contracts/Super.sol\":130:215  function call()  virtual public{... */\n    tag_13:\n        /* \"contracts/Super.sol\":176:208  familytree(\"Grandparent called\") */\n      0x56c05551327a2c059b3cafdf953d0582bf2dd46829734b0369bb5e1398b52a8b\n      mload(0x40)\n      tag_20\n      swap1\n      tag_21\n      jump\t// in\n    tag_20:\n      mload(0x40)\n      dup1\n      swap2\n      sub\n      swap1\n      log1\n        /* \"contracts/Super.sol\":130:215  function call()  virtual public{... */\n      jump\t// out\n        /* \"contracts/Super.sol\":220:299  function nothing() virtual public{... */\n    tag_18:\n        /* \"contracts/Super.sol\":268:292  familytree(\"Do nothing\") */\n      0x56c05551327a2c059b3cafdf953d0582bf2dd46829734b0369bb5e1398b52a8b\n      mload(0x40)\n      tag_23\n      swap1\n      tag_24\n      jump\t// in\n    tag_23:\n      mload(0x40)\n      dup1\n      swap2\n      sub\n      swap1\n      log1\n        /* \"contracts/Super.sol\":220:299  function nothing() virtual public{... */\n      jump\t// out\n        /* \"#utility.yul\":7:176   */\n    tag_25:\n        /* \"#utility.yul\":91:102   */\n      0x00\n        /* \"#utility.yul\":125:131   */\n      dup3\n        /* \"#utility.yul\":120:123   */\n      dup3\n        /* \"#utility.yul\":113:132   */\n      mstore\n        /* \"#utility.yul\":165:169   */\n      0x20\n        /* \"#utility.yul\":160:163   */\n      dup3\n        /* \"#utility.yul\":156:170   */\n      add\n        /* \"#utility.yul\":141:170   */\n      swap1\n      pop\n        /* \"#utility.yul\":7:176   */\n      swap3\n      swap2\n      pop\n      pop\n      jump\t// out\n        /* \"#utility.yul\":182:362   */\n    tag_26:\n        /* \"#utility.yul\":322:354   */\n      0x4772616e646661746865722063616c6c65642066726f6d206661746865720000\n        /* \"#utility.yul\":318:319   */\n      0x00\n        /* \"#utility.yul\":310:316   */\n      dup3\n        /* \"#utility.yul\":306:320   */\n      add\n        /* \"#utility.yul\":299:355   */\n      mstore\n        /* \"#utility.yul\":182:362   */\n      pop\n      jump\t// out\n        /* \"#utility.yul\":368:734   */\n    tag_27:\n        /* \"#utility.yul\":510:513   */\n      0x00\n        /* \"#utility.yul\":531:598   */\n      tag_38\n        /* \"#utility.yul\":595:597   */\n      0x1e\n        /* \"#utility.yul\":590:593   */\n      dup4\n        /* \"#utility.yul\":531:598   */\n      tag_25\n      jump\t// in\n    tag_38:\n        /* \"#utility.yul\":524:598   */\n      swap2\n      pop\n        /* \"#utility.yul\":607:700   */\n      tag_39\n        /* \"#utility.yul\":696:699   */\n      dup3\n        /* \"#utility.yul\":607:700   */\n      tag_26\n      jump\t// in\n    tag_39:\n        /* \"#utility.yul\":725:727   */\n      0x20\n        /* \"#utility.yul\":720:723   */\n      dup3\n        /* \"#utility.yul\":716:728   */\n      add\n        /* \"#utility.yul\":709:728   */\n      swap1\n      pop\n        /* \"#utility.yul\":368:734   */\n      swap2\n      swap1\n      pop\n      jump\t// out\n        /* \"#utility.yul\":740:1159   */\n    tag_11:\n        /* \"#utility.yul\":906:910   */\n      0x00\n        /* \"#utility.yul\":944:946   */\n      0x20\n        /* \"#utility.yul\":933:942   */\n      dup3\n        /* \"#utility.yul\":929:947   */\n      add\n        /* \"#utility.yul\":921:947   */\n      swap1\n      pop\n        /* \"#utility.yul\":993:1002   */\n      dup2\n        /* \"#utility.yul\":987:991   */\n      dup2\n        /* \"#utility.yul\":983:1003   */\n      sub\n        /* \"#utility.yul\":979:980   */\n      0x00\n        /* \"#utility.yul\":968:977   */\n      dup4\n        /* \"#utility.yul\":964:981   */\n      add\n        /* \"#utility.yul\":957:1004   */\n      mstore\n        /* \"#utility.yul\":1021:1152   */\n      tag_41\n        /* \"#utility.yul\":1147:1151   */\n      dup2\n        /* \"#utility.yul\":1021:1152   */\n      tag_27\n      jump\t// in\n    tag_41:\n        /* \"#utility.yul\":1013:1152   */\n      swap1\n      pop\n        /* \"#utility.yul\":740:1159   */\n      swap2\n      swap1\n      pop\n      jump\t// out\n        /* \"#utility.yul\":1165:1328   */\n    tag_28:\n        /* \"#utility.yul\":1305:1320   */\n      0x4661746865722063616c6c656400000000000000000000000000000000000000\n        /* \"#utility.yul\":1301:1302   */\n      0x00\n        /* \"#utility.yul\":1293:1299   */\n      dup3\n        /* \"#utility.yul\":1289:1303   */\n      add\n        /* \"#utility.yul\":1282:1321   */\n      mstore\n        /* \"#utility.yul\":1165:1328   */\n      pop\n      jump\t// out\n        /* \"#utility.yul\":1334:1700   */\n    tag_29:\n        /* \"#utility.yul\":1476:1479   */\n      0x00\n        /* \"#utility.yul\":1497:1564   */\n      tag_44\n        /* \"#utility.yul\":1561:1563   */\n      0x0d\n        /* \"#utility.yul\":1556:1559   */\n      dup4\n        /* \"#utility.yul\":1497:1564   */\n      tag_25\n      jump\t// in\n    tag_44:\n        /* \"#utility.yul\":1490:1564   */\n      swap2\n      pop\n        /* \"#utility.yul\":1573:1666   */\n      tag_45\n        /* \"#utility.yul\":1662:1665   */\n      dup3\n        /* \"#utility.yul\":1573:1666   */\n      tag_28\n      jump\t// in\n    tag_45:\n        /* \"#utility.yul\":1691:1693   */\n      0x20\n        /* \"#utility.yul\":1686:1689   */\n      dup3\n        /* \"#utility.yul\":1682:1694   */\n      add\n        /* \"#utility.yul\":1675:1694   */\n      swap1\n      pop\n        /* \"#utility.yul\":1334:1700   */\n      swap2\n      swap1\n      pop\n      jump\t// out\n        /* \"#utility.yul\":1706:2125   */\n    tag_16:\n        /* \"#utility.yul\":1872:1876   */\n      0x00\n        /* \"#utility.yul\":1910:1912   */\n      0x20\n        /* \"#utility.yul\":1899:1908   */\n      dup3\n        /* \"#utility.yul\":1895:1913   */\n      add\n        /* \"#utility.yul\":1887:1913   */\n      swap1\n      pop\n        /* \"#utility.yul\":1959:1968   */\n      dup2\n        /* \"#utility.yul\":1953:1957   */\n      dup2\n        /* \"#utility.yul\":1949:1969   */\n      sub\n        /* \"#utility.yul\":1945:1946   */\n      0x00\n        /* \"#utility.yul\":1934:1943   */\n      dup4\n        /* \"#utility.yul\":1930:1947   */\n      add\n        /* \"#utility.yul\":1923:1970   */\n      mstore\n        /* \"#utility.yul\":1987:2118   */\n      tag_47\n        /* \"#utility.yul\":2113:2117   */\n      dup2\n        /* \"#utility.yul\":1987:2118   */\n      tag_29\n      jump\t// in\n    tag_47:\n        /* \"#utility.yul\":1979:2118   */\n      swap1\n      pop\n        /* \"#utility.yul\":1706:2125   */\n      swap2\n      swap1\n      pop\n      jump\t// out\n        /* \"#utility.yul\":2131:2299   */\n    tag_30:\n        /* \"#utility.yul\":2271:2291   */\n      0x4772616e64706172656e742063616c6c65640000000000000000000000000000\n        /* \"#utility.yul\":2267:2268   */\n      0x00\n        /* \"#utility.yul\":2259:2265   */\n      dup3\n        /* \"#utility.yul\":2255:2269   */\n      add\n        /* \"#utility.yul\":2248:2292   */\n      mstore\n        /* \"#utility.yul\":2131:2299   */\n      pop\n      jump\t// out\n        /* \"#utility.yul\":2305:2671   */\n    tag_31:\n        /* \"#utility.yul\":2447:2450   */\n      0x00\n        /* \"#utility.yul\":2468:2535   */\n      tag_50\n        /* \"#utility.yul\":2532:2534   */\n      0x12\n        /* \"#utility.yul\":2527:2530   */\n      dup4\n        /* \"#utility.yul\":2468:2535   */\n      tag_25\n      jump\t// in\n    tag_50:\n        /* \"#utility.yul\":2461:2535   */\n      swap2\n      pop\n        /* \"#utility.yul\":2544:2637   */\n      tag_51\n        /* \"#utility.yul\":2633:2636   */\n      dup3\n        /* \"#utility.yul\":2544:2637   */\n      tag_30\n      jump\t// in\n    tag_51:\n        /* \"#utility.yul\":2662:2664   */\n      0x20\n        /* \"#utility.yul\":2657:2660   */\n      dup3\n        /* \"#utility.yul\":2653:2665   */\n      add\n        /* \"#utility.yul\":2646:2665   */\n      swap1\n      pop\n        /* \"#utility.yul\":2305:2671   */\n      swap2\n      swap1\n      pop\n      jump\t// out\n        /* \"#utility.yul\":2677:3096   */\n    tag_21:\n        /* \"#utility.yul\":2843:2847   */\n      0x00\n        /* \"#utility.yul\":2881:2883   */\n      0x20\n        /* \"#utility.yul\":2870:2879   */\n      dup3\n        /* \"#utility.yul\":2866:2884   */\n      add\n        /* \"#utility.yul\":2858:2884   */\n      swap1\n      pop\n        /* \"#utility.yul\":2930:2939   */\n      dup2\n        /* \"#utility.yul\":2924:2928   */\n      dup2\n        /* \"#utility.yul\":2920:2940   */\n      sub\n        /* \"#utility.yul\":2916:2917   */\n      0x00\n        /* \"#utility.yul\":2905:2914   */\n      dup4\n        /* \"#utility.yul\":2901:2918   */\n      add\n        /* \"#utility.yul\":2894:2941   */\n      mstore\n        /* \"#utility.yul\":2958:3089   */\n      tag_53\n        /* \"#utility.yul\":3084:3088   */\n      dup2\n        /* \"#utility.yul\":2958:3089   */\n      tag_31\n      jump\t// in\n    tag_53:\n        /* \"#utility.yul\":2950:3089   */\n      swap1\n      pop\n        /* \"#utility.yul\":2677:3096   */\n      swap2\n      swap1\n      pop\n      jump\t// out\n        /* \"#utility.yul\":3102:3262   */\n    tag_32:\n        /* \"#utility.yul\":3242:3254   */\n      0x446f206e6f7468696e6700000000000000000000000000000000000000000000\n        /* \"#utility.yul\":3238:3239   */\n      0x00\n        /* \"#utility.yul\":3230:3236   */\n      dup3\n        /* \"#utility.yul\":3226:3240   */\n      add\n        /* \"#utility.yul\":3219:3255   */\n      mstore\n        /* \"#utility.yul\":3102:3262   */\n      pop\n      jump\t// out\n        /* \"#utility.yul\":3268:3634   */\n    tag_33:\n        /* \"#utility.yul\":3410:3413   */\n      0x00\n        /* \"#utility.yul\":3431:3498   */\n      tag_56\n        /* \"#utility.yul\":3495:3497   */\n      0x0a\n        /* \"#utility.yul\":3490:3493   */\n      dup4\n        /* \"#utility.yul\":3431:3498   */\n      tag_25\n      jump\t// in\n    tag_56:\n        /* \"#utility.yul\":3424:3498   */\n      swap2\n      pop\n        /* \"#utility.yul\":3507:3600   */\n      tag_57\n        /* \"#utility.yul\":3596:3599   */\n      dup3\n        /* \"#utility.yul\":3507:3600   */\n      tag_32\n      jump\t// in\n    tag_57:\n        /* \"#utility.yul\":3625:3627   */\n      0x20\n        /* \"#utility.yul\":3620:3623   */\n      dup3\n        /* \"#utility.yul\":3616:3628   */\n      add\n        /* \"#utility.yul\":3609:3628   */\n      swap1\n      pop\n        /* \"#utility.yul\":3268:3634   */\n      swap2\n      swap1\n      pop\n      jump\t// out\n        /* \"#utility.yul\":3640:4059   */\n    tag_24:\n        /* \"#utility.yul\":3806:3810   */\n      0x00\n        /* \"#utility.yul\":3844:3846   */\n      0x20\n        /* \"#utility.yul\":3833:3842   */\n      dup3\n        /* \"#utility.yul\":3829:3847   */\n      add\n        /* \"#utility.yul\":3821:3847   */\n      swap1\n      pop\n        /* \"#utility.yul\":3893:3902   */\n      dup2\n        /* \"#utility.yul\":3887:3891   */\n      dup2\n        /* \"#utility.yul\":3883:3903   */\n      sub\n        /* \"#utility.yul\":3879:3880   */\n      0x00\n        /* \"#utility.yul\":3868:3877   */\n      dup4\n        /* \"#utility.yul\":3864:3881   */\n      add\n        /* \"#utility.yul\":3857:3904   */\n      mstore\n        /* \"#utility.yul\":3921:4052   */\n      tag_59\n        /* \"#utility.yul\":4047:4051   */\n      dup2\n        /* \"#utility.yul\":3921:4052   */\n      tag_33\n      jump\t// in\n    tag_59:\n        /* \"#utility.yul\":3913:4052   */\n      swap1\n      pop\n        /* \"#utility.yul\":3640:4059   */\n      swap2\n      swap1\n      pop\n      jump\t// out\n\n    auxdata: 0xa2646970667358221220914f1077c6fb960ab422f3c4471a7a1f36d79f71837ab12e81018e95ee9d28da64736f6c63430008120033\n}\n",
				"bytecode": {
					"linkReferences": {},
					"object": "608060405234801561001057600080fd5b50610332806100206000396000f3fe608060405234801561001057600080fd5b50600436106100365760003560e01c806328b5e32b1461003b578063448f30a314610045575b600080fd5b61004361004f565b005b61004d61008e565b005b7f56c05551327a2c059b3cafdf953d0582bf2dd46829734b0369bb5e1398b52a8b60405161007c90610198565b60405180910390a161008c6100cd565b565b7f56c05551327a2c059b3cafdf953d0582bf2dd46829734b0369bb5e1398b52a8b6040516100bb90610204565b60405180910390a16100cb610104565b565b7f56c05551327a2c059b3cafdf953d0582bf2dd46829734b0369bb5e1398b52a8b6040516100fa90610270565b60405180910390a1565b7f56c05551327a2c059b3cafdf953d0582bf2dd46829734b0369bb5e1398b52a8b604051610131906102dc565b60405180910390a1565b600082825260208201905092915050565b7f4772616e646661746865722063616c6c65642066726f6d206661746865720000600082015250565b6000610182601e8361013b565b915061018d8261014c565b602082019050919050565b600060208201905081810360008301526101b181610175565b9050919050565b7f4661746865722063616c6c656400000000000000000000000000000000000000600082015250565b60006101ee600d8361013b565b91506101f9826101b8565b602082019050919050565b6000602082019050818103600083015261021d816101e1565b9050919050565b7f4772616e64706172656e742063616c6c65640000000000000000000000000000600082015250565b600061025a60128361013b565b915061026582610224565b602082019050919050565b600060208201905081810360008301526102898161024d565b9050919050565b7f446f206e6f7468696e6700000000000000000000000000000000000000000000600082015250565b60006102c6600a8361013b565b91506102d182610290565b602082019050919050565b600060208201905081810360008301526102f5816102b9565b905091905056fea2646970667358221220914f1077c6fb960ab422f3c4471a7a1f36d79f71837ab12e81018e95ee9d28da64736f6c63430008120033",
					"opcodes": "PUSH1 0x80 PUSH1 0x40 MSTORE CALLVALUE DUP1 ISZERO PUSH2 0x10 JUMPI PUSH1 0x0 DUP1 REVERT JUMPDEST POP PUSH2 0x332 DUP1 PUSH2 0x20 PUSH1 0x0 CODECOPY PUSH1 0x0 RETURN INVALID PUSH1 0x80 PUSH1 0x40 MSTORE CALLVALUE DUP1 ISZERO PUSH2 0x10 JUMPI PUSH1 0x0 DUP1 REVERT JUMPDEST POP PUSH1 0x4 CALLDATASIZE LT PUSH2 0x36 JUMPI PUSH1 0x0 CALLDATALOAD PUSH1 0xE0 SHR DUP1 PUSH4 0x28B5E32B EQ PUSH2 0x3B JUMPI DUP1 PUSH4 0x448F30A3 EQ PUSH2 0x45 JUMPI JUMPDEST PUSH1 0x0 DUP1 REVERT JUMPDEST PUSH2 0x43 PUSH2 0x4F JUMP JUMPDEST STOP JUMPDEST PUSH2 0x4D PUSH2 0x8E JUMP JUMPDEST STOP JUMPDEST PUSH32 0x56C05551327A2C059B3CAFDF953D0582BF2DD46829734B0369BB5E1398B52A8B PUSH1 0x40 MLOAD PUSH2 0x7C SWAP1 PUSH2 0x198 JUMP JUMPDEST PUSH1 0x40 MLOAD DUP1 SWAP2 SUB SWAP1 LOG1 PUSH2 0x8C PUSH2 0xCD JUMP JUMPDEST JUMP JUMPDEST PUSH32 0x56C05551327A2C059B3CAFDF953D0582BF2DD46829734B0369BB5E1398B52A8B PUSH1 0x40 MLOAD PUSH2 0xBB SWAP1 PUSH2 0x204 JUMP JUMPDEST PUSH1 0x40 MLOAD DUP1 SWAP2 SUB SWAP1 LOG1 PUSH2 0xCB PUSH2 0x104 JUMP JUMPDEST JUMP JUMPDEST PUSH32 0x56C05551327A2C059B3CAFDF953D0582BF2DD46829734B0369BB5E1398B52A8B PUSH1 0x40 MLOAD PUSH2 0xFA SWAP1 PUSH2 0x270 JUMP JUMPDEST PUSH1 0x40 MLOAD DUP1 SWAP2 SUB SWAP1 LOG1 JUMP JUMPDEST PUSH32 0x56C05551327A2C059B3CAFDF953D0582BF2DD46829734B0369BB5E1398B52A8B PUSH1 0x40 MLOAD PUSH2 0x131 SWAP1 PUSH2 0x2DC JUMP JUMPDEST PUSH1 0x40 MLOAD DUP1 SWAP2 SUB SWAP1 LOG1 JUMP JUMPDEST PUSH1 0x0 DUP3 DUP3 MSTORE PUSH1 0x20 DUP3 ADD SWAP1 POP SWAP3 SWAP2 POP POP JUMP JUMPDEST PUSH32 0x4772616E646661746865722063616C6C65642066726F6D206661746865720000 PUSH1 0x0 DUP3 ADD MSTORE POP JUMP JUMPDEST PUSH1 0x0 PUSH2 0x182 PUSH1 0x1E DUP4 PUSH2 0x13B JUMP JUMPDEST SWAP2 POP PUSH2 0x18D DUP3 PUSH2 0x14C JUMP JUMPDEST PUSH1 0x20 DUP3 ADD SWAP1 POP SWAP2 SWAP1 POP JUMP JUMPDEST PUSH1 0x0 PUSH1 0x20 DUP3 ADD SWAP1 POP DUP2 DUP2 SUB PUSH1 0x0 DUP4 ADD MSTORE PUSH2 0x1B1 DUP2 PUSH2 0x175 JUMP JUMPDEST SWAP1 POP SWAP2 SWAP1 POP JUMP JUMPDEST PUSH32 0x4661746865722063616C6C656400000000000000000000000000000000000000 PUSH1 0x0 DUP3 ADD MSTORE POP JUMP JUMPDEST PUSH1 0x0 PUSH2 0x1EE PUSH1 0xD DUP4 PUSH2 0x13B JUMP JUMPDEST SWAP2 POP PUSH2 0x1F9 DUP3 PUSH2 0x1B8 JUMP JUMPDEST PUSH1 0x20 DUP3 ADD SWAP1 POP SWAP2 SWAP1 POP JUMP JUMPDEST PUSH1 0x0 PUSH1 0x20 DUP3 ADD SWAP1 POP DUP2 DUP2 SUB PUSH1 0x0 DUP4 ADD MSTORE PUSH2 0x21D DUP2 PUSH2 0x1E1 JUMP JUMPDEST SWAP1 POP SWAP2 SWAP1 POP JUMP JUMPDEST PUSH32 0x4772616E64706172656E742063616C6C65640000000000000000000000000000 PUSH1 0x0 DUP3 ADD MSTORE POP JUMP JUMPDEST PUSH1 0x0 PUSH2 0x25A PUSH1 0x12 DUP4 PUSH2 0x13B JUMP JUMPDEST SWAP2 POP PUSH2 0x265 DUP3 PUSH2 0x224 JUMP JUMPDEST PUSH1 0x20 DUP3 ADD SWAP1 POP SWAP2 SWAP1 POP JUMP JUMPDEST PUSH1 0x0 PUSH1 0x20 DUP3 ADD SWAP1 POP DUP2 DUP2 SUB PUSH1 0x0 DUP4 ADD MSTORE PUSH2 0x289 DUP2 PUSH2 0x24D JUMP JUMPDEST SWAP1 POP SWAP2 SWAP1 POP JUMP JUMPDEST PUSH32 0x446F206E6F7468696E6700000000000000000000000000000000000000000000 PUSH1 0x0 DUP3 ADD MSTORE POP JUMP JUMPDEST PUSH1 0x0 PUSH2 0x2C6 PUSH1 0xA DUP4 PUSH2 0x13B JUMP JUMPDEST SWAP2 POP PUSH2 0x2D1 DUP3 PUSH2 0x290 JUMP JUMPDEST PUSH1 0x20 DUP3 ADD SWAP1 POP SWAP2 SWAP1 POP JUMP JUMPDEST PUSH1 0x0 PUSH1 0x20 DUP3 ADD SWAP1 POP DUP2 DUP2 SUB PUSH1 0x0 DUP4 ADD MSTORE PUSH2 0x2F5 DUP2 PUSH2 0x2B9 JUMP JUMPDEST SWAP1 POP SWAP2 SWAP1 POP JUMP INVALID LOG2 PUSH5 0x6970667358 0x22 SLT KECCAK256 SWAP2 0x4F LT PUSH24 0xC6FB960AB422F3C4471A7A1F36D79F71837AB12E81018E95 0xEE SWAP14 0x28 0xDA PUSH5 0x736F6C6343 STOP ADDMOD SLT STOP CALLER "
				},
				"gasEstimates": {
					"creation": {
						"codeDepositCost": "163600",
						"executionCost": "208",
						"totalCost": "163808"
					},
					"external": {
						"call()": "infinite",
						"nothing()": "infinite"
					}
				},
				"methodIdentifiers": {
					"call()": "28b5e32b",
					"nothing()": "448f30a3"
				}
			},
			"storageLayout": {
				"storage": [],
				"types": null
			},
			"userdoc": {
				"kind": "user",
				"methods": {},
				"version": 1
			}
		}
	}
}