{
	"contracts/Transcation.sol": {
		"studentids": {
			"abi": [
				{
					"inputs": [
						{
							"internalType": "uint256",
							"name": "",
							"type": "uint256"
						}
					],
					"name": "arr",
					"outputs": [
						{
							"internalType": "string",
							"name": "",
							"type": "string"
						}
					],
					"stateMutability": "view",
					"type": "function"
				},
				{
					"inputs": [],
					"name": "changeDataByMemory",
					"outputs": [
						{
							"internalType": "string",
							"name": "",
							"type": "string"
						}
					],
					"stateMutability": "view",
					"type": "function"
				},
				{
					"inputs": [],
					"name": "changeDataByStorage",
					"outputs": [],
					"stateMutability": "nonpayable",
					"type": "function"
				},
				{
					"inputs": [],
					"name": "displayblockdetails",
					"outputs": [
						{
							"internalType": "uint256",
							"name": "",
							"type": "uint256"
						},
						{
							"internalType": "uint256",
							"name": "",
							"type": "uint256"
						},
						{
							"internalType": "uint256",
							"name": "",
							"type": "uint256"
						},
						{
							"internalType": "uint256",
							"name": "",
							"type": "uint256"
						},
						{
							"internalType": "address payable",
							"name": "",
							"type": "address"
						},
						{
							"internalType": "address",
							"name": "",
							"type": "address"
						},
						{
							"internalType": "uint256",
							"name": "",
							"type": "uint256"
						},
						{
							"internalType": "address",
							"name": "",
							"type": "address"
						}
					],
					"stateMutability": "view",
					"type": "function"
				}
			],
			"devdoc": {
				"kind": "dev",
				"methods": {},
				"version": 1
			},
			"evm": {
				"assembly": "    /* \"contracts/Transcation.sol\":1121:1923  contract studentids{//Mapping... */\n  mstore(0x40, 0x80)\n    /* \"contracts/Transcation.sol\":1206:1251  string[] public arr = ['abc','xyz','simform'] */\n  mload(0x40)\n  dup1\n  0x60\n  add\n  0x40\n  mstore\n  dup1\n  mload(0x40)\n  dup1\n  0x40\n  add\n  0x40\n  mstore\n  dup1\n  0x03\n  dup2\n  mstore\n  0x20\n  add\n  0x6162630000000000000000000000000000000000000000000000000000000000\n  dup2\n  mstore\n  pop\n  dup2\n  mstore\n  0x20\n  add\n  mload(0x40)\n  dup1\n  0x40\n  add\n  0x40\n  mstore\n  dup1\n  0x03\n  dup2\n  mstore\n  0x20\n  add\n  0x78797a0000000000000000000000000000000000000000000000000000000000\n  dup2\n  mstore\n  pop\n  dup2\n  mstore\n  0x20\n  add\n  mload(0x40)\n  dup1\n  0x40\n  add\n  0x40\n  mstore\n  dup1\n  0x07\n  dup2\n  mstore\n  0x20\n  add\n  0x73696d666f726d00000000000000000000000000000000000000000000000000\n  dup2\n  mstore\n  pop\n  dup2\n  mstore\n  pop\n  0x00\n  swap1\n  0x03\n  tag_1\n  swap3\n  swap2\n  swap1\n  tag_2\n  jump\t// in\ntag_1:\n  pop\n    /* \"contracts/Transcation.sol\":1121:1923  contract studentids{//Mapping... */\n  callvalue\n  dup1\n  iszero\n  tag_3\n  jumpi\n  0x00\n  dup1\n  revert\ntag_3:\n  pop\n  jump(tag_4)\ntag_2:\n  dup3\n  dup1\n  sload\n  dup3\n  dup3\n  sstore\n  swap1\n  0x00\n  mstore\n  keccak256(0x00, 0x20)\n  swap1\n  dup2\n  add\n  swap3\n  dup3\n  iszero\n  tag_5\n  jumpi\n  swap2\n  0x20\n  mul\n  dup3\n  add\ntag_6:\n  dup3\n  dup2\n  gt\n  iszero\n  tag_7\n  jumpi\n  dup3\n  mload\n  dup3\n  swap1\n  dup2\n  tag_8\n  swap2\n  swap1\n  tag_9\n  jump\t// in\ntag_8:\n  pop\n  swap2\n  0x20\n  add\n  swap2\n  swap1\n  0x01\n  add\n  swap1\n  jump(tag_6)\ntag_7:\ntag_5:\n  pop\n  swap1\n  pop\n  tag_10\n  swap2\n  swap1\n  tag_11\n  jump\t// in\ntag_10:\n  pop\n  swap1\n  jump\t// out\ntag_11:\ntag_12:\n  dup1\n  dup3\n  gt\n  iszero\n  tag_13\n  jumpi\n  0x00\n  dup2\n  dup2\n  tag_14\n  swap2\n  swap1\n  tag_15\n  jump\t// in\ntag_14:\n  pop\n  0x01\n  add\n  jump(tag_12)\ntag_13:\n  pop\n  swap1\n  jump\t// out\ntag_15:\n  pop\n  dup1\n  sload\n  tag_16\n  swap1\n  tag_17\n  jump\t// in\ntag_16:\n  0x00\n  dup3\n  sstore\n  dup1\n  0x1f\n  lt\n  tag_19\n  jumpi\n  pop\n  jump(tag_18)\ntag_19:\n  0x1f\n  add\n  0x20\n  swap1\n  div\n  swap1\n  0x00\n  mstore\n  keccak256(0x00, 0x20)\n  swap1\n  dup2\n  add\n  swap1\n  tag_20\n  swap2\n  swap1\n  tag_21\n  jump\t// in\ntag_20:\ntag_18:\n  pop\n  jump\t// out\ntag_21:\ntag_22:\n  dup1\n  dup3\n  gt\n  iszero\n  tag_23\n  jumpi\n  0x00\n  dup2\n  0x00\n  swap1\n  sstore\n  pop\n  0x01\n  add\n  jump(tag_22)\ntag_23:\n  pop\n  swap1\n  jump\t// out\n    /* \"#utility.yul\":7:106   */\ntag_24:\n    /* \"#utility.yul\":59:65   */\n  0x00\n    /* \"#utility.yul\":93:98   */\n  dup2\n    /* \"#utility.yul\":87:99   */\n  mload\n    /* \"#utility.yul\":77:99   */\n  swap1\n  pop\n    /* \"#utility.yul\":7:106   */\n  swap2\n  swap1\n  pop\n  jump\t// out\n    /* \"#utility.yul\":112:292   */\ntag_25:\n    /* \"#utility.yul\":160:237   */\n  0x4e487b7100000000000000000000000000000000000000000000000000000000\n    /* \"#utility.yul\":157:158   */\n  0x00\n    /* \"#utility.yul\":150:238   */\n  mstore\n    /* \"#utility.yul\":257:261   */\n  0x41\n    /* \"#utility.yul\":254:255   */\n  0x04\n    /* \"#utility.yul\":247:262   */\n  mstore\n    /* \"#utility.yul\":281:285   */\n  0x24\n    /* \"#utility.yul\":278:279   */\n  0x00\n    /* \"#utility.yul\":271:286   */\n  revert\n    /* \"#utility.yul\":298:478   */\ntag_26:\n    /* \"#utility.yul\":346:423   */\n  0x4e487b7100000000000000000000000000000000000000000000000000000000\n    /* \"#utility.yul\":343:344   */\n  0x00\n    /* \"#utility.yul\":336:424   */\n  mstore\n    /* \"#utility.yul\":443:447   */\n  0x22\n    /* \"#utility.yul\":440:441   */\n  0x04\n    /* \"#utility.yul\":433:448   */\n  mstore\n    /* \"#utility.yul\":467:471   */\n  0x24\n    /* \"#utility.yul\":464:465   */\n  0x00\n    /* \"#utility.yul\":457:472   */\n  revert\n    /* \"#utility.yul\":484:804   */\ntag_17:\n    /* \"#utility.yul\":528:534   */\n  0x00\n    /* \"#utility.yul\":565:566   */\n  0x02\n    /* \"#utility.yul\":559:563   */\n  dup3\n    /* \"#utility.yul\":555:567   */\n  div\n    /* \"#utility.yul\":545:567   */\n  swap1\n  pop\n    /* \"#utility.yul\":612:613   */\n  0x01\n    /* \"#utility.yul\":606:610   */\n  dup3\n    /* \"#utility.yul\":602:614   */\n  and\n    /* \"#utility.yul\":633:651   */\n  dup1\n    /* \"#utility.yul\":623:704   */\n  tag_48\n  jumpi\n    /* \"#utility.yul\":689:693   */\n  0x7f\n    /* \"#utility.yul\":681:687   */\n  dup3\n    /* \"#utility.yul\":677:694   */\n  and\n    /* \"#utility.yul\":667:694   */\n  swap2\n  pop\n    /* \"#utility.yul\":623:704   */\ntag_48:\n    /* \"#utility.yul\":751:753   */\n  0x20\n    /* \"#utility.yul\":743:749   */\n  dup3\n    /* \"#utility.yul\":740:754   */\n  lt\n    /* \"#utility.yul\":720:738   */\n  dup2\n    /* \"#utility.yul\":717:755   */\n  sub\n    /* \"#utility.yul\":714:798   */\n  tag_49\n  jumpi\n    /* \"#utility.yul\":770:788   */\n  tag_50\n  tag_26\n  jump\t// in\ntag_50:\n    /* \"#utility.yul\":714:798   */\ntag_49:\n    /* \"#utility.yul\":535:804   */\n  pop\n    /* \"#utility.yul\":484:804   */\n  swap2\n  swap1\n  pop\n  jump\t// out\n    /* \"#utility.yul\":810:951   */\ntag_27:\n    /* \"#utility.yul\":859:863   */\n  0x00\n    /* \"#utility.yul\":882:885   */\n  dup2\n    /* \"#utility.yul\":874:885   */\n  swap1\n  pop\n    /* \"#utility.yul\":905:908   */\n  dup2\n    /* \"#utility.yul\":902:903   */\n  0x00\n    /* \"#utility.yul\":895:909   */\n  mstore\n    /* \"#utility.yul\":939:943   */\n  0x20\n    /* \"#utility.yul\":936:937   */\n  0x00\n    /* \"#utility.yul\":926:944   */\n  keccak256\n    /* \"#utility.yul\":918:944   */\n  swap1\n  pop\n    /* \"#utility.yul\":810:951   */\n  swap2\n  swap1\n  pop\n  jump\t// out\n    /* \"#utility.yul\":957:1050   */\ntag_28:\n    /* \"#utility.yul\":994:1000   */\n  0x00\n    /* \"#utility.yul\":1041:1043   */\n  0x20\n    /* \"#utility.yul\":1036:1038   */\n  0x1f\n    /* \"#utility.yul\":1029:1034   */\n  dup4\n    /* \"#utility.yul\":1025:1039   */\n  add\n    /* \"#utility.yul\":1021:1044   */\n  div\n    /* \"#utility.yul\":1011:1044   */\n  swap1\n  pop\n    /* \"#utility.yul\":957:1050   */\n  swap2\n  swap1\n  pop\n  jump\t// out\n    /* \"#utility.yul\":1056:1163   */\ntag_29:\n    /* \"#utility.yul\":1100:1108   */\n  0x00\n    /* \"#utility.yul\":1150:1155   */\n  dup3\n    /* \"#utility.yul\":1144:1148   */\n  dup3\n    /* \"#utility.yul\":1140:1156   */\n  shl\n    /* \"#utility.yul\":1119:1156   */\n  swap1\n  pop\n    /* \"#utility.yul\":1056:1163   */\n  swap3\n  swap2\n  pop\n  pop\n  jump\t// out\n    /* \"#utility.yul\":1169:1562   */\ntag_30:\n    /* \"#utility.yul\":1238:1244   */\n  0x00\n    /* \"#utility.yul\":1288:1289   */\n  0x08\n    /* \"#utility.yul\":1276:1286   */\n  dup4\n    /* \"#utility.yul\":1272:1290   */\n  mul\n    /* \"#utility.yul\":1311:1408   */\n  tag_55\n    /* \"#utility.yul\":1341:1407   */\n  0xffffffffffffffffffffffffffffffffffffffffffffffffffffffffffffffff\n    /* \"#utility.yul\":1330:1339   */\n  dup3\n    /* \"#utility.yul\":1311:1408   */\n  tag_29\n  jump\t// in\ntag_55:\n    /* \"#utility.yul\":1429:1468   */\n  tag_56\n    /* \"#utility.yul\":1459:1467   */\n  dup7\n    /* \"#utility.yul\":1448:1457   */\n  dup4\n    /* \"#utility.yul\":1429:1468   */\n  tag_29\n  jump\t// in\ntag_56:\n    /* \"#utility.yul\":1417:1468   */\n  swap6\n  pop\n    /* \"#utility.yul\":1501:1505   */\n  dup1\n    /* \"#utility.yul\":1497:1506   */\n  not\n    /* \"#utility.yul\":1490:1495   */\n  dup5\n    /* \"#utility.yul\":1486:1507   */\n  and\n    /* \"#utility.yul\":1477:1507   */\n  swap4\n  pop\n    /* \"#utility.yul\":1550:1554   */\n  dup1\n    /* \"#utility.yul\":1540:1548   */\n  dup7\n    /* \"#utility.yul\":1536:1555   */\n  and\n    /* \"#utility.yul\":1529:1534   */\n  dup5\n    /* \"#utility.yul\":1526:1556   */\n  or\n    /* \"#utility.yul\":1516:1556   */\n  swap3\n  pop\n    /* \"#utility.yul\":1245:1562   */\n  pop\n  pop\n    /* \"#utility.yul\":1169:1562   */\n  swap4\n  swap3\n  pop\n  pop\n  pop\n  jump\t// out\n    /* \"#utility.yul\":1568:1645   */\ntag_31:\n    /* \"#utility.yul\":1605:1612   */\n  0x00\n    /* \"#utility.yul\":1634:1639   */\n  dup2\n    /* \"#utility.yul\":1623:1639   */\n  swap1\n  pop\n    /* \"#utility.yul\":1568:1645   */\n  swap2\n  swap1\n  pop\n  jump\t// out\n    /* \"#utility.yul\":1651:1711   */\ntag_32:\n    /* \"#utility.yul\":1679:1682   */\n  0x00\n    /* \"#utility.yul\":1700:1705   */\n  dup2\n    /* \"#utility.yul\":1693:1705   */\n  swap1\n  pop\n    /* \"#utility.yul\":1651:1711   */\n  swap2\n  swap1\n  pop\n  jump\t// out\n    /* \"#utility.yul\":1717:1859   */\ntag_33:\n    /* \"#utility.yul\":1767:1776   */\n  0x00\n    /* \"#utility.yul\":1800:1853   */\n  tag_60\n    /* \"#utility.yul\":1818:1852   */\n  tag_61\n    /* \"#utility.yul\":1827:1851   */\n  tag_62\n    /* \"#utility.yul\":1845:1850   */\n  dup5\n    /* \"#utility.yul\":1827:1851   */\n  tag_31\n  jump\t// in\ntag_62:\n    /* \"#utility.yul\":1818:1852   */\n  tag_32\n  jump\t// in\ntag_61:\n    /* \"#utility.yul\":1800:1853   */\n  tag_31\n  jump\t// in\ntag_60:\n    /* \"#utility.yul\":1787:1853   */\n  swap1\n  pop\n    /* \"#utility.yul\":1717:1859   */\n  swap2\n  swap1\n  pop\n  jump\t// out\n    /* \"#utility.yul\":1865:1940   */\ntag_34:\n    /* \"#utility.yul\":1908:1911   */\n  0x00\n    /* \"#utility.yul\":1929:1934   */\n  dup2\n    /* \"#utility.yul\":1922:1934   */\n  swap1\n  pop\n    /* \"#utility.yul\":1865:1940   */\n  swap2\n  swap1\n  pop\n  jump\t// out\n    /* \"#utility.yul\":1946:2215   */\ntag_35:\n    /* \"#utility.yul\":2056:2095   */\n  tag_65\n    /* \"#utility.yul\":2087:2094   */\n  dup4\n    /* \"#utility.yul\":2056:2095   */\n  tag_33\n  jump\t// in\ntag_65:\n    /* \"#utility.yul\":2117:2208   */\n  tag_66\n    /* \"#utility.yul\":2166:2207   */\n  tag_67\n    /* \"#utility.yul\":2190:2206   */\n  dup3\n    /* \"#utility.yul\":2166:2207   */\n  tag_34\n  jump\t// in\ntag_67:\n    /* \"#utility.yul\":2158:2164   */\n  dup5\n    /* \"#utility.yul\":2151:2155   */\n  dup5\n    /* \"#utility.yul\":2145:2156   */\n  sload\n    /* \"#utility.yul\":2117:2208   */\n  tag_30\n  jump\t// in\ntag_66:\n    /* \"#utility.yul\":2111:2115   */\n  dup3\n    /* \"#utility.yul\":2104:2209   */\n  sstore\n    /* \"#utility.yul\":2022:2215   */\n  pop\n    /* \"#utility.yul\":1946:2215   */\n  pop\n  pop\n  pop\n  jump\t// out\n    /* \"#utility.yul\":2221:2294   */\ntag_36:\n    /* \"#utility.yul\":2266:2269   */\n  0x00\n    /* \"#utility.yul\":2221:2294   */\n  swap1\n  jump\t// out\n    /* \"#utility.yul\":2300:2489   */\ntag_37:\n    /* \"#utility.yul\":2377:2409   */\n  tag_70\n  tag_36\n  jump\t// in\ntag_70:\n    /* \"#utility.yul\":2418:2483   */\n  tag_71\n    /* \"#utility.yul\":2476:2482   */\n  dup2\n    /* \"#utility.yul\":2468:2474   */\n  dup5\n    /* \"#utility.yul\":2462:2466   */\n  dup5\n    /* \"#utility.yul\":2418:2483   */\n  tag_35\n  jump\t// in\ntag_71:\n    /* \"#utility.yul\":2353:2489   */\n  pop\n    /* \"#utility.yul\":2300:2489   */\n  pop\n  pop\n  jump\t// out\n    /* \"#utility.yul\":2495:2681   */\ntag_38:\n    /* \"#utility.yul\":2555:2675   */\ntag_73:\n    /* \"#utility.yul\":2572:2575   */\n  dup2\n    /* \"#utility.yul\":2565:2570   */\n  dup2\n    /* \"#utility.yul\":2562:2576   */\n  lt\n    /* \"#utility.yul\":2555:2675   */\n  iszero\n  tag_75\n  jumpi\n    /* \"#utility.yul\":2626:2665   */\n  tag_76\n    /* \"#utility.yul\":2663:2664   */\n  0x00\n    /* \"#utility.yul\":2656:2661   */\n  dup3\n    /* \"#utility.yul\":2626:2665   */\n  tag_37\n  jump\t// in\ntag_76:\n    /* \"#utility.yul\":2599:2600   */\n  0x01\n    /* \"#utility.yul\":2592:2597   */\n  dup2\n    /* \"#utility.yul\":2588:2601   */\n  add\n    /* \"#utility.yul\":2579:2601   */\n  swap1\n  pop\n    /* \"#utility.yul\":2555:2675   */\n  jump(tag_73)\ntag_75:\n    /* \"#utility.yul\":2495:2681   */\n  pop\n  pop\n  jump\t// out\n    /* \"#utility.yul\":2687:3230   */\ntag_39:\n    /* \"#utility.yul\":2788:2790   */\n  0x1f\n    /* \"#utility.yul\":2783:2786   */\n  dup3\n    /* \"#utility.yul\":2780:2791   */\n  gt\n    /* \"#utility.yul\":2777:3223   */\n  iszero\n  tag_78\n  jumpi\n    /* \"#utility.yul\":2822:2860   */\n  tag_79\n    /* \"#utility.yul\":2854:2859   */\n  dup2\n    /* \"#utility.yul\":2822:2860   */\n  tag_27\n  jump\t// in\ntag_79:\n    /* \"#utility.yul\":2906:2935   */\n  tag_80\n    /* \"#utility.yul\":2924:2934   */\n  dup5\n    /* \"#utility.yul\":2906:2935   */\n  tag_28\n  jump\t// in\ntag_80:\n    /* \"#utility.yul\":2896:2904   */\n  dup2\n    /* \"#utility.yul\":2892:2936   */\n  add\n    /* \"#utility.yul\":3089:3091   */\n  0x20\n    /* \"#utility.yul\":3077:3087   */\n  dup6\n    /* \"#utility.yul\":3074:3092   */\n  lt\n    /* \"#utility.yul\":3071:3120   */\n  iszero\n  tag_81\n  jumpi\n    /* \"#utility.yul\":3110:3118   */\n  dup2\n    /* \"#utility.yul\":3095:3118   */\n  swap1\n  pop\n    /* \"#utility.yul\":3071:3120   */\ntag_81:\n    /* \"#utility.yul\":3133:3213   */\n  tag_82\n    /* \"#utility.yul\":3189:3211   */\n  tag_83\n    /* \"#utility.yul\":3207:3210   */\n  dup6\n    /* \"#utility.yul\":3189:3211   */\n  tag_28\n  jump\t// in\ntag_83:\n    /* \"#utility.yul\":3179:3187   */\n  dup4\n    /* \"#utility.yul\":3175:3212   */\n  add\n    /* \"#utility.yul\":3162:3173   */\n  dup3\n    /* \"#utility.yul\":3133:3213   */\n  tag_38\n  jump\t// in\ntag_82:\n    /* \"#utility.yul\":2792:3223   */\n  pop\n  pop\n    /* \"#utility.yul\":2777:3223   */\ntag_78:\n    /* \"#utility.yul\":2687:3230   */\n  pop\n  pop\n  pop\n  jump\t// out\n    /* \"#utility.yul\":3236:3353   */\ntag_40:\n    /* \"#utility.yul\":3290:3298   */\n  0x00\n    /* \"#utility.yul\":3340:3345   */\n  dup3\n    /* \"#utility.yul\":3334:3338   */\n  dup3\n    /* \"#utility.yul\":3330:3346   */\n  shr\n    /* \"#utility.yul\":3309:3346   */\n  swap1\n  pop\n    /* \"#utility.yul\":3236:3353   */\n  swap3\n  swap2\n  pop\n  pop\n  jump\t// out\n    /* \"#utility.yul\":3359:3528   */\ntag_41:\n    /* \"#utility.yul\":3403:3409   */\n  0x00\n    /* \"#utility.yul\":3436:3487   */\n  tag_86\n    /* \"#utility.yul\":3484:3485   */\n  0x00\n    /* \"#utility.yul\":3480:3486   */\n  not\n    /* \"#utility.yul\":3472:3477   */\n  dup5\n    /* \"#utility.yul\":3469:3470   */\n  0x08\n    /* \"#utility.yul\":3465:3478   */\n  mul\n    /* \"#utility.yul\":3436:3487   */\n  tag_40\n  jump\t// in\ntag_86:\n    /* \"#utility.yul\":3432:3488   */\n  not\n    /* \"#utility.yul\":3517:3521   */\n  dup1\n    /* \"#utility.yul\":3511:3515   */\n  dup4\n    /* \"#utility.yul\":3507:3522   */\n  and\n    /* \"#utility.yul\":3497:3522   */\n  swap2\n  pop\n    /* \"#utility.yul\":3410:3528   */\n  pop\n    /* \"#utility.yul\":3359:3528   */\n  swap3\n  swap2\n  pop\n  pop\n  jump\t// out\n    /* \"#utility.yul\":3533:3828   */\ntag_42:\n    /* \"#utility.yul\":3609:3613   */\n  0x00\n    /* \"#utility.yul\":3755:3784   */\n  tag_88\n    /* \"#utility.yul\":3780:3783   */\n  dup4\n    /* \"#utility.yul\":3774:3778   */\n  dup4\n    /* \"#utility.yul\":3755:3784   */\n  tag_41\n  jump\t// in\ntag_88:\n    /* \"#utility.yul\":3747:3784   */\n  swap2\n  pop\n    /* \"#utility.yul\":3817:3820   */\n  dup3\n    /* \"#utility.yul\":3814:3815   */\n  0x02\n    /* \"#utility.yul\":3810:3821   */\n  mul\n    /* \"#utility.yul\":3804:3808   */\n  dup3\n    /* \"#utility.yul\":3801:3822   */\n  or\n    /* \"#utility.yul\":3793:3822   */\n  swap1\n  pop\n    /* \"#utility.yul\":3533:3828   */\n  swap3\n  swap2\n  pop\n  pop\n  jump\t// out\n    /* \"#utility.yul\":3833:5228   */\ntag_9:\n    /* \"#utility.yul\":3950:3987   */\n  tag_90\n    /* \"#utility.yul\":3983:3986   */\n  dup3\n    /* \"#utility.yul\":3950:3987   */\n  tag_24\n  jump\t// in\ntag_90:\n    /* \"#utility.yul\":4052:4070   */\n  0xffffffffffffffff\n    /* \"#utility.yul\":4044:4050   */\n  dup2\n    /* \"#utility.yul\":4041:4071   */\n  gt\n    /* \"#utility.yul\":4038:4094   */\n  iszero\n  tag_91\n  jumpi\n    /* \"#utility.yul\":4074:4092   */\n  tag_92\n  tag_25\n  jump\t// in\ntag_92:\n    /* \"#utility.yul\":4038:4094   */\ntag_91:\n    /* \"#utility.yul\":4118:4156   */\n  tag_93\n    /* \"#utility.yul\":4150:4154   */\n  dup3\n    /* \"#utility.yul\":4144:4155   */\n  sload\n    /* \"#utility.yul\":4118:4156   */\n  tag_17\n  jump\t// in\ntag_93:\n    /* \"#utility.yul\":4203:4270   */\n  tag_94\n    /* \"#utility.yul\":4263:4269   */\n  dup3\n    /* \"#utility.yul\":4255:4261   */\n  dup3\n    /* \"#utility.yul\":4249:4253   */\n  dup6\n    /* \"#utility.yul\":4203:4270   */\n  tag_39\n  jump\t// in\ntag_94:\n    /* \"#utility.yul\":4297:4298   */\n  0x00\n    /* \"#utility.yul\":4321:4325   */\n  0x20\n    /* \"#utility.yul\":4308:4325   */\n  swap1\n  pop\n    /* \"#utility.yul\":4353:4355   */\n  0x1f\n    /* \"#utility.yul\":4345:4351   */\n  dup4\n    /* \"#utility.yul\":4342:4356   */\n  gt\n    /* \"#utility.yul\":4370:4371   */\n  0x01\n    /* \"#utility.yul\":4365:4983   */\n  dup2\n  eq\n  tag_96\n  jumpi\n    /* \"#utility.yul\":5027:5028   */\n  0x00\n    /* \"#utility.yul\":5044:5050   */\n  dup5\n    /* \"#utility.yul\":5041:5118   */\n  iszero\n  tag_97\n  jumpi\n    /* \"#utility.yul\":5093:5102   */\n  dup3\n    /* \"#utility.yul\":5088:5091   */\n  dup8\n    /* \"#utility.yul\":5084:5103   */\n  add\n    /* \"#utility.yul\":5078:5104   */\n  mload\n    /* \"#utility.yul\":5069:5104   */\n  swap1\n  pop\n    /* \"#utility.yul\":5041:5118   */\ntag_97:\n    /* \"#utility.yul\":5144:5211   */\n  tag_98\n    /* \"#utility.yul\":5204:5210   */\n  dup6\n    /* \"#utility.yul\":5197:5202   */\n  dup3\n    /* \"#utility.yul\":5144:5211   */\n  tag_42\n  jump\t// in\ntag_98:\n    /* \"#utility.yul\":5138:5142   */\n  dup7\n    /* \"#utility.yul\":5131:5212   */\n  sstore\n    /* \"#utility.yul\":5000:5222   */\n  pop\n    /* \"#utility.yul\":4335:5222   */\n  jump(tag_95)\n    /* \"#utility.yul\":4365:4983   */\ntag_96:\n    /* \"#utility.yul\":4417:4421   */\n  0x1f\n    /* \"#utility.yul\":4413:4422   */\n  not\n    /* \"#utility.yul\":4405:4411   */\n  dup5\n    /* \"#utility.yul\":4401:4423   */\n  and\n    /* \"#utility.yul\":4451:4488   */\n  tag_99\n    /* \"#utility.yul\":4483:4487   */\n  dup7\n    /* \"#utility.yul\":4451:4488   */\n  tag_27\n  jump\t// in\ntag_99:\n    /* \"#utility.yul\":4510:4511   */\n  0x00\n    /* \"#utility.yul\":4524:4732   */\ntag_100:\n    /* \"#utility.yul\":4538:4545   */\n  dup3\n    /* \"#utility.yul\":4535:4536   */\n  dup2\n    /* \"#utility.yul\":4532:4546   */\n  lt\n    /* \"#utility.yul\":4524:4732   */\n  iszero\n  tag_102\n  jumpi\n    /* \"#utility.yul\":4617:4626   */\n  dup5\n    /* \"#utility.yul\":4612:4615   */\n  dup10\n    /* \"#utility.yul\":4608:4627   */\n  add\n    /* \"#utility.yul\":4602:4628   */\n  mload\n    /* \"#utility.yul\":4594:4600   */\n  dup3\n    /* \"#utility.yul\":4587:4629   */\n  sstore\n    /* \"#utility.yul\":4668:4669   */\n  0x01\n    /* \"#utility.yul\":4660:4666   */\n  dup3\n    /* \"#utility.yul\":4656:4670   */\n  add\n    /* \"#utility.yul\":4646:4670   */\n  swap2\n  pop\n    /* \"#utility.yul\":4715:4717   */\n  0x20\n    /* \"#utility.yul\":4704:4713   */\n  dup6\n    /* \"#utility.yul\":4700:4718   */\n  add\n    /* \"#utility.yul\":4687:4718   */\n  swap5\n  pop\n    /* \"#utility.yul\":4561:4565   */\n  0x20\n    /* \"#utility.yul\":4558:4559   */\n  dup2\n    /* \"#utility.yul\":4554:4566   */\n  add\n    /* \"#utility.yul\":4549:4566   */\n  swap1\n  pop\n    /* \"#utility.yul\":4524:4732   */\n  jump(tag_100)\ntag_102:\n    /* \"#utility.yul\":4760:4766   */\n  dup7\n    /* \"#utility.yul\":4751:4758   */\n  dup4\n    /* \"#utility.yul\":4748:4767   */\n  lt\n    /* \"#utility.yul\":4745:4924   */\n  iszero\n  tag_103\n  jumpi\n    /* \"#utility.yul\":4818:4827   */\n  dup5\n    /* \"#utility.yul\":4813:4816   */\n  dup10\n    /* \"#utility.yul\":4809:4828   */\n  add\n    /* \"#utility.yul\":4803:4829   */\n  mload\n    /* \"#utility.yul\":4861:4909   */\n  tag_104\n    /* \"#utility.yul\":4903:4907   */\n  0x1f\n    /* \"#utility.yul\":4895:4901   */\n  dup10\n    /* \"#utility.yul\":4891:4908   */\n  and\n    /* \"#utility.yul\":4880:4889   */\n  dup3\n    /* \"#utility.yul\":4861:4909   */\n  tag_41\n  jump\t// in\ntag_104:\n    /* \"#utility.yul\":4853:4859   */\n  dup4\n    /* \"#utility.yul\":4846:4910   */\n  sstore\n    /* \"#utility.yul\":4768:4924   */\n  pop\n    /* \"#utility.yul\":4745:4924   */\ntag_103:\n    /* \"#utility.yul\":4970:4971   */\n  0x01\n    /* \"#utility.yul\":4966:4967   */\n  0x02\n    /* \"#utility.yul\":4958:4964   */\n  dup9\n    /* \"#utility.yul\":4954:4968   */\n  mul\n    /* \"#utility.yul\":4950:4972   */\n  add\n    /* \"#utility.yul\":4944:4948   */\n  dup9\n    /* \"#utility.yul\":4937:4973   */\n  sstore\n    /* \"#utility.yul\":4372:4983   */\n  pop\n  pop\n  pop\n    /* \"#utility.yul\":4335:5222   */\ntag_95:\n  pop\n    /* \"#utility.yul\":3925:5228   */\n  pop\n  pop\n  pop\n    /* \"#utility.yul\":3833:5228   */\n  pop\n  pop\n  jump\t// out\n    /* \"contracts/Transcation.sol\":1121:1923  contract studentids{//Mapping... */\ntag_4:\n  dataSize(sub_0)\n  dup1\n  dataOffset(sub_0)\n  0x00\n  codecopy\n  0x00\n  return\nstop\n\nsub_0: assembly {\n        /* \"contracts/Transcation.sol\":1121:1923  contract studentids{//Mapping... */\n      mstore(0x40, 0x80)\n      callvalue\n      dup1\n      iszero\n      tag_1\n      jumpi\n      0x00\n      dup1\n      revert\n    tag_1:\n      pop\n      jumpi(tag_2, lt(calldatasize, 0x04))\n      shr(0xe0, calldataload(0x00))\n      dup1\n      0x3c0e106d\n      eq\n      tag_3\n      jumpi\n      dup1\n      0x634dc8ce\n      eq\n      tag_4\n      jumpi\n      dup1\n      0x71e5ee5f\n      eq\n      tag_5\n      jumpi\n      dup1\n      0xd956690b\n      eq\n      tag_6\n      jumpi\n    tag_2:\n      0x00\n      dup1\n      revert\n        /* \"contracts/Transcation.sol\":1679:1919  function displayblockdetails() public view returns(uint,uint,uint,uint,address payable,address,uint,address){... */\n    tag_3:\n      tag_7\n      tag_8\n      jump\t// in\n    tag_7:\n      mload(0x40)\n      tag_9\n      swap9\n      swap8\n      swap7\n      swap6\n      swap5\n      swap4\n      swap3\n      swap2\n      swap1\n      tag_10\n      jump\t// in\n    tag_9:\n      mload(0x40)\n      dup1\n      swap2\n      sub\n      swap1\n      return\n        /* \"contracts/Transcation.sol\":1364:1546  function changeDataByMemory() public view returns(string memory){//Here changes occurs only in s1... */\n    tag_4:\n      tag_11\n      tag_12\n      jump\t// in\n    tag_11:\n      mload(0x40)\n      tag_13\n      swap2\n      swap1\n      tag_14\n      jump\t// in\n    tag_13:\n      mload(0x40)\n      dup1\n      swap2\n      sub\n      swap1\n      return\n        /* \"contracts/Transcation.sol\":1206:1251  string[] public arr = ['abc','xyz','simform'] */\n    tag_5:\n      tag_15\n      0x04\n      dup1\n      calldatasize\n      sub\n      dup2\n      add\n      swap1\n      tag_16\n      swap2\n      swap1\n      tag_17\n      jump\t// in\n    tag_16:\n      tag_18\n      jump\t// in\n    tag_15:\n      mload(0x40)\n      tag_19\n      swap2\n      swap1\n      tag_14\n      jump\t// in\n    tag_19:\n      mload(0x40)\n      dup1\n      swap2\n      sub\n      swap1\n      return\n        /* \"contracts/Transcation.sol\":1552:1655  function changeDataByStorage() public {... */\n    tag_6:\n      tag_20\n      tag_21\n      jump\t// in\n    tag_20:\n      stop\n        /* \"contracts/Transcation.sol\":1679:1919  function displayblockdetails() public view returns(uint,uint,uint,uint,address payable,address,uint,address){... */\n    tag_8:\n        /* \"contracts/Transcation.sol\":1730:1734  uint */\n      0x00\n        /* \"contracts/Transcation.sol\":1735:1739  uint */\n      dup1\n        /* \"contracts/Transcation.sol\":1740:1744  uint */\n      0x00\n        /* \"contracts/Transcation.sol\":1745:1749  uint */\n      dup1\n        /* \"contracts/Transcation.sol\":1750:1765  address payable */\n      0x00\n        /* \"contracts/Transcation.sol\":1766:1773  address */\n      dup1\n        /* \"contracts/Transcation.sol\":1774:1778  uint */\n      0x00\n        /* \"contracts/Transcation.sol\":1779:1786  address */\n      dup1\n        /* \"contracts/Transcation.sol\":1804:1816  block.number */\n      number\n        /* \"contracts/Transcation.sol\":1817:1832  block.timestamp */\n      timestamp\n        /* \"contracts/Transcation.sol\":1833:1849  block.prevrandao */\n      prevrandao\n        /* \"contracts/Transcation.sol\":1850:1863  block.chainid */\n      chainid\n        /* \"contracts/Transcation.sol\":1864:1878  block.coinbase */\n      coinbase\n        /* \"contracts/Transcation.sol\":1879:1889  msg.sender */\n      caller\n        /* \"contracts/Transcation.sol\":1890:1901  tx.gasprice */\n      gasprice\n        /* \"contracts/Transcation.sol\":1902:1911  tx.origin */\n      origin\n        /* \"contracts/Transcation.sol\":1797:1912  return(block.number,block.timestamp,block.prevrandao,block.chainid,block.coinbase,msg.sender,tx.gasprice,tx.origin) */\n      swap8\n      pop\n      swap8\n      pop\n      swap8\n      pop\n      swap8\n      pop\n      swap8\n      pop\n      swap8\n      pop\n      swap8\n      pop\n      swap8\n      pop\n        /* \"contracts/Transcation.sol\":1679:1919  function displayblockdetails() public view returns(uint,uint,uint,uint,address payable,address,uint,address){... */\n      swap1\n      swap2\n      swap3\n      swap4\n      swap5\n      swap6\n      swap7\n      swap8\n      jump\t// out\n        /* \"contracts/Transcation.sol\":1364:1546  function changeDataByMemory() public view returns(string memory){//Here changes occurs only in s1... */\n    tag_12:\n        /* \"contracts/Transcation.sol\":1414:1427  string memory */\n      0x60\n        /* \"contracts/Transcation.sol\":1470:1488  string[] memory s1 */\n      0x00\n        /* \"contracts/Transcation.sol\":1491:1494  arr */\n      dup1\n        /* \"contracts/Transcation.sol\":1470:1494  string[] memory s1 = arr */\n      dup1\n      sload\n      dup1\n      0x20\n      mul\n      0x20\n      add\n      mload(0x40)\n      swap1\n      dup2\n      add\n      0x40\n      mstore\n      dup1\n      swap3\n      swap2\n      swap1\n      dup2\n      dup2\n      mstore\n      0x20\n      add\n      0x00\n      swap1\n    tag_24:\n      dup3\n      dup3\n      lt\n      iszero\n      tag_25\n      jumpi\n      dup4\n      dup3\n      swap1\n      0x00\n      mstore\n      keccak256(0x00, 0x20)\n      add\n      dup1\n      sload\n      tag_27\n      swap1\n      tag_28\n      jump\t// in\n    tag_27:\n      dup1\n      0x1f\n      add\n      0x20\n      dup1\n      swap2\n      div\n      mul\n      0x20\n      add\n      mload(0x40)\n      swap1\n      dup2\n      add\n      0x40\n      mstore\n      dup1\n      swap3\n      swap2\n      swap1\n      dup2\n      dup2\n      mstore\n      0x20\n      add\n      dup3\n      dup1\n      sload\n      tag_29\n      swap1\n      tag_28\n      jump\t// in\n    tag_29:\n      dup1\n      iszero\n      tag_30\n      jumpi\n      dup1\n      0x1f\n      lt\n      tag_31\n      jumpi\n      0x0100\n      dup1\n      dup4\n      sload\n      div\n      mul\n      dup4\n      mstore\n      swap2\n      0x20\n      add\n      swap2\n      jump(tag_30)\n    tag_31:\n      dup3\n      add\n      swap2\n      swap1\n      0x00\n      mstore\n      keccak256(0x00, 0x20)\n      swap1\n    tag_32:\n      dup2\n      sload\n      dup2\n      mstore\n      swap1\n      0x01\n      add\n      swap1\n      0x20\n      add\n      dup1\n      dup4\n      gt\n      tag_32\n      jumpi\n      dup3\n      swap1\n      sub\n      0x1f\n      and\n      dup3\n      add\n      swap2\n    tag_30:\n      pop\n      pop\n      pop\n      pop\n      pop\n      dup2\n      mstore\n      0x20\n      add\n      swap1\n      0x01\n      add\n      swap1\n      jump(tag_24)\n    tag_25:\n      pop\n      pop\n      pop\n      pop\n      swap1\n      pop\n        /* \"contracts/Transcation.sol\":1504:1517  s1[0]='first' */\n      mload(0x40)\n      dup1\n      0x40\n      add\n      0x40\n      mstore\n      dup1\n      0x05\n      dup2\n      mstore\n      0x20\n      add\n      0x6669727374000000000000000000000000000000000000000000000000000000\n      dup2\n      mstore\n      pop\n        /* \"contracts/Transcation.sol\":1504:1506  s1 */\n      dup2\n        /* \"contracts/Transcation.sol\":1507:1508  0 */\n      0x00\n        /* \"contracts/Transcation.sol\":1504:1509  s1[0] */\n      dup2\n      mload\n      dup2\n      lt\n      tag_33\n      jumpi\n      tag_34\n      tag_35\n      jump\t// in\n    tag_34:\n    tag_33:\n      0x20\n      mul\n      0x20\n      add\n      add\n        /* \"contracts/Transcation.sol\":1504:1517  s1[0]='first' */\n      dup2\n      swap1\n      mstore\n      pop\n        /* \"contracts/Transcation.sol\":1534:1536  s1 */\n      dup1\n        /* \"contracts/Transcation.sol\":1537:1538  0 */\n      0x00\n        /* \"contracts/Transcation.sol\":1534:1539  s1[0] */\n      dup2\n      mload\n      dup2\n      lt\n      tag_36\n      jumpi\n      tag_37\n      tag_35\n      jump\t// in\n    tag_37:\n    tag_36:\n      0x20\n      mul\n      0x20\n      add\n      add\n      mload\n        /* \"contracts/Transcation.sol\":1527:1539  return s1[0] */\n      swap2\n      pop\n      pop\n        /* \"contracts/Transcation.sol\":1364:1546  function changeDataByMemory() public view returns(string memory){//Here changes occurs only in s1... */\n      swap1\n      jump\t// out\n        /* \"contracts/Transcation.sol\":1206:1251  string[] public arr = ['abc','xyz','simform'] */\n    tag_18:\n      0x00\n      dup2\n      dup2\n      sload\n      dup2\n      lt\n      tag_38\n      jumpi\n      0x00\n      dup1\n      revert\n    tag_38:\n      swap1\n      0x00\n      mstore\n      keccak256(0x00, 0x20)\n      add\n      0x00\n      swap2\n      pop\n      swap1\n      pop\n      dup1\n      sload\n      tag_40\n      swap1\n      tag_28\n      jump\t// in\n    tag_40:\n      dup1\n      0x1f\n      add\n      0x20\n      dup1\n      swap2\n      div\n      mul\n      0x20\n      add\n      mload(0x40)\n      swap1\n      dup2\n      add\n      0x40\n      mstore\n      dup1\n      swap3\n      swap2\n      swap1\n      dup2\n      dup2\n      mstore\n      0x20\n      add\n      dup3\n      dup1\n      sload\n      tag_41\n      swap1\n      tag_28\n      jump\t// in\n    tag_41:\n      dup1\n      iszero\n      tag_42\n      jumpi\n      dup1\n      0x1f\n      lt\n      tag_43\n      jumpi\n      0x0100\n      dup1\n      dup4\n      sload\n      div\n      mul\n      dup4\n      mstore\n      swap2\n      0x20\n      add\n      swap2\n      jump(tag_42)\n    tag_43:\n      dup3\n      add\n      swap2\n      swap1\n      0x00\n      mstore\n      keccak256(0x00, 0x20)\n      swap1\n    tag_44:\n      dup2\n      sload\n      dup2\n      mstore\n      swap1\n      0x01\n      add\n      swap1\n      0x20\n      add\n      dup1\n      dup4\n      gt\n      tag_44\n      jumpi\n      dup3\n      swap1\n      sub\n      0x1f\n      and\n      dup3\n      add\n      swap2\n    tag_42:\n      pop\n      pop\n      pop\n      pop\n      pop\n      dup2\n      jump\t// out\n        /* \"contracts/Transcation.sol\":1552:1655  function changeDataByStorage() public {... */\n    tag_21:\n        /* \"contracts/Transcation.sol\":1600:1619  string[] storage s1 */\n      0x00\n        /* \"contracts/Transcation.sol\":1635:1648  s1[0] = 'one' */\n      mload(0x40)\n      dup1\n      0x40\n      add\n      0x40\n      mstore\n      dup1\n      0x03\n      dup2\n      mstore\n      0x20\n      add\n      0x6f6e650000000000000000000000000000000000000000000000000000000000\n      dup2\n      mstore\n      pop\n        /* \"contracts/Transcation.sol\":1635:1637  s1 */\n      dup2\n        /* \"contracts/Transcation.sol\":1638:1639  0 */\n      0x00\n        /* \"contracts/Transcation.sol\":1635:1640  s1[0] */\n      dup2\n      sload\n      dup2\n      lt\n      tag_46\n      jumpi\n      tag_47\n      tag_35\n      jump\t// in\n    tag_47:\n    tag_46:\n      swap1\n      0x00\n      mstore\n      keccak256(0x00, 0x20)\n      add\n        /* \"contracts/Transcation.sol\":1635:1648  s1[0] = 'one' */\n      swap1\n      dup2\n      tag_49\n      swap2\n      swap1\n      tag_50\n      jump\t// in\n    tag_49:\n      pop\n        /* \"contracts/Transcation.sol\":1590:1655  {... */\n      pop\n        /* \"contracts/Transcation.sol\":1552:1655  function changeDataByStorage() public {... */\n      jump\t// out\n        /* \"#utility.yul\":7:84   */\n    tag_51:\n        /* \"#utility.yul\":44:51   */\n      0x00\n        /* \"#utility.yul\":73:78   */\n      dup2\n        /* \"#utility.yul\":62:78   */\n      swap1\n      pop\n        /* \"#utility.yul\":7:84   */\n      swap2\n      swap1\n      pop\n      jump\t// out\n        /* \"#utility.yul\":90:208   */\n    tag_52:\n        /* \"#utility.yul\":177:201   */\n      tag_88\n        /* \"#utility.yul\":195:200   */\n      dup2\n        /* \"#utility.yul\":177:201   */\n      tag_51\n      jump\t// in\n    tag_88:\n        /* \"#utility.yul\":172:175   */\n      dup3\n        /* \"#utility.yul\":165:202   */\n      mstore\n        /* \"#utility.yul\":90:208   */\n      pop\n      pop\n      jump\t// out\n        /* \"#utility.yul\":214:340   */\n    tag_53:\n        /* \"#utility.yul\":251:258   */\n      0x00\n        /* \"#utility.yul\":291:333   */\n      0xffffffffffffffffffffffffffffffffffffffff\n        /* \"#utility.yul\":284:289   */\n      dup3\n        /* \"#utility.yul\":280:334   */\n      and\n        /* \"#utility.yul\":269:334   */\n      swap1\n      pop\n        /* \"#utility.yul\":214:340   */\n      swap2\n      swap1\n      pop\n      jump\t// out\n        /* \"#utility.yul\":346:450   */\n    tag_54:\n        /* \"#utility.yul\":391:398   */\n      0x00\n        /* \"#utility.yul\":420:444   */\n      tag_91\n        /* \"#utility.yul\":438:443   */\n      dup3\n        /* \"#utility.yul\":420:444   */\n      tag_53\n      jump\t// in\n    tag_91:\n        /* \"#utility.yul\":409:444   */\n      swap1\n      pop\n        /* \"#utility.yul\":346:450   */\n      swap2\n      swap1\n      pop\n      jump\t// out\n        /* \"#utility.yul\":456:598   */\n    tag_55:\n        /* \"#utility.yul\":559:591   */\n      tag_93\n        /* \"#utility.yul\":585:590   */\n      dup2\n        /* \"#utility.yul\":559:591   */\n      tag_54\n      jump\t// in\n    tag_93:\n        /* \"#utility.yul\":554:557   */\n      dup3\n        /* \"#utility.yul\":547:592   */\n      mstore\n        /* \"#utility.yul\":456:598   */\n      pop\n      pop\n      jump\t// out\n        /* \"#utility.yul\":604:700   */\n    tag_56:\n        /* \"#utility.yul\":641:648   */\n      0x00\n        /* \"#utility.yul\":670:694   */\n      tag_95\n        /* \"#utility.yul\":688:693   */\n      dup3\n        /* \"#utility.yul\":670:694   */\n      tag_53\n      jump\t// in\n    tag_95:\n        /* \"#utility.yul\":659:694   */\n      swap1\n      pop\n        /* \"#utility.yul\":604:700   */\n      swap2\n      swap1\n      pop\n      jump\t// out\n        /* \"#utility.yul\":706:824   */\n    tag_57:\n        /* \"#utility.yul\":793:817   */\n      tag_97\n        /* \"#utility.yul\":811:816   */\n      dup2\n        /* \"#utility.yul\":793:817   */\n      tag_56\n      jump\t// in\n    tag_97:\n        /* \"#utility.yul\":788:791   */\n      dup3\n        /* \"#utility.yul\":781:818   */\n      mstore\n        /* \"#utility.yul\":706:824   */\n      pop\n      pop\n      jump\t// out\n        /* \"#utility.yul\":830:1859   */\n    tag_10:\n        /* \"#utility.yul\":1135:1139   */\n      0x00\n        /* \"#utility.yul\":1173:1176   */\n      0x0100\n        /* \"#utility.yul\":1162:1171   */\n      dup3\n        /* \"#utility.yul\":1158:1177   */\n      add\n        /* \"#utility.yul\":1150:1177   */\n      swap1\n      pop\n        /* \"#utility.yul\":1187:1258   */\n      tag_99\n        /* \"#utility.yul\":1255:1256   */\n      0x00\n        /* \"#utility.yul\":1244:1253   */\n      dup4\n        /* \"#utility.yul\":1240:1257   */\n      add\n        /* \"#utility.yul\":1231:1237   */\n      dup12\n        /* \"#utility.yul\":1187:1258   */\n      tag_52\n      jump\t// in\n    tag_99:\n        /* \"#utility.yul\":1268:1340   */\n      tag_100\n        /* \"#utility.yul\":1336:1338   */\n      0x20\n        /* \"#utility.yul\":1325:1334   */\n      dup4\n        /* \"#utility.yul\":1321:1339   */\n      add\n        /* \"#utility.yul\":1312:1318   */\n      dup11\n        /* \"#utility.yul\":1268:1340   */\n      tag_52\n      jump\t// in\n    tag_100:\n        /* \"#utility.yul\":1350:1422   */\n      tag_101\n        /* \"#utility.yul\":1418:1420   */\n      0x40\n        /* \"#utility.yul\":1407:1416   */\n      dup4\n        /* \"#utility.yul\":1403:1421   */\n      add\n        /* \"#utility.yul\":1394:1400   */\n      dup10\n        /* \"#utility.yul\":1350:1422   */\n      tag_52\n      jump\t// in\n    tag_101:\n        /* \"#utility.yul\":1432:1504   */\n      tag_102\n        /* \"#utility.yul\":1500:1502   */\n      0x60\n        /* \"#utility.yul\":1489:1498   */\n      dup4\n        /* \"#utility.yul\":1485:1503   */\n      add\n        /* \"#utility.yul\":1476:1482   */\n      dup9\n        /* \"#utility.yul\":1432:1504   */\n      tag_52\n      jump\t// in\n    tag_102:\n        /* \"#utility.yul\":1514:1603   */\n      tag_103\n        /* \"#utility.yul\":1598:1601   */\n      0x80\n        /* \"#utility.yul\":1587:1596   */\n      dup4\n        /* \"#utility.yul\":1583:1602   */\n      add\n        /* \"#utility.yul\":1574:1580   */\n      dup8\n        /* \"#utility.yul\":1514:1603   */\n      tag_55\n      jump\t// in\n    tag_103:\n        /* \"#utility.yul\":1613:1686   */\n      tag_104\n        /* \"#utility.yul\":1681:1684   */\n      0xa0\n        /* \"#utility.yul\":1670:1679   */\n      dup4\n        /* \"#utility.yul\":1666:1685   */\n      add\n        /* \"#utility.yul\":1657:1663   */\n      dup7\n        /* \"#utility.yul\":1613:1686   */\n      tag_57\n      jump\t// in\n    tag_104:\n        /* \"#utility.yul\":1696:1769   */\n      tag_105\n        /* \"#utility.yul\":1764:1767   */\n      0xc0\n        /* \"#utility.yul\":1753:1762   */\n      dup4\n        /* \"#utility.yul\":1749:1768   */\n      add\n        /* \"#utility.yul\":1740:1746   */\n      dup6\n        /* \"#utility.yul\":1696:1769   */\n      tag_52\n      jump\t// in\n    tag_105:\n        /* \"#utility.yul\":1779:1852   */\n      tag_106\n        /* \"#utility.yul\":1847:1850   */\n      0xe0\n        /* \"#utility.yul\":1836:1845   */\n      dup4\n        /* \"#utility.yul\":1832:1851   */\n      add\n        /* \"#utility.yul\":1823:1829   */\n      dup5\n        /* \"#utility.yul\":1779:1852   */\n      tag_57\n      jump\t// in\n    tag_106:\n        /* \"#utility.yul\":830:1859   */\n      swap10\n      swap9\n      pop\n      pop\n      pop\n      pop\n      pop\n      pop\n      pop\n      pop\n      pop\n      jump\t// out\n        /* \"#utility.yul\":1865:1964   */\n    tag_58:\n        /* \"#utility.yul\":1917:1923   */\n      0x00\n        /* \"#utility.yul\":1951:1956   */\n      dup2\n        /* \"#utility.yul\":1945:1957   */\n      mload\n        /* \"#utility.yul\":1935:1957   */\n      swap1\n      pop\n        /* \"#utility.yul\":1865:1964   */\n      swap2\n      swap1\n      pop\n      jump\t// out\n        /* \"#utility.yul\":1970:2139   */\n    tag_59:\n        /* \"#utility.yul\":2054:2065   */\n      0x00\n        /* \"#utility.yul\":2088:2094   */\n      dup3\n        /* \"#utility.yul\":2083:2086   */\n      dup3\n        /* \"#utility.yul\":2076:2095   */\n      mstore\n        /* \"#utility.yul\":2128:2132   */\n      0x20\n        /* \"#utility.yul\":2123:2126   */\n      dup3\n        /* \"#utility.yul\":2119:2133   */\n      add\n        /* \"#utility.yul\":2104:2133   */\n      swap1\n      pop\n        /* \"#utility.yul\":1970:2139   */\n      swap3\n      swap2\n      pop\n      pop\n      jump\t// out\n        /* \"#utility.yul\":2145:2391   */\n    tag_60:\n        /* \"#utility.yul\":2226:2227   */\n      0x00\n        /* \"#utility.yul\":2236:2349   */\n    tag_110:\n        /* \"#utility.yul\":2250:2256   */\n      dup4\n        /* \"#utility.yul\":2247:2248   */\n      dup2\n        /* \"#utility.yul\":2244:2257   */\n      lt\n        /* \"#utility.yul\":2236:2349   */\n      iszero\n      tag_112\n      jumpi\n        /* \"#utility.yul\":2335:2336   */\n      dup1\n        /* \"#utility.yul\":2330:2333   */\n      dup3\n        /* \"#utility.yul\":2326:2337   */\n      add\n        /* \"#utility.yul\":2320:2338   */\n      mload\n        /* \"#utility.yul\":2316:2317   */\n      dup2\n        /* \"#utility.yul\":2311:2314   */\n      dup5\n        /* \"#utility.yul\":2307:2318   */\n      add\n        /* \"#utility.yul\":2300:2339   */\n      mstore\n        /* \"#utility.yul\":2272:2274   */\n      0x20\n        /* \"#utility.yul\":2269:2270   */\n      dup2\n        /* \"#utility.yul\":2265:2275   */\n      add\n        /* \"#utility.yul\":2260:2275   */\n      swap1\n      pop\n        /* \"#utility.yul\":2236:2349   */\n      jump(tag_110)\n    tag_112:\n        /* \"#utility.yul\":2383:2384   */\n      0x00\n        /* \"#utility.yul\":2374:2380   */\n      dup5\n        /* \"#utility.yul\":2369:2372   */\n      dup5\n        /* \"#utility.yul\":2365:2381   */\n      add\n        /* \"#utility.yul\":2358:2385   */\n      mstore\n        /* \"#utility.yul\":2207:2391   */\n      pop\n        /* \"#utility.yul\":2145:2391   */\n      pop\n      pop\n      pop\n      jump\t// out\n        /* \"#utility.yul\":2397:2499   */\n    tag_61:\n        /* \"#utility.yul\":2438:2444   */\n      0x00\n        /* \"#utility.yul\":2489:2491   */\n      0x1f\n        /* \"#utility.yul\":2485:2492   */\n      not\n        /* \"#utility.yul\":2480:2482   */\n      0x1f\n        /* \"#utility.yul\":2473:2478   */\n      dup4\n        /* \"#utility.yul\":2469:2483   */\n      add\n        /* \"#utility.yul\":2465:2493   */\n      and\n        /* \"#utility.yul\":2455:2493   */\n      swap1\n      pop\n        /* \"#utility.yul\":2397:2499   */\n      swap2\n      swap1\n      pop\n      jump\t// out\n        /* \"#utility.yul\":2505:2882   */\n    tag_62:\n        /* \"#utility.yul\":2593:2596   */\n      0x00\n        /* \"#utility.yul\":2621:2660   */\n      tag_115\n        /* \"#utility.yul\":2654:2659   */\n      dup3\n        /* \"#utility.yul\":2621:2660   */\n      tag_58\n      jump\t// in\n    tag_115:\n        /* \"#utility.yul\":2676:2747   */\n      tag_116\n        /* \"#utility.yul\":2740:2746   */\n      dup2\n        /* \"#utility.yul\":2735:2738   */\n      dup6\n        /* \"#utility.yul\":2676:2747   */\n      tag_59\n      jump\t// in\n    tag_116:\n        /* \"#utility.yul\":2669:2747   */\n      swap4\n      pop\n        /* \"#utility.yul\":2756:2821   */\n      tag_117\n        /* \"#utility.yul\":2814:2820   */\n      dup2\n        /* \"#utility.yul\":2809:2812   */\n      dup6\n        /* \"#utility.yul\":2802:2806   */\n      0x20\n        /* \"#utility.yul\":2795:2800   */\n      dup7\n        /* \"#utility.yul\":2791:2807   */\n      add\n        /* \"#utility.yul\":2756:2821   */\n      tag_60\n      jump\t// in\n    tag_117:\n        /* \"#utility.yul\":2846:2875   */\n      tag_118\n        /* \"#utility.yul\":2868:2874   */\n      dup2\n        /* \"#utility.yul\":2846:2875   */\n      tag_61\n      jump\t// in\n    tag_118:\n        /* \"#utility.yul\":2841:2844   */\n      dup5\n        /* \"#utility.yul\":2837:2876   */\n      add\n        /* \"#utility.yul\":2830:2876   */\n      swap2\n      pop\n        /* \"#utility.yul\":2597:2882   */\n      pop\n        /* \"#utility.yul\":2505:2882   */\n      swap3\n      swap2\n      pop\n      pop\n      jump\t// out\n        /* \"#utility.yul\":2888:3201   */\n    tag_14:\n        /* \"#utility.yul\":3001:3005   */\n      0x00\n        /* \"#utility.yul\":3039:3041   */\n      0x20\n        /* \"#utility.yul\":3028:3037   */\n      dup3\n        /* \"#utility.yul\":3024:3042   */\n      add\n        /* \"#utility.yul\":3016:3042   */\n      swap1\n      pop\n        /* \"#utility.yul\":3088:3097   */\n      dup2\n        /* \"#utility.yul\":3082:3086   */\n      dup2\n        /* \"#utility.yul\":3078:3098   */\n      sub\n        /* \"#utility.yul\":3074:3075   */\n      0x00\n        /* \"#utility.yul\":3063:3072   */\n      dup4\n        /* \"#utility.yul\":3059:3076   */\n      add\n        /* \"#utility.yul\":3052:3099   */\n      mstore\n        /* \"#utility.yul\":3116:3194   */\n      tag_120\n        /* \"#utility.yul\":3189:3193   */\n      dup2\n        /* \"#utility.yul\":3180:3186   */\n      dup5\n        /* \"#utility.yul\":3116:3194   */\n      tag_62\n      jump\t// in\n    tag_120:\n        /* \"#utility.yul\":3108:3194   */\n      swap1\n      pop\n        /* \"#utility.yul\":2888:3201   */\n      swap3\n      swap2\n      pop\n      pop\n      jump\t// out\n        /* \"#utility.yul\":3288:3405   */\n    tag_64:\n        /* \"#utility.yul\":3397:3398   */\n      0x00\n        /* \"#utility.yul\":3394:3395   */\n      dup1\n        /* \"#utility.yul\":3387:3399   */\n      revert\n        /* \"#utility.yul\":3534:3656   */\n    tag_66:\n        /* \"#utility.yul\":3607:3631   */\n      tag_125\n        /* \"#utility.yul\":3625:3630   */\n      dup2\n        /* \"#utility.yul\":3607:3631   */\n      tag_51\n      jump\t// in\n    tag_125:\n        /* \"#utility.yul\":3600:3605   */\n      dup2\n        /* \"#utility.yul\":3597:3632   */\n      eq\n        /* \"#utility.yul\":3587:3650   */\n      tag_126\n      jumpi\n        /* \"#utility.yul\":3646:3647   */\n      0x00\n        /* \"#utility.yul\":3643:3644   */\n      dup1\n        /* \"#utility.yul\":3636:3648   */\n      revert\n        /* \"#utility.yul\":3587:3650   */\n    tag_126:\n        /* \"#utility.yul\":3534:3656   */\n      pop\n      jump\t// out\n        /* \"#utility.yul\":3662:3801   */\n    tag_67:\n        /* \"#utility.yul\":3708:3713   */\n      0x00\n        /* \"#utility.yul\":3746:3752   */\n      dup2\n        /* \"#utility.yul\":3733:3753   */\n      calldataload\n        /* \"#utility.yul\":3724:3753   */\n      swap1\n      pop\n        /* \"#utility.yul\":3762:3795   */\n      tag_128\n        /* \"#utility.yul\":3789:3794   */\n      dup2\n        /* \"#utility.yul\":3762:3795   */\n      tag_66\n      jump\t// in\n    tag_128:\n        /* \"#utility.yul\":3662:3801   */\n      swap3\n      swap2\n      pop\n      pop\n      jump\t// out\n        /* \"#utility.yul\":3807:4136   */\n    tag_17:\n        /* \"#utility.yul\":3866:3872   */\n      0x00\n        /* \"#utility.yul\":3915:3917   */\n      0x20\n        /* \"#utility.yul\":3903:3912   */\n      dup3\n        /* \"#utility.yul\":3894:3901   */\n      dup5\n        /* \"#utility.yul\":3890:3913   */\n      sub\n        /* \"#utility.yul\":3886:3918   */\n      slt\n        /* \"#utility.yul\":3883:4002   */\n      iszero\n      tag_130\n      jumpi\n        /* \"#utility.yul\":3921:4000   */\n      tag_131\n      tag_64\n      jump\t// in\n    tag_131:\n        /* \"#utility.yul\":3883:4002   */\n    tag_130:\n        /* \"#utility.yul\":4041:4042   */\n      0x00\n        /* \"#utility.yul\":4066:4119   */\n      tag_132\n        /* \"#utility.yul\":4111:4118   */\n      dup5\n        /* \"#utility.yul\":4102:4108   */\n      dup3\n        /* \"#utility.yul\":4091:4100   */\n      dup6\n        /* \"#utility.yul\":4087:4109   */\n      add\n        /* \"#utility.yul\":4066:4119   */\n      tag_67\n      jump\t// in\n    tag_132:\n        /* \"#utility.yul\":4056:4119   */\n      swap2\n      pop\n        /* \"#utility.yul\":4012:4129   */\n      pop\n        /* \"#utility.yul\":3807:4136   */\n      swap3\n      swap2\n      pop\n      pop\n      jump\t// out\n        /* \"#utility.yul\":4142:4322   */\n    tag_68:\n        /* \"#utility.yul\":4190:4267   */\n      0x4e487b7100000000000000000000000000000000000000000000000000000000\n        /* \"#utility.yul\":4187:4188   */\n      0x00\n        /* \"#utility.yul\":4180:4268   */\n      mstore\n        /* \"#utility.yul\":4287:4291   */\n      0x22\n        /* \"#utility.yul\":4284:4285   */\n      0x04\n        /* \"#utility.yul\":4277:4292   */\n      mstore\n        /* \"#utility.yul\":4311:4315   */\n      0x24\n        /* \"#utility.yul\":4308:4309   */\n      0x00\n        /* \"#utility.yul\":4301:4316   */\n      revert\n        /* \"#utility.yul\":4328:4648   */\n    tag_28:\n        /* \"#utility.yul\":4372:4378   */\n      0x00\n        /* \"#utility.yul\":4409:4410   */\n      0x02\n        /* \"#utility.yul\":4403:4407   */\n      dup3\n        /* \"#utility.yul\":4399:4411   */\n      div\n        /* \"#utility.yul\":4389:4411   */\n      swap1\n      pop\n        /* \"#utility.yul\":4456:4457   */\n      0x01\n        /* \"#utility.yul\":4450:4454   */\n      dup3\n        /* \"#utility.yul\":4446:4458   */\n      and\n        /* \"#utility.yul\":4477:4495   */\n      dup1\n        /* \"#utility.yul\":4467:4548   */\n      tag_135\n      jumpi\n        /* \"#utility.yul\":4533:4537   */\n      0x7f\n        /* \"#utility.yul\":4525:4531   */\n      dup3\n        /* \"#utility.yul\":4521:4538   */\n      and\n        /* \"#utility.yul\":4511:4538   */\n      swap2\n      pop\n        /* \"#utility.yul\":4467:4548   */\n    tag_135:\n        /* \"#utility.yul\":4595:4597   */\n      0x20\n        /* \"#utility.yul\":4587:4593   */\n      dup3\n        /* \"#utility.yul\":4584:4598   */\n      lt\n        /* \"#utility.yul\":4564:4582   */\n      dup2\n        /* \"#utility.yul\":4561:4599   */\n      sub\n        /* \"#utility.yul\":4558:4642   */\n      tag_136\n      jumpi\n        /* \"#utility.yul\":4614:4632   */\n      tag_137\n      tag_68\n      jump\t// in\n    tag_137:\n        /* \"#utility.yul\":4558:4642   */\n    tag_136:\n        /* \"#utility.yul\":4379:4648   */\n      pop\n        /* \"#utility.yul\":4328:4648   */\n      swap2\n      swap1\n      pop\n      jump\t// out\n        /* \"#utility.yul\":4654:4834   */\n    tag_35:\n        /* \"#utility.yul\":4702:4779   */\n      0x4e487b7100000000000000000000000000000000000000000000000000000000\n        /* \"#utility.yul\":4699:4700   */\n      0x00\n        /* \"#utility.yul\":4692:4780   */\n      mstore\n        /* \"#utility.yul\":4799:4803   */\n      0x32\n        /* \"#utility.yul\":4796:4797   */\n      0x04\n        /* \"#utility.yul\":4789:4804   */\n      mstore\n        /* \"#utility.yul\":4823:4827   */\n      0x24\n        /* \"#utility.yul\":4820:4821   */\n      0x00\n        /* \"#utility.yul\":4813:4828   */\n      revert\n        /* \"#utility.yul\":4840:5020   */\n    tag_69:\n        /* \"#utility.yul\":4888:4965   */\n      0x4e487b7100000000000000000000000000000000000000000000000000000000\n        /* \"#utility.yul\":4885:4886   */\n      0x00\n        /* \"#utility.yul\":4878:4966   */\n      mstore\n        /* \"#utility.yul\":4985:4989   */\n      0x41\n        /* \"#utility.yul\":4982:4983   */\n      0x04\n        /* \"#utility.yul\":4975:4990   */\n      mstore\n        /* \"#utility.yul\":5009:5013   */\n      0x24\n        /* \"#utility.yul\":5006:5007   */\n      0x00\n        /* \"#utility.yul\":4999:5014   */\n      revert\n        /* \"#utility.yul\":5026:5167   */\n    tag_70:\n        /* \"#utility.yul\":5075:5079   */\n      0x00\n        /* \"#utility.yul\":5098:5101   */\n      dup2\n        /* \"#utility.yul\":5090:5101   */\n      swap1\n      pop\n        /* \"#utility.yul\":5121:5124   */\n      dup2\n        /* \"#utility.yul\":5118:5119   */\n      0x00\n        /* \"#utility.yul\":5111:5125   */\n      mstore\n        /* \"#utility.yul\":5155:5159   */\n      0x20\n        /* \"#utility.yul\":5152:5153   */\n      0x00\n        /* \"#utility.yul\":5142:5160   */\n      keccak256\n        /* \"#utility.yul\":5134:5160   */\n      swap1\n      pop\n        /* \"#utility.yul\":5026:5167   */\n      swap2\n      swap1\n      pop\n      jump\t// out\n        /* \"#utility.yul\":5173:5266   */\n    tag_71:\n        /* \"#utility.yul\":5210:5216   */\n      0x00\n        /* \"#utility.yul\":5257:5259   */\n      0x20\n        /* \"#utility.yul\":5252:5254   */\n      0x1f\n        /* \"#utility.yul\":5245:5250   */\n      dup4\n        /* \"#utility.yul\":5241:5255   */\n      add\n        /* \"#utility.yul\":5237:5260   */\n      div\n        /* \"#utility.yul\":5227:5260   */\n      swap1\n      pop\n        /* \"#utility.yul\":5173:5266   */\n      swap2\n      swap1\n      pop\n      jump\t// out\n        /* \"#utility.yul\":5272:5379   */\n    tag_72:\n        /* \"#utility.yul\":5316:5324   */\n      0x00\n        /* \"#utility.yul\":5366:5371   */\n      dup3\n        /* \"#utility.yul\":5360:5364   */\n      dup3\n        /* \"#utility.yul\":5356:5372   */\n      shl\n        /* \"#utility.yul\":5335:5372   */\n      swap1\n      pop\n        /* \"#utility.yul\":5272:5379   */\n      swap3\n      swap2\n      pop\n      pop\n      jump\t// out\n        /* \"#utility.yul\":5385:5778   */\n    tag_73:\n        /* \"#utility.yul\":5454:5460   */\n      0x00\n        /* \"#utility.yul\":5504:5505   */\n      0x08\n        /* \"#utility.yul\":5492:5502   */\n      dup4\n        /* \"#utility.yul\":5488:5506   */\n      mul\n        /* \"#utility.yul\":5527:5624   */\n      tag_144\n        /* \"#utility.yul\":5557:5623   */\n      0xffffffffffffffffffffffffffffffffffffffffffffffffffffffffffffffff\n        /* \"#utility.yul\":5546:5555   */\n      dup3\n        /* \"#utility.yul\":5527:5624   */\n      tag_72\n      jump\t// in\n    tag_144:\n        /* \"#utility.yul\":5645:5684   */\n      tag_145\n        /* \"#utility.yul\":5675:5683   */\n      dup7\n        /* \"#utility.yul\":5664:5673   */\n      dup4\n        /* \"#utility.yul\":5645:5684   */\n      tag_72\n      jump\t// in\n    tag_145:\n        /* \"#utility.yul\":5633:5684   */\n      swap6\n      pop\n        /* \"#utility.yul\":5717:5721   */\n      dup1\n        /* \"#utility.yul\":5713:5722   */\n      not\n        /* \"#utility.yul\":5706:5711   */\n      dup5\n        /* \"#utility.yul\":5702:5723   */\n      and\n        /* \"#utility.yul\":5693:5723   */\n      swap4\n      pop\n        /* \"#utility.yul\":5766:5770   */\n      dup1\n        /* \"#utility.yul\":5756:5764   */\n      dup7\n        /* \"#utility.yul\":5752:5771   */\n      and\n        /* \"#utility.yul\":5745:5750   */\n      dup5\n        /* \"#utility.yul\":5742:5772   */\n      or\n        /* \"#utility.yul\":5732:5772   */\n      swap3\n      pop\n        /* \"#utility.yul\":5461:5778   */\n      pop\n      pop\n        /* \"#utility.yul\":5385:5778   */\n      swap4\n      swap3\n      pop\n      pop\n      pop\n      jump\t// out\n        /* \"#utility.yul\":5784:5844   */\n    tag_74:\n        /* \"#utility.yul\":5812:5815   */\n      0x00\n        /* \"#utility.yul\":5833:5838   */\n      dup2\n        /* \"#utility.yul\":5826:5838   */\n      swap1\n      pop\n        /* \"#utility.yul\":5784:5844   */\n      swap2\n      swap1\n      pop\n      jump\t// out\n        /* \"#utility.yul\":5850:5992   */\n    tag_75:\n        /* \"#utility.yul\":5900:5909   */\n      0x00\n        /* \"#utility.yul\":5933:5986   */\n      tag_148\n        /* \"#utility.yul\":5951:5985   */\n      tag_149\n        /* \"#utility.yul\":5960:5984   */\n      tag_150\n        /* \"#utility.yul\":5978:5983   */\n      dup5\n        /* \"#utility.yul\":5960:5984   */\n      tag_51\n      jump\t// in\n    tag_150:\n        /* \"#utility.yul\":5951:5985   */\n      tag_74\n      jump\t// in\n    tag_149:\n        /* \"#utility.yul\":5933:5986   */\n      tag_51\n      jump\t// in\n    tag_148:\n        /* \"#utility.yul\":5920:5986   */\n      swap1\n      pop\n        /* \"#utility.yul\":5850:5992   */\n      swap2\n      swap1\n      pop\n      jump\t// out\n        /* \"#utility.yul\":5998:6073   */\n    tag_76:\n        /* \"#utility.yul\":6041:6044   */\n      0x00\n        /* \"#utility.yul\":6062:6067   */\n      dup2\n        /* \"#utility.yul\":6055:6067   */\n      swap1\n      pop\n        /* \"#utility.yul\":5998:6073   */\n      swap2\n      swap1\n      pop\n      jump\t// out\n        /* \"#utility.yul\":6079:6348   */\n    tag_77:\n        /* \"#utility.yul\":6189:6228   */\n      tag_153\n        /* \"#utility.yul\":6220:6227   */\n      dup4\n        /* \"#utility.yul\":6189:6228   */\n      tag_75\n      jump\t// in\n    tag_153:\n        /* \"#utility.yul\":6250:6341   */\n      tag_154\n        /* \"#utility.yul\":6299:6340   */\n      tag_155\n        /* \"#utility.yul\":6323:6339   */\n      dup3\n        /* \"#utility.yul\":6299:6340   */\n      tag_76\n      jump\t// in\n    tag_155:\n        /* \"#utility.yul\":6291:6297   */\n      dup5\n        /* \"#utility.yul\":6284:6288   */\n      dup5\n        /* \"#utility.yul\":6278:6289   */\n      sload\n        /* \"#utility.yul\":6250:6341   */\n      tag_73\n      jump\t// in\n    tag_154:\n        /* \"#utility.yul\":6244:6248   */\n      dup3\n        /* \"#utility.yul\":6237:6342   */\n      sstore\n        /* \"#utility.yul\":6155:6348   */\n      pop\n        /* \"#utility.yul\":6079:6348   */\n      pop\n      pop\n      pop\n      jump\t// out\n        /* \"#utility.yul\":6354:6427   */\n    tag_78:\n        /* \"#utility.yul\":6399:6402   */\n      0x00\n        /* \"#utility.yul\":6354:6427   */\n      swap1\n      jump\t// out\n        /* \"#utility.yul\":6433:6622   */\n    tag_79:\n        /* \"#utility.yul\":6510:6542   */\n      tag_158\n      tag_78\n      jump\t// in\n    tag_158:\n        /* \"#utility.yul\":6551:6616   */\n      tag_159\n        /* \"#utility.yul\":6609:6615   */\n      dup2\n        /* \"#utility.yul\":6601:6607   */\n      dup5\n        /* \"#utility.yul\":6595:6599   */\n      dup5\n        /* \"#utility.yul\":6551:6616   */\n      tag_77\n      jump\t// in\n    tag_159:\n        /* \"#utility.yul\":6486:6622   */\n      pop\n        /* \"#utility.yul\":6433:6622   */\n      pop\n      pop\n      jump\t// out\n        /* \"#utility.yul\":6628:6814   */\n    tag_80:\n        /* \"#utility.yul\":6688:6808   */\n    tag_161:\n        /* \"#utility.yul\":6705:6708   */\n      dup2\n        /* \"#utility.yul\":6698:6703   */\n      dup2\n        /* \"#utility.yul\":6695:6709   */\n      lt\n        /* \"#utility.yul\":6688:6808   */\n      iszero\n      tag_163\n      jumpi\n        /* \"#utility.yul\":6759:6798   */\n      tag_164\n        /* \"#utility.yul\":6796:6797   */\n      0x00\n        /* \"#utility.yul\":6789:6794   */\n      dup3\n        /* \"#utility.yul\":6759:6798   */\n      tag_79\n      jump\t// in\n    tag_164:\n        /* \"#utility.yul\":6732:6733   */\n      0x01\n        /* \"#utility.yul\":6725:6730   */\n      dup2\n        /* \"#utility.yul\":6721:6734   */\n      add\n        /* \"#utility.yul\":6712:6734   */\n      swap1\n      pop\n        /* \"#utility.yul\":6688:6808   */\n      jump(tag_161)\n    tag_163:\n        /* \"#utility.yul\":6628:6814   */\n      pop\n      pop\n      jump\t// out\n        /* \"#utility.yul\":6820:7363   */\n    tag_81:\n        /* \"#utility.yul\":6921:6923   */\n      0x1f\n        /* \"#utility.yul\":6916:6919   */\n      dup3\n        /* \"#utility.yul\":6913:6924   */\n      gt\n        /* \"#utility.yul\":6910:7356   */\n      iszero\n      tag_166\n      jumpi\n        /* \"#utility.yul\":6955:6993   */\n      tag_167\n        /* \"#utility.yul\":6987:6992   */\n      dup2\n        /* \"#utility.yul\":6955:6993   */\n      tag_70\n      jump\t// in\n    tag_167:\n        /* \"#utility.yul\":7039:7068   */\n      tag_168\n        /* \"#utility.yul\":7057:7067   */\n      dup5\n        /* \"#utility.yul\":7039:7068   */\n      tag_71\n      jump\t// in\n    tag_168:\n        /* \"#utility.yul\":7029:7037   */\n      dup2\n        /* \"#utility.yul\":7025:7069   */\n      add\n        /* \"#utility.yul\":7222:7224   */\n      0x20\n        /* \"#utility.yul\":7210:7220   */\n      dup6\n        /* \"#utility.yul\":7207:7225   */\n      lt\n        /* \"#utility.yul\":7204:7253   */\n      iszero\n      tag_169\n      jumpi\n        /* \"#utility.yul\":7243:7251   */\n      dup2\n        /* \"#utility.yul\":7228:7251   */\n      swap1\n      pop\n        /* \"#utility.yul\":7204:7253   */\n    tag_169:\n        /* \"#utility.yul\":7266:7346   */\n      tag_170\n        /* \"#utility.yul\":7322:7344   */\n      tag_171\n        /* \"#utility.yul\":7340:7343   */\n      dup6\n        /* \"#utility.yul\":7322:7344   */\n      tag_71\n      jump\t// in\n    tag_171:\n        /* \"#utility.yul\":7312:7320   */\n      dup4\n        /* \"#utility.yul\":7308:7345   */\n      add\n        /* \"#utility.yul\":7295:7306   */\n      dup3\n        /* \"#utility.yul\":7266:7346   */\n      tag_80\n      jump\t// in\n    tag_170:\n        /* \"#utility.yul\":6925:7356   */\n      pop\n      pop\n        /* \"#utility.yul\":6910:7356   */\n    tag_166:\n        /* \"#utility.yul\":6820:7363   */\n      pop\n      pop\n      pop\n      jump\t// out\n        /* \"#utility.yul\":7369:7486   */\n    tag_82:\n        /* \"#utility.yul\":7423:7431   */\n      0x00\n        /* \"#utility.yul\":7473:7478   */\n      dup3\n        /* \"#utility.yul\":7467:7471   */\n      dup3\n        /* \"#utility.yul\":7463:7479   */\n      shr\n        /* \"#utility.yul\":7442:7479   */\n      swap1\n      pop\n        /* \"#utility.yul\":7369:7486   */\n      swap3\n      swap2\n      pop\n      pop\n      jump\t// out\n        /* \"#utility.yul\":7492:7661   */\n    tag_83:\n        /* \"#utility.yul\":7536:7542   */\n      0x00\n        /* \"#utility.yul\":7569:7620   */\n      tag_174\n        /* \"#utility.yul\":7617:7618   */\n      0x00\n        /* \"#utility.yul\":7613:7619   */\n      not\n        /* \"#utility.yul\":7605:7610   */\n      dup5\n        /* \"#utility.yul\":7602:7603   */\n      0x08\n        /* \"#utility.yul\":7598:7611   */\n      mul\n        /* \"#utility.yul\":7569:7620   */\n      tag_82\n      jump\t// in\n    tag_174:\n        /* \"#utility.yul\":7565:7621   */\n      not\n        /* \"#utility.yul\":7650:7654   */\n      dup1\n        /* \"#utility.yul\":7644:7648   */\n      dup4\n        /* \"#utility.yul\":7640:7655   */\n      and\n        /* \"#utility.yul\":7630:7655   */\n      swap2\n      pop\n        /* \"#utility.yul\":7543:7661   */\n      pop\n        /* \"#utility.yul\":7492:7661   */\n      swap3\n      swap2\n      pop\n      pop\n      jump\t// out\n        /* \"#utility.yul\":7666:7961   */\n    tag_84:\n        /* \"#utility.yul\":7742:7746   */\n      0x00\n        /* \"#utility.yul\":7888:7917   */\n      tag_176\n        /* \"#utility.yul\":7913:7916   */\n      dup4\n        /* \"#utility.yul\":7907:7911   */\n      dup4\n        /* \"#utility.yul\":7888:7917   */\n      tag_83\n      jump\t// in\n    tag_176:\n        /* \"#utility.yul\":7880:7917   */\n      swap2\n      pop\n        /* \"#utility.yul\":7950:7953   */\n      dup3\n        /* \"#utility.yul\":7947:7948   */\n      0x02\n        /* \"#utility.yul\":7943:7954   */\n      mul\n        /* \"#utility.yul\":7937:7941   */\n      dup3\n        /* \"#utility.yul\":7934:7955   */\n      or\n        /* \"#utility.yul\":7926:7955   */\n      swap1\n      pop\n        /* \"#utility.yul\":7666:7961   */\n      swap3\n      swap2\n      pop\n      pop\n      jump\t// out\n        /* \"#utility.yul\":7966:9361   */\n    tag_50:\n        /* \"#utility.yul\":8083:8120   */\n      tag_178\n        /* \"#utility.yul\":8116:8119   */\n      dup3\n        /* \"#utility.yul\":8083:8120   */\n      tag_58\n      jump\t// in\n    tag_178:\n        /* \"#utility.yul\":8185:8203   */\n      0xffffffffffffffff\n        /* \"#utility.yul\":8177:8183   */\n      dup2\n        /* \"#utility.yul\":8174:8204   */\n      gt\n        /* \"#utility.yul\":8171:8227   */\n      iszero\n      tag_179\n      jumpi\n        /* \"#utility.yul\":8207:8225   */\n      tag_180\n      tag_69\n      jump\t// in\n    tag_180:\n        /* \"#utility.yul\":8171:8227   */\n    tag_179:\n        /* \"#utility.yul\":8251:8289   */\n      tag_181\n        /* \"#utility.yul\":8283:8287   */\n      dup3\n        /* \"#utility.yul\":8277:8288   */\n      sload\n        /* \"#utility.yul\":8251:8289   */\n      tag_28\n      jump\t// in\n    tag_181:\n        /* \"#utility.yul\":8336:8403   */\n      tag_182\n        /* \"#utility.yul\":8396:8402   */\n      dup3\n        /* \"#utility.yul\":8388:8394   */\n      dup3\n        /* \"#utility.yul\":8382:8386   */\n      dup6\n        /* \"#utility.yul\":8336:8403   */\n      tag_81\n      jump\t// in\n    tag_182:\n        /* \"#utility.yul\":8430:8431   */\n      0x00\n        /* \"#utility.yul\":8454:8458   */\n      0x20\n        /* \"#utility.yul\":8441:8458   */\n      swap1\n      pop\n        /* \"#utility.yul\":8486:8488   */\n      0x1f\n        /* \"#utility.yul\":8478:8484   */\n      dup4\n        /* \"#utility.yul\":8475:8489   */\n      gt\n        /* \"#utility.yul\":8503:8504   */\n      0x01\n        /* \"#utility.yul\":8498:9116   */\n      dup2\n      eq\n      tag_184\n      jumpi\n        /* \"#utility.yul\":9160:9161   */\n      0x00\n        /* \"#utility.yul\":9177:9183   */\n      dup5\n        /* \"#utility.yul\":9174:9251   */\n      iszero\n      tag_185\n      jumpi\n        /* \"#utility.yul\":9226:9235   */\n      dup3\n        /* \"#utility.yul\":9221:9224   */\n      dup8\n        /* \"#utility.yul\":9217:9236   */\n      add\n        /* \"#utility.yul\":9211:9237   */\n      mload\n        /* \"#utility.yul\":9202:9237   */\n      swap1\n      pop\n        /* \"#utility.yul\":9174:9251   */\n    tag_185:\n        /* \"#utility.yul\":9277:9344   */\n      tag_186\n        /* \"#utility.yul\":9337:9343   */\n      dup6\n        /* \"#utility.yul\":9330:9335   */\n      dup3\n        /* \"#utility.yul\":9277:9344   */\n      tag_84\n      jump\t// in\n    tag_186:\n        /* \"#utility.yul\":9271:9275   */\n      dup7\n        /* \"#utility.yul\":9264:9345   */\n      sstore\n        /* \"#utility.yul\":9133:9355   */\n      pop\n        /* \"#utility.yul\":8468:9355   */\n      jump(tag_183)\n        /* \"#utility.yul\":8498:9116   */\n    tag_184:\n        /* \"#utility.yul\":8550:8554   */\n      0x1f\n        /* \"#utility.yul\":8546:8555   */\n      not\n        /* \"#utility.yul\":8538:8544   */\n      dup5\n        /* \"#utility.yul\":8534:8556   */\n      and\n        /* \"#utility.yul\":8584:8621   */\n      tag_187\n        /* \"#utility.yul\":8616:8620   */\n      dup7\n        /* \"#utility.yul\":8584:8621   */\n      tag_70\n      jump\t// in\n    tag_187:\n        /* \"#utility.yul\":8643:8644   */\n      0x00\n        /* \"#utility.yul\":8657:8865   */\n    tag_188:\n        /* \"#utility.yul\":8671:8678   */\n      dup3\n        /* \"#utility.yul\":8668:8669   */\n      dup2\n        /* \"#utility.yul\":8665:8679   */\n      lt\n        /* \"#utility.yul\":8657:8865   */\n      iszero\n      tag_190\n      jumpi\n        /* \"#utility.yul\":8750:8759   */\n      dup5\n        /* \"#utility.yul\":8745:8748   */\n      dup10\n        /* \"#utility.yul\":8741:8760   */\n      add\n        /* \"#utility.yul\":8735:8761   */\n      mload\n        /* \"#utility.yul\":8727:8733   */\n      dup3\n        /* \"#utility.yul\":8720:8762   */\n      sstore\n        /* \"#utility.yul\":8801:8802   */\n      0x01\n        /* \"#utility.yul\":8793:8799   */\n      dup3\n        /* \"#utility.yul\":8789:8803   */\n      add\n        /* \"#utility.yul\":8779:8803   */\n      swap2\n      pop\n        /* \"#utility.yul\":8848:8850   */\n      0x20\n        /* \"#utility.yul\":8837:8846   */\n      dup6\n        /* \"#utility.yul\":8833:8851   */\n      add\n        /* \"#utility.yul\":8820:8851   */\n      swap5\n      pop\n        /* \"#utility.yul\":8694:8698   */\n      0x20\n        /* \"#utility.yul\":8691:8692   */\n      dup2\n        /* \"#utility.yul\":8687:8699   */\n      add\n        /* \"#utility.yul\":8682:8699   */\n      swap1\n      pop\n        /* \"#utility.yul\":8657:8865   */\n      jump(tag_188)\n    tag_190:\n        /* \"#utility.yul\":8893:8899   */\n      dup7\n        /* \"#utility.yul\":8884:8891   */\n      dup4\n        /* \"#utility.yul\":8881:8900   */\n      lt\n        /* \"#utility.yul\":8878:9057   */\n      iszero\n      tag_191\n      jumpi\n        /* \"#utility.yul\":8951:8960   */\n      dup5\n        /* \"#utility.yul\":8946:8949   */\n      dup10\n        /* \"#utility.yul\":8942:8961   */\n      add\n        /* \"#utility.yul\":8936:8962   */\n      mload\n        /* \"#utility.yul\":8994:9042   */\n      tag_192\n        /* \"#utility.yul\":9036:9040   */\n      0x1f\n        /* \"#utility.yul\":9028:9034   */\n      dup10\n        /* \"#utility.yul\":9024:9041   */\n      and\n        /* \"#utility.yul\":9013:9022   */\n      dup3\n        /* \"#utility.yul\":8994:9042   */\n      tag_83\n      jump\t// in\n    tag_192:\n        /* \"#utility.yul\":8986:8992   */\n      dup4\n        /* \"#utility.yul\":8979:9043   */\n      sstore\n        /* \"#utility.yul\":8901:9057   */\n      pop\n        /* \"#utility.yul\":8878:9057   */\n    tag_191:\n        /* \"#utility.yul\":9103:9104   */\n      0x01\n        /* \"#utility.yul\":9099:9100   */\n      0x02\n        /* \"#utility.yul\":9091:9097   */\n      dup9\n        /* \"#utility.yul\":9087:9101   */\n      mul\n        /* \"#utility.yul\":9083:9105   */\n      add\n        /* \"#utility.yul\":9077:9081   */\n      dup9\n        /* \"#utility.yul\":9070:9106   */\n      sstore\n        /* \"#utility.yul\":8505:9116   */\n      pop\n      pop\n      pop\n        /* \"#utility.yul\":8468:9355   */\n    tag_183:\n      pop\n        /* \"#utility.yul\":8058:9361   */\n      pop\n      pop\n      pop\n        /* \"#utility.yul\":7966:9361   */\n      pop\n      pop\n      jump\t// out\n\n    auxdata: 0xa264697066735822122065899a3ac92a38bc532d885e15982f14f9727b6749d620336866b3c12cb85bfe64736f6c63430008130033\n}\n",
				"bytecode": {
					"linkReferences": {},
					"object": "608060405260405180606001604052806040518060400160405280600381526020017f616263000000000000000000000000000000000000000000000000000000000081525081526020016040518060400160405280600381526020017f78797a000000000000000000000000000000000000000000000000000000000081525081526020016040518060400160405280600781526020017f73696d666f726d000000000000000000000000000000000000000000000000008152508152506000906003620000d0929190620000e5565b50348015620000de57600080fd5b5062000533565b82805482825590600052602060002090810192821562000132579160200282015b82811115620001315782518290816200012091906200044c565b509160200191906001019062000106565b5b50905062000141919062000145565b5090565b5b808211156200016957600081816200015f91906200016d565b5060010162000146565b5090565b5080546200017b906200023b565b6000825580601f106200018f5750620001b0565b601f016020900490600052602060002090810190620001af9190620001b3565b5b50565b5b80821115620001ce576000816000905550600101620001b4565b5090565b600081519050919050565b7f4e487b7100000000000000000000000000000000000000000000000000000000600052604160045260246000fd5b7f4e487b7100000000000000000000000000000000000000000000000000000000600052602260045260246000fd5b600060028204905060018216806200025457607f821691505b6020821081036200026a57620002696200020c565b5b50919050565b60008190508160005260206000209050919050565b60006020601f8301049050919050565b600082821b905092915050565b600060088302620002d47fffffffffffffffffffffffffffffffffffffffffffffffffffffffffffffffff8262000295565b620002e0868362000295565b95508019841693508086168417925050509392505050565b6000819050919050565b6000819050919050565b60006200032d620003276200032184620002f8565b62000302565b620002f8565b9050919050565b6000819050919050565b62000349836200030c565b62000361620003588262000334565b848454620002a2565b825550505050565b600090565b6200037862000369565b620003858184846200033e565b505050565b5b81811015620003ad57620003a16000826200036e565b6001810190506200038b565b5050565b601f821115620003fc57620003c68162000270565b620003d18462000285565b81016020851015620003e1578190505b620003f9620003f08562000285565b8301826200038a565b50505b505050565b600082821c905092915050565b6000620004216000198460080262000401565b1980831691505092915050565b60006200043c83836200040e565b9150826002028217905092915050565b6200045782620001d2565b67ffffffffffffffff811115620004735762000472620001dd565b5b6200047f82546200023b565b6200048c828285620003b1565b600060209050601f831160018114620004c45760008415620004af578287015190505b620004bb85826200042e565b8655506200052b565b601f198416620004d48662000270565b60005b82811015620004fe57848901518255600182019150602085019450602081019050620004d7565b868310156200051e57848901516200051a601f8916826200040e565b8355505b6001600288020188555050505b505050505050565b6108d780620005436000396000f3fe608060405234801561001057600080fd5b506004361061004c5760003560e01c80633c0e106d14610051578063634dc8ce1461007657806371e5ee5f14610094578063d956690b146100c4575b600080fd5b6100596100ce565b60405161006d9897969594939291906103d7565b60405180910390f35b61007e6100fc565b60405161008b91906104e5565b60405180910390f35b6100ae60048036038101906100a99190610538565b61024a565b6040516100bb91906104e5565b60405180910390f35b6100cc6102f6565b005b6000806000806000806000804342444641333a32975097509750975097509750975097509091929394959697565b6060600080805480602002602001604051908101604052809291908181526020016000905b828210156101cd57838290600052602060002001805461014090610594565b80601f016020809104026020016040519081016040528092919081815260200182805461016c90610594565b80156101b95780601f1061018e576101008083540402835291602001916101b9565b820191906000526020600020905b81548152906001019060200180831161019c57829003601f168201915b505050505081526020019060010190610121565b5050505090506040518060400160405280600581526020017f66697273740000000000000000000000000000000000000000000000000000008152508160008151811061021d5761021c6105c5565b5b60200260200101819052508060008151811061023c5761023b6105c5565b5b602002602001015191505090565b6000818154811061025a57600080fd5b90600052602060002001600091509050805461027590610594565b80601f01602080910402602001604051908101604052809291908181526020018280546102a190610594565b80156102ee5780601f106102c3576101008083540402835291602001916102ee565b820191906000526020600020905b8154815290600101906020018083116102d157829003601f168201915b505050505081565b60006040518060400160405280600381526020017f6f6e65000000000000000000000000000000000000000000000000000000000081525081600081548110610342576103416105c5565b5b90600052602060002001908161035891906107cf565b5050565b6000819050919050565b61036f8161035c565b82525050565b600073ffffffffffffffffffffffffffffffffffffffff82169050919050565b60006103a082610375565b9050919050565b6103b081610395565b82525050565b60006103c182610375565b9050919050565b6103d1816103b6565b82525050565b6000610100820190506103ed600083018b610366565b6103fa602083018a610366565b6104076040830189610366565b6104146060830188610366565b61042160808301876103a7565b61042e60a08301866103c8565b61043b60c0830185610366565b61044860e08301846103c8565b9998505050505050505050565b600081519050919050565b600082825260208201905092915050565b60005b8381101561048f578082015181840152602081019050610474565b60008484015250505050565b6000601f19601f8301169050919050565b60006104b782610455565b6104c18185610460565b93506104d1818560208601610471565b6104da8161049b565b840191505092915050565b600060208201905081810360008301526104ff81846104ac565b905092915050565b600080fd5b6105158161035c565b811461052057600080fd5b50565b6000813590506105328161050c565b92915050565b60006020828403121561054e5761054d610507565b5b600061055c84828501610523565b91505092915050565b7f4e487b7100000000000000000000000000000000000000000000000000000000600052602260045260246000fd5b600060028204905060018216806105ac57607f821691505b6020821081036105bf576105be610565565b5b50919050565b7f4e487b7100000000000000000000000000000000000000000000000000000000600052603260045260246000fd5b7f4e487b7100000000000000000000000000000000000000000000000000000000600052604160045260246000fd5b60008190508160005260206000209050919050565b60006020601f8301049050919050565b600082821b905092915050565b6000600883026106857fffffffffffffffffffffffffffffffffffffffffffffffffffffffffffffffff82610648565b61068f8683610648565b95508019841693508086168417925050509392505050565b6000819050919050565b60006106cc6106c76106c28461035c565b6106a7565b61035c565b9050919050565b6000819050919050565b6106e6836106b1565b6106fa6106f2826106d3565b848454610655565b825550505050565b600090565b61070f610702565b61071a8184846106dd565b505050565b5b8181101561073e57610733600082610707565b600181019050610720565b5050565b601f8211156107835761075481610623565b61075d84610638565b8101602085101561076c578190505b61078061077885610638565b83018261071f565b50505b505050565b600082821c905092915050565b60006107a660001984600802610788565b1980831691505092915050565b60006107bf8383610795565b9150826002028217905092915050565b6107d882610455565b67ffffffffffffffff8111156107f1576107f06105f4565b5b6107fb8254610594565b610806828285610742565b600060209050601f8311600181146108395760008415610827578287015190505b61083185826107b3565b865550610899565b601f19841661084786610623565b60005b8281101561086f5784890151825560018201915060208501945060208101905061084a565b8683101561088c5784890151610888601f891682610795565b8355505b6001600288020188555050505b50505050505056fea264697066735822122065899a3ac92a38bc532d885e15982f14f9727b6749d620336866b3c12cb85bfe64736f6c63430008130033",
					"opcodes": "PUSH1 0x80 PUSH1 0x40 MSTORE PUSH1 0x40 MLOAD DUP1 PUSH1 0x60 ADD PUSH1 0x40 MSTORE DUP1 PUSH1 0x40 MLOAD DUP1 PUSH1 0x40 ADD PUSH1 0x40 MSTORE DUP1 PUSH1 0x3 DUP2 MSTORE PUSH1 0x20 ADD PUSH32 0x6162630000000000000000000000000000000000000000000000000000000000 DUP2 MSTORE POP DUP2 MSTORE PUSH1 0x20 ADD PUSH1 0x40 MLOAD DUP1 PUSH1 0x40 ADD PUSH1 0x40 MSTORE DUP1 PUSH1 0x3 DUP2 MSTORE PUSH1 0x20 ADD PUSH32 0x78797A0000000000000000000000000000000000000000000000000000000000 DUP2 MSTORE POP DUP2 MSTORE PUSH1 0x20 ADD PUSH1 0x40 MLOAD DUP1 PUSH1 0x40 ADD PUSH1 0x40 MSTORE DUP1 PUSH1 0x7 DUP2 MSTORE PUSH1 0x20 ADD PUSH32 0x73696D666F726D00000000000000000000000000000000000000000000000000 DUP2 MSTORE POP DUP2 MSTORE POP PUSH1 0x0 SWAP1 PUSH1 0x3 PUSH3 0xD0 SWAP3 SWAP2 SWAP1 PUSH3 0xE5 JUMP JUMPDEST POP CALLVALUE DUP1 ISZERO PUSH3 0xDE JUMPI PUSH1 0x0 DUP1 REVERT JUMPDEST POP PUSH3 0x533 JUMP JUMPDEST DUP3 DUP1 SLOAD DUP3 DUP3 SSTORE SWAP1 PUSH1 0x0 MSTORE PUSH1 0x20 PUSH1 0x0 KECCAK256 SWAP1 DUP2 ADD SWAP3 DUP3 ISZERO PUSH3 0x132 JUMPI SWAP2 PUSH1 0x20 MUL DUP3 ADD JUMPDEST DUP3 DUP2 GT ISZERO PUSH3 0x131 JUMPI DUP3 MLOAD DUP3 SWAP1 DUP2 PUSH3 0x120 SWAP2 SWAP1 PUSH3 0x44C JUMP JUMPDEST POP SWAP2 PUSH1 0x20 ADD SWAP2 SWAP1 PUSH1 0x1 ADD SWAP1 PUSH3 0x106 JUMP JUMPDEST JUMPDEST POP SWAP1 POP PUSH3 0x141 SWAP2 SWAP1 PUSH3 0x145 JUMP JUMPDEST POP SWAP1 JUMP JUMPDEST JUMPDEST DUP1 DUP3 GT ISZERO PUSH3 0x169 JUMPI PUSH1 0x0 DUP2 DUP2 PUSH3 0x15F SWAP2 SWAP1 PUSH3 0x16D JUMP JUMPDEST POP PUSH1 0x1 ADD PUSH3 0x146 JUMP JUMPDEST POP SWAP1 JUMP JUMPDEST POP DUP1 SLOAD PUSH3 0x17B SWAP1 PUSH3 0x23B JUMP JUMPDEST PUSH1 0x0 DUP3 SSTORE DUP1 PUSH1 0x1F LT PUSH3 0x18F JUMPI POP PUSH3 0x1B0 JUMP JUMPDEST PUSH1 0x1F ADD PUSH1 0x20 SWAP1 DIV SWAP1 PUSH1 0x0 MSTORE PUSH1 0x20 PUSH1 0x0 KECCAK256 SWAP1 DUP2 ADD SWAP1 PUSH3 0x1AF SWAP2 SWAP1 PUSH3 0x1B3 JUMP JUMPDEST JUMPDEST POP JUMP JUMPDEST JUMPDEST DUP1 DUP3 GT ISZERO PUSH3 0x1CE JUMPI PUSH1 0x0 DUP2 PUSH1 0x0 SWAP1 SSTORE POP PUSH1 0x1 ADD PUSH3 0x1B4 JUMP JUMPDEST POP SWAP1 JUMP JUMPDEST PUSH1 0x0 DUP2 MLOAD SWAP1 POP SWAP2 SWAP1 POP JUMP JUMPDEST PUSH32 0x4E487B7100000000000000000000000000000000000000000000000000000000 PUSH1 0x0 MSTORE PUSH1 0x41 PUSH1 0x4 MSTORE PUSH1 0x24 PUSH1 0x0 REVERT JUMPDEST PUSH32 0x4E487B7100000000000000000000000000000000000000000000000000000000 PUSH1 0x0 MSTORE PUSH1 0x22 PUSH1 0x4 MSTORE PUSH1 0x24 PUSH1 0x0 REVERT JUMPDEST PUSH1 0x0 PUSH1 0x2 DUP3 DIV SWAP1 POP PUSH1 0x1 DUP3 AND DUP1 PUSH3 0x254 JUMPI PUSH1 0x7F DUP3 AND SWAP2 POP JUMPDEST PUSH1 0x20 DUP3 LT DUP2 SUB PUSH3 0x26A JUMPI PUSH3 0x269 PUSH3 0x20C JUMP JUMPDEST JUMPDEST POP SWAP2 SWAP1 POP JUMP JUMPDEST PUSH1 0x0 DUP2 SWAP1 POP DUP2 PUSH1 0x0 MSTORE PUSH1 0x20 PUSH1 0x0 KECCAK256 SWAP1 POP SWAP2 SWAP1 POP JUMP JUMPDEST PUSH1 0x0 PUSH1 0x20 PUSH1 0x1F DUP4 ADD DIV SWAP1 POP SWAP2 SWAP1 POP JUMP JUMPDEST PUSH1 0x0 DUP3 DUP3 SHL SWAP1 POP SWAP3 SWAP2 POP POP JUMP JUMPDEST PUSH1 0x0 PUSH1 0x8 DUP4 MUL PUSH3 0x2D4 PUSH32 0xFFFFFFFFFFFFFFFFFFFFFFFFFFFFFFFFFFFFFFFFFFFFFFFFFFFFFFFFFFFFFFFF DUP3 PUSH3 0x295 JUMP JUMPDEST PUSH3 0x2E0 DUP7 DUP4 PUSH3 0x295 JUMP JUMPDEST SWAP6 POP DUP1 NOT DUP5 AND SWAP4 POP DUP1 DUP7 AND DUP5 OR SWAP3 POP POP POP SWAP4 SWAP3 POP POP POP JUMP JUMPDEST PUSH1 0x0 DUP2 SWAP1 POP SWAP2 SWAP1 POP JUMP JUMPDEST PUSH1 0x0 DUP2 SWAP1 POP SWAP2 SWAP1 POP JUMP JUMPDEST PUSH1 0x0 PUSH3 0x32D PUSH3 0x327 PUSH3 0x321 DUP5 PUSH3 0x2F8 JUMP JUMPDEST PUSH3 0x302 JUMP JUMPDEST PUSH3 0x2F8 JUMP JUMPDEST SWAP1 POP SWAP2 SWAP1 POP JUMP JUMPDEST PUSH1 0x0 DUP2 SWAP1 POP SWAP2 SWAP1 POP JUMP JUMPDEST PUSH3 0x349 DUP4 PUSH3 0x30C JUMP JUMPDEST PUSH3 0x361 PUSH3 0x358 DUP3 PUSH3 0x334 JUMP JUMPDEST DUP5 DUP5 SLOAD PUSH3 0x2A2 JUMP JUMPDEST DUP3 SSTORE POP POP POP POP JUMP JUMPDEST PUSH1 0x0 SWAP1 JUMP JUMPDEST PUSH3 0x378 PUSH3 0x369 JUMP JUMPDEST PUSH3 0x385 DUP2 DUP5 DUP5 PUSH3 0x33E JUMP JUMPDEST POP POP POP JUMP JUMPDEST JUMPDEST DUP2 DUP2 LT ISZERO PUSH3 0x3AD JUMPI PUSH3 0x3A1 PUSH1 0x0 DUP3 PUSH3 0x36E JUMP JUMPDEST PUSH1 0x1 DUP2 ADD SWAP1 POP PUSH3 0x38B JUMP JUMPDEST POP POP JUMP JUMPDEST PUSH1 0x1F DUP3 GT ISZERO PUSH3 0x3FC JUMPI PUSH3 0x3C6 DUP2 PUSH3 0x270 JUMP JUMPDEST PUSH3 0x3D1 DUP5 PUSH3 0x285 JUMP JUMPDEST DUP2 ADD PUSH1 0x20 DUP6 LT ISZERO PUSH3 0x3E1 JUMPI DUP2 SWAP1 POP JUMPDEST PUSH3 0x3F9 PUSH3 0x3F0 DUP6 PUSH3 0x285 JUMP JUMPDEST DUP4 ADD DUP3 PUSH3 0x38A JUMP JUMPDEST POP POP JUMPDEST POP POP POP JUMP JUMPDEST PUSH1 0x0 DUP3 DUP3 SHR SWAP1 POP SWAP3 SWAP2 POP POP JUMP JUMPDEST PUSH1 0x0 PUSH3 0x421 PUSH1 0x0 NOT DUP5 PUSH1 0x8 MUL PUSH3 0x401 JUMP JUMPDEST NOT DUP1 DUP4 AND SWAP2 POP POP SWAP3 SWAP2 POP POP JUMP JUMPDEST PUSH1 0x0 PUSH3 0x43C DUP4 DUP4 PUSH3 0x40E JUMP JUMPDEST SWAP2 POP DUP3 PUSH1 0x2 MUL DUP3 OR SWAP1 POP SWAP3 SWAP2 POP POP JUMP JUMPDEST PUSH3 0x457 DUP3 PUSH3 0x1D2 JUMP JUMPDEST PUSH8 0xFFFFFFFFFFFFFFFF DUP2 GT ISZERO PUSH3 0x473 JUMPI PUSH3 0x472 PUSH3 0x1DD JUMP JUMPDEST JUMPDEST PUSH3 0x47F DUP3 SLOAD PUSH3 0x23B JUMP JUMPDEST PUSH3 0x48C DUP3 DUP3 DUP6 PUSH3 0x3B1 JUMP JUMPDEST PUSH1 0x0 PUSH1 0x20 SWAP1 POP PUSH1 0x1F DUP4 GT PUSH1 0x1 DUP2 EQ PUSH3 0x4C4 JUMPI PUSH1 0x0 DUP5 ISZERO PUSH3 0x4AF JUMPI DUP3 DUP8 ADD MLOAD SWAP1 POP JUMPDEST PUSH3 0x4BB DUP6 DUP3 PUSH3 0x42E JUMP JUMPDEST DUP7 SSTORE POP PUSH3 0x52B JUMP JUMPDEST PUSH1 0x1F NOT DUP5 AND PUSH3 0x4D4 DUP7 PUSH3 0x270 JUMP JUMPDEST PUSH1 0x0 JUMPDEST DUP3 DUP2 LT ISZERO PUSH3 0x4FE JUMPI DUP5 DUP10 ADD MLOAD DUP3 SSTORE PUSH1 0x1 DUP3 ADD SWAP2 POP PUSH1 0x20 DUP6 ADD SWAP5 POP PUSH1 0x20 DUP2 ADD SWAP1 POP PUSH3 0x4D7 JUMP JUMPDEST DUP7 DUP4 LT ISZERO PUSH3 0x51E JUMPI DUP5 DUP10 ADD MLOAD PUSH3 0x51A PUSH1 0x1F DUP10 AND DUP3 PUSH3 0x40E JUMP JUMPDEST DUP4 SSTORE POP JUMPDEST PUSH1 0x1 PUSH1 0x2 DUP9 MUL ADD DUP9 SSTORE POP POP POP JUMPDEST POP POP POP POP POP POP JUMP JUMPDEST PUSH2 0x8D7 DUP1 PUSH3 0x543 PUSH1 0x0 CODECOPY PUSH1 0x0 RETURN INVALID PUSH1 0x80 PUSH1 0x40 MSTORE CALLVALUE DUP1 ISZERO PUSH2 0x10 JUMPI PUSH1 0x0 DUP1 REVERT JUMPDEST POP PUSH1 0x4 CALLDATASIZE LT PUSH2 0x4C JUMPI PUSH1 0x0 CALLDATALOAD PUSH1 0xE0 SHR DUP1 PUSH4 0x3C0E106D EQ PUSH2 0x51 JUMPI DUP1 PUSH4 0x634DC8CE EQ PUSH2 0x76 JUMPI DUP1 PUSH4 0x71E5EE5F EQ PUSH2 0x94 JUMPI DUP1 PUSH4 0xD956690B EQ PUSH2 0xC4 JUMPI JUMPDEST PUSH1 0x0 DUP1 REVERT JUMPDEST PUSH2 0x59 PUSH2 0xCE JUMP JUMPDEST PUSH1 0x40 MLOAD PUSH2 0x6D SWAP9 SWAP8 SWAP7 SWAP6 SWAP5 SWAP4 SWAP3 SWAP2 SWAP1 PUSH2 0x3D7 JUMP JUMPDEST PUSH1 0x40 MLOAD DUP1 SWAP2 SUB SWAP1 RETURN JUMPDEST PUSH2 0x7E PUSH2 0xFC JUMP JUMPDEST PUSH1 0x40 MLOAD PUSH2 0x8B SWAP2 SWAP1 PUSH2 0x4E5 JUMP JUMPDEST PUSH1 0x40 MLOAD DUP1 SWAP2 SUB SWAP1 RETURN JUMPDEST PUSH2 0xAE PUSH1 0x4 DUP1 CALLDATASIZE SUB DUP2 ADD SWAP1 PUSH2 0xA9 SWAP2 SWAP1 PUSH2 0x538 JUMP JUMPDEST PUSH2 0x24A JUMP JUMPDEST PUSH1 0x40 MLOAD PUSH2 0xBB SWAP2 SWAP1 PUSH2 0x4E5 JUMP JUMPDEST PUSH1 0x40 MLOAD DUP1 SWAP2 SUB SWAP1 RETURN JUMPDEST PUSH2 0xCC PUSH2 0x2F6 JUMP JUMPDEST STOP JUMPDEST PUSH1 0x0 DUP1 PUSH1 0x0 DUP1 PUSH1 0x0 DUP1 PUSH1 0x0 DUP1 NUMBER TIMESTAMP PREVRANDAO CHAINID COINBASE CALLER GASPRICE ORIGIN SWAP8 POP SWAP8 POP SWAP8 POP SWAP8 POP SWAP8 POP SWAP8 POP SWAP8 POP SWAP8 POP SWAP1 SWAP2 SWAP3 SWAP4 SWAP5 SWAP6 SWAP7 SWAP8 JUMP JUMPDEST PUSH1 0x60 PUSH1 0x0 DUP1 DUP1 SLOAD DUP1 PUSH1 0x20 MUL PUSH1 0x20 ADD PUSH1 0x40 MLOAD SWAP1 DUP2 ADD PUSH1 0x40 MSTORE DUP1 SWAP3 SWAP2 SWAP1 DUP2 DUP2 MSTORE PUSH1 0x20 ADD PUSH1 0x0 SWAP1 JUMPDEST DUP3 DUP3 LT ISZERO PUSH2 0x1CD JUMPI DUP4 DUP3 SWAP1 PUSH1 0x0 MSTORE PUSH1 0x20 PUSH1 0x0 KECCAK256 ADD DUP1 SLOAD PUSH2 0x140 SWAP1 PUSH2 0x594 JUMP JUMPDEST DUP1 PUSH1 0x1F ADD PUSH1 0x20 DUP1 SWAP2 DIV MUL PUSH1 0x20 ADD PUSH1 0x40 MLOAD SWAP1 DUP2 ADD PUSH1 0x40 MSTORE DUP1 SWAP3 SWAP2 SWAP1 DUP2 DUP2 MSTORE PUSH1 0x20 ADD DUP3 DUP1 SLOAD PUSH2 0x16C SWAP1 PUSH2 0x594 JUMP JUMPDEST DUP1 ISZERO PUSH2 0x1B9 JUMPI DUP1 PUSH1 0x1F LT PUSH2 0x18E JUMPI PUSH2 0x100 DUP1 DUP4 SLOAD DIV MUL DUP4 MSTORE SWAP2 PUSH1 0x20 ADD SWAP2 PUSH2 0x1B9 JUMP JUMPDEST DUP3 ADD SWAP2 SWAP1 PUSH1 0x0 MSTORE PUSH1 0x20 PUSH1 0x0 KECCAK256 SWAP1 JUMPDEST DUP2 SLOAD DUP2 MSTORE SWAP1 PUSH1 0x1 ADD SWAP1 PUSH1 0x20 ADD DUP1 DUP4 GT PUSH2 0x19C JUMPI DUP3 SWAP1 SUB PUSH1 0x1F AND DUP3 ADD SWAP2 JUMPDEST POP POP POP POP POP DUP2 MSTORE PUSH1 0x20 ADD SWAP1 PUSH1 0x1 ADD SWAP1 PUSH2 0x121 JUMP JUMPDEST POP POP POP POP SWAP1 POP PUSH1 0x40 MLOAD DUP1 PUSH1 0x40 ADD PUSH1 0x40 MSTORE DUP1 PUSH1 0x5 DUP2 MSTORE PUSH1 0x20 ADD PUSH32 0x6669727374000000000000000000000000000000000000000000000000000000 DUP2 MSTORE POP DUP2 PUSH1 0x0 DUP2 MLOAD DUP2 LT PUSH2 0x21D JUMPI PUSH2 0x21C PUSH2 0x5C5 JUMP JUMPDEST JUMPDEST PUSH1 0x20 MUL PUSH1 0x20 ADD ADD DUP2 SWAP1 MSTORE POP DUP1 PUSH1 0x0 DUP2 MLOAD DUP2 LT PUSH2 0x23C JUMPI PUSH2 0x23B PUSH2 0x5C5 JUMP JUMPDEST JUMPDEST PUSH1 0x20 MUL PUSH1 0x20 ADD ADD MLOAD SWAP2 POP POP SWAP1 JUMP JUMPDEST PUSH1 0x0 DUP2 DUP2 SLOAD DUP2 LT PUSH2 0x25A JUMPI PUSH1 0x0 DUP1 REVERT JUMPDEST SWAP1 PUSH1 0x0 MSTORE PUSH1 0x20 PUSH1 0x0 KECCAK256 ADD PUSH1 0x0 SWAP2 POP SWAP1 POP DUP1 SLOAD PUSH2 0x275 SWAP1 PUSH2 0x594 JUMP JUMPDEST DUP1 PUSH1 0x1F ADD PUSH1 0x20 DUP1 SWAP2 DIV MUL PUSH1 0x20 ADD PUSH1 0x40 MLOAD SWAP1 DUP2 ADD PUSH1 0x40 MSTORE DUP1 SWAP3 SWAP2 SWAP1 DUP2 DUP2 MSTORE PUSH1 0x20 ADD DUP3 DUP1 SLOAD PUSH2 0x2A1 SWAP1 PUSH2 0x594 JUMP JUMPDEST DUP1 ISZERO PUSH2 0x2EE JUMPI DUP1 PUSH1 0x1F LT PUSH2 0x2C3 JUMPI PUSH2 0x100 DUP1 DUP4 SLOAD DIV MUL DUP4 MSTORE SWAP2 PUSH1 0x20 ADD SWAP2 PUSH2 0x2EE JUMP JUMPDEST DUP3 ADD SWAP2 SWAP1 PUSH1 0x0 MSTORE PUSH1 0x20 PUSH1 0x0 KECCAK256 SWAP1 JUMPDEST DUP2 SLOAD DUP2 MSTORE SWAP1 PUSH1 0x1 ADD SWAP1 PUSH1 0x20 ADD DUP1 DUP4 GT PUSH2 0x2D1 JUMPI DUP3 SWAP1 SUB PUSH1 0x1F AND DUP3 ADD SWAP2 JUMPDEST POP POP POP POP POP DUP2 JUMP JUMPDEST PUSH1 0x0 PUSH1 0x40 MLOAD DUP1 PUSH1 0x40 ADD PUSH1 0x40 MSTORE DUP1 PUSH1 0x3 DUP2 MSTORE PUSH1 0x20 ADD PUSH32 0x6F6E650000000000000000000000000000000000000000000000000000000000 DUP2 MSTORE POP DUP2 PUSH1 0x0 DUP2 SLOAD DUP2 LT PUSH2 0x342 JUMPI PUSH2 0x341 PUSH2 0x5C5 JUMP JUMPDEST JUMPDEST SWAP1 PUSH1 0x0 MSTORE PUSH1 0x20 PUSH1 0x0 KECCAK256 ADD SWAP1 DUP2 PUSH2 0x358 SWAP2 SWAP1 PUSH2 0x7CF JUMP JUMPDEST POP POP JUMP JUMPDEST PUSH1 0x0 DUP2 SWAP1 POP SWAP2 SWAP1 POP JUMP JUMPDEST PUSH2 0x36F DUP2 PUSH2 0x35C JUMP JUMPDEST DUP3 MSTORE POP POP JUMP JUMPDEST PUSH1 0x0 PUSH20 0xFFFFFFFFFFFFFFFFFFFFFFFFFFFFFFFFFFFFFFFF DUP3 AND SWAP1 POP SWAP2 SWAP1 POP JUMP JUMPDEST PUSH1 0x0 PUSH2 0x3A0 DUP3 PUSH2 0x375 JUMP JUMPDEST SWAP1 POP SWAP2 SWAP1 POP JUMP JUMPDEST PUSH2 0x3B0 DUP2 PUSH2 0x395 JUMP JUMPDEST DUP3 MSTORE POP POP JUMP JUMPDEST PUSH1 0x0 PUSH2 0x3C1 DUP3 PUSH2 0x375 JUMP JUMPDEST SWAP1 POP SWAP2 SWAP1 POP JUMP JUMPDEST PUSH2 0x3D1 DUP2 PUSH2 0x3B6 JUMP JUMPDEST DUP3 MSTORE POP POP JUMP JUMPDEST PUSH1 0x0 PUSH2 0x100 DUP3 ADD SWAP1 POP PUSH2 0x3ED PUSH1 0x0 DUP4 ADD DUP12 PUSH2 0x366 JUMP JUMPDEST PUSH2 0x3FA PUSH1 0x20 DUP4 ADD DUP11 PUSH2 0x366 JUMP JUMPDEST PUSH2 0x407 PUSH1 0x40 DUP4 ADD DUP10 PUSH2 0x366 JUMP JUMPDEST PUSH2 0x414 PUSH1 0x60 DUP4 ADD DUP9 PUSH2 0x366 JUMP JUMPDEST PUSH2 0x421 PUSH1 0x80 DUP4 ADD DUP8 PUSH2 0x3A7 JUMP JUMPDEST PUSH2 0x42E PUSH1 0xA0 DUP4 ADD DUP7 PUSH2 0x3C8 JUMP JUMPDEST PUSH2 0x43B PUSH1 0xC0 DUP4 ADD DUP6 PUSH2 0x366 JUMP JUMPDEST PUSH2 0x448 PUSH1 0xE0 DUP4 ADD DUP5 PUSH2 0x3C8 JUMP JUMPDEST SWAP10 SWAP9 POP POP POP POP POP POP POP POP POP JUMP JUMPDEST PUSH1 0x0 DUP2 MLOAD SWAP1 POP SWAP2 SWAP1 POP JUMP JUMPDEST PUSH1 0x0 DUP3 DUP3 MSTORE PUSH1 0x20 DUP3 ADD SWAP1 POP SWAP3 SWAP2 POP POP JUMP JUMPDEST PUSH1 0x0 JUMPDEST DUP4 DUP2 LT ISZERO PUSH2 0x48F JUMPI DUP1 DUP3 ADD MLOAD DUP2 DUP5 ADD MSTORE PUSH1 0x20 DUP2 ADD SWAP1 POP PUSH2 0x474 JUMP JUMPDEST PUSH1 0x0 DUP5 DUP5 ADD MSTORE POP POP POP POP JUMP JUMPDEST PUSH1 0x0 PUSH1 0x1F NOT PUSH1 0x1F DUP4 ADD AND SWAP1 POP SWAP2 SWAP1 POP JUMP JUMPDEST PUSH1 0x0 PUSH2 0x4B7 DUP3 PUSH2 0x455 JUMP JUMPDEST PUSH2 0x4C1 DUP2 DUP6 PUSH2 0x460 JUMP JUMPDEST SWAP4 POP PUSH2 0x4D1 DUP2 DUP6 PUSH1 0x20 DUP7 ADD PUSH2 0x471 JUMP JUMPDEST PUSH2 0x4DA DUP2 PUSH2 0x49B JUMP JUMPDEST DUP5 ADD SWAP2 POP POP SWAP3 SWAP2 POP POP JUMP JUMPDEST PUSH1 0x0 PUSH1 0x20 DUP3 ADD SWAP1 POP DUP2 DUP2 SUB PUSH1 0x0 DUP4 ADD MSTORE PUSH2 0x4FF DUP2 DUP5 PUSH2 0x4AC JUMP JUMPDEST SWAP1 POP SWAP3 SWAP2 POP POP JUMP JUMPDEST PUSH1 0x0 DUP1 REVERT JUMPDEST PUSH2 0x515 DUP2 PUSH2 0x35C JUMP JUMPDEST DUP2 EQ PUSH2 0x520 JUMPI PUSH1 0x0 DUP1 REVERT JUMPDEST POP JUMP JUMPDEST PUSH1 0x0 DUP2 CALLDATALOAD SWAP1 POP PUSH2 0x532 DUP2 PUSH2 0x50C JUMP JUMPDEST SWAP3 SWAP2 POP POP JUMP JUMPDEST PUSH1 0x0 PUSH1 0x20 DUP3 DUP5 SUB SLT ISZERO PUSH2 0x54E JUMPI PUSH2 0x54D PUSH2 0x507 JUMP JUMPDEST JUMPDEST PUSH1 0x0 PUSH2 0x55C DUP5 DUP3 DUP6 ADD PUSH2 0x523 JUMP JUMPDEST SWAP2 POP POP SWAP3 SWAP2 POP POP JUMP JUMPDEST PUSH32 0x4E487B7100000000000000000000000000000000000000000000000000000000 PUSH1 0x0 MSTORE PUSH1 0x22 PUSH1 0x4 MSTORE PUSH1 0x24 PUSH1 0x0 REVERT JUMPDEST PUSH1 0x0 PUSH1 0x2 DUP3 DIV SWAP1 POP PUSH1 0x1 DUP3 AND DUP1 PUSH2 0x5AC JUMPI PUSH1 0x7F DUP3 AND SWAP2 POP JUMPDEST PUSH1 0x20 DUP3 LT DUP2 SUB PUSH2 0x5BF JUMPI PUSH2 0x5BE PUSH2 0x565 JUMP JUMPDEST JUMPDEST POP SWAP2 SWAP1 POP JUMP JUMPDEST PUSH32 0x4E487B7100000000000000000000000000000000000000000000000000000000 PUSH1 0x0 MSTORE PUSH1 0x32 PUSH1 0x4 MSTORE PUSH1 0x24 PUSH1 0x0 REVERT JUMPDEST PUSH32 0x4E487B7100000000000000000000000000000000000000000000000000000000 PUSH1 0x0 MSTORE PUSH1 0x41 PUSH1 0x4 MSTORE PUSH1 0x24 PUSH1 0x0 REVERT JUMPDEST PUSH1 0x0 DUP2 SWAP1 POP DUP2 PUSH1 0x0 MSTORE PUSH1 0x20 PUSH1 0x0 KECCAK256 SWAP1 POP SWAP2 SWAP1 POP JUMP JUMPDEST PUSH1 0x0 PUSH1 0x20 PUSH1 0x1F DUP4 ADD DIV SWAP1 POP SWAP2 SWAP1 POP JUMP JUMPDEST PUSH1 0x0 DUP3 DUP3 SHL SWAP1 POP SWAP3 SWAP2 POP POP JUMP JUMPDEST PUSH1 0x0 PUSH1 0x8 DUP4 MUL PUSH2 0x685 PUSH32 0xFFFFFFFFFFFFFFFFFFFFFFFFFFFFFFFFFFFFFFFFFFFFFFFFFFFFFFFFFFFFFFFF DUP3 PUSH2 0x648 JUMP JUMPDEST PUSH2 0x68F DUP7 DUP4 PUSH2 0x648 JUMP JUMPDEST SWAP6 POP DUP1 NOT DUP5 AND SWAP4 POP DUP1 DUP7 AND DUP5 OR SWAP3 POP POP POP SWAP4 SWAP3 POP POP POP JUMP JUMPDEST PUSH1 0x0 DUP2 SWAP1 POP SWAP2 SWAP1 POP JUMP JUMPDEST PUSH1 0x0 PUSH2 0x6CC PUSH2 0x6C7 PUSH2 0x6C2 DUP5 PUSH2 0x35C JUMP JUMPDEST PUSH2 0x6A7 JUMP JUMPDEST PUSH2 0x35C JUMP JUMPDEST SWAP1 POP SWAP2 SWAP1 POP JUMP JUMPDEST PUSH1 0x0 DUP2 SWAP1 POP SWAP2 SWAP1 POP JUMP JUMPDEST PUSH2 0x6E6 DUP4 PUSH2 0x6B1 JUMP JUMPDEST PUSH2 0x6FA PUSH2 0x6F2 DUP3 PUSH2 0x6D3 JUMP JUMPDEST DUP5 DUP5 SLOAD PUSH2 0x655 JUMP JUMPDEST DUP3 SSTORE POP POP POP POP JUMP JUMPDEST PUSH1 0x0 SWAP1 JUMP JUMPDEST PUSH2 0x70F PUSH2 0x702 JUMP JUMPDEST PUSH2 0x71A DUP2 DUP5 DUP5 PUSH2 0x6DD JUMP JUMPDEST POP POP POP JUMP JUMPDEST JUMPDEST DUP2 DUP2 LT ISZERO PUSH2 0x73E JUMPI PUSH2 0x733 PUSH1 0x0 DUP3 PUSH2 0x707 JUMP JUMPDEST PUSH1 0x1 DUP2 ADD SWAP1 POP PUSH2 0x720 JUMP JUMPDEST POP POP JUMP JUMPDEST PUSH1 0x1F DUP3 GT ISZERO PUSH2 0x783 JUMPI PUSH2 0x754 DUP2 PUSH2 0x623 JUMP JUMPDEST PUSH2 0x75D DUP5 PUSH2 0x638 JUMP JUMPDEST DUP2 ADD PUSH1 0x20 DUP6 LT ISZERO PUSH2 0x76C JUMPI DUP2 SWAP1 POP JUMPDEST PUSH2 0x780 PUSH2 0x778 DUP6 PUSH2 0x638 JUMP JUMPDEST DUP4 ADD DUP3 PUSH2 0x71F JUMP JUMPDEST POP POP JUMPDEST POP POP POP JUMP JUMPDEST PUSH1 0x0 DUP3 DUP3 SHR SWAP1 POP SWAP3 SWAP2 POP POP JUMP JUMPDEST PUSH1 0x0 PUSH2 0x7A6 PUSH1 0x0 NOT DUP5 PUSH1 0x8 MUL PUSH2 0x788 JUMP JUMPDEST NOT DUP1 DUP4 AND SWAP2 POP POP SWAP3 SWAP2 POP POP JUMP JUMPDEST PUSH1 0x0 PUSH2 0x7BF DUP4 DUP4 PUSH2 0x795 JUMP JUMPDEST SWAP2 POP DUP3 PUSH1 0x2 MUL DUP3 OR SWAP1 POP SWAP3 SWAP2 POP POP JUMP JUMPDEST PUSH2 0x7D8 DUP3 PUSH2 0x455 JUMP JUMPDEST PUSH8 0xFFFFFFFFFFFFFFFF DUP2 GT ISZERO PUSH2 0x7F1 JUMPI PUSH2 0x7F0 PUSH2 0x5F4 JUMP JUMPDEST JUMPDEST PUSH2 0x7FB DUP3 SLOAD PUSH2 0x594 JUMP JUMPDEST PUSH2 0x806 DUP3 DUP3 DUP6 PUSH2 0x742 JUMP JUMPDEST PUSH1 0x0 PUSH1 0x20 SWAP1 POP PUSH1 0x1F DUP4 GT PUSH1 0x1 DUP2 EQ PUSH2 0x839 JUMPI PUSH1 0x0 DUP5 ISZERO PUSH2 0x827 JUMPI DUP3 DUP8 ADD MLOAD SWAP1 POP JUMPDEST PUSH2 0x831 DUP6 DUP3 PUSH2 0x7B3 JUMP JUMPDEST DUP7 SSTORE POP PUSH2 0x899 JUMP JUMPDEST PUSH1 0x1F NOT DUP5 AND PUSH2 0x847 DUP7 PUSH2 0x623 JUMP JUMPDEST PUSH1 0x0 JUMPDEST DUP3 DUP2 LT ISZERO PUSH2 0x86F JUMPI DUP5 DUP10 ADD MLOAD DUP3 SSTORE PUSH1 0x1 DUP3 ADD SWAP2 POP PUSH1 0x20 DUP6 ADD SWAP5 POP PUSH1 0x20 DUP2 ADD SWAP1 POP PUSH2 0x84A JUMP JUMPDEST DUP7 DUP4 LT ISZERO PUSH2 0x88C JUMPI DUP5 DUP10 ADD MLOAD PUSH2 0x888 PUSH1 0x1F DUP10 AND DUP3 PUSH2 0x795 JUMP JUMPDEST DUP4 SSTORE POP JUMPDEST PUSH1 0x1 PUSH1 0x2 DUP9 MUL ADD DUP9 SSTORE POP POP POP JUMPDEST POP POP POP POP POP POP JUMP INVALID LOG2 PUSH5 0x6970667358 0x22 SLT KECCAK256 PUSH6 0x899A3AC92A38 0xBC MSTORE8 0x2D DUP9 0x5E ISZERO SWAP9 0x2F EQ 0xF9 PUSH19 0x7B6749D620336866B3C12CB85BFE64736F6C63 NUMBER STOP ADDMOD SGT STOP CALLER "
				},
				"gasEstimates": {
					"creation": {
						"codeDepositCost": "452600",
						"executionCost": "infinite",
						"totalCost": "infinite"
					},
					"external": {
						"arr(uint256)": "infinite",
						"changeDataByMemory()": "infinite",
						"changeDataByStorage()": "infinite",
						"displayblockdetails()": "infinite"
					}
				},
				"methodIdentifiers": {
					"arr(uint256)": "71e5ee5f",
					"changeDataByMemory()": "634dc8ce",
					"changeDataByStorage()": "d956690b",
					"displayblockdetails()": "3c0e106d"
				}
			},
			"storageLayout": {
				"storage": [
					{
						"astId": 8,
						"contract": "contracts/Transcation.sol:studentids",
						"label": "arr",
						"offset": 0,
						"slot": "0",
						"type": "t_array(t_string_storage)dyn_storage"
					}
				],
				"types": {
					"t_array(t_string_storage)dyn_storage": {
						"base": "t_string_storage",
						"encoding": "dynamic_array",
						"label": "string[]",
						"numberOfBytes": "32"
					},
					"t_string_storage": {
						"encoding": "bytes",
						"label": "string",
						"numberOfBytes": "32"
					}
				}
			},
			"userdoc": {
				"kind": "user",
				"methods": {},
				"version": 1
			}
		}
	}
}