{
	"contracts/Enum.sol": {
		"transcation": {
			"abi": [
				{
					"inputs": [],
					"name": "changestatus",
					"outputs": [],
					"stateMutability": "nonpayable",
					"type": "function"
				},
				{
					"inputs": [],
					"name": "s1",
					"outputs": [
						{
							"internalType": "enum transcation.state",
							"name": "",
							"type": "uint8"
						}
					],
					"stateMutability": "view",
					"type": "function"
				},
				{
					"inputs": [
						{
							"internalType": "enum transcation.state",
							"name": "_tempstate",
							"type": "uint8"
						}
					],
					"name": "setstate",
					"outputs": [],
					"stateMutability": "nonpayable",
					"type": "function"
				},
				{
					"inputs": [],
					"name": "status",
					"outputs": [
						{
							"internalType": "bool",
							"name": "",
							"type": "bool"
						}
					],
					"stateMutability": "view",
					"type": "function"
				}
			],
			"devdoc": {
				"kind": "dev",
				"methods": {},
				"version": 1
			},
			"evm": {
				"assembly": "    /* \"contracts/Enum.sol\":64:490  contract transcation {... */\n  mstore(0x40, 0x80)\n    /* \"contracts/Enum.sol\":112:116  true */\n  0x01\n    /* \"contracts/Enum.sol\":91:116  bool public status = true */\n  0x00\n  dup1\n  0x0100\n  exp\n  dup2\n  sload\n  dup2\n  0xff\n  mul\n  not\n  and\n  swap1\n  dup4\n  iszero\n  iszero\n  mul\n  or\n  swap1\n  sstore\n  pop\n    /* \"contracts/Enum.sol\":64:490  contract transcation {... */\n  callvalue\n  dup1\n  iszero\n  tag_1\n  jumpi\n  0x00\n  dup1\n  revert\ntag_1:\n  pop\n  dataSize(sub_0)\n  dup1\n  dataOffset(sub_0)\n  0x00\n  codecopy\n  0x00\n  return\nstop\n\nsub_0: assembly {\n        /* \"contracts/Enum.sol\":64:490  contract transcation {... */\n      mstore(0x40, 0x80)\n      callvalue\n      dup1\n      iszero\n      tag_1\n      jumpi\n      0x00\n      dup1\n      revert\n    tag_1:\n      pop\n      jumpi(tag_2, lt(calldatasize, 0x04))\n      shr(0xe0, calldataload(0x00))\n      dup1\n      0x200d2ed2\n      eq\n      tag_3\n      jumpi\n      dup1\n      0x6cc014de\n      eq\n      tag_4\n      jumpi\n      dup1\n      0xb141be4d\n      eq\n      tag_5\n      jumpi\n      dup1\n      0xc1e01dca\n      eq\n      tag_6\n      jumpi\n    tag_2:\n      0x00\n      dup1\n      revert\n        /* \"contracts/Enum.sol\":91:116  bool public status = true */\n    tag_3:\n      tag_7\n      tag_8\n      jump\t// in\n    tag_7:\n      mload(0x40)\n      tag_9\n      swap2\n      swap1\n      tag_10\n      jump\t// in\n    tag_9:\n      mload(0x40)\n      dup1\n      swap2\n      sub\n      swap1\n      return\n        /* \"contracts/Enum.sol\":162:177  state public s1 */\n    tag_4:\n      tag_11\n      tag_12\n      jump\t// in\n    tag_11:\n      mload(0x40)\n      tag_13\n      swap2\n      swap1\n      tag_14\n      jump\t// in\n    tag_13:\n      mload(0x40)\n      dup1\n      swap2\n      sub\n      swap1\n      return\n        /* \"contracts/Enum.sol\":183:261  function setstate(state _tempstate) public{... */\n    tag_5:\n      tag_15\n      0x04\n      dup1\n      calldatasize\n      sub\n      dup2\n      add\n      swap1\n      tag_16\n      swap2\n      swap1\n      tag_17\n      jump\t// in\n    tag_16:\n      tag_18\n      jump\t// in\n    tag_15:\n      stop\n        /* \"contracts/Enum.sol\":271:488  function changestatus() public{... */\n    tag_6:\n      tag_19\n      tag_20\n      jump\t// in\n    tag_19:\n      stop\n        /* \"contracts/Enum.sol\":91:116  bool public status = true */\n    tag_8:\n      0x00\n      dup1\n      sload\n      swap1\n      0x0100\n      exp\n      swap1\n      div\n      0xff\n      and\n      dup2\n      jump\t// out\n        /* \"contracts/Enum.sol\":162:177  state public s1 */\n    tag_12:\n      0x00\n      0x01\n      swap1\n      sload\n      swap1\n      0x0100\n      exp\n      swap1\n      div\n      0xff\n      and\n      dup2\n      jump\t// out\n        /* \"contracts/Enum.sol\":183:261  function setstate(state _tempstate) public{... */\n    tag_18:\n        /* \"contracts/Enum.sol\":240:250  _tempstate */\n      dup1\n        /* \"contracts/Enum.sol\":235:237  s1 */\n      0x00\n      0x01\n        /* \"contracts/Enum.sol\":235:250  s1 = _tempstate */\n      0x0100\n      exp\n      dup2\n      sload\n      dup2\n      0xff\n      mul\n      not\n      and\n      swap1\n      dup4\n      0x02\n      dup2\n      gt\n      iszero\n      tag_22\n      jumpi\n      tag_23\n      tag_24\n      jump\t// in\n    tag_23:\n    tag_22:\n      mul\n      or\n      swap1\n      sstore\n      pop\n        /* \"contracts/Enum.sol\":183:261  function setstate(state _tempstate) public{... */\n      pop\n      jump\t// out\n        /* \"contracts/Enum.sol\":271:488  function changestatus() public{... */\n    tag_20:\n        /* \"contracts/Enum.sol\":322:326  true */\n      0x01\n        /* \"contracts/Enum.sol\":314:326  status==true */\n      iszero\n      iszero\n        /* \"contracts/Enum.sol\":314:320  status */\n      0x00\n      dup1\n      sload\n      swap1\n      0x0100\n      exp\n      swap1\n      div\n      0xff\n      and\n        /* \"contracts/Enum.sol\":314:326  status==true */\n      iszero\n      iszero\n      sub\n        /* \"contracts/Enum.sol\":311:481  if(status==true){... */\n      tag_26\n      jumpi\n        /* \"contracts/Enum.sol\":346:359  state.success */\n      0x01\n        /* \"contracts/Enum.sol\":341:343  s1 */\n      0x00\n      0x01\n        /* \"contracts/Enum.sol\":341:359  s1 = state.success */\n      0x0100\n      exp\n      dup2\n      sload\n      dup2\n      0xff\n      mul\n      not\n      and\n      swap1\n      dup4\n      0x02\n      dup2\n      gt\n      iszero\n      tag_27\n      jumpi\n      tag_28\n      tag_24\n      jump\t// in\n    tag_28:\n    tag_27:\n      mul\n      or\n      swap1\n      sstore\n      pop\n        /* \"contracts/Enum.sol\":382:387  false */\n      0x00\n        /* \"contracts/Enum.sol\":373:379  status */\n      dup1\n      0x00\n        /* \"contracts/Enum.sol\":373:387  status = false */\n      0x0100\n      exp\n      dup2\n      sload\n      dup2\n      0xff\n      mul\n      not\n      and\n      swap1\n      dup4\n      iszero\n      iszero\n      mul\n      or\n      swap1\n      sstore\n      pop\n        /* \"contracts/Enum.sol\":311:481  if(status==true){... */\n      jump(tag_29)\n    tag_26:\n        /* \"contracts/Enum.sol\":430:443  state.failure */\n      0x02\n        /* \"contracts/Enum.sol\":425:427  s1 */\n      0x00\n      0x01\n        /* \"contracts/Enum.sol\":425:443  s1 = state.failure */\n      0x0100\n      exp\n      dup2\n      sload\n      dup2\n      0xff\n      mul\n      not\n      and\n      swap1\n      dup4\n      0x02\n      dup2\n      gt\n      iszero\n      tag_30\n      jumpi\n      tag_31\n      tag_24\n      jump\t// in\n    tag_31:\n    tag_30:\n      mul\n      or\n      swap1\n      sstore\n      pop\n        /* \"contracts/Enum.sol\":466:470  true */\n      0x01\n        /* \"contracts/Enum.sol\":457:463  status */\n      0x00\n      dup1\n        /* \"contracts/Enum.sol\":457:470  status = true */\n      0x0100\n      exp\n      dup2\n      sload\n      dup2\n      0xff\n      mul\n      not\n      and\n      swap1\n      dup4\n      iszero\n      iszero\n      mul\n      or\n      swap1\n      sstore\n      pop\n        /* \"contracts/Enum.sol\":311:481  if(status==true){... */\n    tag_29:\n        /* \"contracts/Enum.sol\":271:488  function changestatus() public{... */\n      jump\t// out\n        /* \"#utility.yul\":7:97   */\n    tag_32:\n        /* \"#utility.yul\":41:48   */\n      0x00\n        /* \"#utility.yul\":84:89   */\n      dup2\n        /* \"#utility.yul\":77:90   */\n      iszero\n        /* \"#utility.yul\":70:91   */\n      iszero\n        /* \"#utility.yul\":59:91   */\n      swap1\n      pop\n        /* \"#utility.yul\":7:97   */\n      swap2\n      swap1\n      pop\n      jump\t// out\n        /* \"#utility.yul\":103:212   */\n    tag_33:\n        /* \"#utility.yul\":184:205   */\n      tag_46\n        /* \"#utility.yul\":199:204   */\n      dup2\n        /* \"#utility.yul\":184:205   */\n      tag_32\n      jump\t// in\n    tag_46:\n        /* \"#utility.yul\":179:182   */\n      dup3\n        /* \"#utility.yul\":172:206   */\n      mstore\n        /* \"#utility.yul\":103:212   */\n      pop\n      pop\n      jump\t// out\n        /* \"#utility.yul\":218:428   */\n    tag_10:\n        /* \"#utility.yul\":305:309   */\n      0x00\n        /* \"#utility.yul\":343:345   */\n      0x20\n        /* \"#utility.yul\":332:341   */\n      dup3\n        /* \"#utility.yul\":328:346   */\n      add\n        /* \"#utility.yul\":320:346   */\n      swap1\n      pop\n        /* \"#utility.yul\":356:421   */\n      tag_48\n        /* \"#utility.yul\":418:419   */\n      0x00\n        /* \"#utility.yul\":407:416   */\n      dup4\n        /* \"#utility.yul\":403:420   */\n      add\n        /* \"#utility.yul\":394:400   */\n      dup5\n        /* \"#utility.yul\":356:421   */\n      tag_33\n      jump\t// in\n    tag_48:\n        /* \"#utility.yul\":218:428   */\n      swap3\n      swap2\n      pop\n      pop\n      jump\t// out\n        /* \"#utility.yul\":434:614   */\n    tag_24:\n        /* \"#utility.yul\":482:559   */\n      0x4e487b7100000000000000000000000000000000000000000000000000000000\n        /* \"#utility.yul\":479:480   */\n      0x00\n        /* \"#utility.yul\":472:560   */\n      mstore\n        /* \"#utility.yul\":579:583   */\n      0x21\n        /* \"#utility.yul\":576:577   */\n      0x04\n        /* \"#utility.yul\":569:584   */\n      mstore\n        /* \"#utility.yul\":603:607   */\n      0x24\n        /* \"#utility.yul\":600:601   */\n      0x00\n        /* \"#utility.yul\":593:608   */\n      revert\n        /* \"#utility.yul\":620:732   */\n    tag_34:\n        /* \"#utility.yul\":700:701   */\n      0x03\n        /* \"#utility.yul\":693:698   */\n      dup2\n        /* \"#utility.yul\":690:702   */\n      lt\n        /* \"#utility.yul\":680:726   */\n      tag_51\n      jumpi\n        /* \"#utility.yul\":706:724   */\n      tag_52\n      tag_24\n      jump\t// in\n    tag_52:\n        /* \"#utility.yul\":680:726   */\n    tag_51:\n        /* \"#utility.yul\":620:732   */\n      pop\n      jump\t// out\n        /* \"#utility.yul\":738:863   */\n    tag_35:\n        /* \"#utility.yul\":782:789   */\n      0x00\n        /* \"#utility.yul\":811:816   */\n      dup2\n        /* \"#utility.yul\":800:816   */\n      swap1\n      pop\n        /* \"#utility.yul\":817:857   */\n      tag_54\n        /* \"#utility.yul\":851:856   */\n      dup3\n        /* \"#utility.yul\":817:857   */\n      tag_34\n      jump\t// in\n    tag_54:\n        /* \"#utility.yul\":738:863   */\n      swap2\n      swap1\n      pop\n      jump\t// out\n        /* \"#utility.yul\":869:994   */\n    tag_36:\n        /* \"#utility.yul\":924:933   */\n      0x00\n        /* \"#utility.yul\":957:988   */\n      tag_56\n        /* \"#utility.yul\":982:987   */\n      dup3\n        /* \"#utility.yul\":957:988   */\n      tag_35\n      jump\t// in\n    tag_56:\n        /* \"#utility.yul\":944:988   */\n      swap1\n      pop\n        /* \"#utility.yul\":869:994   */\n      swap2\n      swap1\n      pop\n      jump\t// out\n        /* \"#utility.yul\":1000:1141   */\n    tag_37:\n        /* \"#utility.yul\":1092:1134   */\n      tag_58\n        /* \"#utility.yul\":1128:1133   */\n      dup2\n        /* \"#utility.yul\":1092:1134   */\n      tag_36\n      jump\t// in\n    tag_58:\n        /* \"#utility.yul\":1087:1090   */\n      dup3\n        /* \"#utility.yul\":1080:1135   */\n      mstore\n        /* \"#utility.yul\":1000:1141   */\n      pop\n      pop\n      jump\t// out\n        /* \"#utility.yul\":1147:1379   */\n    tag_14:\n        /* \"#utility.yul\":1245:1249   */\n      0x00\n        /* \"#utility.yul\":1283:1285   */\n      0x20\n        /* \"#utility.yul\":1272:1281   */\n      dup3\n        /* \"#utility.yul\":1268:1286   */\n      add\n        /* \"#utility.yul\":1260:1286   */\n      swap1\n      pop\n        /* \"#utility.yul\":1296:1372   */\n      tag_60\n        /* \"#utility.yul\":1369:1370   */\n      0x00\n        /* \"#utility.yul\":1358:1367   */\n      dup4\n        /* \"#utility.yul\":1354:1371   */\n      add\n        /* \"#utility.yul\":1345:1351   */\n      dup5\n        /* \"#utility.yul\":1296:1372   */\n      tag_37\n      jump\t// in\n    tag_60:\n        /* \"#utility.yul\":1147:1379   */\n      swap3\n      swap2\n      pop\n      pop\n      jump\t// out\n        /* \"#utility.yul\":1466:1583   */\n    tag_39:\n        /* \"#utility.yul\":1575:1576   */\n      0x00\n        /* \"#utility.yul\":1572:1573   */\n      dup1\n        /* \"#utility.yul\":1565:1577   */\n      revert\n        /* \"#utility.yul\":1712:1818   */\n    tag_41:\n        /* \"#utility.yul\":1792:1793   */\n      0x03\n        /* \"#utility.yul\":1785:1790   */\n      dup2\n        /* \"#utility.yul\":1782:1794   */\n      lt\n        /* \"#utility.yul\":1772:1812   */\n      tag_65\n      jumpi\n        /* \"#utility.yul\":1808:1809   */\n      0x00\n        /* \"#utility.yul\":1805:1806   */\n      dup1\n        /* \"#utility.yul\":1798:1810   */\n      revert\n        /* \"#utility.yul\":1772:1812   */\n    tag_65:\n        /* \"#utility.yul\":1712:1818   */\n      pop\n      jump\t// out\n        /* \"#utility.yul\":1824:1977   */\n    tag_42:\n        /* \"#utility.yul\":1877:1882   */\n      0x00\n        /* \"#utility.yul\":1915:1921   */\n      dup2\n        /* \"#utility.yul\":1902:1922   */\n      calldataload\n        /* \"#utility.yul\":1893:1922   */\n      swap1\n      pop\n        /* \"#utility.yul\":1931:1971   */\n      tag_67\n        /* \"#utility.yul\":1965:1970   */\n      dup2\n        /* \"#utility.yul\":1931:1971   */\n      tag_41\n      jump\t// in\n    tag_67:\n        /* \"#utility.yul\":1824:1977   */\n      swap3\n      swap2\n      pop\n      pop\n      jump\t// out\n        /* \"#utility.yul\":1983:2326   */\n    tag_17:\n        /* \"#utility.yul\":2049:2055   */\n      0x00\n        /* \"#utility.yul\":2098:2100   */\n      0x20\n        /* \"#utility.yul\":2086:2095   */\n      dup3\n        /* \"#utility.yul\":2077:2084   */\n      dup5\n        /* \"#utility.yul\":2073:2096   */\n      sub\n        /* \"#utility.yul\":2069:2101   */\n      slt\n        /* \"#utility.yul\":2066:2185   */\n      iszero\n      tag_69\n      jumpi\n        /* \"#utility.yul\":2104:2183   */\n      tag_70\n      tag_39\n      jump\t// in\n    tag_70:\n        /* \"#utility.yul\":2066:2185   */\n    tag_69:\n        /* \"#utility.yul\":2224:2225   */\n      0x00\n        /* \"#utility.yul\":2249:2309   */\n      tag_71\n        /* \"#utility.yul\":2301:2308   */\n      dup5\n        /* \"#utility.yul\":2292:2298   */\n      dup3\n        /* \"#utility.yul\":2281:2290   */\n      dup6\n        /* \"#utility.yul\":2277:2299   */\n      add\n        /* \"#utility.yul\":2249:2309   */\n      tag_42\n      jump\t// in\n    tag_71:\n        /* \"#utility.yul\":2239:2309   */\n      swap2\n      pop\n        /* \"#utility.yul\":2195:2319   */\n      pop\n        /* \"#utility.yul\":1983:2326   */\n      swap3\n      swap2\n      pop\n      pop\n      jump\t// out\n\n    auxdata: 0xa2646970667358221220e58d2436d5d56480d9cb1721a47a059d20be70102c90f3104e51a33c0e8bcc6864736f6c63430008130033\n}\n",
				"bytecode": {
					"linkReferences": {},
					"object": "608060405260016000806101000a81548160ff02191690831515021790555034801561002a57600080fd5b506103048061003a6000396000f3fe608060405234801561001057600080fd5b506004361061004c5760003560e01c8063200d2ed2146100515780636cc014de1461006f578063b141be4d1461008d578063c1e01dca146100a9575b600080fd5b6100596100b3565b60405161006691906101ca565b60405180910390f35b6100776100c4565b604051610084919061025c565b60405180910390f35b6100a760048036038101906100a291906102a1565b6100d7565b005b6100b1610104565b005b60008054906101000a900460ff1681565b600060019054906101000a900460ff1681565b80600060016101000a81548160ff021916908360028111156100fc576100fb6101e5565b5b021790555050565b6001151560008054906101000a900460ff16151503610167576001600060016101000a81548160ff02191690836002811115610143576101426101e5565b5b021790555060008060006101000a81548160ff0219169083151502179055506101ad565b6002600060016101000a81548160ff0219169083600281111561018d5761018c6101e5565b5b021790555060016000806101000a81548160ff0219169083151502179055505b565b60008115159050919050565b6101c4816101af565b82525050565b60006020820190506101df60008301846101bb565b92915050565b7f4e487b7100000000000000000000000000000000000000000000000000000000600052602160045260246000fd5b60038110610225576102246101e5565b5b50565b600081905061023682610214565b919050565b600061024682610228565b9050919050565b6102568161023b565b82525050565b6000602082019050610271600083018461024d565b92915050565b600080fd5b6003811061028957600080fd5b50565b60008135905061029b8161027c565b92915050565b6000602082840312156102b7576102b6610277565b5b60006102c58482850161028c565b9150509291505056fea2646970667358221220e58d2436d5d56480d9cb1721a47a059d20be70102c90f3104e51a33c0e8bcc6864736f6c63430008130033",
					"opcodes": "PUSH1 0x80 PUSH1 0x40 MSTORE PUSH1 0x1 PUSH1 0x0 DUP1 PUSH2 0x100 EXP DUP2 SLOAD DUP2 PUSH1 0xFF MUL NOT AND SWAP1 DUP4 ISZERO ISZERO MUL OR SWAP1 SSTORE POP CALLVALUE DUP1 ISZERO PUSH2 0x2A JUMPI PUSH1 0x0 DUP1 REVERT JUMPDEST POP PUSH2 0x304 DUP1 PUSH2 0x3A PUSH1 0x0 CODECOPY PUSH1 0x0 RETURN INVALID PUSH1 0x80 PUSH1 0x40 MSTORE CALLVALUE DUP1 ISZERO PUSH2 0x10 JUMPI PUSH1 0x0 DUP1 REVERT JUMPDEST POP PUSH1 0x4 CALLDATASIZE LT PUSH2 0x4C JUMPI PUSH1 0x0 CALLDATALOAD PUSH1 0xE0 SHR DUP1 PUSH4 0x200D2ED2 EQ PUSH2 0x51 JUMPI DUP1 PUSH4 0x6CC014DE EQ PUSH2 0x6F JUMPI DUP1 PUSH4 0xB141BE4D EQ PUSH2 0x8D JUMPI DUP1 PUSH4 0xC1E01DCA EQ PUSH2 0xA9 JUMPI JUMPDEST PUSH1 0x0 DUP1 REVERT JUMPDEST PUSH2 0x59 PUSH2 0xB3 JUMP JUMPDEST PUSH1 0x40 MLOAD PUSH2 0x66 SWAP2 SWAP1 PUSH2 0x1CA JUMP JUMPDEST PUSH1 0x40 MLOAD DUP1 SWAP2 SUB SWAP1 RETURN JUMPDEST PUSH2 0x77 PUSH2 0xC4 JUMP JUMPDEST PUSH1 0x40 MLOAD PUSH2 0x84 SWAP2 SWAP1 PUSH2 0x25C JUMP JUMPDEST PUSH1 0x40 MLOAD DUP1 SWAP2 SUB SWAP1 RETURN JUMPDEST PUSH2 0xA7 PUSH1 0x4 DUP1 CALLDATASIZE SUB DUP2 ADD SWAP1 PUSH2 0xA2 SWAP2 SWAP1 PUSH2 0x2A1 JUMP JUMPDEST PUSH2 0xD7 JUMP JUMPDEST STOP JUMPDEST PUSH2 0xB1 PUSH2 0x104 JUMP JUMPDEST STOP JUMPDEST PUSH1 0x0 DUP1 SLOAD SWAP1 PUSH2 0x100 EXP SWAP1 DIV PUSH1 0xFF AND DUP2 JUMP JUMPDEST PUSH1 0x0 PUSH1 0x1 SWAP1 SLOAD SWAP1 PUSH2 0x100 EXP SWAP1 DIV PUSH1 0xFF AND DUP2 JUMP JUMPDEST DUP1 PUSH1 0x0 PUSH1 0x1 PUSH2 0x100 EXP DUP2 SLOAD DUP2 PUSH1 0xFF MUL NOT AND SWAP1 DUP4 PUSH1 0x2 DUP2 GT ISZERO PUSH2 0xFC JUMPI PUSH2 0xFB PUSH2 0x1E5 JUMP JUMPDEST JUMPDEST MUL OR SWAP1 SSTORE POP POP JUMP JUMPDEST PUSH1 0x1 ISZERO ISZERO PUSH1 0x0 DUP1 SLOAD SWAP1 PUSH2 0x100 EXP SWAP1 DIV PUSH1 0xFF AND ISZERO ISZERO SUB PUSH2 0x167 JUMPI PUSH1 0x1 PUSH1 0x0 PUSH1 0x1 PUSH2 0x100 EXP DUP2 SLOAD DUP2 PUSH1 0xFF MUL NOT AND SWAP1 DUP4 PUSH1 0x2 DUP2 GT ISZERO PUSH2 0x143 JUMPI PUSH2 0x142 PUSH2 0x1E5 JUMP JUMPDEST JUMPDEST MUL OR SWAP1 SSTORE POP PUSH1 0x0 DUP1 PUSH1 0x0 PUSH2 0x100 EXP DUP2 SLOAD DUP2 PUSH1 0xFF MUL NOT AND SWAP1 DUP4 ISZERO ISZERO MUL OR SWAP1 SSTORE POP PUSH2 0x1AD JUMP JUMPDEST PUSH1 0x2 PUSH1 0x0 PUSH1 0x1 PUSH2 0x100 EXP DUP2 SLOAD DUP2 PUSH1 0xFF MUL NOT AND SWAP1 DUP4 PUSH1 0x2 DUP2 GT ISZERO PUSH2 0x18D JUMPI PUSH2 0x18C PUSH2 0x1E5 JUMP JUMPDEST JUMPDEST MUL OR SWAP1 SSTORE POP PUSH1 0x1 PUSH1 0x0 DUP1 PUSH2 0x100 EXP DUP2 SLOAD DUP2 PUSH1 0xFF MUL NOT AND SWAP1 DUP4 ISZERO ISZERO MUL OR SWAP1 SSTORE POP JUMPDEST JUMP JUMPDEST PUSH1 0x0 DUP2 ISZERO ISZERO SWAP1 POP SWAP2 SWAP1 POP JUMP JUMPDEST PUSH2 0x1C4 DUP2 PUSH2 0x1AF JUMP JUMPDEST DUP3 MSTORE POP POP JUMP JUMPDEST PUSH1 0x0 PUSH1 0x20 DUP3 ADD SWAP1 POP PUSH2 0x1DF PUSH1 0x0 DUP4 ADD DUP5 PUSH2 0x1BB JUMP JUMPDEST SWAP3 SWAP2 POP POP JUMP JUMPDEST PUSH32 0x4E487B7100000000000000000000000000000000000000000000000000000000 PUSH1 0x0 MSTORE PUSH1 0x21 PUSH1 0x4 MSTORE PUSH1 0x24 PUSH1 0x0 REVERT JUMPDEST PUSH1 0x3 DUP2 LT PUSH2 0x225 JUMPI PUSH2 0x224 PUSH2 0x1E5 JUMP JUMPDEST JUMPDEST POP JUMP JUMPDEST PUSH1 0x0 DUP2 SWAP1 POP PUSH2 0x236 DUP3 PUSH2 0x214 JUMP JUMPDEST SWAP2 SWAP1 POP JUMP JUMPDEST PUSH1 0x0 PUSH2 0x246 DUP3 PUSH2 0x228 JUMP JUMPDEST SWAP1 POP SWAP2 SWAP1 POP JUMP JUMPDEST PUSH2 0x256 DUP2 PUSH2 0x23B JUMP JUMPDEST DUP3 MSTORE POP POP JUMP JUMPDEST PUSH1 0x0 PUSH1 0x20 DUP3 ADD SWAP1 POP PUSH2 0x271 PUSH1 0x0 DUP4 ADD DUP5 PUSH2 0x24D JUMP JUMPDEST SWAP3 SWAP2 POP POP JUMP JUMPDEST PUSH1 0x0 DUP1 REVERT JUMPDEST PUSH1 0x3 DUP2 LT PUSH2 0x289 JUMPI PUSH1 0x0 DUP1 REVERT JUMPDEST POP JUMP JUMPDEST PUSH1 0x0 DUP2 CALLDATALOAD SWAP1 POP PUSH2 0x29B DUP2 PUSH2 0x27C JUMP JUMPDEST SWAP3 SWAP2 POP POP JUMP JUMPDEST PUSH1 0x0 PUSH1 0x20 DUP3 DUP5 SUB SLT ISZERO PUSH2 0x2B7 JUMPI PUSH2 0x2B6 PUSH2 0x277 JUMP JUMPDEST JUMPDEST PUSH1 0x0 PUSH2 0x2C5 DUP5 DUP3 DUP6 ADD PUSH2 0x28C JUMP JUMPDEST SWAP2 POP POP SWAP3 SWAP2 POP POP JUMP INVALID LOG2 PUSH5 0x6970667358 0x22 SLT KECCAK256 0xE5 DUP14 0x24 CALLDATASIZE 0xD5 0xD5 PUSH5 0x80D9CB1721 LOG4 PUSH27 0x59D20BE70102C90F3104E51A33C0E8BCC6864736F6C6343000813 STOP CALLER "
				},
				"gasEstimates": {
					"creation": {
						"codeDepositCost": "154400",
						"executionCost": "24469",
						"totalCost": "178869"
					},
					"external": {
						"changestatus()": "50971",
						"s1()": "2610",
						"setstate(uint8)": "24722",
						"status()": "2446"
					}
				},
				"methodIdentifiers": {
					"changestatus()": "c1e01dca",
					"s1()": "6cc014de",
					"setstate(uint8)": "b141be4d",
					"status()": "200d2ed2"
				}
			},
			"storageLayout": {
				"storage": [
					{
						"astId": 4,
						"contract": "contracts/Enum.sol:transcation",
						"label": "status",
						"offset": 0,
						"slot": "0",
						"type": "t_bool"
					},
					{
						"astId": 11,
						"contract": "contracts/Enum.sol:transcation",
						"label": "s1",
						"offset": 1,
						"slot": "0",
						"type": "t_enum(state)8"
					}
				],
				"types": {
					"t_bool": {
						"encoding": "inplace",
						"label": "bool",
						"numberOfBytes": "1"
					},
					"t_enum(state)8": {
						"encoding": "inplace",
						"label": "enum transcation.state",
						"numberOfBytes": "1"
					}
				}
			},
			"userdoc": {
				"kind": "user",
				"methods": {},
				"version": 1
			}
		}
	}
}