{
	"contracts/Practice.sol": {
		"calc": {
			"abi": [
				{
					"inputs": [
						{
							"internalType": "string",
							"name": "message",
							"type": "string"
						}
					],
					"name": "noteven",
					"type": "error"
				},
				{
					"inputs": [
						{
							"internalType": "uint8",
							"name": "num",
							"type": "uint8"
						}
					],
					"name": "Assert",
					"outputs": [],
					"stateMutability": "pure",
					"type": "function"
				},
				{
					"inputs": [
						{
							"internalType": "uint8",
							"name": "num",
							"type": "uint8"
						}
					],
					"name": "Customerror",
					"outputs": [],
					"stateMutability": "pure",
					"type": "function"
				},
				{
					"inputs": [
						{
							"internalType": "uint8",
							"name": "num",
							"type": "uint8"
						}
					],
					"name": "Require",
					"outputs": [],
					"stateMutability": "pure",
					"type": "function"
				},
				{
					"inputs": [
						{
							"internalType": "uint8",
							"name": "num",
							"type": "uint8"
						}
					],
					"name": "Revert",
					"outputs": [],
					"stateMutability": "pure",
					"type": "function"
				},
				{
					"inputs": [
						{
							"internalType": "uint8",
							"name": "x",
							"type": "uint8"
						},
						{
							"internalType": "uint8",
							"name": "y",
							"type": "uint8"
						}
					],
					"name": "findsum",
					"outputs": [
						{
							"internalType": "uint256",
							"name": "",
							"type": "uint256"
						}
					],
					"stateMutability": "pure",
					"type": "function"
				}
			],
			"devdoc": {
				"kind": "dev",
				"methods": {},
				"version": 1
			},
			"evm": {
				"assembly": "    /* \"contracts/Practice.sol\":1848:2435  contract calc{... */\n  mstore(0x40, 0x80)\n  callvalue\n  dup1\n  iszero\n  tag_1\n  jumpi\n  0x00\n  dup1\n  revert\ntag_1:\n  pop\n  dataSize(sub_0)\n  dup1\n  dataOffset(sub_0)\n  0x00\n  codecopy\n  0x00\n  return\nstop\n\nsub_0: assembly {\n        /* \"contracts/Practice.sol\":1848:2435  contract calc{... */\n      mstore(0x40, 0x80)\n      callvalue\n      dup1\n      iszero\n      tag_1\n      jumpi\n      0x00\n      dup1\n      revert\n    tag_1:\n      pop\n      jumpi(tag_2, lt(calldatasize, 0x04))\n      shr(0xe0, calldataload(0x00))\n      dup1\n      0x243db44a\n      eq\n      tag_3\n      jumpi\n      dup1\n      0x4ea7344e\n      eq\n      tag_4\n      jumpi\n      dup1\n      0x7d807336\n      eq\n      tag_5\n      jumpi\n      dup1\n      0xaac4cc5c\n      eq\n      tag_6\n      jumpi\n      dup1\n      0xdff2cdd7\n      eq\n      tag_7\n      jumpi\n    tag_2:\n      0x00\n      dup1\n      revert\n        /* \"contracts/Practice.sol\":2300:2433  function Customerror(uint8 num) public pure{... */\n    tag_3:\n      tag_8\n      0x04\n      dup1\n      calldatasize\n      sub\n      dup2\n      add\n      swap1\n      tag_9\n      swap2\n      swap1\n      tag_10\n      jump\t// in\n    tag_9:\n      tag_11\n      jump\t// in\n    tag_8:\n      stop\n        /* \"contracts/Practice.sol\":2011:2095  function Require(uint8 num) public pure{... */\n    tag_4:\n      tag_12\n      0x04\n      dup1\n      calldatasize\n      sub\n      dup2\n      add\n      swap1\n      tag_13\n      swap2\n      swap1\n      tag_10\n      jump\t// in\n    tag_13:\n      tag_14\n      jump\t// in\n    tag_12:\n      stop\n        /* \"contracts/Practice.sol\":2178:2294  function Revert(uint8 num) public pure{... */\n    tag_5:\n      tag_15\n      0x04\n      dup1\n      calldatasize\n      sub\n      dup2\n      add\n      swap1\n      tag_16\n      swap2\n      swap1\n      tag_10\n      jump\t// in\n    tag_16:\n      tag_17\n      jump\t// in\n    tag_15:\n      stop\n        /* \"contracts/Practice.sol\":2101:2172  function Assert(uint8 num) public pure{... */\n    tag_6:\n      tag_18\n      0x04\n      dup1\n      calldatasize\n      sub\n      dup2\n      add\n      swap1\n      tag_19\n      swap2\n      swap1\n      tag_10\n      jump\t// in\n    tag_19:\n      tag_20\n      jump\t// in\n    tag_18:\n      stop\n        /* \"contracts/Practice.sol\":1903:2005  function findsum(uint8 x,uint8 y) public pure returns(uint){... */\n    tag_7:\n      tag_21\n      0x04\n      dup1\n      calldatasize\n      sub\n      dup2\n      add\n      swap1\n      tag_22\n      swap2\n      swap1\n      tag_23\n      jump\t// in\n    tag_22:\n      tag_24\n      jump\t// in\n    tag_21:\n      mload(0x40)\n      tag_25\n      swap2\n      swap1\n      tag_26\n      jump\t// in\n    tag_25:\n      mload(0x40)\n      dup1\n      swap2\n      sub\n      swap1\n      return\n        /* \"contracts/Practice.sol\":2300:2433  function Customerror(uint8 num) public pure{... */\n    tag_11:\n        /* \"contracts/Practice.sol\":2363:2364  0 */\n      0x00\n        /* \"contracts/Practice.sol\":2360:2361  2 */\n      0x02\n        /* \"contracts/Practice.sol\":2356:2359  num */\n      dup3\n        /* \"contracts/Practice.sol\":2356:2361  num%2 */\n      tag_28\n      swap2\n      swap1\n      tag_29\n      jump\t// in\n    tag_28:\n        /* \"contracts/Practice.sol\":2356:2364  num%2!=0 */\n      0xff\n      and\n      eq\n        /* \"contracts/Practice.sol\":2353:2427  if(num%2!=0){... */\n      tag_30\n      jumpi\n        /* \"contracts/Practice.sol\":2386:2416  noteven(\"Custom error called\") */\n      mload(0x40)\n      0x4c66e99c00000000000000000000000000000000000000000000000000000000\n      dup2\n      mstore\n      0x04\n      add\n      tag_31\n      swap1\n      tag_32\n      jump\t// in\n    tag_31:\n      mload(0x40)\n      dup1\n      swap2\n      sub\n      swap1\n      revert\n        /* \"contracts/Practice.sol\":2353:2427  if(num%2!=0){... */\n    tag_30:\n        /* \"contracts/Practice.sol\":2300:2433  function Customerror(uint8 num) public pure{... */\n      pop\n      jump\t// out\n        /* \"contracts/Practice.sol\":2011:2095  function Require(uint8 num) public pure{... */\n    tag_14:\n        /* \"contracts/Practice.sol\":2075:2076  0 */\n      0x00\n        /* \"contracts/Practice.sol\":2072:2073  2 */\n      0x02\n        /* \"contracts/Practice.sol\":2068:2071  num */\n      dup3\n        /* \"contracts/Practice.sol\":2068:2073  num%2 */\n      tag_34\n      swap2\n      swap1\n      tag_29\n      jump\t// in\n    tag_34:\n        /* \"contracts/Practice.sol\":2068:2076  num%2==0 */\n      0xff\n      and\n      eq\n        /* \"contracts/Practice.sol\":2060:2088  require(num%2==0,\"Not even\") */\n      tag_35\n      jumpi\n      mload(0x40)\n      0x08c379a000000000000000000000000000000000000000000000000000000000\n      dup2\n      mstore\n      0x04\n      add\n      tag_36\n      swap1\n      tag_37\n      jump\t// in\n    tag_36:\n      mload(0x40)\n      dup1\n      swap2\n      sub\n      swap1\n      revert\n    tag_35:\n        /* \"contracts/Practice.sol\":2011:2095  function Require(uint8 num) public pure{... */\n      pop\n      jump\t// out\n        /* \"contracts/Practice.sol\":2178:2294  function Revert(uint8 num) public pure{... */\n    tag_17:\n        /* \"contracts/Practice.sol\":2236:2237  0 */\n      0x00\n        /* \"contracts/Practice.sol\":2233:2234  2 */\n      0x02\n        /* \"contracts/Practice.sol\":2229:2232  num */\n      dup3\n        /* \"contracts/Practice.sol\":2229:2234  num%2 */\n      tag_39\n      swap2\n      swap1\n      tag_29\n      jump\t// in\n    tag_39:\n        /* \"contracts/Practice.sol\":2229:2237  num%2!=0 */\n      0xff\n      and\n      eq\n        /* \"contracts/Practice.sol\":2226:2288  if(num%2!=0){... */\n      tag_40\n      jumpi\n        /* \"contracts/Practice.sol\":2252:2277  revert(\"Not even number\") */\n      mload(0x40)\n      0x08c379a000000000000000000000000000000000000000000000000000000000\n      dup2\n      mstore\n      0x04\n      add\n      tag_41\n      swap1\n      tag_42\n      jump\t// in\n    tag_41:\n      mload(0x40)\n      dup1\n      swap2\n      sub\n      swap1\n      revert\n        /* \"contracts/Practice.sol\":2226:2288  if(num%2!=0){... */\n    tag_40:\n        /* \"contracts/Practice.sol\":2178:2294  function Revert(uint8 num) public pure{... */\n      pop\n      jump\t// out\n        /* \"contracts/Practice.sol\":2101:2172  function Assert(uint8 num) public pure{... */\n    tag_20:\n        /* \"contracts/Practice.sol\":2163:2164  0 */\n      0x00\n        /* \"contracts/Practice.sol\":2160:2161  2 */\n      0x02\n        /* \"contracts/Practice.sol\":2156:2159  num */\n      dup3\n        /* \"contracts/Practice.sol\":2156:2161  num%2 */\n      tag_44\n      swap2\n      swap1\n      tag_29\n      jump\t// in\n    tag_44:\n        /* \"contracts/Practice.sol\":2156:2164  num%2==0 */\n      0xff\n      and\n      eq\n        /* \"contracts/Practice.sol\":2149:2165  assert(num%2==0) */\n      tag_45\n      jumpi\n      tag_46\n      tag_47\n      jump\t// in\n    tag_46:\n    tag_45:\n        /* \"contracts/Practice.sol\":2101:2172  function Assert(uint8 num) public pure{... */\n      pop\n      jump\t// out\n        /* \"contracts/Practice.sol\":1903:2005  function findsum(uint8 x,uint8 y) public pure returns(uint){... */\n    tag_24:\n        /* \"contracts/Practice.sol\":1957:1961  uint */\n      0x00\n        /* \"contracts/Practice.sol\":1979:1989  calculator */\n      linkerSymbol(\"2c98a595394f2a5d21f889434e227436f571ae96a19b700970471709d50c3532\")\n        /* \"contracts/Practice.sol\":1979:1993  calculator.add */\n      0xbb4e3f4d\n        /* \"contracts/Practice.sol\":1994:1995  x */\n      dup5\n        /* \"contracts/Practice.sol\":1996:1997  y */\n      dup5\n        /* \"contracts/Practice.sol\":1979:1998  calculator.add(x,y) */\n      mload(0x40)\n      dup4\n      0xffffffff\n      and\n      0xe0\n      shl\n      dup2\n      mstore\n      0x04\n      add\n      tag_49\n      swap3\n      swap2\n      swap1\n      tag_50\n      jump\t// in\n    tag_49:\n      0x20\n      mload(0x40)\n      dup1\n      dup4\n      sub\n      dup2\n      dup7\n      gas\n      delegatecall\n      iszero\n      dup1\n      iszero\n      tag_52\n      jumpi\n      returndatasize\n      0x00\n      dup1\n      returndatacopy\n      revert(0x00, returndatasize)\n    tag_52:\n      pop\n      pop\n      pop\n      pop\n      mload(0x40)\n      returndatasize\n      not(0x1f)\n      0x1f\n      dup3\n      add\n      and\n      dup3\n      add\n      dup1\n      0x40\n      mstore\n      pop\n      dup2\n      add\n      swap1\n      tag_53\n      swap2\n      swap1\n      tag_54\n      jump\t// in\n    tag_53:\n        /* \"contracts/Practice.sol\":1972:1998  return calculator.add(x,y) */\n      swap1\n      pop\n        /* \"contracts/Practice.sol\":1903:2005  function findsum(uint8 x,uint8 y) public pure returns(uint){... */\n      swap3\n      swap2\n      pop\n      pop\n      jump\t// out\n        /* \"#utility.yul\":88:205   */\n    tag_56:\n        /* \"#utility.yul\":197:198   */\n      0x00\n        /* \"#utility.yul\":194:195   */\n      dup1\n        /* \"#utility.yul\":187:199   */\n      revert\n        /* \"#utility.yul\":334:420   */\n    tag_58:\n        /* \"#utility.yul\":369:376   */\n      0x00\n        /* \"#utility.yul\":409:413   */\n      0xff\n        /* \"#utility.yul\":402:407   */\n      dup3\n        /* \"#utility.yul\":398:414   */\n      and\n        /* \"#utility.yul\":387:414   */\n      swap1\n      pop\n        /* \"#utility.yul\":334:420   */\n      swap2\n      swap1\n      pop\n      jump\t// out\n        /* \"#utility.yul\":426:544   */\n    tag_59:\n        /* \"#utility.yul\":497:519   */\n      tag_80\n        /* \"#utility.yul\":513:518   */\n      dup2\n        /* \"#utility.yul\":497:519   */\n      tag_58\n      jump\t// in\n    tag_80:\n        /* \"#utility.yul\":490:495   */\n      dup2\n        /* \"#utility.yul\":487:520   */\n      eq\n        /* \"#utility.yul\":477:538   */\n      tag_81\n      jumpi\n        /* \"#utility.yul\":534:535   */\n      0x00\n        /* \"#utility.yul\":531:532   */\n      dup1\n        /* \"#utility.yul\":524:536   */\n      revert\n        /* \"#utility.yul\":477:538   */\n    tag_81:\n        /* \"#utility.yul\":426:544   */\n      pop\n      jump\t// out\n        /* \"#utility.yul\":550:685   */\n    tag_60:\n        /* \"#utility.yul\":594:599   */\n      0x00\n        /* \"#utility.yul\":632:638   */\n      dup2\n        /* \"#utility.yul\":619:639   */\n      calldataload\n        /* \"#utility.yul\":610:639   */\n      swap1\n      pop\n        /* \"#utility.yul\":648:679   */\n      tag_83\n        /* \"#utility.yul\":673:678   */\n      dup2\n        /* \"#utility.yul\":648:679   */\n      tag_59\n      jump\t// in\n    tag_83:\n        /* \"#utility.yul\":550:685   */\n      swap3\n      swap2\n      pop\n      pop\n      jump\t// out\n        /* \"#utility.yul\":691:1016   */\n    tag_10:\n        /* \"#utility.yul\":748:754   */\n      0x00\n        /* \"#utility.yul\":797:799   */\n      0x20\n        /* \"#utility.yul\":785:794   */\n      dup3\n        /* \"#utility.yul\":776:783   */\n      dup5\n        /* \"#utility.yul\":772:795   */\n      sub\n        /* \"#utility.yul\":768:800   */\n      slt\n        /* \"#utility.yul\":765:884   */\n      iszero\n      tag_85\n      jumpi\n        /* \"#utility.yul\":803:882   */\n      tag_86\n      tag_56\n      jump\t// in\n    tag_86:\n        /* \"#utility.yul\":765:884   */\n    tag_85:\n        /* \"#utility.yul\":923:924   */\n      0x00\n        /* \"#utility.yul\":948:999   */\n      tag_87\n        /* \"#utility.yul\":991:998   */\n      dup5\n        /* \"#utility.yul\":982:988   */\n      dup3\n        /* \"#utility.yul\":971:980   */\n      dup6\n        /* \"#utility.yul\":967:989   */\n      add\n        /* \"#utility.yul\":948:999   */\n      tag_60\n      jump\t// in\n    tag_87:\n        /* \"#utility.yul\":938:999   */\n      swap2\n      pop\n        /* \"#utility.yul\":894:1009   */\n      pop\n        /* \"#utility.yul\":691:1016   */\n      swap3\n      swap2\n      pop\n      pop\n      jump\t// out\n        /* \"#utility.yul\":1022:1488   */\n    tag_23:\n        /* \"#utility.yul\":1086:1092   */\n      0x00\n        /* \"#utility.yul\":1094:1100   */\n      dup1\n        /* \"#utility.yul\":1143:1145   */\n      0x40\n        /* \"#utility.yul\":1131:1140   */\n      dup4\n        /* \"#utility.yul\":1122:1129   */\n      dup6\n        /* \"#utility.yul\":1118:1141   */\n      sub\n        /* \"#utility.yul\":1114:1146   */\n      slt\n        /* \"#utility.yul\":1111:1230   */\n      iszero\n      tag_89\n      jumpi\n        /* \"#utility.yul\":1149:1228   */\n      tag_90\n      tag_56\n      jump\t// in\n    tag_90:\n        /* \"#utility.yul\":1111:1230   */\n    tag_89:\n        /* \"#utility.yul\":1269:1270   */\n      0x00\n        /* \"#utility.yul\":1294:1345   */\n      tag_91\n        /* \"#utility.yul\":1337:1344   */\n      dup6\n        /* \"#utility.yul\":1328:1334   */\n      dup3\n        /* \"#utility.yul\":1317:1326   */\n      dup7\n        /* \"#utility.yul\":1313:1335   */\n      add\n        /* \"#utility.yul\":1294:1345   */\n      tag_60\n      jump\t// in\n    tag_91:\n        /* \"#utility.yul\":1284:1345   */\n      swap3\n      pop\n        /* \"#utility.yul\":1240:1355   */\n      pop\n        /* \"#utility.yul\":1394:1396   */\n      0x20\n        /* \"#utility.yul\":1420:1471   */\n      tag_92\n        /* \"#utility.yul\":1463:1470   */\n      dup6\n        /* \"#utility.yul\":1454:1460   */\n      dup3\n        /* \"#utility.yul\":1443:1452   */\n      dup7\n        /* \"#utility.yul\":1439:1461   */\n      add\n        /* \"#utility.yul\":1420:1471   */\n      tag_60\n      jump\t// in\n    tag_92:\n        /* \"#utility.yul\":1410:1471   */\n      swap2\n      pop\n        /* \"#utility.yul\":1365:1481   */\n      pop\n        /* \"#utility.yul\":1022:1488   */\n      swap3\n      pop\n      swap3\n      swap1\n      pop\n      jump\t// out\n        /* \"#utility.yul\":1494:1571   */\n    tag_61:\n        /* \"#utility.yul\":1531:1538   */\n      0x00\n        /* \"#utility.yul\":1560:1565   */\n      dup2\n        /* \"#utility.yul\":1549:1565   */\n      swap1\n      pop\n        /* \"#utility.yul\":1494:1571   */\n      swap2\n      swap1\n      pop\n      jump\t// out\n        /* \"#utility.yul\":1577:1695   */\n    tag_62:\n        /* \"#utility.yul\":1664:1688   */\n      tag_95\n        /* \"#utility.yul\":1682:1687   */\n      dup2\n        /* \"#utility.yul\":1664:1688   */\n      tag_61\n      jump\t// in\n    tag_95:\n        /* \"#utility.yul\":1659:1662   */\n      dup3\n        /* \"#utility.yul\":1652:1689   */\n      mstore\n        /* \"#utility.yul\":1577:1695   */\n      pop\n      pop\n      jump\t// out\n        /* \"#utility.yul\":1701:1923   */\n    tag_26:\n        /* \"#utility.yul\":1794:1798   */\n      0x00\n        /* \"#utility.yul\":1832:1834   */\n      0x20\n        /* \"#utility.yul\":1821:1830   */\n      dup3\n        /* \"#utility.yul\":1817:1835   */\n      add\n        /* \"#utility.yul\":1809:1835   */\n      swap1\n      pop\n        /* \"#utility.yul\":1845:1916   */\n      tag_97\n        /* \"#utility.yul\":1913:1914   */\n      0x00\n        /* \"#utility.yul\":1902:1911   */\n      dup4\n        /* \"#utility.yul\":1898:1915   */\n      add\n        /* \"#utility.yul\":1889:1895   */\n      dup5\n        /* \"#utility.yul\":1845:1916   */\n      tag_62\n      jump\t// in\n    tag_97:\n        /* \"#utility.yul\":1701:1923   */\n      swap3\n      swap2\n      pop\n      pop\n      jump\t// out\n        /* \"#utility.yul\":1929:2109   */\n    tag_63:\n        /* \"#utility.yul\":1977:2054   */\n      0x4e487b7100000000000000000000000000000000000000000000000000000000\n        /* \"#utility.yul\":1974:1975   */\n      0x00\n        /* \"#utility.yul\":1967:2055   */\n      mstore\n        /* \"#utility.yul\":2074:2078   */\n      0x12\n        /* \"#utility.yul\":2071:2072   */\n      0x04\n        /* \"#utility.yul\":2064:2079   */\n      mstore\n        /* \"#utility.yul\":2098:2102   */\n      0x24\n        /* \"#utility.yul\":2095:2096   */\n      0x00\n        /* \"#utility.yul\":2088:2103   */\n      revert\n        /* \"#utility.yul\":2115:2285   */\n    tag_29:\n        /* \"#utility.yul\":2145:2146   */\n      0x00\n        /* \"#utility.yul\":2162:2180   */\n      tag_100\n        /* \"#utility.yul\":2178:2179   */\n      dup3\n        /* \"#utility.yul\":2162:2180   */\n      tag_58\n      jump\t// in\n    tag_100:\n        /* \"#utility.yul\":2157:2180   */\n      swap2\n      pop\n        /* \"#utility.yul\":2194:2212   */\n      tag_101\n        /* \"#utility.yul\":2210:2211   */\n      dup4\n        /* \"#utility.yul\":2194:2212   */\n      tag_58\n      jump\t// in\n    tag_101:\n        /* \"#utility.yul\":2189:2212   */\n      swap3\n      pop\n        /* \"#utility.yul\":2231:2232   */\n      dup3\n        /* \"#utility.yul\":2221:2256   */\n      tag_102\n      jumpi\n        /* \"#utility.yul\":2236:2254   */\n      tag_103\n      tag_63\n      jump\t// in\n    tag_103:\n        /* \"#utility.yul\":2221:2256   */\n    tag_102:\n        /* \"#utility.yul\":2277:2278   */\n      dup3\n        /* \"#utility.yul\":2274:2275   */\n      dup3\n        /* \"#utility.yul\":2270:2279   */\n      mod\n        /* \"#utility.yul\":2265:2279   */\n      swap1\n      pop\n        /* \"#utility.yul\":2115:2285   */\n      swap3\n      swap2\n      pop\n      pop\n      jump\t// out\n        /* \"#utility.yul\":2291:2460   */\n    tag_64:\n        /* \"#utility.yul\":2375:2386   */\n      0x00\n        /* \"#utility.yul\":2409:2415   */\n      dup3\n        /* \"#utility.yul\":2404:2407   */\n      dup3\n        /* \"#utility.yul\":2397:2416   */\n      mstore\n        /* \"#utility.yul\":2449:2453   */\n      0x20\n        /* \"#utility.yul\":2444:2447   */\n      dup3\n        /* \"#utility.yul\":2440:2454   */\n      add\n        /* \"#utility.yul\":2425:2454   */\n      swap1\n      pop\n        /* \"#utility.yul\":2291:2460   */\n      swap3\n      swap2\n      pop\n      pop\n      jump\t// out\n        /* \"#utility.yul\":2466:2635   */\n    tag_65:\n        /* \"#utility.yul\":2606:2627   */\n      0x437573746f6d206572726f722063616c6c656400000000000000000000000000\n        /* \"#utility.yul\":2602:2603   */\n      0x00\n        /* \"#utility.yul\":2594:2600   */\n      dup3\n        /* \"#utility.yul\":2590:2604   */\n      add\n        /* \"#utility.yul\":2583:2628   */\n      mstore\n        /* \"#utility.yul\":2466:2635   */\n      pop\n      jump\t// out\n        /* \"#utility.yul\":2641:3007   */\n    tag_66:\n        /* \"#utility.yul\":2783:2786   */\n      0x00\n        /* \"#utility.yul\":2804:2871   */\n      tag_107\n        /* \"#utility.yul\":2868:2870   */\n      0x13\n        /* \"#utility.yul\":2863:2866   */\n      dup4\n        /* \"#utility.yul\":2804:2871   */\n      tag_64\n      jump\t// in\n    tag_107:\n        /* \"#utility.yul\":2797:2871   */\n      swap2\n      pop\n        /* \"#utility.yul\":2880:2973   */\n      tag_108\n        /* \"#utility.yul\":2969:2972   */\n      dup3\n        /* \"#utility.yul\":2880:2973   */\n      tag_65\n      jump\t// in\n    tag_108:\n        /* \"#utility.yul\":2998:3000   */\n      0x20\n        /* \"#utility.yul\":2993:2996   */\n      dup3\n        /* \"#utility.yul\":2989:3001   */\n      add\n        /* \"#utility.yul\":2982:3001   */\n      swap1\n      pop\n        /* \"#utility.yul\":2641:3007   */\n      swap2\n      swap1\n      pop\n      jump\t// out\n        /* \"#utility.yul\":3013:3432   */\n    tag_32:\n        /* \"#utility.yul\":3179:3183   */\n      0x00\n        /* \"#utility.yul\":3217:3219   */\n      0x20\n        /* \"#utility.yul\":3206:3215   */\n      dup3\n        /* \"#utility.yul\":3202:3220   */\n      add\n        /* \"#utility.yul\":3194:3220   */\n      swap1\n      pop\n        /* \"#utility.yul\":3266:3275   */\n      dup2\n        /* \"#utility.yul\":3260:3264   */\n      dup2\n        /* \"#utility.yul\":3256:3276   */\n      sub\n        /* \"#utility.yul\":3252:3253   */\n      0x00\n        /* \"#utility.yul\":3241:3250   */\n      dup4\n        /* \"#utility.yul\":3237:3254   */\n      add\n        /* \"#utility.yul\":3230:3277   */\n      mstore\n        /* \"#utility.yul\":3294:3425   */\n      tag_110\n        /* \"#utility.yul\":3420:3424   */\n      dup2\n        /* \"#utility.yul\":3294:3425   */\n      tag_66\n      jump\t// in\n    tag_110:\n        /* \"#utility.yul\":3286:3425   */\n      swap1\n      pop\n        /* \"#utility.yul\":3013:3432   */\n      swap2\n      swap1\n      pop\n      jump\t// out\n        /* \"#utility.yul\":3438:3596   */\n    tag_67:\n        /* \"#utility.yul\":3578:3588   */\n      0x4e6f74206576656e000000000000000000000000000000000000000000000000\n        /* \"#utility.yul\":3574:3575   */\n      0x00\n        /* \"#utility.yul\":3566:3572   */\n      dup3\n        /* \"#utility.yul\":3562:3576   */\n      add\n        /* \"#utility.yul\":3555:3589   */\n      mstore\n        /* \"#utility.yul\":3438:3596   */\n      pop\n      jump\t// out\n        /* \"#utility.yul\":3602:3967   */\n    tag_68:\n        /* \"#utility.yul\":3744:3747   */\n      0x00\n        /* \"#utility.yul\":3765:3831   */\n      tag_113\n        /* \"#utility.yul\":3829:3830   */\n      0x08\n        /* \"#utility.yul\":3824:3827   */\n      dup4\n        /* \"#utility.yul\":3765:3831   */\n      tag_64\n      jump\t// in\n    tag_113:\n        /* \"#utility.yul\":3758:3831   */\n      swap2\n      pop\n        /* \"#utility.yul\":3840:3933   */\n      tag_114\n        /* \"#utility.yul\":3929:3932   */\n      dup3\n        /* \"#utility.yul\":3840:3933   */\n      tag_67\n      jump\t// in\n    tag_114:\n        /* \"#utility.yul\":3958:3960   */\n      0x20\n        /* \"#utility.yul\":3953:3956   */\n      dup3\n        /* \"#utility.yul\":3949:3961   */\n      add\n        /* \"#utility.yul\":3942:3961   */\n      swap1\n      pop\n        /* \"#utility.yul\":3602:3967   */\n      swap2\n      swap1\n      pop\n      jump\t// out\n        /* \"#utility.yul\":3973:4392   */\n    tag_37:\n        /* \"#utility.yul\":4139:4143   */\n      0x00\n        /* \"#utility.yul\":4177:4179   */\n      0x20\n        /* \"#utility.yul\":4166:4175   */\n      dup3\n        /* \"#utility.yul\":4162:4180   */\n      add\n        /* \"#utility.yul\":4154:4180   */\n      swap1\n      pop\n        /* \"#utility.yul\":4226:4235   */\n      dup2\n        /* \"#utility.yul\":4220:4224   */\n      dup2\n        /* \"#utility.yul\":4216:4236   */\n      sub\n        /* \"#utility.yul\":4212:4213   */\n      0x00\n        /* \"#utility.yul\":4201:4210   */\n      dup4\n        /* \"#utility.yul\":4197:4214   */\n      add\n        /* \"#utility.yul\":4190:4237   */\n      mstore\n        /* \"#utility.yul\":4254:4385   */\n      tag_116\n        /* \"#utility.yul\":4380:4384   */\n      dup2\n        /* \"#utility.yul\":4254:4385   */\n      tag_68\n      jump\t// in\n    tag_116:\n        /* \"#utility.yul\":4246:4385   */\n      swap1\n      pop\n        /* \"#utility.yul\":3973:4392   */\n      swap2\n      swap1\n      pop\n      jump\t// out\n        /* \"#utility.yul\":4398:4563   */\n    tag_69:\n        /* \"#utility.yul\":4538:4555   */\n      0x4e6f74206576656e206e756d6265720000000000000000000000000000000000\n        /* \"#utility.yul\":4534:4535   */\n      0x00\n        /* \"#utility.yul\":4526:4532   */\n      dup3\n        /* \"#utility.yul\":4522:4536   */\n      add\n        /* \"#utility.yul\":4515:4556   */\n      mstore\n        /* \"#utility.yul\":4398:4563   */\n      pop\n      jump\t// out\n        /* \"#utility.yul\":4569:4935   */\n    tag_70:\n        /* \"#utility.yul\":4711:4714   */\n      0x00\n        /* \"#utility.yul\":4732:4799   */\n      tag_119\n        /* \"#utility.yul\":4796:4798   */\n      0x0f\n        /* \"#utility.yul\":4791:4794   */\n      dup4\n        /* \"#utility.yul\":4732:4799   */\n      tag_64\n      jump\t// in\n    tag_119:\n        /* \"#utility.yul\":4725:4799   */\n      swap2\n      pop\n        /* \"#utility.yul\":4808:4901   */\n      tag_120\n        /* \"#utility.yul\":4897:4900   */\n      dup3\n        /* \"#utility.yul\":4808:4901   */\n      tag_69\n      jump\t// in\n    tag_120:\n        /* \"#utility.yul\":4926:4928   */\n      0x20\n        /* \"#utility.yul\":4921:4924   */\n      dup3\n        /* \"#utility.yul\":4917:4929   */\n      add\n        /* \"#utility.yul\":4910:4929   */\n      swap1\n      pop\n        /* \"#utility.yul\":4569:4935   */\n      swap2\n      swap1\n      pop\n      jump\t// out\n        /* \"#utility.yul\":4941:5360   */\n    tag_42:\n        /* \"#utility.yul\":5107:5111   */\n      0x00\n        /* \"#utility.yul\":5145:5147   */\n      0x20\n        /* \"#utility.yul\":5134:5143   */\n      dup3\n        /* \"#utility.yul\":5130:5148   */\n      add\n        /* \"#utility.yul\":5122:5148   */\n      swap1\n      pop\n        /* \"#utility.yul\":5194:5203   */\n      dup2\n        /* \"#utility.yul\":5188:5192   */\n      dup2\n        /* \"#utility.yul\":5184:5204   */\n      sub\n        /* \"#utility.yul\":5180:5181   */\n      0x00\n        /* \"#utility.yul\":5169:5178   */\n      dup4\n        /* \"#utility.yul\":5165:5182   */\n      add\n        /* \"#utility.yul\":5158:5205   */\n      mstore\n        /* \"#utility.yul\":5222:5353   */\n      tag_122\n        /* \"#utility.yul\":5348:5352   */\n      dup2\n        /* \"#utility.yul\":5222:5353   */\n      tag_70\n      jump\t// in\n    tag_122:\n        /* \"#utility.yul\":5214:5353   */\n      swap1\n      pop\n        /* \"#utility.yul\":4941:5360   */\n      swap2\n      swap1\n      pop\n      jump\t// out\n        /* \"#utility.yul\":5366:5546   */\n    tag_47:\n        /* \"#utility.yul\":5414:5491   */\n      0x4e487b7100000000000000000000000000000000000000000000000000000000\n        /* \"#utility.yul\":5411:5412   */\n      0x00\n        /* \"#utility.yul\":5404:5492   */\n      mstore\n        /* \"#utility.yul\":5511:5515   */\n      0x01\n        /* \"#utility.yul\":5508:5509   */\n      0x04\n        /* \"#utility.yul\":5501:5516   */\n      mstore\n        /* \"#utility.yul\":5535:5539   */\n      0x24\n        /* \"#utility.yul\":5532:5533   */\n      0x00\n        /* \"#utility.yul\":5525:5540   */\n      revert\n        /* \"#utility.yul\":5552:5672   */\n    tag_71:\n        /* \"#utility.yul\":5643:5665   */\n      tag_125\n        /* \"#utility.yul\":5659:5664   */\n      dup2\n        /* \"#utility.yul\":5643:5665   */\n      tag_58\n      jump\t// in\n    tag_125:\n        /* \"#utility.yul\":5638:5641   */\n      dup3\n        /* \"#utility.yul\":5631:5666   */\n      mstore\n        /* \"#utility.yul\":5552:5672   */\n      pop\n      pop\n      jump\t// out\n        /* \"#utility.yul\":5678:6018   */\n    tag_50:\n        /* \"#utility.yul\":5799:5803   */\n      0x00\n        /* \"#utility.yul\":5837:5839   */\n      0x40\n        /* \"#utility.yul\":5826:5835   */\n      dup3\n        /* \"#utility.yul\":5822:5840   */\n      add\n        /* \"#utility.yul\":5814:5840   */\n      swap1\n      pop\n        /* \"#utility.yul\":5850:5925   */\n      tag_127\n        /* \"#utility.yul\":5922:5923   */\n      0x00\n        /* \"#utility.yul\":5911:5920   */\n      dup4\n        /* \"#utility.yul\":5907:5924   */\n      add\n        /* \"#utility.yul\":5898:5904   */\n      dup6\n        /* \"#utility.yul\":5850:5925   */\n      tag_71\n      jump\t// in\n    tag_127:\n        /* \"#utility.yul\":5935:6011   */\n      tag_128\n        /* \"#utility.yul\":6007:6009   */\n      0x20\n        /* \"#utility.yul\":5996:6005   */\n      dup4\n        /* \"#utility.yul\":5992:6010   */\n      add\n        /* \"#utility.yul\":5983:5989   */\n      dup5\n        /* \"#utility.yul\":5935:6011   */\n      tag_71\n      jump\t// in\n    tag_128:\n        /* \"#utility.yul\":5678:6018   */\n      swap4\n      swap3\n      pop\n      pop\n      pop\n      jump\t// out\n        /* \"#utility.yul\":6024:6146   */\n    tag_72:\n        /* \"#utility.yul\":6097:6121   */\n      tag_130\n        /* \"#utility.yul\":6115:6120   */\n      dup2\n        /* \"#utility.yul\":6097:6121   */\n      tag_61\n      jump\t// in\n    tag_130:\n        /* \"#utility.yul\":6090:6095   */\n      dup2\n        /* \"#utility.yul\":6087:6122   */\n      eq\n        /* \"#utility.yul\":6077:6140   */\n      tag_131\n      jumpi\n        /* \"#utility.yul\":6136:6137   */\n      0x00\n        /* \"#utility.yul\":6133:6134   */\n      dup1\n        /* \"#utility.yul\":6126:6138   */\n      revert\n        /* \"#utility.yul\":6077:6140   */\n    tag_131:\n        /* \"#utility.yul\":6024:6146   */\n      pop\n      jump\t// out\n        /* \"#utility.yul\":6152:6295   */\n    tag_73:\n        /* \"#utility.yul\":6209:6214   */\n      0x00\n        /* \"#utility.yul\":6240:6246   */\n      dup2\n        /* \"#utility.yul\":6234:6247   */\n      mload\n        /* \"#utility.yul\":6225:6247   */\n      swap1\n      pop\n        /* \"#utility.yul\":6256:6289   */\n      tag_133\n        /* \"#utility.yul\":6283:6288   */\n      dup2\n        /* \"#utility.yul\":6256:6289   */\n      tag_72\n      jump\t// in\n    tag_133:\n        /* \"#utility.yul\":6152:6295   */\n      swap3\n      swap2\n      pop\n      pop\n      jump\t// out\n        /* \"#utility.yul\":6301:6652   */\n    tag_54:\n        /* \"#utility.yul\":6371:6377   */\n      0x00\n        /* \"#utility.yul\":6420:6422   */\n      0x20\n        /* \"#utility.yul\":6408:6417   */\n      dup3\n        /* \"#utility.yul\":6399:6406   */\n      dup5\n        /* \"#utility.yul\":6395:6418   */\n      sub\n        /* \"#utility.yul\":6391:6423   */\n      slt\n        /* \"#utility.yul\":6388:6507   */\n      iszero\n      tag_135\n      jumpi\n        /* \"#utility.yul\":6426:6505   */\n      tag_136\n      tag_56\n      jump\t// in\n    tag_136:\n        /* \"#utility.yul\":6388:6507   */\n    tag_135:\n        /* \"#utility.yul\":6546:6547   */\n      0x00\n        /* \"#utility.yul\":6571:6635   */\n      tag_137\n        /* \"#utility.yul\":6627:6634   */\n      dup5\n        /* \"#utility.yul\":6618:6624   */\n      dup3\n        /* \"#utility.yul\":6607:6616   */\n      dup6\n        /* \"#utility.yul\":6603:6625   */\n      add\n        /* \"#utility.yul\":6571:6635   */\n      tag_73\n      jump\t// in\n    tag_137:\n        /* \"#utility.yul\":6561:6635   */\n      swap2\n      pop\n        /* \"#utility.yul\":6517:6645   */\n      pop\n        /* \"#utility.yul\":6301:6652   */\n      swap3\n      swap2\n      pop\n      pop\n      jump\t// out\n\n    auxdata: 0xa2646970667358221220aa098023f1cf79f7a3774fdbe21d484eea041f4127ddedcce475e37bd6ea757264736f6c63430008120033\n}\n",
				"bytecode": {
					"linkReferences": {
						"contracts/Practice.sol": {
							"calculator": [
								{
									"length": 20,
									"start": 578
								}
							]
						}
					},
					"object": "608060405234801561001057600080fd5b5061062c806100206000396000f3fe608060405234801561001057600080fd5b50600436106100575760003560e01c8063243db44a1461005c5780634ea7344e146100785780637d80733614610094578063aac4cc5c146100b0578063dff2cdd7146100cc575b600080fd5b610076600480360381019061007191906102e0565b6100fc565b005b610092600480360381019061008d91906102e0565b610151565b005b6100ae60048036038101906100a991906102e0565b6101a6565b005b6100ca60048036038101906100c591906102e0565b6101fb565b005b6100e660048036038101906100e1919061030d565b61021e565b6040516100f39190610366565b60405180910390f35b600060028261010b91906103b0565b60ff161461014e576040517f4c66e99c0000000000000000000000000000000000000000000000000000000081526004016101459061043e565b60405180910390fd5b50565b600060028261016091906103b0565b60ff16146101a3576040517f08c379a000000000000000000000000000000000000000000000000000000000815260040161019a906104aa565b60405180910390fd5b50565b60006002826101b591906103b0565b60ff16146101f8576040517f08c379a00000000000000000000000000000000000000000000000000000000081526004016101ef90610516565b60405180910390fd5b50565b600060028261020a91906103b0565b60ff161461021b5761021a610536565b5b50565b600073__$2c98a595394f2a5d21f889434e227436f5$__63bb4e3f4d84846040518363ffffffff1660e01b8152600401610259929190610574565b602060405180830381865af4158015610276573d6000803e3d6000fd5b505050506040513d601f19601f8201168201806040525081019061029a91906105c9565b905092915050565b600080fd5b600060ff82169050919050565b6102bd816102a7565b81146102c857600080fd5b50565b6000813590506102da816102b4565b92915050565b6000602082840312156102f6576102f56102a2565b5b6000610304848285016102cb565b91505092915050565b60008060408385031215610324576103236102a2565b5b6000610332858286016102cb565b9250506020610343858286016102cb565b9150509250929050565b6000819050919050565b6103608161034d565b82525050565b600060208201905061037b6000830184610357565b92915050565b7f4e487b7100000000000000000000000000000000000000000000000000000000600052601260045260246000fd5b60006103bb826102a7565b91506103c6836102a7565b9250826103d6576103d5610381565b5b828206905092915050565b600082825260208201905092915050565b7f437573746f6d206572726f722063616c6c656400000000000000000000000000600082015250565b60006104286013836103e1565b9150610433826103f2565b602082019050919050565b600060208201905081810360008301526104578161041b565b9050919050565b7f4e6f74206576656e000000000000000000000000000000000000000000000000600082015250565b60006104946008836103e1565b915061049f8261045e565b602082019050919050565b600060208201905081810360008301526104c381610487565b9050919050565b7f4e6f74206576656e206e756d6265720000000000000000000000000000000000600082015250565b6000610500600f836103e1565b915061050b826104ca565b602082019050919050565b6000602082019050818103600083015261052f816104f3565b9050919050565b7f4e487b7100000000000000000000000000000000000000000000000000000000600052600160045260246000fd5b61056e816102a7565b82525050565b60006040820190506105896000830185610565565b6105966020830184610565565b9392505050565b6105a68161034d565b81146105b157600080fd5b50565b6000815190506105c38161059d565b92915050565b6000602082840312156105df576105de6102a2565b5b60006105ed848285016105b4565b9150509291505056fea2646970667358221220aa098023f1cf79f7a3774fdbe21d484eea041f4127ddedcce475e37bd6ea757264736f6c63430008120033",
					"opcodes": "PUSH1 0x80 PUSH1 0x40 MSTORE CALLVALUE DUP1 ISZERO PUSH2 0x10 JUMPI PUSH1 0x0 DUP1 REVERT JUMPDEST POP PUSH2 0x62C DUP1 PUSH2 0x20 PUSH1 0x0 CODECOPY PUSH1 0x0 RETURN INVALID PUSH1 0x80 PUSH1 0x40 MSTORE CALLVALUE DUP1 ISZERO PUSH2 0x10 JUMPI PUSH1 0x0 DUP1 REVERT JUMPDEST POP PUSH1 0x4 CALLDATASIZE LT PUSH2 0x57 JUMPI PUSH1 0x0 CALLDATALOAD PUSH1 0xE0 SHR DUP1 PUSH4 0x243DB44A EQ PUSH2 0x5C JUMPI DUP1 PUSH4 0x4EA7344E EQ PUSH2 0x78 JUMPI DUP1 PUSH4 0x7D807336 EQ PUSH2 0x94 JUMPI DUP1 PUSH4 0xAAC4CC5C EQ PUSH2 0xB0 JUMPI DUP1 PUSH4 0xDFF2CDD7 EQ PUSH2 0xCC JUMPI JUMPDEST PUSH1 0x0 DUP1 REVERT JUMPDEST PUSH2 0x76 PUSH1 0x4 DUP1 CALLDATASIZE SUB DUP2 ADD SWAP1 PUSH2 0x71 SWAP2 SWAP1 PUSH2 0x2E0 JUMP JUMPDEST PUSH2 0xFC JUMP JUMPDEST STOP JUMPDEST PUSH2 0x92 PUSH1 0x4 DUP1 CALLDATASIZE SUB DUP2 ADD SWAP1 PUSH2 0x8D SWAP2 SWAP1 PUSH2 0x2E0 JUMP JUMPDEST PUSH2 0x151 JUMP JUMPDEST STOP JUMPDEST PUSH2 0xAE PUSH1 0x4 DUP1 CALLDATASIZE SUB DUP2 ADD SWAP1 PUSH2 0xA9 SWAP2 SWAP1 PUSH2 0x2E0 JUMP JUMPDEST PUSH2 0x1A6 JUMP JUMPDEST STOP JUMPDEST PUSH2 0xCA PUSH1 0x4 DUP1 CALLDATASIZE SUB DUP2 ADD SWAP1 PUSH2 0xC5 SWAP2 SWAP1 PUSH2 0x2E0 JUMP JUMPDEST PUSH2 0x1FB JUMP JUMPDEST STOP JUMPDEST PUSH2 0xE6 PUSH1 0x4 DUP1 CALLDATASIZE SUB DUP2 ADD SWAP1 PUSH2 0xE1 SWAP2 SWAP1 PUSH2 0x30D JUMP JUMPDEST PUSH2 0x21E JUMP JUMPDEST PUSH1 0x40 MLOAD PUSH2 0xF3 SWAP2 SWAP1 PUSH2 0x366 JUMP JUMPDEST PUSH1 0x40 MLOAD DUP1 SWAP2 SUB SWAP1 RETURN JUMPDEST PUSH1 0x0 PUSH1 0x2 DUP3 PUSH2 0x10B SWAP2 SWAP1 PUSH2 0x3B0 JUMP JUMPDEST PUSH1 0xFF AND EQ PUSH2 0x14E JUMPI PUSH1 0x40 MLOAD PUSH32 0x4C66E99C00000000000000000000000000000000000000000000000000000000 DUP2 MSTORE PUSH1 0x4 ADD PUSH2 0x145 SWAP1 PUSH2 0x43E JUMP JUMPDEST PUSH1 0x40 MLOAD DUP1 SWAP2 SUB SWAP1 REVERT JUMPDEST POP JUMP JUMPDEST PUSH1 0x0 PUSH1 0x2 DUP3 PUSH2 0x160 SWAP2 SWAP1 PUSH2 0x3B0 JUMP JUMPDEST PUSH1 0xFF AND EQ PUSH2 0x1A3 JUMPI PUSH1 0x40 MLOAD PUSH32 0x8C379A000000000000000000000000000000000000000000000000000000000 DUP2 MSTORE PUSH1 0x4 ADD PUSH2 0x19A SWAP1 PUSH2 0x4AA JUMP JUMPDEST PUSH1 0x40 MLOAD DUP1 SWAP2 SUB SWAP1 REVERT JUMPDEST POP JUMP JUMPDEST PUSH1 0x0 PUSH1 0x2 DUP3 PUSH2 0x1B5 SWAP2 SWAP1 PUSH2 0x3B0 JUMP JUMPDEST PUSH1 0xFF AND EQ PUSH2 0x1F8 JUMPI PUSH1 0x40 MLOAD PUSH32 0x8C379A000000000000000000000000000000000000000000000000000000000 DUP2 MSTORE PUSH1 0x4 ADD PUSH2 0x1EF SWAP1 PUSH2 0x516 JUMP JUMPDEST PUSH1 0x40 MLOAD DUP1 SWAP2 SUB SWAP1 REVERT JUMPDEST POP JUMP JUMPDEST PUSH1 0x0 PUSH1 0x2 DUP3 PUSH2 0x20A SWAP2 SWAP1 PUSH2 0x3B0 JUMP JUMPDEST PUSH1 0xFF AND EQ PUSH2 0x21B JUMPI PUSH2 0x21A PUSH2 0x536 JUMP JUMPDEST JUMPDEST POP JUMP JUMPDEST PUSH1 0x0 PUSH20 0x0 PUSH4 0xBB4E3F4D DUP5 DUP5 PUSH1 0x40 MLOAD DUP4 PUSH4 0xFFFFFFFF AND PUSH1 0xE0 SHL DUP2 MSTORE PUSH1 0x4 ADD PUSH2 0x259 SWAP3 SWAP2 SWAP1 PUSH2 0x574 JUMP JUMPDEST PUSH1 0x20 PUSH1 0x40 MLOAD DUP1 DUP4 SUB DUP2 DUP7 GAS DELEGATECALL ISZERO DUP1 ISZERO PUSH2 0x276 JUMPI RETURNDATASIZE PUSH1 0x0 DUP1 RETURNDATACOPY RETURNDATASIZE PUSH1 0x0 REVERT JUMPDEST POP POP POP POP PUSH1 0x40 MLOAD RETURNDATASIZE PUSH1 0x1F NOT PUSH1 0x1F DUP3 ADD AND DUP3 ADD DUP1 PUSH1 0x40 MSTORE POP DUP2 ADD SWAP1 PUSH2 0x29A SWAP2 SWAP1 PUSH2 0x5C9 JUMP JUMPDEST SWAP1 POP SWAP3 SWAP2 POP POP JUMP JUMPDEST PUSH1 0x0 DUP1 REVERT JUMPDEST PUSH1 0x0 PUSH1 0xFF DUP3 AND SWAP1 POP SWAP2 SWAP1 POP JUMP JUMPDEST PUSH2 0x2BD DUP2 PUSH2 0x2A7 JUMP JUMPDEST DUP2 EQ PUSH2 0x2C8 JUMPI PUSH1 0x0 DUP1 REVERT JUMPDEST POP JUMP JUMPDEST PUSH1 0x0 DUP2 CALLDATALOAD SWAP1 POP PUSH2 0x2DA DUP2 PUSH2 0x2B4 JUMP JUMPDEST SWAP3 SWAP2 POP POP JUMP JUMPDEST PUSH1 0x0 PUSH1 0x20 DUP3 DUP5 SUB SLT ISZERO PUSH2 0x2F6 JUMPI PUSH2 0x2F5 PUSH2 0x2A2 JUMP JUMPDEST JUMPDEST PUSH1 0x0 PUSH2 0x304 DUP5 DUP3 DUP6 ADD PUSH2 0x2CB JUMP JUMPDEST SWAP2 POP POP SWAP3 SWAP2 POP POP JUMP JUMPDEST PUSH1 0x0 DUP1 PUSH1 0x40 DUP4 DUP6 SUB SLT ISZERO PUSH2 0x324 JUMPI PUSH2 0x323 PUSH2 0x2A2 JUMP JUMPDEST JUMPDEST PUSH1 0x0 PUSH2 0x332 DUP6 DUP3 DUP7 ADD PUSH2 0x2CB JUMP JUMPDEST SWAP3 POP POP PUSH1 0x20 PUSH2 0x343 DUP6 DUP3 DUP7 ADD PUSH2 0x2CB JUMP JUMPDEST SWAP2 POP POP SWAP3 POP SWAP3 SWAP1 POP JUMP JUMPDEST PUSH1 0x0 DUP2 SWAP1 POP SWAP2 SWAP1 POP JUMP JUMPDEST PUSH2 0x360 DUP2 PUSH2 0x34D JUMP JUMPDEST DUP3 MSTORE POP POP JUMP JUMPDEST PUSH1 0x0 PUSH1 0x20 DUP3 ADD SWAP1 POP PUSH2 0x37B PUSH1 0x0 DUP4 ADD DUP5 PUSH2 0x357 JUMP JUMPDEST SWAP3 SWAP2 POP POP JUMP JUMPDEST PUSH32 0x4E487B7100000000000000000000000000000000000000000000000000000000 PUSH1 0x0 MSTORE PUSH1 0x12 PUSH1 0x4 MSTORE PUSH1 0x24 PUSH1 0x0 REVERT JUMPDEST PUSH1 0x0 PUSH2 0x3BB DUP3 PUSH2 0x2A7 JUMP JUMPDEST SWAP2 POP PUSH2 0x3C6 DUP4 PUSH2 0x2A7 JUMP JUMPDEST SWAP3 POP DUP3 PUSH2 0x3D6 JUMPI PUSH2 0x3D5 PUSH2 0x381 JUMP JUMPDEST JUMPDEST DUP3 DUP3 MOD SWAP1 POP SWAP3 SWAP2 POP POP JUMP JUMPDEST PUSH1 0x0 DUP3 DUP3 MSTORE PUSH1 0x20 DUP3 ADD SWAP1 POP SWAP3 SWAP2 POP POP JUMP JUMPDEST PUSH32 0x437573746F6D206572726F722063616C6C656400000000000000000000000000 PUSH1 0x0 DUP3 ADD MSTORE POP JUMP JUMPDEST PUSH1 0x0 PUSH2 0x428 PUSH1 0x13 DUP4 PUSH2 0x3E1 JUMP JUMPDEST SWAP2 POP PUSH2 0x433 DUP3 PUSH2 0x3F2 JUMP JUMPDEST PUSH1 0x20 DUP3 ADD SWAP1 POP SWAP2 SWAP1 POP JUMP JUMPDEST PUSH1 0x0 PUSH1 0x20 DUP3 ADD SWAP1 POP DUP2 DUP2 SUB PUSH1 0x0 DUP4 ADD MSTORE PUSH2 0x457 DUP2 PUSH2 0x41B JUMP JUMPDEST SWAP1 POP SWAP2 SWAP1 POP JUMP JUMPDEST PUSH32 0x4E6F74206576656E000000000000000000000000000000000000000000000000 PUSH1 0x0 DUP3 ADD MSTORE POP JUMP JUMPDEST PUSH1 0x0 PUSH2 0x494 PUSH1 0x8 DUP4 PUSH2 0x3E1 JUMP JUMPDEST SWAP2 POP PUSH2 0x49F DUP3 PUSH2 0x45E JUMP JUMPDEST PUSH1 0x20 DUP3 ADD SWAP1 POP SWAP2 SWAP1 POP JUMP JUMPDEST PUSH1 0x0 PUSH1 0x20 DUP3 ADD SWAP1 POP DUP2 DUP2 SUB PUSH1 0x0 DUP4 ADD MSTORE PUSH2 0x4C3 DUP2 PUSH2 0x487 JUMP JUMPDEST SWAP1 POP SWAP2 SWAP1 POP JUMP JUMPDEST PUSH32 0x4E6F74206576656E206E756D6265720000000000000000000000000000000000 PUSH1 0x0 DUP3 ADD MSTORE POP JUMP JUMPDEST PUSH1 0x0 PUSH2 0x500 PUSH1 0xF DUP4 PUSH2 0x3E1 JUMP JUMPDEST SWAP2 POP PUSH2 0x50B DUP3 PUSH2 0x4CA JUMP JUMPDEST PUSH1 0x20 DUP3 ADD SWAP1 POP SWAP2 SWAP1 POP JUMP JUMPDEST PUSH1 0x0 PUSH1 0x20 DUP3 ADD SWAP1 POP DUP2 DUP2 SUB PUSH1 0x0 DUP4 ADD MSTORE PUSH2 0x52F DUP2 PUSH2 0x4F3 JUMP JUMPDEST SWAP1 POP SWAP2 SWAP1 POP JUMP JUMPDEST PUSH32 0x4E487B7100000000000000000000000000000000000000000000000000000000 PUSH1 0x0 MSTORE PUSH1 0x1 PUSH1 0x4 MSTORE PUSH1 0x24 PUSH1 0x0 REVERT JUMPDEST PUSH2 0x56E DUP2 PUSH2 0x2A7 JUMP JUMPDEST DUP3 MSTORE POP POP JUMP JUMPDEST PUSH1 0x0 PUSH1 0x40 DUP3 ADD SWAP1 POP PUSH2 0x589 PUSH1 0x0 DUP4 ADD DUP6 PUSH2 0x565 JUMP JUMPDEST PUSH2 0x596 PUSH1 0x20 DUP4 ADD DUP5 PUSH2 0x565 JUMP JUMPDEST SWAP4 SWAP3 POP POP POP JUMP JUMPDEST PUSH2 0x5A6 DUP2 PUSH2 0x34D JUMP JUMPDEST DUP2 EQ PUSH2 0x5B1 JUMPI PUSH1 0x0 DUP1 REVERT JUMPDEST POP JUMP JUMPDEST PUSH1 0x0 DUP2 MLOAD SWAP1 POP PUSH2 0x5C3 DUP2 PUSH2 0x59D JUMP JUMPDEST SWAP3 SWAP2 POP POP JUMP JUMPDEST PUSH1 0x0 PUSH1 0x20 DUP3 DUP5 SUB SLT ISZERO PUSH2 0x5DF JUMPI PUSH2 0x5DE PUSH2 0x2A2 JUMP JUMPDEST JUMPDEST PUSH1 0x0 PUSH2 0x5ED DUP5 DUP3 DUP6 ADD PUSH2 0x5B4 JUMP JUMPDEST SWAP2 POP POP SWAP3 SWAP2 POP POP JUMP INVALID LOG2 PUSH5 0x6970667358 0x22 SLT KECCAK256 0xAA MULMOD DUP1 0x23 CALL 0xCF PUSH26 0xF7A3774FDBE21D484EEA041F4127DDEDCCE475E37BD6EA757264 PUSH20 0x6F6C634300081200330000000000000000000000 "
				},
				"gasEstimates": {
					"creation": {
						"codeDepositCost": "316000",
						"executionCost": "355",
						"totalCost": "316355"
					},
					"external": {
						"Assert(uint8)": "infinite",
						"Customerror(uint8)": "infinite",
						"Require(uint8)": "infinite",
						"Revert(uint8)": "infinite",
						"findsum(uint8,uint8)": "infinite"
					}
				},
				"methodIdentifiers": {
					"Assert(uint8)": "aac4cc5c",
					"Customerror(uint8)": "243db44a",
					"Require(uint8)": "4ea7344e",
					"Revert(uint8)": "7d807336",
					"findsum(uint8,uint8)": "dff2cdd7"
				}
			},
			"storageLayout": {
				"storage": [],
				"types": null
			},
			"userdoc": {
				"kind": "user",
				"methods": {},
				"version": 1
			}
		}
	}
}