{
	"contracts/Practice.sol": {
		"calculator": {
			"abi": [
				{
					"inputs": [
						{
							"internalType": "uint8",
							"name": "a",
							"type": "uint8"
						},
						{
							"internalType": "uint8",
							"name": "b",
							"type": "uint8"
						}
					],
					"name": "add",
					"outputs": [
						{
							"internalType": "uint256",
							"name": "",
							"type": "uint256"
						}
					],
					"stateMutability": "pure",
					"type": "function"
				},
				{
					"inputs": [
						{
							"internalType": "uint8",
							"name": "a",
							"type": "uint8"
						},
						{
							"internalType": "uint8",
							"name": "b",
							"type": "uint8"
						}
					],
					"name": "div",
					"outputs": [
						{
							"internalType": "uint256",
							"name": "",
							"type": "uint256"
						}
					],
					"stateMutability": "pure",
					"type": "function"
				},
				{
					"inputs": [
						{
							"internalType": "uint8",
							"name": "a",
							"type": "uint8"
						},
						{
							"internalType": "uint8",
							"name": "b",
							"type": "uint8"
						}
					],
					"name": "mul",
					"outputs": [
						{
							"internalType": "uint256",
							"name": "",
							"type": "uint256"
						}
					],
					"stateMutability": "pure",
					"type": "function"
				},
				{
					"inputs": [
						{
							"internalType": "uint8",
							"name": "a",
							"type": "uint8"
						},
						{
							"internalType": "uint8",
							"name": "b",
							"type": "uint8"
						}
					],
					"name": "sub",
					"outputs": [
						{
							"internalType": "uint256",
							"name": "",
							"type": "uint256"
						}
					],
					"stateMutability": "pure",
					"type": "function"
				}
			],
			"devdoc": {
				"kind": "dev",
				"methods": {},
				"version": 1
			},
			"evm": {
				"assembly": "    /* \"contracts/Practice.sol\":1471:1846  library calculator{... */\n  dataSize(sub_0)\n  dataOffset(sub_0)\n  0x0b\n  dup3\n  dup3\n  dup3\n  codecopy\n  dup1\n  mload\n  0x00\n  byte\n  0x73\n  eq\n  tag_1\n  jumpi\n  mstore(0x00, 0x4e487b7100000000000000000000000000000000000000000000000000000000)\n  mstore(0x04, 0x00)\n  revert(0x00, 0x24)\ntag_1:\n  mstore(0x00, address)\n  0x73\n  dup2\n  mstore8\n  dup3\n  dup2\n  return\nstop\n\nsub_0: assembly {\n        /* \"contracts/Practice.sol\":1471:1846  library calculator{... */\n      eq(address, deployTimeAddress())\n      mstore(0x40, 0x80)\n      jumpi(tag_1, lt(calldatasize, 0x04))\n      shr(0xe0, calldataload(0x00))\n      dup1\n      0x1e5f34af\n      eq\n      tag_2\n      jumpi\n      dup1\n      0x21c60ac6\n      eq\n      tag_3\n      jumpi\n      dup1\n      0xbb4e3f4d\n      eq\n      tag_4\n      jumpi\n      dup1\n      0xe51a3b40\n      eq\n      tag_5\n      jumpi\n    tag_1:\n      0x00\n      dup1\n      revert\n        /* \"contracts/Practice.sol\":1584:1666  function sub(uint8 a,uint8 b) public pure returns(uint){... */\n    tag_2:\n      tag_6\n      0x04\n      dup1\n      calldatasize\n      sub\n      dup2\n      add\n      swap1\n      tag_7\n      swap2\n      swap1\n      tag_8\n      jump\t// in\n    tag_7:\n      tag_9\n      jump\t// in\n    tag_6:\n      mload(0x40)\n      tag_10\n      swap2\n      swap1\n      tag_11\n      jump\t// in\n    tag_10:\n      mload(0x40)\n      dup1\n      swap2\n      sub\n      swap1\n      return\n        /* \"contracts/Practice.sol\":1762:1844  function div(uint8 a,uint8 b) public pure returns(uint){... */\n    tag_3:\n      tag_12\n      0x04\n      dup1\n      calldatasize\n      sub\n      dup2\n      add\n      swap1\n      tag_13\n      swap2\n      swap1\n      tag_8\n      jump\t// in\n    tag_13:\n      tag_14\n      jump\t// in\n    tag_12:\n      mload(0x40)\n      tag_15\n      swap2\n      swap1\n      tag_11\n      jump\t// in\n    tag_15:\n      mload(0x40)\n      dup1\n      swap2\n      sub\n      swap1\n      return\n        /* \"contracts/Practice.sol\":1495:1577  function add(uint8 a,uint8 b) public pure returns(uint){... */\n    tag_4:\n      tag_16\n      0x04\n      dup1\n      calldatasize\n      sub\n      dup2\n      add\n      swap1\n      tag_17\n      swap2\n      swap1\n      tag_8\n      jump\t// in\n    tag_17:\n      tag_18\n      jump\t// in\n    tag_16:\n      mload(0x40)\n      tag_19\n      swap2\n      swap1\n      tag_11\n      jump\t// in\n    tag_19:\n      mload(0x40)\n      dup1\n      swap2\n      sub\n      swap1\n      return\n        /* \"contracts/Practice.sol\":1673:1755  function mul(uint8 a,uint8 b) public pure returns(uint){... */\n    tag_5:\n      tag_20\n      0x04\n      dup1\n      calldatasize\n      sub\n      dup2\n      add\n      swap1\n      tag_21\n      swap2\n      swap1\n      tag_8\n      jump\t// in\n    tag_21:\n      tag_22\n      jump\t// in\n    tag_20:\n      mload(0x40)\n      tag_23\n      swap2\n      swap1\n      tag_11\n      jump\t// in\n    tag_23:\n      mload(0x40)\n      dup1\n      swap2\n      sub\n      swap1\n      return\n        /* \"contracts/Practice.sol\":1584:1666  function sub(uint8 a,uint8 b) public pure returns(uint){... */\n    tag_9:\n        /* \"contracts/Practice.sol\":1634:1638  uint */\n      0x00\n        /* \"contracts/Practice.sol\":1658:1659  b */\n      dup2\n        /* \"contracts/Practice.sol\":1656:1657  a */\n      dup4\n        /* \"contracts/Practice.sol\":1656:1659  a-b */\n      tag_25\n      swap2\n      swap1\n      tag_26\n      jump\t// in\n    tag_25:\n        /* \"contracts/Practice.sol\":1649:1659  return a-b */\n      0xff\n      and\n      swap1\n      pop\n        /* \"contracts/Practice.sol\":1584:1666  function sub(uint8 a,uint8 b) public pure returns(uint){... */\n      swap3\n      swap2\n      pop\n      pop\n      jump\t// out\n        /* \"contracts/Practice.sol\":1762:1844  function div(uint8 a,uint8 b) public pure returns(uint){... */\n    tag_14:\n        /* \"contracts/Practice.sol\":1812:1816  uint */\n      0x00\n        /* \"contracts/Practice.sol\":1836:1837  b */\n      dup2\n        /* \"contracts/Practice.sol\":1834:1835  a */\n      dup4\n        /* \"contracts/Practice.sol\":1834:1837  a/b */\n      tag_28\n      swap2\n      swap1\n      tag_29\n      jump\t// in\n    tag_28:\n        /* \"contracts/Practice.sol\":1827:1837  return a/b */\n      0xff\n      and\n      swap1\n      pop\n        /* \"contracts/Practice.sol\":1762:1844  function div(uint8 a,uint8 b) public pure returns(uint){... */\n      swap3\n      swap2\n      pop\n      pop\n      jump\t// out\n        /* \"contracts/Practice.sol\":1495:1577  function add(uint8 a,uint8 b) public pure returns(uint){... */\n    tag_18:\n        /* \"contracts/Practice.sol\":1545:1549  uint */\n      0x00\n        /* \"contracts/Practice.sol\":1569:1570  b */\n      dup2\n        /* \"contracts/Practice.sol\":1567:1568  a */\n      dup4\n        /* \"contracts/Practice.sol\":1567:1570  a+b */\n      tag_31\n      swap2\n      swap1\n      tag_32\n      jump\t// in\n    tag_31:\n        /* \"contracts/Practice.sol\":1560:1570  return a+b */\n      0xff\n      and\n      swap1\n      pop\n        /* \"contracts/Practice.sol\":1495:1577  function add(uint8 a,uint8 b) public pure returns(uint){... */\n      swap3\n      swap2\n      pop\n      pop\n      jump\t// out\n        /* \"contracts/Practice.sol\":1673:1755  function mul(uint8 a,uint8 b) public pure returns(uint){... */\n    tag_22:\n        /* \"contracts/Practice.sol\":1723:1727  uint */\n      0x00\n        /* \"contracts/Practice.sol\":1747:1748  b */\n      dup2\n        /* \"contracts/Practice.sol\":1745:1746  a */\n      dup4\n        /* \"contracts/Practice.sol\":1745:1748  a*b */\n      tag_34\n      swap2\n      swap1\n      tag_35\n      jump\t// in\n    tag_34:\n        /* \"contracts/Practice.sol\":1738:1748  return a*b */\n      0xff\n      and\n      swap1\n      pop\n        /* \"contracts/Practice.sol\":1673:1755  function mul(uint8 a,uint8 b) public pure returns(uint){... */\n      swap3\n      swap2\n      pop\n      pop\n      jump\t// out\n        /* \"#utility.yul\":88:205   */\n    tag_37:\n        /* \"#utility.yul\":197:198   */\n      0x00\n        /* \"#utility.yul\":194:195   */\n      dup1\n        /* \"#utility.yul\":187:199   */\n      revert\n        /* \"#utility.yul\":334:420   */\n    tag_39:\n        /* \"#utility.yul\":369:376   */\n      0x00\n        /* \"#utility.yul\":409:413   */\n      0xff\n        /* \"#utility.yul\":402:407   */\n      dup3\n        /* \"#utility.yul\":398:414   */\n      and\n        /* \"#utility.yul\":387:414   */\n      swap1\n      pop\n        /* \"#utility.yul\":334:420   */\n      swap2\n      swap1\n      pop\n      jump\t// out\n        /* \"#utility.yul\":426:544   */\n    tag_40:\n        /* \"#utility.yul\":497:519   */\n      tag_52\n        /* \"#utility.yul\":513:518   */\n      dup2\n        /* \"#utility.yul\":497:519   */\n      tag_39\n      jump\t// in\n    tag_52:\n        /* \"#utility.yul\":490:495   */\n      dup2\n        /* \"#utility.yul\":487:520   */\n      eq\n        /* \"#utility.yul\":477:538   */\n      tag_53\n      jumpi\n        /* \"#utility.yul\":534:535   */\n      0x00\n        /* \"#utility.yul\":531:532   */\n      dup1\n        /* \"#utility.yul\":524:536   */\n      revert\n        /* \"#utility.yul\":477:538   */\n    tag_53:\n        /* \"#utility.yul\":426:544   */\n      pop\n      jump\t// out\n        /* \"#utility.yul\":550:685   */\n    tag_41:\n        /* \"#utility.yul\":594:599   */\n      0x00\n        /* \"#utility.yul\":632:638   */\n      dup2\n        /* \"#utility.yul\":619:639   */\n      calldataload\n        /* \"#utility.yul\":610:639   */\n      swap1\n      pop\n        /* \"#utility.yul\":648:679   */\n      tag_55\n        /* \"#utility.yul\":673:678   */\n      dup2\n        /* \"#utility.yul\":648:679   */\n      tag_40\n      jump\t// in\n    tag_55:\n        /* \"#utility.yul\":550:685   */\n      swap3\n      swap2\n      pop\n      pop\n      jump\t// out\n        /* \"#utility.yul\":691:1157   */\n    tag_8:\n        /* \"#utility.yul\":755:761   */\n      0x00\n        /* \"#utility.yul\":763:769   */\n      dup1\n        /* \"#utility.yul\":812:814   */\n      0x40\n        /* \"#utility.yul\":800:809   */\n      dup4\n        /* \"#utility.yul\":791:798   */\n      dup6\n        /* \"#utility.yul\":787:810   */\n      sub\n        /* \"#utility.yul\":783:815   */\n      slt\n        /* \"#utility.yul\":780:899   */\n      iszero\n      tag_57\n      jumpi\n        /* \"#utility.yul\":818:897   */\n      tag_58\n      tag_37\n      jump\t// in\n    tag_58:\n        /* \"#utility.yul\":780:899   */\n    tag_57:\n        /* \"#utility.yul\":938:939   */\n      0x00\n        /* \"#utility.yul\":963:1014   */\n      tag_59\n        /* \"#utility.yul\":1006:1013   */\n      dup6\n        /* \"#utility.yul\":997:1003   */\n      dup3\n        /* \"#utility.yul\":986:995   */\n      dup7\n        /* \"#utility.yul\":982:1004   */\n      add\n        /* \"#utility.yul\":963:1014   */\n      tag_41\n      jump\t// in\n    tag_59:\n        /* \"#utility.yul\":953:1014   */\n      swap3\n      pop\n        /* \"#utility.yul\":909:1024   */\n      pop\n        /* \"#utility.yul\":1063:1065   */\n      0x20\n        /* \"#utility.yul\":1089:1140   */\n      tag_60\n        /* \"#utility.yul\":1132:1139   */\n      dup6\n        /* \"#utility.yul\":1123:1129   */\n      dup3\n        /* \"#utility.yul\":1112:1121   */\n      dup7\n        /* \"#utility.yul\":1108:1130   */\n      add\n        /* \"#utility.yul\":1089:1140   */\n      tag_41\n      jump\t// in\n    tag_60:\n        /* \"#utility.yul\":1079:1140   */\n      swap2\n      pop\n        /* \"#utility.yul\":1034:1150   */\n      pop\n        /* \"#utility.yul\":691:1157   */\n      swap3\n      pop\n      swap3\n      swap1\n      pop\n      jump\t// out\n        /* \"#utility.yul\":1163:1240   */\n    tag_42:\n        /* \"#utility.yul\":1200:1207   */\n      0x00\n        /* \"#utility.yul\":1229:1234   */\n      dup2\n        /* \"#utility.yul\":1218:1234   */\n      swap1\n      pop\n        /* \"#utility.yul\":1163:1240   */\n      swap2\n      swap1\n      pop\n      jump\t// out\n        /* \"#utility.yul\":1246:1372   */\n    tag_43:\n        /* \"#utility.yul\":1341:1365   */\n      tag_63\n        /* \"#utility.yul\":1359:1364   */\n      dup2\n        /* \"#utility.yul\":1341:1365   */\n      tag_42\n      jump\t// in\n    tag_63:\n        /* \"#utility.yul\":1336:1339   */\n      dup3\n        /* \"#utility.yul\":1329:1366   */\n      mstore\n        /* \"#utility.yul\":1246:1372   */\n      pop\n      pop\n      jump\t// out\n        /* \"#utility.yul\":1378:1616   */\n    tag_11:\n        /* \"#utility.yul\":1479:1483   */\n      0x00\n        /* \"#utility.yul\":1517:1519   */\n      0x20\n        /* \"#utility.yul\":1506:1515   */\n      dup3\n        /* \"#utility.yul\":1502:1520   */\n      add\n        /* \"#utility.yul\":1494:1520   */\n      swap1\n      pop\n        /* \"#utility.yul\":1530:1609   */\n      tag_65\n        /* \"#utility.yul\":1606:1607   */\n      0x00\n        /* \"#utility.yul\":1595:1604   */\n      dup4\n        /* \"#utility.yul\":1591:1608   */\n      add\n        /* \"#utility.yul\":1582:1588   */\n      dup5\n        /* \"#utility.yul\":1530:1609   */\n      tag_43\n      jump\t// in\n    tag_65:\n        /* \"#utility.yul\":1378:1616   */\n      swap3\n      swap2\n      pop\n      pop\n      jump\t// out\n        /* \"#utility.yul\":1622:1802   */\n    tag_44:\n        /* \"#utility.yul\":1670:1747   */\n      0x4e487b7100000000000000000000000000000000000000000000000000000000\n        /* \"#utility.yul\":1667:1668   */\n      0x00\n        /* \"#utility.yul\":1660:1748   */\n      mstore\n        /* \"#utility.yul\":1767:1771   */\n      0x11\n        /* \"#utility.yul\":1764:1765   */\n      0x04\n        /* \"#utility.yul\":1757:1772   */\n      mstore\n        /* \"#utility.yul\":1791:1795   */\n      0x24\n        /* \"#utility.yul\":1788:1789   */\n      0x00\n        /* \"#utility.yul\":1781:1796   */\n      revert\n        /* \"#utility.yul\":1808:1999   */\n    tag_26:\n        /* \"#utility.yul\":1846:1850   */\n      0x00\n        /* \"#utility.yul\":1866:1884   */\n      tag_68\n        /* \"#utility.yul\":1882:1883   */\n      dup3\n        /* \"#utility.yul\":1866:1884   */\n      tag_39\n      jump\t// in\n    tag_68:\n        /* \"#utility.yul\":1861:1884   */\n      swap2\n      pop\n        /* \"#utility.yul\":1898:1916   */\n      tag_69\n        /* \"#utility.yul\":1914:1915   */\n      dup4\n        /* \"#utility.yul\":1898:1916   */\n      tag_39\n      jump\t// in\n    tag_69:\n        /* \"#utility.yul\":1893:1916   */\n      swap3\n      pop\n        /* \"#utility.yul\":1940:1941   */\n      dup3\n        /* \"#utility.yul\":1937:1938   */\n      dup3\n        /* \"#utility.yul\":1933:1942   */\n      sub\n        /* \"#utility.yul\":1925:1942   */\n      swap1\n      pop\n        /* \"#utility.yul\":1964:1968   */\n      0xff\n        /* \"#utility.yul\":1958:1962   */\n      dup2\n        /* \"#utility.yul\":1955:1969   */\n      gt\n        /* \"#utility.yul\":1952:1992   */\n      iszero\n      tag_70\n      jumpi\n        /* \"#utility.yul\":1972:1990   */\n      tag_71\n      tag_44\n      jump\t// in\n    tag_71:\n        /* \"#utility.yul\":1952:1992   */\n    tag_70:\n        /* \"#utility.yul\":1808:1999   */\n      swap3\n      swap2\n      pop\n      pop\n      jump\t// out\n        /* \"#utility.yul\":2005:2185   */\n    tag_45:\n        /* \"#utility.yul\":2053:2130   */\n      0x4e487b7100000000000000000000000000000000000000000000000000000000\n        /* \"#utility.yul\":2050:2051   */\n      0x00\n        /* \"#utility.yul\":2043:2131   */\n      mstore\n        /* \"#utility.yul\":2150:2154   */\n      0x12\n        /* \"#utility.yul\":2147:2148   */\n      0x04\n        /* \"#utility.yul\":2140:2155   */\n      mstore\n        /* \"#utility.yul\":2174:2178   */\n      0x24\n        /* \"#utility.yul\":2171:2172   */\n      0x00\n        /* \"#utility.yul\":2164:2179   */\n      revert\n        /* \"#utility.yul\":2191:2370   */\n    tag_29:\n        /* \"#utility.yul\":2229:2230   */\n      0x00\n        /* \"#utility.yul\":2246:2264   */\n      tag_74\n        /* \"#utility.yul\":2262:2263   */\n      dup3\n        /* \"#utility.yul\":2246:2264   */\n      tag_39\n      jump\t// in\n    tag_74:\n        /* \"#utility.yul\":2241:2264   */\n      swap2\n      pop\n        /* \"#utility.yul\":2278:2296   */\n      tag_75\n        /* \"#utility.yul\":2294:2295   */\n      dup4\n        /* \"#utility.yul\":2278:2296   */\n      tag_39\n      jump\t// in\n    tag_75:\n        /* \"#utility.yul\":2273:2296   */\n      swap3\n      pop\n        /* \"#utility.yul\":2315:2316   */\n      dup3\n        /* \"#utility.yul\":2305:2340   */\n      tag_76\n      jumpi\n        /* \"#utility.yul\":2320:2338   */\n      tag_77\n      tag_45\n      jump\t// in\n    tag_77:\n        /* \"#utility.yul\":2305:2340   */\n    tag_76:\n        /* \"#utility.yul\":2362:2363   */\n      dup3\n        /* \"#utility.yul\":2359:2360   */\n      dup3\n        /* \"#utility.yul\":2355:2364   */\n      div\n        /* \"#utility.yul\":2350:2364   */\n      swap1\n      pop\n        /* \"#utility.yul\":2191:2370   */\n      swap3\n      swap2\n      pop\n      pop\n      jump\t// out\n        /* \"#utility.yul\":2376:2564   */\n    tag_32:\n        /* \"#utility.yul\":2414:2417   */\n      0x00\n        /* \"#utility.yul\":2433:2451   */\n      tag_79\n        /* \"#utility.yul\":2449:2450   */\n      dup3\n        /* \"#utility.yul\":2433:2451   */\n      tag_39\n      jump\t// in\n    tag_79:\n        /* \"#utility.yul\":2428:2451   */\n      swap2\n      pop\n        /* \"#utility.yul\":2465:2483   */\n      tag_80\n        /* \"#utility.yul\":2481:2482   */\n      dup4\n        /* \"#utility.yul\":2465:2483   */\n      tag_39\n      jump\t// in\n    tag_80:\n        /* \"#utility.yul\":2460:2483   */\n      swap3\n      pop\n        /* \"#utility.yul\":2506:2507   */\n      dup3\n        /* \"#utility.yul\":2503:2504   */\n      dup3\n        /* \"#utility.yul\":2499:2508   */\n      add\n        /* \"#utility.yul\":2492:2508   */\n      swap1\n      pop\n        /* \"#utility.yul\":2529:2533   */\n      0xff\n        /* \"#utility.yul\":2524:2527   */\n      dup2\n        /* \"#utility.yul\":2521:2534   */\n      gt\n        /* \"#utility.yul\":2518:2557   */\n      iszero\n      tag_81\n      jumpi\n        /* \"#utility.yul\":2537:2555   */\n      tag_82\n      tag_44\n      jump\t// in\n    tag_82:\n        /* \"#utility.yul\":2518:2557   */\n    tag_81:\n        /* \"#utility.yul\":2376:2564   */\n      swap3\n      swap2\n      pop\n      pop\n      jump\t// out\n        /* \"#utility.yul\":2570:2841   */\n    tag_35:\n        /* \"#utility.yul\":2608:2615   */\n      0x00\n        /* \"#utility.yul\":2631:2649   */\n      tag_84\n        /* \"#utility.yul\":2647:2648   */\n      dup3\n        /* \"#utility.yul\":2631:2649   */\n      tag_39\n      jump\t// in\n    tag_84:\n        /* \"#utility.yul\":2626:2649   */\n      swap2\n      pop\n        /* \"#utility.yul\":2663:2681   */\n      tag_85\n        /* \"#utility.yul\":2679:2680   */\n      dup4\n        /* \"#utility.yul\":2663:2681   */\n      tag_39\n      jump\t// in\n    tag_85:\n        /* \"#utility.yul\":2658:2681   */\n      swap3\n      pop\n        /* \"#utility.yul\":2716:2717   */\n      dup3\n        /* \"#utility.yul\":2713:2714   */\n      dup3\n        /* \"#utility.yul\":2709:2718   */\n      mul\n        /* \"#utility.yul\":2738:2766   */\n      tag_86\n        /* \"#utility.yul\":2754:2765   */\n      dup2\n        /* \"#utility.yul\":2738:2766   */\n      tag_39\n      jump\t// in\n    tag_86:\n        /* \"#utility.yul\":2727:2766   */\n      swap2\n      pop\n        /* \"#utility.yul\":2798:2809   */\n      dup1\n        /* \"#utility.yul\":2789:2796   */\n      dup3\n        /* \"#utility.yul\":2786:2810   */\n      eq\n        /* \"#utility.yul\":2776:2834   */\n      tag_87\n      jumpi\n        /* \"#utility.yul\":2814:2832   */\n      tag_88\n      tag_44\n      jump\t// in\n    tag_88:\n        /* \"#utility.yul\":2776:2834   */\n    tag_87:\n        /* \"#utility.yul\":2616:2841   */\n      pop\n        /* \"#utility.yul\":2570:2841   */\n      swap3\n      swap2\n      pop\n      pop\n      jump\t// out\n\n    auxdata: 0xa26469706673582212202fcf1fbc2d3daaa3d9d09f1adcb9305822b0af7c913f48ca88eb6013ff286b5c64736f6c63430008120033\n}\n",
				"bytecode": {
					"linkReferences": {},
					"object": "61039d610053600b82828239805160001a607314610046577f4e487b7100000000000000000000000000000000000000000000000000000000600052600060045260246000fd5b30600052607381538281f3fe73000000000000000000000000000000000000000030146080604052600436106100565760003560e01c80631e5f34af1461005b57806321c60ac61461008b578063bb4e3f4d146100bb578063e51a3b40146100eb575b600080fd5b610075600480360381019061007091906101bd565b61011b565b6040516100829190610216565b60405180910390f35b6100a560048036038101906100a091906101bd565b610134565b6040516100b29190610216565b60405180910390f35b6100d560048036038101906100d091906101bd565b61014d565b6040516100e29190610216565b60405180910390f35b610105600480360381019061010091906101bd565b610166565b6040516101129190610216565b60405180910390f35b600081836101299190610260565b60ff16905092915050565b6000818361014291906102c4565b60ff16905092915050565b6000818361015b91906102f5565b60ff16905092915050565b60008183610174919061032a565b60ff16905092915050565b600080fd5b600060ff82169050919050565b61019a81610184565b81146101a557600080fd5b50565b6000813590506101b781610191565b92915050565b600080604083850312156101d4576101d361017f565b5b60006101e2858286016101a8565b92505060206101f3858286016101a8565b9150509250929050565b6000819050919050565b610210816101fd565b82525050565b600060208201905061022b6000830184610207565b92915050565b7f4e487b7100000000000000000000000000000000000000000000000000000000600052601160045260246000fd5b600061026b82610184565b915061027683610184565b9250828203905060ff81111561028f5761028e610231565b5b92915050565b7f4e487b7100000000000000000000000000000000000000000000000000000000600052601260045260246000fd5b60006102cf82610184565b91506102da83610184565b9250826102ea576102e9610295565b5b828204905092915050565b600061030082610184565b915061030b83610184565b9250828201905060ff81111561032457610323610231565b5b92915050565b600061033582610184565b915061034083610184565b925082820261034e81610184565b91508082146103605761035f610231565b5b509291505056fea26469706673582212202fcf1fbc2d3daaa3d9d09f1adcb9305822b0af7c913f48ca88eb6013ff286b5c64736f6c63430008120033",
					"opcodes": "PUSH2 0x39D PUSH2 0x53 PUSH1 0xB DUP3 DUP3 DUP3 CODECOPY DUP1 MLOAD PUSH1 0x0 BYTE PUSH1 0x73 EQ PUSH2 0x46 JUMPI PUSH32 0x4E487B7100000000000000000000000000000000000000000000000000000000 PUSH1 0x0 MSTORE PUSH1 0x0 PUSH1 0x4 MSTORE PUSH1 0x24 PUSH1 0x0 REVERT JUMPDEST ADDRESS PUSH1 0x0 MSTORE PUSH1 0x73 DUP2 MSTORE8 DUP3 DUP2 RETURN INVALID PUSH20 0x0 ADDRESS EQ PUSH1 0x80 PUSH1 0x40 MSTORE PUSH1 0x4 CALLDATASIZE LT PUSH2 0x56 JUMPI PUSH1 0x0 CALLDATALOAD PUSH1 0xE0 SHR DUP1 PUSH4 0x1E5F34AF EQ PUSH2 0x5B JUMPI DUP1 PUSH4 0x21C60AC6 EQ PUSH2 0x8B JUMPI DUP1 PUSH4 0xBB4E3F4D EQ PUSH2 0xBB JUMPI DUP1 PUSH4 0xE51A3B40 EQ PUSH2 0xEB JUMPI JUMPDEST PUSH1 0x0 DUP1 REVERT JUMPDEST PUSH2 0x75 PUSH1 0x4 DUP1 CALLDATASIZE SUB DUP2 ADD SWAP1 PUSH2 0x70 SWAP2 SWAP1 PUSH2 0x1BD JUMP JUMPDEST PUSH2 0x11B JUMP JUMPDEST PUSH1 0x40 MLOAD PUSH2 0x82 SWAP2 SWAP1 PUSH2 0x216 JUMP JUMPDEST PUSH1 0x40 MLOAD DUP1 SWAP2 SUB SWAP1 RETURN JUMPDEST PUSH2 0xA5 PUSH1 0x4 DUP1 CALLDATASIZE SUB DUP2 ADD SWAP1 PUSH2 0xA0 SWAP2 SWAP1 PUSH2 0x1BD JUMP JUMPDEST PUSH2 0x134 JUMP JUMPDEST PUSH1 0x40 MLOAD PUSH2 0xB2 SWAP2 SWAP1 PUSH2 0x216 JUMP JUMPDEST PUSH1 0x40 MLOAD DUP1 SWAP2 SUB SWAP1 RETURN JUMPDEST PUSH2 0xD5 PUSH1 0x4 DUP1 CALLDATASIZE SUB DUP2 ADD SWAP1 PUSH2 0xD0 SWAP2 SWAP1 PUSH2 0x1BD JUMP JUMPDEST PUSH2 0x14D JUMP JUMPDEST PUSH1 0x40 MLOAD PUSH2 0xE2 SWAP2 SWAP1 PUSH2 0x216 JUMP JUMPDEST PUSH1 0x40 MLOAD DUP1 SWAP2 SUB SWAP1 RETURN JUMPDEST PUSH2 0x105 PUSH1 0x4 DUP1 CALLDATASIZE SUB DUP2 ADD SWAP1 PUSH2 0x100 SWAP2 SWAP1 PUSH2 0x1BD JUMP JUMPDEST PUSH2 0x166 JUMP JUMPDEST PUSH1 0x40 MLOAD PUSH2 0x112 SWAP2 SWAP1 PUSH2 0x216 JUMP JUMPDEST PUSH1 0x40 MLOAD DUP1 SWAP2 SUB SWAP1 RETURN JUMPDEST PUSH1 0x0 DUP2 DUP4 PUSH2 0x129 SWAP2 SWAP1 PUSH2 0x260 JUMP JUMPDEST PUSH1 0xFF AND SWAP1 POP SWAP3 SWAP2 POP POP JUMP JUMPDEST PUSH1 0x0 DUP2 DUP4 PUSH2 0x142 SWAP2 SWAP1 PUSH2 0x2C4 JUMP JUMPDEST PUSH1 0xFF AND SWAP1 POP SWAP3 SWAP2 POP POP JUMP JUMPDEST PUSH1 0x0 DUP2 DUP4 PUSH2 0x15B SWAP2 SWAP1 PUSH2 0x2F5 JUMP JUMPDEST PUSH1 0xFF AND SWAP1 POP SWAP3 SWAP2 POP POP JUMP JUMPDEST PUSH1 0x0 DUP2 DUP4 PUSH2 0x174 SWAP2 SWAP1 PUSH2 0x32A JUMP JUMPDEST PUSH1 0xFF AND SWAP1 POP SWAP3 SWAP2 POP POP JUMP JUMPDEST PUSH1 0x0 DUP1 REVERT JUMPDEST PUSH1 0x0 PUSH1 0xFF DUP3 AND SWAP1 POP SWAP2 SWAP1 POP JUMP JUMPDEST PUSH2 0x19A DUP2 PUSH2 0x184 JUMP JUMPDEST DUP2 EQ PUSH2 0x1A5 JUMPI PUSH1 0x0 DUP1 REVERT JUMPDEST POP JUMP JUMPDEST PUSH1 0x0 DUP2 CALLDATALOAD SWAP1 POP PUSH2 0x1B7 DUP2 PUSH2 0x191 JUMP JUMPDEST SWAP3 SWAP2 POP POP JUMP JUMPDEST PUSH1 0x0 DUP1 PUSH1 0x40 DUP4 DUP6 SUB SLT ISZERO PUSH2 0x1D4 JUMPI PUSH2 0x1D3 PUSH2 0x17F JUMP JUMPDEST JUMPDEST PUSH1 0x0 PUSH2 0x1E2 DUP6 DUP3 DUP7 ADD PUSH2 0x1A8 JUMP JUMPDEST SWAP3 POP POP PUSH1 0x20 PUSH2 0x1F3 DUP6 DUP3 DUP7 ADD PUSH2 0x1A8 JUMP JUMPDEST SWAP2 POP POP SWAP3 POP SWAP3 SWAP1 POP JUMP JUMPDEST PUSH1 0x0 DUP2 SWAP1 POP SWAP2 SWAP1 POP JUMP JUMPDEST PUSH2 0x210 DUP2 PUSH2 0x1FD JUMP JUMPDEST DUP3 MSTORE POP POP JUMP JUMPDEST PUSH1 0x0 PUSH1 0x20 DUP3 ADD SWAP1 POP PUSH2 0x22B PUSH1 0x0 DUP4 ADD DUP5 PUSH2 0x207 JUMP JUMPDEST SWAP3 SWAP2 POP POP JUMP JUMPDEST PUSH32 0x4E487B7100000000000000000000000000000000000000000000000000000000 PUSH1 0x0 MSTORE PUSH1 0x11 PUSH1 0x4 MSTORE PUSH1 0x24 PUSH1 0x0 REVERT JUMPDEST PUSH1 0x0 PUSH2 0x26B DUP3 PUSH2 0x184 JUMP JUMPDEST SWAP2 POP PUSH2 0x276 DUP4 PUSH2 0x184 JUMP JUMPDEST SWAP3 POP DUP3 DUP3 SUB SWAP1 POP PUSH1 0xFF DUP2 GT ISZERO PUSH2 0x28F JUMPI PUSH2 0x28E PUSH2 0x231 JUMP JUMPDEST JUMPDEST SWAP3 SWAP2 POP POP JUMP JUMPDEST PUSH32 0x4E487B7100000000000000000000000000000000000000000000000000000000 PUSH1 0x0 MSTORE PUSH1 0x12 PUSH1 0x4 MSTORE PUSH1 0x24 PUSH1 0x0 REVERT JUMPDEST PUSH1 0x0 PUSH2 0x2CF DUP3 PUSH2 0x184 JUMP JUMPDEST SWAP2 POP PUSH2 0x2DA DUP4 PUSH2 0x184 JUMP JUMPDEST SWAP3 POP DUP3 PUSH2 0x2EA JUMPI PUSH2 0x2E9 PUSH2 0x295 JUMP JUMPDEST JUMPDEST DUP3 DUP3 DIV SWAP1 POP SWAP3 SWAP2 POP POP JUMP JUMPDEST PUSH1 0x0 PUSH2 0x300 DUP3 PUSH2 0x184 JUMP JUMPDEST SWAP2 POP PUSH2 0x30B DUP4 PUSH2 0x184 JUMP JUMPDEST SWAP3 POP DUP3 DUP3 ADD SWAP1 POP PUSH1 0xFF DUP2 GT ISZERO PUSH2 0x324 JUMPI PUSH2 0x323 PUSH2 0x231 JUMP JUMPDEST JUMPDEST SWAP3 SWAP2 POP POP JUMP JUMPDEST PUSH1 0x0 PUSH2 0x335 DUP3 PUSH2 0x184 JUMP JUMPDEST SWAP2 POP PUSH2 0x340 DUP4 PUSH2 0x184 JUMP JUMPDEST SWAP3 POP DUP3 DUP3 MUL PUSH2 0x34E DUP2 PUSH2 0x184 JUMP JUMPDEST SWAP2 POP DUP1 DUP3 EQ PUSH2 0x360 JUMPI PUSH2 0x35F PUSH2 0x231 JUMP JUMPDEST JUMPDEST POP SWAP3 SWAP2 POP POP JUMP INVALID LOG2 PUSH5 0x6970667358 0x22 SLT KECCAK256 0x2F 0xCF 0x1F 0xBC 0x2D RETURNDATASIZE 0xAA LOG3 0xD9 0xD0 SWAP16 BYTE 0xDC 0xB9 ADDRESS PC 0x22 0xB0 0xAF PUSH29 0x913F48CA88EB6013FF286B5C64736F6C63430008120033000000000000 "
				},
				"gasEstimates": {
					"creation": {
						"codeDepositCost": "185000",
						"executionCost": "254",
						"totalCost": "185254"
					},
					"external": {
						"add(uint8,uint8)": "infinite",
						"div(uint8,uint8)": "infinite",
						"mul(uint8,uint8)": "infinite",
						"sub(uint8,uint8)": "infinite"
					}
				},
				"methodIdentifiers": {
					"add(uint8,uint8)": "bb4e3f4d",
					"div(uint8,uint8)": "21c60ac6",
					"mul(uint8,uint8)": "e51a3b40",
					"sub(uint8,uint8)": "1e5f34af"
				}
			},
			"storageLayout": {
				"storage": [],
				"types": null
			},
			"userdoc": {
				"kind": "user",
				"methods": {},
				"version": 1
			}
		}
	}
}