{
	"data": {
		"bytecode": {
			"linkReferences": {},
			"object": "608060405234801561001057600080fd5b506103f1806100206000396000f3fe608060405234801561001057600080fd5b50600436106100365760003560e01c806328b5e32b1461003b578063448f30a314610045575b600080fd5b61004361004f565b005b61004d610059565b005b610057610063565b565b6100616100a2565b565b7f56c05551327a2c059b3cafdf953d0582bf2dd46829734b0369bb5e1398b52a8b604051610090906101eb565b60405180910390a16100a06100e1565b565b7f56c05551327a2c059b3cafdf953d0582bf2dd46829734b0369bb5e1398b52a8b6040516100cf90610257565b60405180910390a16100df610118565b565b7f56c05551327a2c059b3cafdf953d0582bf2dd46829734b0369bb5e1398b52a8b60405161010e906102c3565b60405180910390a1565b7f56c05551327a2c059b3cafdf953d0582bf2dd46829734b0369bb5e1398b52a8b6040516101459061032f565b60405180910390a1610155610157565b565b7f56c05551327a2c059b3cafdf953d0582bf2dd46829734b0369bb5e1398b52a8b6040516101849061039b565b60405180910390a1565b600082825260208201905092915050565b7f4772616e646661746865722063616c6c65642066726f6d204d6f746865720000600082015250565b60006101d5601e8361018e565b91506101e08261019f565b602082019050919050565b60006020820190508181036000830152610204816101c8565b9050919050565b7f4d6f746865722063616c6c656400000000000000000000000000000000000000600082015250565b6000610241600d8361018e565b915061024c8261020b565b602082019050919050565b6000602082019050818103600083015261027081610234565b9050919050565b7f4772616e64706172656e742063616c6c65640000000000000000000000000000600082015250565b60006102ad60128361018e565b91506102b882610277565b602082019050919050565b600060208201905081810360008301526102dc816102a0565b9050919050565b7f4661746865722063616c6c656400000000000000000000000000000000000000600082015250565b6000610319600d8361018e565b9150610324826102e3565b602082019050919050565b600060208201905081810360008301526103488161030c565b9050919050565b7f446f206e6f7468696e6700000000000000000000000000000000000000000000600082015250565b6000610385600a8361018e565b91506103908261034f565b602082019050919050565b600060208201905081810360008301526103b481610378565b905091905056fea2646970667358221220dccb24d7fed5f9489195cf65b10c3ba4b04c8c4507c50dc5f6b2a935b96d0ced64736f6c63430008120033",
			"opcodes": "PUSH1 0x80 PUSH1 0x40 MSTORE CALLVALUE DUP1 ISZERO PUSH2 0x10 JUMPI PUSH1 0x0 DUP1 REVERT JUMPDEST POP PUSH2 0x3F1 DUP1 PUSH2 0x20 PUSH1 0x0 CODECOPY PUSH1 0x0 RETURN INVALID PUSH1 0x80 PUSH1 0x40 MSTORE CALLVALUE DUP1 ISZERO PUSH2 0x10 JUMPI PUSH1 0x0 DUP1 REVERT JUMPDEST POP PUSH1 0x4 CALLDATASIZE LT PUSH2 0x36 JUMPI PUSH1 0x0 CALLDATALOAD PUSH1 0xE0 SHR DUP1 PUSH4 0x28B5E32B EQ PUSH2 0x3B JUMPI DUP1 PUSH4 0x448F30A3 EQ PUSH2 0x45 JUMPI JUMPDEST PUSH1 0x0 DUP1 REVERT JUMPDEST PUSH2 0x43 PUSH2 0x4F JUMP JUMPDEST STOP JUMPDEST PUSH2 0x4D PUSH2 0x59 JUMP JUMPDEST STOP JUMPDEST PUSH2 0x57 PUSH2 0x63 JUMP JUMPDEST JUMP JUMPDEST PUSH2 0x61 PUSH2 0xA2 JUMP JUMPDEST JUMP JUMPDEST PUSH32 0x56C05551327A2C059B3CAFDF953D0582BF2DD46829734B0369BB5E1398B52A8B PUSH1 0x40 MLOAD PUSH2 0x90 SWAP1 PUSH2 0x1EB JUMP JUMPDEST PUSH1 0x40 MLOAD DUP1 SWAP2 SUB SWAP1 LOG1 PUSH2 0xA0 PUSH2 0xE1 JUMP JUMPDEST JUMP JUMPDEST PUSH32 0x56C05551327A2C059B3CAFDF953D0582BF2DD46829734B0369BB5E1398B52A8B PUSH1 0x40 MLOAD PUSH2 0xCF SWAP1 PUSH2 0x257 JUMP JUMPDEST PUSH1 0x40 MLOAD DUP1 SWAP2 SUB SWAP1 LOG1 PUSH2 0xDF PUSH2 0x118 JUMP JUMPDEST JUMP JUMPDEST PUSH32 0x56C05551327A2C059B3CAFDF953D0582BF2DD46829734B0369BB5E1398B52A8B PUSH1 0x40 MLOAD PUSH2 0x10E SWAP1 PUSH2 0x2C3 JUMP JUMPDEST PUSH1 0x40 MLOAD DUP1 SWAP2 SUB SWAP1 LOG1 JUMP JUMPDEST PUSH32 0x56C05551327A2C059B3CAFDF953D0582BF2DD46829734B0369BB5E1398B52A8B PUSH1 0x40 MLOAD PUSH2 0x145 SWAP1 PUSH2 0x32F JUMP JUMPDEST PUSH1 0x40 MLOAD DUP1 SWAP2 SUB SWAP1 LOG1 PUSH2 0x155 PUSH2 0x157 JUMP JUMPDEST JUMP JUMPDEST PUSH32 0x56C05551327A2C059B3CAFDF953D0582BF2DD46829734B0369BB5E1398B52A8B PUSH1 0x40 MLOAD PUSH2 0x184 SWAP1 PUSH2 0x39B JUMP JUMPDEST PUSH1 0x40 MLOAD DUP1 SWAP2 SUB SWAP1 LOG1 JUMP JUMPDEST PUSH1 0x0 DUP3 DUP3 MSTORE PUSH1 0x20 DUP3 ADD SWAP1 POP SWAP3 SWAP2 POP POP JUMP JUMPDEST PUSH32 0x4772616E646661746865722063616C6C65642066726F6D204D6F746865720000 PUSH1 0x0 DUP3 ADD MSTORE POP JUMP JUMPDEST PUSH1 0x0 PUSH2 0x1D5 PUSH1 0x1E DUP4 PUSH2 0x18E JUMP JUMPDEST SWAP2 POP PUSH2 0x1E0 DUP3 PUSH2 0x19F JUMP JUMPDEST PUSH1 0x20 DUP3 ADD SWAP1 POP SWAP2 SWAP1 POP JUMP JUMPDEST PUSH1 0x0 PUSH1 0x20 DUP3 ADD SWAP1 POP DUP2 DUP2 SUB PUSH1 0x0 DUP4 ADD MSTORE PUSH2 0x204 DUP2 PUSH2 0x1C8 JUMP JUMPDEST SWAP1 POP SWAP2 SWAP1 POP JUMP JUMPDEST PUSH32 0x4D6F746865722063616C6C656400000000000000000000000000000000000000 PUSH1 0x0 DUP3 ADD MSTORE POP JUMP JUMPDEST PUSH1 0x0 PUSH2 0x241 PUSH1 0xD DUP4 PUSH2 0x18E JUMP JUMPDEST SWAP2 POP PUSH2 0x24C DUP3 PUSH2 0x20B JUMP JUMPDEST PUSH1 0x20 DUP3 ADD SWAP1 POP SWAP2 SWAP1 POP JUMP JUMPDEST PUSH1 0x0 PUSH1 0x20 DUP3 ADD SWAP1 POP DUP2 DUP2 SUB PUSH1 0x0 DUP4 ADD MSTORE PUSH2 0x270 DUP2 PUSH2 0x234 JUMP JUMPDEST SWAP1 POP SWAP2 SWAP1 POP JUMP JUMPDEST PUSH32 0x4772616E64706172656E742063616C6C65640000000000000000000000000000 PUSH1 0x0 DUP3 ADD MSTORE POP JUMP JUMPDEST PUSH1 0x0 PUSH2 0x2AD PUSH1 0x12 DUP4 PUSH2 0x18E JUMP JUMPDEST SWAP2 POP PUSH2 0x2B8 DUP3 PUSH2 0x277 JUMP JUMPDEST PUSH1 0x20 DUP3 ADD SWAP1 POP SWAP2 SWAP1 POP JUMP JUMPDEST PUSH1 0x0 PUSH1 0x20 DUP3 ADD SWAP1 POP DUP2 DUP2 SUB PUSH1 0x0 DUP4 ADD MSTORE PUSH2 0x2DC DUP2 PUSH2 0x2A0 JUMP JUMPDEST SWAP1 POP SWAP2 SWAP1 POP JUMP JUMPDEST PUSH32 0x4661746865722063616C6C656400000000000000000000000000000000000000 PUSH1 0x0 DUP3 ADD MSTORE POP JUMP JUMPDEST PUSH1 0x0 PUSH2 0x319 PUSH1 0xD DUP4 PUSH2 0x18E JUMP JUMPDEST SWAP2 POP PUSH2 0x324 DUP3 PUSH2 0x2E3 JUMP JUMPDEST PUSH1 0x20 DUP3 ADD SWAP1 POP SWAP2 SWAP1 POP JUMP JUMPDEST PUSH1 0x0 PUSH1 0x20 DUP3 ADD SWAP1 POP DUP2 DUP2 SUB PUSH1 0x0 DUP4 ADD MSTORE PUSH2 0x348 DUP2 PUSH2 0x30C JUMP JUMPDEST SWAP1 POP SWAP2 SWAP1 POP JUMP JUMPDEST PUSH32 0x446F206E6F7468696E6700000000000000000000000000000000000000000000 PUSH1 0x0 DUP3 ADD MSTORE POP JUMP JUMPDEST PUSH1 0x0 PUSH2 0x385 PUSH1 0xA DUP4 PUSH2 0x18E JUMP JUMPDEST SWAP2 POP PUSH2 0x390 DUP3 PUSH2 0x34F JUMP JUMPDEST PUSH1 0x20 DUP3 ADD SWAP1 POP SWAP2 SWAP1 POP JUMP JUMPDEST PUSH1 0x0 PUSH1 0x20 DUP3 ADD SWAP1 POP DUP2 DUP2 SUB PUSH1 0x0 DUP4 ADD MSTORE PUSH2 0x3B4 DUP2 PUSH2 0x378 JUMP JUMPDEST SWAP1 POP SWAP2 SWAP1 POP JUMP INVALID LOG2 PUSH5 0x6970667358 0x22 SLT KECCAK256 0xDC 0xCB 0x24 0xD7 INVALID 0xD5 0xF9 BASEFEE SWAP2 SWAP6 0xCF PUSH6 0xB10C3BA4B04C DUP13 GASLIMIT SMOD 0xC5 0xD 0xC5 0xF6 0xB2 0xA9 CALLDATALOAD 0xB9 PUSH14 0xCED64736F6C6343000812003300 "
		},
		"gasEstimates": {
			"creation": {
				"codeDepositCost": "201800",
				"executionCost": "245",
				"totalCost": "202045"
			},
			"external": {
				"call()": "infinite",
				"nothing()": "infinite"
			}
		},
		"methodIdentifiers": {
			"call()": "28b5e32b",
			"nothing()": "448f30a3"
		}
	},
	"abi": [
		{
			"anonymous": false,
			"inputs": [
				{
					"indexed": false,
					"internalType": "string",
					"name": "msg",
					"type": "string"
				}
			],
			"name": "familytree",
			"type": "event"
		},
		{
			"inputs": [],
			"name": "call",
			"outputs": [],
			"stateMutability": "nonpayable",
			"type": "function"
		},
		{
			"inputs": [],
			"name": "nothing",
			"outputs": [],
			"stateMutability": "nonpayable",
			"type": "function"
		}
	]
}